{
	"contracts/twitter/Profile.sol": {
		"Profile": {
			"abi": [
				{
					"inputs": [
						{
							"internalType": "address",
							"name": "_user",
							"type": "address"
						}
					],
					"name": "getProfile",
					"outputs": [
						{
							"components": [
								{
									"internalType": "string",
									"name": "displayName",
									"type": "string"
								},
								{
									"internalType": "string",
									"name": "bio",
									"type": "string"
								}
							],
							"internalType": "struct Profile.UserProfile",
							"name": "",
							"type": "tuple"
						}
					],
					"stateMutability": "view",
					"type": "function"
				},
				{
					"inputs": [
						{
							"internalType": "address",
							"name": "",
							"type": "address"
						}
					],
					"name": "profiles",
					"outputs": [
						{
							"internalType": "string",
							"name": "displayName",
							"type": "string"
						},
						{
							"internalType": "string",
							"name": "bio",
							"type": "string"
						}
					],
					"stateMutability": "view",
					"type": "function"
				},
				{
					"inputs": [
						{
							"internalType": "address",
							"name": "user",
							"type": "address"
						},
						{
							"internalType": "string",
							"name": "_displayName",
							"type": "string"
						},
						{
							"internalType": "string",
							"name": "_bio",
							"type": "string"
						}
					],
					"name": "setProfile",
					"outputs": [],
					"stateMutability": "nonpayable",
					"type": "function"
				}
			],
			"devdoc": {
				"kind": "dev",
				"methods": {},
				"version": 1
			},
			"evm": {
				"assembly": "    /* \"contracts/twitter/Profile.sol\":194:647  contract Profile {... */\n  mstore(0x40, 0x80)\n  callvalue\n  dup1\n  iszero\n  tag_1\n  jumpi\n  0x00\n  dup1\n  revert\ntag_1:\n  pop\n  dataSize(sub_0)\n  dup1\n  dataOffset(sub_0)\n  0x00\n  codecopy\n  0x00\n  return\nstop\n\nsub_0: assembly {\n        /* \"contracts/twitter/Profile.sol\":194:647  contract Profile {... */\n      mstore(0x40, 0x80)\n      callvalue\n      dup1\n      iszero\n      tag_1\n      jumpi\n      0x00\n      dup1\n      revert\n    tag_1:\n      pop\n      jumpi(tag_2, lt(calldatasize, 0x04))\n      shr(0xe0, calldataload(0x00))\n      dup1\n      0x0f53a470\n      eq\n      tag_3\n      jumpi\n      dup1\n      0x2ee27f99\n      eq\n      tag_4\n      jumpi\n      dup1\n      0xbbe15627\n      eq\n      tag_5\n      jumpi\n    tag_2:\n      0x00\n      dup1\n      revert\n        /* \"contracts/twitter/Profile.sol\":527:644  function getProfile(address _user) public view returns (UserProfile memory) {... */\n    tag_3:\n      tag_6\n      0x04\n      dup1\n      calldatasize\n      sub\n      dup2\n      add\n      swap1\n      tag_7\n      swap2\n      swap1\n      tag_8\n      jump\t// in\n    tag_7:\n      tag_9\n      jump\t// in\n    tag_6:\n      mload(0x40)\n      tag_10\n      swap2\n      swap1\n      tag_11\n      jump\t// in\n    tag_10:\n      mload(0x40)\n      dup1\n      swap2\n      sub\n      swap1\n      return\n        /* \"contracts/twitter/Profile.sol\":363:519  function setProfile(address user, string memory _displayName, string memory _bio) public {... */\n    tag_4:\n      tag_12\n      0x04\n      dup1\n      calldatasize\n      sub\n      dup2\n      add\n      swap1\n      tag_13\n      swap2\n      swap1\n      tag_14\n      jump\t// in\n    tag_13:\n      tag_15\n      jump\t// in\n    tag_12:\n      stop\n        /* \"contracts/twitter/Profile.sol\":307:354  mapping(address => UserProfile) public profiles */\n    tag_5:\n      tag_16\n      0x04\n      dup1\n      calldatasize\n      sub\n      dup2\n      add\n      swap1\n      tag_17\n      swap2\n      swap1\n      tag_8\n      jump\t// in\n    tag_17:\n      tag_18\n      jump\t// in\n    tag_16:\n      mload(0x40)\n      tag_19\n      swap3\n      swap2\n      swap1\n      tag_20\n      jump\t// in\n    tag_19:\n      mload(0x40)\n      dup1\n      swap2\n      sub\n      swap1\n      return\n        /* \"contracts/twitter/Profile.sol\":527:644  function getProfile(address _user) public view returns (UserProfile memory) {... */\n    tag_9:\n        /* \"contracts/twitter/Profile.sol\":583:601  UserProfile memory */\n      tag_21\n      tag_22\n      jump\t// in\n    tag_21:\n        /* \"contracts/twitter/Profile.sol\":621:629  profiles */\n      0x00\n        /* \"contracts/twitter/Profile.sol\":621:636  profiles[_user] */\n      dup1\n        /* \"contracts/twitter/Profile.sol\":630:635  _user */\n      dup4\n        /* \"contracts/twitter/Profile.sol\":621:636  profiles[_user] */\n      0xffffffffffffffffffffffffffffffffffffffff\n      and\n      0xffffffffffffffffffffffffffffffffffffffff\n      and\n      dup2\n      mstore\n      0x20\n      add\n      swap1\n      dup2\n      mstore\n      0x20\n      add\n      0x00\n      keccak256\n        /* \"contracts/twitter/Profile.sol\":614:636  return profiles[_user] */\n      mload(0x40)\n      dup1\n      0x40\n      add\n      0x40\n      mstore\n      swap1\n      dup2\n      0x00\n      dup3\n      add\n      dup1\n      sload\n      tag_24\n      swap1\n      tag_25\n      jump\t// in\n    tag_24:\n      dup1\n      0x1f\n      add\n      0x20\n      dup1\n      swap2\n      div\n      mul\n      0x20\n      add\n      mload(0x40)\n      swap1\n      dup2\n      add\n      0x40\n      mstore\n      dup1\n      swap3\n      swap2\n      swap1\n      dup2\n      dup2\n      mstore\n      0x20\n      add\n      dup3\n      dup1\n      sload\n      tag_26\n      swap1\n      tag_25\n      jump\t// in\n    tag_26:\n      dup1\n      iszero\n      tag_27\n      jumpi\n      dup1\n      0x1f\n      lt\n      tag_28\n      jumpi\n      0x0100\n      dup1\n      dup4\n      sload\n      div\n      mul\n      dup4\n      mstore\n      swap2\n      0x20\n      add\n      swap2\n      jump(tag_27)\n    tag_28:\n      dup3\n      add\n      swap2\n      swap1\n      0x00\n      mstore\n      keccak256(0x00, 0x20)\n      swap1\n    tag_29:\n      dup2\n      sload\n      dup2\n      mstore\n      swap1\n      0x01\n      add\n      swap1\n      0x20\n      add\n      dup1\n      dup4\n      gt\n      tag_29\n      jumpi\n      dup3\n      swap1\n      sub\n      0x1f\n      and\n      dup3\n      add\n      swap2\n    tag_27:\n      pop\n      pop\n      pop\n      pop\n      pop\n      dup2\n      mstore\n      0x20\n      add\n      0x01\n      dup3\n      add\n      dup1\n      sload\n      tag_30\n      swap1\n      tag_25\n      jump\t// in\n    tag_30:\n      dup1\n      0x1f\n      add\n      0x20\n      dup1\n      swap2\n      div\n      mul\n      0x20\n      add\n      mload(0x40)\n      swap1\n      dup2\n      add\n      0x40\n      mstore\n      dup1\n      swap3\n      swap2\n      swap1\n      dup2\n      dup2\n      mstore\n      0x20\n      add\n      dup3\n      dup1\n      sload\n      tag_31\n      swap1\n      tag_25\n      jump\t// in\n    tag_31:\n      dup1\n      iszero\n      tag_32\n      jumpi\n      dup1\n      0x1f\n      lt\n      tag_33\n      jumpi\n      0x0100\n      dup1\n      dup4\n      sload\n      div\n      mul\n      dup4\n      mstore\n      swap2\n      0x20\n      add\n      swap2\n      jump(tag_32)\n    tag_33:\n      dup3\n      add\n      swap2\n      swap1\n      0x00\n      mstore\n      keccak256(0x00, 0x20)\n      swap1\n    tag_34:\n      dup2\n      sload\n      dup2\n      mstore\n      swap1\n      0x01\n      add\n      swap1\n      0x20\n      add\n      dup1\n      dup4\n      gt\n      tag_34\n      jumpi\n      dup3\n      swap1\n      sub\n      0x1f\n      and\n      dup3\n      add\n      swap2\n    tag_32:\n      pop\n      pop\n      pop\n      pop\n      pop\n      dup2\n      mstore\n      pop\n      pop\n      swap1\n      pop\n        /* \"contracts/twitter/Profile.sol\":527:644  function getProfile(address _user) public view returns (UserProfile memory) {... */\n      swap2\n      swap1\n      pop\n      jump\t// out\n        /* \"contracts/twitter/Profile.sol\":363:519  function setProfile(address user, string memory _displayName, string memory _bio) public {... */\n    tag_15:\n        /* \"contracts/twitter/Profile.sol\":480:511  UserProfile(_displayName, _bio) */\n      mload(0x40)\n      dup1\n      0x40\n      add\n      0x40\n      mstore\n      dup1\n        /* \"contracts/twitter/Profile.sol\":492:504  _displayName */\n      dup4\n        /* \"contracts/twitter/Profile.sol\":480:511  UserProfile(_displayName, _bio) */\n      dup2\n      mstore\n      0x20\n      add\n        /* \"contracts/twitter/Profile.sol\":506:510  _bio */\n      dup3\n        /* \"contracts/twitter/Profile.sol\":480:511  UserProfile(_displayName, _bio) */\n      dup2\n      mstore\n      pop\n        /* \"contracts/twitter/Profile.sol\":463:471  profiles */\n      0x00\n        /* \"contracts/twitter/Profile.sol\":463:477  profiles[user] */\n      dup1\n        /* \"contracts/twitter/Profile.sol\":472:476  user */\n      dup6\n        /* \"contracts/twitter/Profile.sol\":463:477  profiles[user] */\n      0xffffffffffffffffffffffffffffffffffffffff\n      and\n      0xffffffffffffffffffffffffffffffffffffffff\n      and\n      dup2\n      mstore\n      0x20\n      add\n      swap1\n      dup2\n      mstore\n      0x20\n      add\n      0x00\n      keccak256\n        /* \"contracts/twitter/Profile.sol\":463:511  profiles[user] = UserProfile(_displayName, _bio) */\n      0x00\n      dup3\n      add\n      mload\n      dup2\n      0x00\n      add\n      swap1\n      dup2\n      tag_36\n      swap2\n      swap1\n      tag_37\n      jump\t// in\n    tag_36:\n      pop\n      0x20\n      dup3\n      add\n      mload\n      dup2\n      0x01\n      add\n      swap1\n      dup2\n      tag_38\n      swap2\n      swap1\n      tag_37\n      jump\t// in\n    tag_38:\n      pop\n      swap1\n      pop\n      pop\n        /* \"contracts/twitter/Profile.sol\":363:519  function setProfile(address user, string memory _displayName, string memory _bio) public {... */\n      pop\n      pop\n      pop\n      jump\t// out\n        /* \"contracts/twitter/Profile.sol\":307:354  mapping(address => UserProfile) public profiles */\n    tag_18:\n      mstore(0x20, 0x00)\n      dup1\n      0x00\n      mstore\n      keccak256(0x00, 0x40)\n      0x00\n      swap2\n      pop\n      swap1\n      pop\n      dup1\n      0x00\n      add\n      dup1\n      sload\n      tag_39\n      swap1\n      tag_25\n      jump\t// in\n    tag_39:\n      dup1\n      0x1f\n      add\n      0x20\n      dup1\n      swap2\n      div\n      mul\n      0x20\n      add\n      mload(0x40)\n      swap1\n      dup2\n      add\n      0x40\n      mstore\n      dup1\n      swap3\n      swap2\n      swap1\n      dup2\n      dup2\n      mstore\n      0x20\n      add\n      dup3\n      dup1\n      sload\n      tag_40\n      swap1\n      tag_25\n      jump\t// in\n    tag_40:\n      dup1\n      iszero\n      tag_41\n      jumpi\n      dup1\n      0x1f\n      lt\n      tag_42\n      jumpi\n      0x0100\n      dup1\n      dup4\n      sload\n      div\n      mul\n      dup4\n      mstore\n      swap2\n      0x20\n      add\n      swap2\n      jump(tag_41)\n    tag_42:\n      dup3\n      add\n      swap2\n      swap1\n      0x00\n      mstore\n      keccak256(0x00, 0x20)\n      swap1\n    tag_43:\n      dup2\n      sload\n      dup2\n      mstore\n      swap1\n      0x01\n      add\n      swap1\n      0x20\n      add\n      dup1\n      dup4\n      gt\n      tag_43\n      jumpi\n      dup3\n      swap1\n      sub\n      0x1f\n      and\n      dup3\n      add\n      swap2\n    tag_41:\n      pop\n      pop\n      pop\n      pop\n      pop\n      swap1\n      dup1\n      0x01\n      add\n      dup1\n      sload\n      tag_44\n      swap1\n      tag_25\n      jump\t// in\n    tag_44:\n      dup1\n      0x1f\n      add\n      0x20\n      dup1\n      swap2\n      div\n      mul\n      0x20\n      add\n      mload(0x40)\n      swap1\n      dup2\n      add\n      0x40\n      mstore\n      dup1\n      swap3\n      swap2\n      swap1\n      dup2\n      dup2\n      mstore\n      0x20\n      add\n      dup3\n      dup1\n      sload\n      tag_45\n      swap1\n      tag_25\n      jump\t// in\n    tag_45:\n      dup1\n      iszero\n      tag_46\n      jumpi\n      dup1\n      0x1f\n      lt\n      tag_47\n      jumpi\n      0x0100\n      dup1\n      dup4\n      sload\n      div\n      mul\n      dup4\n      mstore\n      swap2\n      0x20\n      add\n      swap2\n      jump(tag_46)\n    tag_47:\n      dup3\n      add\n      swap2\n      swap1\n      0x00\n      mstore\n      keccak256(0x00, 0x20)\n      swap1\n    tag_48:\n      dup2\n      sload\n      dup2\n      mstore\n      swap1\n      0x01\n      add\n      swap1\n      0x20\n      add\n      dup1\n      dup4\n      gt\n      tag_48\n      jumpi\n      dup3\n      swap1\n      sub\n      0x1f\n      and\n      dup3\n      add\n      swap2\n    tag_46:\n      pop\n      pop\n      pop\n      pop\n      pop\n      swap1\n      pop\n      dup3\n      jump\t// out\n    tag_22:\n      mload(0x40)\n      dup1\n      0x40\n      add\n      0x40\n      mstore\n      dup1\n      0x60\n      dup2\n      mstore\n      0x20\n      add\n      0x60\n      dup2\n      mstore\n      pop\n      swap1\n      jump\t// out\n        /* \"#utility.yul\":7:82   */\n    tag_49:\n        /* \"#utility.yul\":40:46   */\n      0x00\n        /* \"#utility.yul\":73:75   */\n      0x40\n        /* \"#utility.yul\":67:76   */\n      mload\n        /* \"#utility.yul\":57:76   */\n      swap1\n      pop\n        /* \"#utility.yul\":7:82   */\n      swap1\n      jump\t// out\n        /* \"#utility.yul\":88:205   */\n    tag_50:\n        /* \"#utility.yul\":197:198   */\n      0x00\n        /* \"#utility.yul\":194:195   */\n      dup1\n        /* \"#utility.yul\":187:199   */\n      revert\n        /* \"#utility.yul\":211:328   */\n    tag_51:\n        /* \"#utility.yul\":320:321   */\n      0x00\n        /* \"#utility.yul\":317:318   */\n      dup1\n        /* \"#utility.yul\":310:322   */\n      revert\n        /* \"#utility.yul\":334:460   */\n    tag_52:\n        /* \"#utility.yul\":371:378   */\n      0x00\n        /* \"#utility.yul\":411:453   */\n      0xffffffffffffffffffffffffffffffffffffffff\n        /* \"#utility.yul\":404:409   */\n      dup3\n        /* \"#utility.yul\":400:454   */\n      and\n        /* \"#utility.yul\":389:454   */\n      swap1\n      pop\n        /* \"#utility.yul\":334:460   */\n      swap2\n      swap1\n      pop\n      jump\t// out\n        /* \"#utility.yul\":466:562   */\n    tag_53:\n        /* \"#utility.yul\":503:510   */\n      0x00\n        /* \"#utility.yul\":532:556   */\n      tag_96\n        /* \"#utility.yul\":550:555   */\n      dup3\n        /* \"#utility.yul\":532:556   */\n      tag_52\n      jump\t// in\n    tag_96:\n        /* \"#utility.yul\":521:556   */\n      swap1\n      pop\n        /* \"#utility.yul\":466:562   */\n      swap2\n      swap1\n      pop\n      jump\t// out\n        /* \"#utility.yul\":568:690   */\n    tag_54:\n        /* \"#utility.yul\":641:665   */\n      tag_98\n        /* \"#utility.yul\":659:664   */\n      dup2\n        /* \"#utility.yul\":641:665   */\n      tag_53\n      jump\t// in\n    tag_98:\n        /* \"#utility.yul\":634:639   */\n      dup2\n        /* \"#utility.yul\":631:666   */\n      eq\n        /* \"#utility.yul\":621:684   */\n      tag_99\n      jumpi\n        /* \"#utility.yul\":680:681   */\n      0x00\n        /* \"#utility.yul\":677:678   */\n      dup1\n        /* \"#utility.yul\":670:682   */\n      revert\n        /* \"#utility.yul\":621:684   */\n    tag_99:\n        /* \"#utility.yul\":568:690   */\n      pop\n      jump\t// out\n        /* \"#utility.yul\":696:835   */\n    tag_55:\n        /* \"#utility.yul\":742:747   */\n      0x00\n        /* \"#utility.yul\":780:786   */\n      dup2\n        /* \"#utility.yul\":767:787   */\n      calldataload\n        /* \"#utility.yul\":758:787   */\n      swap1\n      pop\n        /* \"#utility.yul\":796:829   */\n      tag_101\n        /* \"#utility.yul\":823:828   */\n      dup2\n        /* \"#utility.yul\":796:829   */\n      tag_54\n      jump\t// in\n    tag_101:\n        /* \"#utility.yul\":696:835   */\n      swap3\n      swap2\n      pop\n      pop\n      jump\t// out\n        /* \"#utility.yul\":841:1170   */\n    tag_8:\n        /* \"#utility.yul\":900:906   */\n      0x00\n        /* \"#utility.yul\":949:951   */\n      0x20\n        /* \"#utility.yul\":937:946   */\n      dup3\n        /* \"#utility.yul\":928:935   */\n      dup5\n        /* \"#utility.yul\":924:947   */\n      sub\n        /* \"#utility.yul\":920:952   */\n      slt\n        /* \"#utility.yul\":917:1036   */\n      iszero\n      tag_103\n      jumpi\n        /* \"#utility.yul\":955:1034   */\n      tag_104\n      tag_50\n      jump\t// in\n    tag_104:\n        /* \"#utility.yul\":917:1036   */\n    tag_103:\n        /* \"#utility.yul\":1075:1076   */\n      0x00\n        /* \"#utility.yul\":1100:1153   */\n      tag_105\n        /* \"#utility.yul\":1145:1152   */\n      dup5\n        /* \"#utility.yul\":1136:1142   */\n      dup3\n        /* \"#utility.yul\":1125:1134   */\n      dup6\n        /* \"#utility.yul\":1121:1143   */\n      add\n        /* \"#utility.yul\":1100:1153   */\n      tag_55\n      jump\t// in\n    tag_105:\n        /* \"#utility.yul\":1090:1153   */\n      swap2\n      pop\n        /* \"#utility.yul\":1046:1163   */\n      pop\n        /* \"#utility.yul\":841:1170   */\n      swap3\n      swap2\n      pop\n      pop\n      jump\t// out\n        /* \"#utility.yul\":1176:1275   */\n    tag_56:\n        /* \"#utility.yul\":1228:1234   */\n      0x00\n        /* \"#utility.yul\":1262:1267   */\n      dup2\n        /* \"#utility.yul\":1256:1268   */\n      mload\n        /* \"#utility.yul\":1246:1268   */\n      swap1\n      pop\n        /* \"#utility.yul\":1176:1275   */\n      swap2\n      swap1\n      pop\n      jump\t// out\n        /* \"#utility.yul\":1281:1440   */\n    tag_57:\n        /* \"#utility.yul\":1355:1366   */\n      0x00\n        /* \"#utility.yul\":1389:1395   */\n      dup3\n        /* \"#utility.yul\":1384:1387   */\n      dup3\n        /* \"#utility.yul\":1377:1396   */\n      mstore\n        /* \"#utility.yul\":1429:1433   */\n      0x20\n        /* \"#utility.yul\":1424:1427   */\n      dup3\n        /* \"#utility.yul\":1420:1434   */\n      add\n        /* \"#utility.yul\":1405:1434   */\n      swap1\n      pop\n        /* \"#utility.yul\":1281:1440   */\n      swap3\n      swap2\n      pop\n      pop\n      jump\t// out\n        /* \"#utility.yul\":1446:1585   */\n    tag_58:\n        /* \"#utility.yul\":1535:1541   */\n      dup3\n        /* \"#utility.yul\":1530:1533   */\n      dup2\n        /* \"#utility.yul\":1525:1528   */\n      dup4\n        /* \"#utility.yul\":1519:1542   */\n      mcopy\n        /* \"#utility.yul\":1576:1577   */\n      0x00\n        /* \"#utility.yul\":1567:1573   */\n      dup4\n        /* \"#utility.yul\":1562:1565   */\n      dup4\n        /* \"#utility.yul\":1558:1574   */\n      add\n        /* \"#utility.yul\":1551:1578   */\n      mstore\n        /* \"#utility.yul\":1446:1585   */\n      pop\n      pop\n      pop\n      jump\t// out\n        /* \"#utility.yul\":1591:1693   */\n    tag_59:\n        /* \"#utility.yul\":1632:1638   */\n      0x00\n        /* \"#utility.yul\":1683:1685   */\n      0x1f\n        /* \"#utility.yul\":1679:1686   */\n      not\n        /* \"#utility.yul\":1674:1676   */\n      0x1f\n        /* \"#utility.yul\":1667:1672   */\n      dup4\n        /* \"#utility.yul\":1663:1677   */\n      add\n        /* \"#utility.yul\":1659:1687   */\n      and\n        /* \"#utility.yul\":1649:1687   */\n      swap1\n      pop\n        /* \"#utility.yul\":1591:1693   */\n      swap2\n      swap1\n      pop\n      jump\t// out\n        /* \"#utility.yul\":1699:2056   */\n    tag_60:\n        /* \"#utility.yul\":1777:1780   */\n      0x00\n        /* \"#utility.yul\":1805:1844   */\n      tag_111\n        /* \"#utility.yul\":1838:1843   */\n      dup3\n        /* \"#utility.yul\":1805:1844   */\n      tag_56\n      jump\t// in\n    tag_111:\n        /* \"#utility.yul\":1860:1921   */\n      tag_112\n        /* \"#utility.yul\":1914:1920   */\n      dup2\n        /* \"#utility.yul\":1909:1912   */\n      dup6\n        /* \"#utility.yul\":1860:1921   */\n      tag_57\n      jump\t// in\n    tag_112:\n        /* \"#utility.yul\":1853:1921   */\n      swap4\n      pop\n        /* \"#utility.yul\":1930:1995   */\n      tag_113\n        /* \"#utility.yul\":1988:1994   */\n      dup2\n        /* \"#utility.yul\":1983:1986   */\n      dup6\n        /* \"#utility.yul\":1976:1980   */\n      0x20\n        /* \"#utility.yul\":1969:1974   */\n      dup7\n        /* \"#utility.yul\":1965:1981   */\n      add\n        /* \"#utility.yul\":1930:1995   */\n      tag_58\n      jump\t// in\n    tag_113:\n        /* \"#utility.yul\":2020:2049   */\n      tag_114\n        /* \"#utility.yul\":2042:2048   */\n      dup2\n        /* \"#utility.yul\":2020:2049   */\n      tag_59\n      jump\t// in\n    tag_114:\n        /* \"#utility.yul\":2015:2018   */\n      dup5\n        /* \"#utility.yul\":2011:2050   */\n      add\n        /* \"#utility.yul\":2004:2050   */\n      swap2\n      pop\n        /* \"#utility.yul\":1781:2056   */\n      pop\n        /* \"#utility.yul\":1699:2056   */\n      swap3\n      swap2\n      pop\n      pop\n      jump\t// out\n        /* \"#utility.yul\":2126:2811   */\n    tag_61:\n        /* \"#utility.yul\":2247:2250   */\n      0x00\n        /* \"#utility.yul\":2283:2287   */\n      0x40\n        /* \"#utility.yul\":2278:2281   */\n      dup4\n        /* \"#utility.yul\":2274:2288   */\n      add\n        /* \"#utility.yul\":2377:2381   */\n      0x00\n        /* \"#utility.yul\":2370:2375   */\n      dup4\n        /* \"#utility.yul\":2366:2382   */\n      add\n        /* \"#utility.yul\":2360:2383   */\n      mload\n        /* \"#utility.yul\":2430:2433   */\n      dup5\n        /* \"#utility.yul\":2424:2428   */\n      dup3\n        /* \"#utility.yul\":2420:2434   */\n      sub\n        /* \"#utility.yul\":2413:2417   */\n      0x00\n        /* \"#utility.yul\":2408:2411   */\n      dup7\n        /* \"#utility.yul\":2404:2418   */\n      add\n        /* \"#utility.yul\":2397:2435   */\n      mstore\n        /* \"#utility.yul\":2456:2529   */\n      tag_116\n        /* \"#utility.yul\":2524:2528   */\n      dup3\n        /* \"#utility.yul\":2510:2522   */\n      dup3\n        /* \"#utility.yul\":2456:2529   */\n      tag_60\n      jump\t// in\n    tag_116:\n        /* \"#utility.yul\":2448:2529   */\n      swap2\n      pop\n        /* \"#utility.yul\":2298:2540   */\n      pop\n        /* \"#utility.yul\":2621:2625   */\n      0x20\n        /* \"#utility.yul\":2614:2619   */\n      dup4\n        /* \"#utility.yul\":2610:2626   */\n      add\n        /* \"#utility.yul\":2604:2627   */\n      mload\n        /* \"#utility.yul\":2674:2677   */\n      dup5\n        /* \"#utility.yul\":2668:2672   */\n      dup3\n        /* \"#utility.yul\":2664:2678   */\n      sub\n        /* \"#utility.yul\":2657:2661   */\n      0x20\n        /* \"#utility.yul\":2652:2655   */\n      dup7\n        /* \"#utility.yul\":2648:2662   */\n      add\n        /* \"#utility.yul\":2641:2679   */\n      mstore\n        /* \"#utility.yul\":2700:2773   */\n      tag_117\n        /* \"#utility.yul\":2768:2772   */\n      dup3\n        /* \"#utility.yul\":2754:2766   */\n      dup3\n        /* \"#utility.yul\":2700:2773   */\n      tag_60\n      jump\t// in\n    tag_117:\n        /* \"#utility.yul\":2692:2773   */\n      swap2\n      pop\n        /* \"#utility.yul\":2550:2784   */\n      pop\n        /* \"#utility.yul\":2801:2805   */\n      dup1\n        /* \"#utility.yul\":2794:2805   */\n      swap2\n      pop\n        /* \"#utility.yul\":2252:2811   */\n      pop\n        /* \"#utility.yul\":2126:2811   */\n      swap3\n      swap2\n      pop\n      pop\n      jump\t// out\n        /* \"#utility.yul\":2817:3194   */\n    tag_11:\n        /* \"#utility.yul\":2962:2966   */\n      0x00\n        /* \"#utility.yul\":3000:3002   */\n      0x20\n        /* \"#utility.yul\":2989:2998   */\n      dup3\n        /* \"#utility.yul\":2985:3003   */\n      add\n        /* \"#utility.yul\":2977:3003   */\n      swap1\n      pop\n        /* \"#utility.yul\":3049:3058   */\n      dup2\n        /* \"#utility.yul\":3043:3047   */\n      dup2\n        /* \"#utility.yul\":3039:3059   */\n      sub\n        /* \"#utility.yul\":3035:3036   */\n      0x00\n        /* \"#utility.yul\":3024:3033   */\n      dup4\n        /* \"#utility.yul\":3020:3037   */\n      add\n        /* \"#utility.yul\":3013:3060   */\n      mstore\n        /* \"#utility.yul\":3077:3187   */\n      tag_119\n        /* \"#utility.yul\":3182:3186   */\n      dup2\n        /* \"#utility.yul\":3173:3179   */\n      dup5\n        /* \"#utility.yul\":3077:3187   */\n      tag_61\n      jump\t// in\n    tag_119:\n        /* \"#utility.yul\":3069:3187   */\n      swap1\n      pop\n        /* \"#utility.yul\":2817:3194   */\n      swap3\n      swap2\n      pop\n      pop\n      jump\t// out\n        /* \"#utility.yul\":3200:3317   */\n    tag_62:\n        /* \"#utility.yul\":3309:3310   */\n      0x00\n        /* \"#utility.yul\":3306:3307   */\n      dup1\n        /* \"#utility.yul\":3299:3311   */\n      revert\n        /* \"#utility.yul\":3323:3440   */\n    tag_63:\n        /* \"#utility.yul\":3432:3433   */\n      0x00\n        /* \"#utility.yul\":3429:3430   */\n      dup1\n        /* \"#utility.yul\":3422:3434   */\n      revert\n        /* \"#utility.yul\":3446:3626   */\n    tag_64:\n        /* \"#utility.yul\":3494:3571   */\n      0x4e487b7100000000000000000000000000000000000000000000000000000000\n        /* \"#utility.yul\":3491:3492   */\n      0x00\n        /* \"#utility.yul\":3484:3572   */\n      mstore\n        /* \"#utility.yul\":3591:3595   */\n      0x41\n        /* \"#utility.yul\":3588:3589   */\n      0x04\n        /* \"#utility.yul\":3581:3596   */\n      mstore\n        /* \"#utility.yul\":3615:3619   */\n      0x24\n        /* \"#utility.yul\":3612:3613   */\n      0x00\n        /* \"#utility.yul\":3605:3620   */\n      revert\n        /* \"#utility.yul\":3632:3913   */\n    tag_65:\n        /* \"#utility.yul\":3715:3742   */\n      tag_124\n        /* \"#utility.yul\":3737:3741   */\n      dup3\n        /* \"#utility.yul\":3715:3742   */\n      tag_59\n      jump\t// in\n    tag_124:\n        /* \"#utility.yul\":3707:3713   */\n      dup2\n        /* \"#utility.yul\":3703:3743   */\n      add\n        /* \"#utility.yul\":3845:3851   */\n      dup2\n        /* \"#utility.yul\":3833:3843   */\n      dup2\n        /* \"#utility.yul\":3830:3852   */\n      lt\n        /* \"#utility.yul\":3809:3827   */\n      0xffffffffffffffff\n        /* \"#utility.yul\":3797:3807   */\n      dup3\n        /* \"#utility.yul\":3794:3828   */\n      gt\n        /* \"#utility.yul\":3791:3853   */\n      or\n        /* \"#utility.yul\":3788:3876   */\n      iszero\n      tag_125\n      jumpi\n        /* \"#utility.yul\":3856:3874   */\n      tag_126\n      tag_64\n      jump\t// in\n    tag_126:\n        /* \"#utility.yul\":3788:3876   */\n    tag_125:\n        /* \"#utility.yul\":3896:3906   */\n      dup1\n        /* \"#utility.yul\":3892:3894   */\n      0x40\n        /* \"#utility.yul\":3885:3907   */\n      mstore\n        /* \"#utility.yul\":3675:3913   */\n      pop\n        /* \"#utility.yul\":3632:3913   */\n      pop\n      pop\n      jump\t// out\n        /* \"#utility.yul\":3919:4048   */\n    tag_66:\n        /* \"#utility.yul\":3953:3959   */\n      0x00\n        /* \"#utility.yul\":3980:4000   */\n      tag_128\n      tag_49\n      jump\t// in\n    tag_128:\n        /* \"#utility.yul\":3970:4000   */\n      swap1\n      pop\n        /* \"#utility.yul\":4009:4042   */\n      tag_129\n        /* \"#utility.yul\":4037:4041   */\n      dup3\n        /* \"#utility.yul\":4029:4035   */\n      dup3\n        /* \"#utility.yul\":4009:4042   */\n      tag_65\n      jump\t// in\n    tag_129:\n        /* \"#utility.yul\":3919:4048   */\n      swap2\n      swap1\n      pop\n      jump\t// out\n        /* \"#utility.yul\":4054:4362   */\n    tag_67:\n        /* \"#utility.yul\":4116:4120   */\n      0x00\n        /* \"#utility.yul\":4206:4224   */\n      0xffffffffffffffff\n        /* \"#utility.yul\":4198:4204   */\n      dup3\n        /* \"#utility.yul\":4195:4225   */\n      gt\n        /* \"#utility.yul\":4192:4248   */\n      iszero\n      tag_131\n      jumpi\n        /* \"#utility.yul\":4228:4246   */\n      tag_132\n      tag_64\n      jump\t// in\n    tag_132:\n        /* \"#utility.yul\":4192:4248   */\n    tag_131:\n        /* \"#utility.yul\":4266:4295   */\n      tag_133\n        /* \"#utility.yul\":4288:4294   */\n      dup3\n        /* \"#utility.yul\":4266:4295   */\n      tag_59\n      jump\t// in\n    tag_133:\n        /* \"#utility.yul\":4258:4295   */\n      swap1\n      pop\n        /* \"#utility.yul\":4350:4354   */\n      0x20\n        /* \"#utility.yul\":4344:4348   */\n      dup2\n        /* \"#utility.yul\":4340:4355   */\n      add\n        /* \"#utility.yul\":4332:4355   */\n      swap1\n      pop\n        /* \"#utility.yul\":4054:4362   */\n      swap2\n      swap1\n      pop\n      jump\t// out\n        /* \"#utility.yul\":4368:4516   */\n    tag_68:\n        /* \"#utility.yul\":4466:4472   */\n      dup3\n        /* \"#utility.yul\":4461:4464   */\n      dup2\n        /* \"#utility.yul\":4456:4459   */\n      dup4\n        /* \"#utility.yul\":4443:4473   */\n      calldatacopy\n        /* \"#utility.yul\":4507:4508   */\n      0x00\n        /* \"#utility.yul\":4498:4504   */\n      dup4\n        /* \"#utility.yul\":4493:4496   */\n      dup4\n        /* \"#utility.yul\":4489:4505   */\n      add\n        /* \"#utility.yul\":4482:4509   */\n      mstore\n        /* \"#utility.yul\":4368:4516   */\n      pop\n      pop\n      pop\n      jump\t// out\n        /* \"#utility.yul\":4522:4947   */\n    tag_69:\n        /* \"#utility.yul\":4600:4605   */\n      0x00\n        /* \"#utility.yul\":4625:4691   */\n      tag_136\n        /* \"#utility.yul\":4641:4690   */\n      tag_137\n        /* \"#utility.yul\":4683:4689   */\n      dup5\n        /* \"#utility.yul\":4641:4690   */\n      tag_67\n      jump\t// in\n    tag_137:\n        /* \"#utility.yul\":4625:4691   */\n      tag_66\n      jump\t// in\n    tag_136:\n        /* \"#utility.yul\":4616:4691   */\n      swap1\n      pop\n        /* \"#utility.yul\":4714:4720   */\n      dup3\n        /* \"#utility.yul\":4707:4712   */\n      dup2\n        /* \"#utility.yul\":4700:4721   */\n      mstore\n        /* \"#utility.yul\":4752:4756   */\n      0x20\n        /* \"#utility.yul\":4745:4750   */\n      dup2\n        /* \"#utility.yul\":4741:4757   */\n      add\n        /* \"#utility.yul\":4790:4793   */\n      dup5\n        /* \"#utility.yul\":4781:4787   */\n      dup5\n        /* \"#utility.yul\":4776:4779   */\n      dup5\n        /* \"#utility.yul\":4772:4788   */\n      add\n        /* \"#utility.yul\":4769:4794   */\n      gt\n        /* \"#utility.yul\":4766:4878   */\n      iszero\n      tag_138\n      jumpi\n        /* \"#utility.yul\":4797:4876   */\n      tag_139\n      tag_63\n      jump\t// in\n    tag_139:\n        /* \"#utility.yul\":4766:4878   */\n    tag_138:\n        /* \"#utility.yul\":4887:4941   */\n      tag_140\n        /* \"#utility.yul\":4934:4940   */\n      dup5\n        /* \"#utility.yul\":4929:4932   */\n      dup3\n        /* \"#utility.yul\":4924:4927   */\n      dup6\n        /* \"#utility.yul\":4887:4941   */\n      tag_68\n      jump\t// in\n    tag_140:\n        /* \"#utility.yul\":4606:4947   */\n      pop\n        /* \"#utility.yul\":4522:4947   */\n      swap4\n      swap3\n      pop\n      pop\n      pop\n      jump\t// out\n        /* \"#utility.yul\":4967:5307   */\n    tag_70:\n        /* \"#utility.yul\":5023:5028   */\n      0x00\n        /* \"#utility.yul\":5072:5075   */\n      dup3\n        /* \"#utility.yul\":5065:5069   */\n      0x1f\n        /* \"#utility.yul\":5057:5063   */\n      dup4\n        /* \"#utility.yul\":5053:5070   */\n      add\n        /* \"#utility.yul\":5049:5076   */\n      slt\n        /* \"#utility.yul\":5039:5161   */\n      tag_142\n      jumpi\n        /* \"#utility.yul\":5080:5159   */\n      tag_143\n      tag_62\n      jump\t// in\n    tag_143:\n        /* \"#utility.yul\":5039:5161   */\n    tag_142:\n        /* \"#utility.yul\":5197:5203   */\n      dup2\n        /* \"#utility.yul\":5184:5204   */\n      calldataload\n        /* \"#utility.yul\":5222:5301   */\n      tag_144\n        /* \"#utility.yul\":5297:5300   */\n      dup5\n        /* \"#utility.yul\":5289:5295   */\n      dup3\n        /* \"#utility.yul\":5282:5286   */\n      0x20\n        /* \"#utility.yul\":5274:5280   */\n      dup7\n        /* \"#utility.yul\":5270:5287   */\n      add\n        /* \"#utility.yul\":5222:5301   */\n      tag_69\n      jump\t// in\n    tag_144:\n        /* \"#utility.yul\":5213:5301   */\n      swap2\n      pop\n        /* \"#utility.yul\":5029:5307   */\n      pop\n        /* \"#utility.yul\":4967:5307   */\n      swap3\n      swap2\n      pop\n      pop\n      jump\t// out\n        /* \"#utility.yul\":5313:6292   */\n    tag_14:\n        /* \"#utility.yul\":5410:5416   */\n      0x00\n        /* \"#utility.yul\":5418:5424   */\n      dup1\n        /* \"#utility.yul\":5426:5432   */\n      0x00\n        /* \"#utility.yul\":5475:5477   */\n      0x60\n        /* \"#utility.yul\":5463:5472   */\n      dup5\n        /* \"#utility.yul\":5454:5461   */\n      dup7\n        /* \"#utility.yul\":5450:5473   */\n      sub\n        /* \"#utility.yul\":5446:5478   */\n      slt\n        /* \"#utility.yul\":5443:5562   */\n      iszero\n      tag_146\n      jumpi\n        /* \"#utility.yul\":5481:5560   */\n      tag_147\n      tag_50\n      jump\t// in\n    tag_147:\n        /* \"#utility.yul\":5443:5562   */\n    tag_146:\n        /* \"#utility.yul\":5601:5602   */\n      0x00\n        /* \"#utility.yul\":5626:5679   */\n      tag_148\n        /* \"#utility.yul\":5671:5678   */\n      dup7\n        /* \"#utility.yul\":5662:5668   */\n      dup3\n        /* \"#utility.yul\":5651:5660   */\n      dup8\n        /* \"#utility.yul\":5647:5669   */\n      add\n        /* \"#utility.yul\":5626:5679   */\n      tag_55\n      jump\t// in\n    tag_148:\n        /* \"#utility.yul\":5616:5679   */\n      swap4\n      pop\n        /* \"#utility.yul\":5572:5689   */\n      pop\n        /* \"#utility.yul\":5756:5758   */\n      0x20\n        /* \"#utility.yul\":5745:5754   */\n      dup5\n        /* \"#utility.yul\":5741:5759   */\n      add\n        /* \"#utility.yul\":5728:5760   */\n      calldataload\n        /* \"#utility.yul\":5787:5805   */\n      0xffffffffffffffff\n        /* \"#utility.yul\":5779:5785   */\n      dup2\n        /* \"#utility.yul\":5776:5806   */\n      gt\n        /* \"#utility.yul\":5773:5890   */\n      iszero\n      tag_149\n      jumpi\n        /* \"#utility.yul\":5809:5888   */\n      tag_150\n      tag_51\n      jump\t// in\n    tag_150:\n        /* \"#utility.yul\":5773:5890   */\n    tag_149:\n        /* \"#utility.yul\":5914:5977   */\n      tag_151\n        /* \"#utility.yul\":5969:5976   */\n      dup7\n        /* \"#utility.yul\":5960:5966   */\n      dup3\n        /* \"#utility.yul\":5949:5958   */\n      dup8\n        /* \"#utility.yul\":5945:5967   */\n      add\n        /* \"#utility.yul\":5914:5977   */\n      tag_70\n      jump\t// in\n    tag_151:\n        /* \"#utility.yul\":5904:5977   */\n      swap3\n      pop\n        /* \"#utility.yul\":5699:5987   */\n      pop\n        /* \"#utility.yul\":6054:6056   */\n      0x40\n        /* \"#utility.yul\":6043:6052   */\n      dup5\n        /* \"#utility.yul\":6039:6057   */\n      add\n        /* \"#utility.yul\":6026:6058   */\n      calldataload\n        /* \"#utility.yul\":6085:6103   */\n      0xffffffffffffffff\n        /* \"#utility.yul\":6077:6083   */\n      dup2\n        /* \"#utility.yul\":6074:6104   */\n      gt\n        /* \"#utility.yul\":6071:6188   */\n      iszero\n      tag_152\n      jumpi\n        /* \"#utility.yul\":6107:6186   */\n      tag_153\n      tag_51\n      jump\t// in\n    tag_153:\n        /* \"#utility.yul\":6071:6188   */\n    tag_152:\n        /* \"#utility.yul\":6212:6275   */\n      tag_154\n        /* \"#utility.yul\":6267:6274   */\n      dup7\n        /* \"#utility.yul\":6258:6264   */\n      dup3\n        /* \"#utility.yul\":6247:6256   */\n      dup8\n        /* \"#utility.yul\":6243:6265   */\n      add\n        /* \"#utility.yul\":6212:6275   */\n      tag_70\n      jump\t// in\n    tag_154:\n        /* \"#utility.yul\":6202:6275   */\n      swap2\n      pop\n        /* \"#utility.yul\":5997:6285   */\n      pop\n        /* \"#utility.yul\":5313:6292   */\n      swap3\n      pop\n      swap3\n      pop\n      swap3\n      jump\t// out\n        /* \"#utility.yul\":6298:6467   */\n    tag_71:\n        /* \"#utility.yul\":6382:6393   */\n      0x00\n        /* \"#utility.yul\":6416:6422   */\n      dup3\n        /* \"#utility.yul\":6411:6414   */\n      dup3\n        /* \"#utility.yul\":6404:6423   */\n      mstore\n        /* \"#utility.yul\":6456:6460   */\n      0x20\n        /* \"#utility.yul\":6451:6454   */\n      dup3\n        /* \"#utility.yul\":6447:6461   */\n      add\n        /* \"#utility.yul\":6432:6461   */\n      swap1\n      pop\n        /* \"#utility.yul\":6298:6467   */\n      swap3\n      swap2\n      pop\n      pop\n      jump\t// out\n        /* \"#utility.yul\":6473:6850   */\n    tag_72:\n        /* \"#utility.yul\":6561:6564   */\n      0x00\n        /* \"#utility.yul\":6589:6628   */\n      tag_157\n        /* \"#utility.yul\":6622:6627   */\n      dup3\n        /* \"#utility.yul\":6589:6628   */\n      tag_56\n      jump\t// in\n    tag_157:\n        /* \"#utility.yul\":6644:6715   */\n      tag_158\n        /* \"#utility.yul\":6708:6714   */\n      dup2\n        /* \"#utility.yul\":6703:6706   */\n      dup6\n        /* \"#utility.yul\":6644:6715   */\n      tag_71\n      jump\t// in\n    tag_158:\n        /* \"#utility.yul\":6637:6715   */\n      swap4\n      pop\n        /* \"#utility.yul\":6724:6789   */\n      tag_159\n        /* \"#utility.yul\":6782:6788   */\n      dup2\n        /* \"#utility.yul\":6777:6780   */\n      dup6\n        /* \"#utility.yul\":6770:6774   */\n      0x20\n        /* \"#utility.yul\":6763:6768   */\n      dup7\n        /* \"#utility.yul\":6759:6775   */\n      add\n        /* \"#utility.yul\":6724:6789   */\n      tag_58\n      jump\t// in\n    tag_159:\n        /* \"#utility.yul\":6814:6843   */\n      tag_160\n        /* \"#utility.yul\":6836:6842   */\n      dup2\n        /* \"#utility.yul\":6814:6843   */\n      tag_59\n      jump\t// in\n    tag_160:\n        /* \"#utility.yul\":6809:6812   */\n      dup5\n        /* \"#utility.yul\":6805:6844   */\n      add\n        /* \"#utility.yul\":6798:6844   */\n      swap2\n      pop\n        /* \"#utility.yul\":6565:6850   */\n      pop\n        /* \"#utility.yul\":6473:6850   */\n      swap3\n      swap2\n      pop\n      pop\n      jump\t// out\n        /* \"#utility.yul\":6856:7370   */\n    tag_20:\n        /* \"#utility.yul\":7017:7021   */\n      0x00\n        /* \"#utility.yul\":7055:7057   */\n      0x40\n        /* \"#utility.yul\":7044:7053   */\n      dup3\n        /* \"#utility.yul\":7040:7058   */\n      add\n        /* \"#utility.yul\":7032:7058   */\n      swap1\n      pop\n        /* \"#utility.yul\":7104:7113   */\n      dup2\n        /* \"#utility.yul\":7098:7102   */\n      dup2\n        /* \"#utility.yul\":7094:7114   */\n      sub\n        /* \"#utility.yul\":7090:7091   */\n      0x00\n        /* \"#utility.yul\":7079:7088   */\n      dup4\n        /* \"#utility.yul\":7075:7092   */\n      add\n        /* \"#utility.yul\":7068:7115   */\n      mstore\n        /* \"#utility.yul\":7132:7210   */\n      tag_162\n        /* \"#utility.yul\":7205:7209   */\n      dup2\n        /* \"#utility.yul\":7196:7202   */\n      dup6\n        /* \"#utility.yul\":7132:7210   */\n      tag_72\n      jump\t// in\n    tag_162:\n        /* \"#utility.yul\":7124:7210   */\n      swap1\n      pop\n        /* \"#utility.yul\":7257:7266   */\n      dup2\n        /* \"#utility.yul\":7251:7255   */\n      dup2\n        /* \"#utility.yul\":7247:7267   */\n      sub\n        /* \"#utility.yul\":7242:7244   */\n      0x20\n        /* \"#utility.yul\":7231:7240   */\n      dup4\n        /* \"#utility.yul\":7227:7245   */\n      add\n        /* \"#utility.yul\":7220:7268   */\n      mstore\n        /* \"#utility.yul\":7285:7363   */\n      tag_163\n        /* \"#utility.yul\":7358:7362   */\n      dup2\n        /* \"#utility.yul\":7349:7355   */\n      dup5\n        /* \"#utility.yul\":7285:7363   */\n      tag_72\n      jump\t// in\n    tag_163:\n        /* \"#utility.yul\":7277:7363   */\n      swap1\n      pop\n        /* \"#utility.yul\":6856:7370   */\n      swap4\n      swap3\n      pop\n      pop\n      pop\n      jump\t// out\n        /* \"#utility.yul\":7376:7556   */\n    tag_73:\n        /* \"#utility.yul\":7424:7501   */\n      0x4e487b7100000000000000000000000000000000000000000000000000000000\n        /* \"#utility.yul\":7421:7422   */\n      0x00\n        /* \"#utility.yul\":7414:7502   */\n      mstore\n        /* \"#utility.yul\":7521:7525   */\n      0x22\n        /* \"#utility.yul\":7518:7519   */\n      0x04\n        /* \"#utility.yul\":7511:7526   */\n      mstore\n        /* \"#utility.yul\":7545:7549   */\n      0x24\n        /* \"#utility.yul\":7542:7543   */\n      0x00\n        /* \"#utility.yul\":7535:7550   */\n      revert\n        /* \"#utility.yul\":7562:7882   */\n    tag_25:\n        /* \"#utility.yul\":7606:7612   */\n      0x00\n        /* \"#utility.yul\":7643:7644   */\n      0x02\n        /* \"#utility.yul\":7637:7641   */\n      dup3\n        /* \"#utility.yul\":7633:7645   */\n      div\n        /* \"#utility.yul\":7623:7645   */\n      swap1\n      pop\n        /* \"#utility.yul\":7690:7691   */\n      0x01\n        /* \"#utility.yul\":7684:7688   */\n      dup3\n        /* \"#utility.yul\":7680:7692   */\n      and\n        /* \"#utility.yul\":7711:7729   */\n      dup1\n        /* \"#utility.yul\":7701:7782   */\n      tag_166\n      jumpi\n        /* \"#utility.yul\":7767:7771   */\n      0x7f\n        /* \"#utility.yul\":7759:7765   */\n      dup3\n        /* \"#utility.yul\":7755:7772   */\n      and\n        /* \"#utility.yul\":7745:7772   */\n      swap2\n      pop\n        /* \"#utility.yul\":7701:7782   */\n    tag_166:\n        /* \"#utility.yul\":7829:7831   */\n      0x20\n        /* \"#utility.yul\":7821:7827   */\n      dup3\n        /* \"#utility.yul\":7818:7832   */\n      lt\n        /* \"#utility.yul\":7798:7816   */\n      dup2\n        /* \"#utility.yul\":7795:7833   */\n      sub\n        /* \"#utility.yul\":7792:7876   */\n      tag_167\n      jumpi\n        /* \"#utility.yul\":7848:7866   */\n      tag_168\n      tag_73\n      jump\t// in\n    tag_168:\n        /* \"#utility.yul\":7792:7876   */\n    tag_167:\n        /* \"#utility.yul\":7613:7882   */\n      pop\n        /* \"#utility.yul\":7562:7882   */\n      swap2\n      swap1\n      pop\n      jump\t// out\n        /* \"#utility.yul\":7888:8029   */\n    tag_74:\n        /* \"#utility.yul\":7937:7941   */\n      0x00\n        /* \"#utility.yul\":7960:7963   */\n      dup2\n        /* \"#utility.yul\":7952:7963   */\n      swap1\n      pop\n        /* \"#utility.yul\":7983:7986   */\n      dup2\n        /* \"#utility.yul\":7980:7981   */\n      0x00\n        /* \"#utility.yul\":7973:7987   */\n      mstore\n        /* \"#utility.yul\":8017:8021   */\n      0x20\n        /* \"#utility.yul\":8014:8015   */\n      0x00\n        /* \"#utility.yul\":8004:8022   */\n      keccak256\n        /* \"#utility.yul\":7996:8022   */\n      swap1\n      pop\n        /* \"#utility.yul\":7888:8029   */\n      swap2\n      swap1\n      pop\n      jump\t// out\n        /* \"#utility.yul\":8035:8128   */\n    tag_75:\n        /* \"#utility.yul\":8072:8078   */\n      0x00\n        /* \"#utility.yul\":8119:8121   */\n      0x20\n        /* \"#utility.yul\":8114:8116   */\n      0x1f\n        /* \"#utility.yul\":8107:8112   */\n      dup4\n        /* \"#utility.yul\":8103:8117   */\n      add\n        /* \"#utility.yul\":8099:8122   */\n      div\n        /* \"#utility.yul\":8089:8122   */\n      swap1\n      pop\n        /* \"#utility.yul\":8035:8128   */\n      swap2\n      swap1\n      pop\n      jump\t// out\n        /* \"#utility.yul\":8134:8241   */\n    tag_76:\n        /* \"#utility.yul\":8178:8186   */\n      0x00\n        /* \"#utility.yul\":8228:8233   */\n      dup3\n        /* \"#utility.yul\":8222:8226   */\n      dup3\n        /* \"#utility.yul\":8218:8234   */\n      shl\n        /* \"#utility.yul\":8197:8234   */\n      swap1\n      pop\n        /* \"#utility.yul\":8134:8241   */\n      swap3\n      swap2\n      pop\n      pop\n      jump\t// out\n        /* \"#utility.yul\":8247:8640   */\n    tag_77:\n        /* \"#utility.yul\":8316:8322   */\n      0x00\n        /* \"#utility.yul\":8366:8367   */\n      0x08\n        /* \"#utility.yul\":8354:8364   */\n      dup4\n        /* \"#utility.yul\":8350:8368   */\n      mul\n        /* \"#utility.yul\":8389:8486   */\n      tag_173\n        /* \"#utility.yul\":8419:8485   */\n      0xffffffffffffffffffffffffffffffffffffffffffffffffffffffffffffffff\n        /* \"#utility.yul\":8408:8417   */\n      dup3\n        /* \"#utility.yul\":8389:8486   */\n      tag_76\n      jump\t// in\n    tag_173:\n        /* \"#utility.yul\":8507:8546   */\n      tag_174\n        /* \"#utility.yul\":8537:8545   */\n      dup7\n        /* \"#utility.yul\":8526:8535   */\n      dup4\n        /* \"#utility.yul\":8507:8546   */\n      tag_76\n      jump\t// in\n    tag_174:\n        /* \"#utility.yul\":8495:8546   */\n      swap6\n      pop\n        /* \"#utility.yul\":8579:8583   */\n      dup1\n        /* \"#utility.yul\":8575:8584   */\n      not\n        /* \"#utility.yul\":8568:8573   */\n      dup5\n        /* \"#utility.yul\":8564:8585   */\n      and\n        /* \"#utility.yul\":8555:8585   */\n      swap4\n      pop\n        /* \"#utility.yul\":8628:8632   */\n      dup1\n        /* \"#utility.yul\":8618:8626   */\n      dup7\n        /* \"#utility.yul\":8614:8633   */\n      and\n        /* \"#utility.yul\":8607:8612   */\n      dup5\n        /* \"#utility.yul\":8604:8634   */\n      or\n        /* \"#utility.yul\":8594:8634   */\n      swap3\n      pop\n        /* \"#utility.yul\":8323:8640   */\n      pop\n      pop\n        /* \"#utility.yul\":8247:8640   */\n      swap4\n      swap3\n      pop\n      pop\n      pop\n      jump\t// out\n        /* \"#utility.yul\":8646:8723   */\n    tag_78:\n        /* \"#utility.yul\":8683:8690   */\n      0x00\n        /* \"#utility.yul\":8712:8717   */\n      dup2\n        /* \"#utility.yul\":8701:8717   */\n      swap1\n      pop\n        /* \"#utility.yul\":8646:8723   */\n      swap2\n      swap1\n      pop\n      jump\t// out\n        /* \"#utility.yul\":8729:8789   */\n    tag_79:\n        /* \"#utility.yul\":8757:8760   */\n      0x00\n        /* \"#utility.yul\":8778:8783   */\n      dup2\n        /* \"#utility.yul\":8771:8783   */\n      swap1\n      pop\n        /* \"#utility.yul\":8729:8789   */\n      swap2\n      swap1\n      pop\n      jump\t// out\n        /* \"#utility.yul\":8795:8937   */\n    tag_80:\n        /* \"#utility.yul\":8845:8854   */\n      0x00\n        /* \"#utility.yul\":8878:8931   */\n      tag_178\n        /* \"#utility.yul\":8896:8930   */\n      tag_179\n        /* \"#utility.yul\":8905:8929   */\n      tag_180\n        /* \"#utility.yul\":8923:8928   */\n      dup5\n        /* \"#utility.yul\":8905:8929   */\n      tag_78\n      jump\t// in\n    tag_180:\n        /* \"#utility.yul\":8896:8930   */\n      tag_79\n      jump\t// in\n    tag_179:\n        /* \"#utility.yul\":8878:8931   */\n      tag_78\n      jump\t// in\n    tag_178:\n        /* \"#utility.yul\":8865:8931   */\n      swap1\n      pop\n        /* \"#utility.yul\":8795:8937   */\n      swap2\n      swap1\n      pop\n      jump\t// out\n        /* \"#utility.yul\":8943:9018   */\n    tag_81:\n        /* \"#utility.yul\":8986:8989   */\n      0x00\n        /* \"#utility.yul\":9007:9012   */\n      dup2\n        /* \"#utility.yul\":9000:9012   */\n      swap1\n      pop\n        /* \"#utility.yul\":8943:9018   */\n      swap2\n      swap1\n      pop\n      jump\t// out\n        /* \"#utility.yul\":9024:9293   */\n    tag_82:\n        /* \"#utility.yul\":9134:9173   */\n      tag_183\n        /* \"#utility.yul\":9165:9172   */\n      dup4\n        /* \"#utility.yul\":9134:9173   */\n      tag_80\n      jump\t// in\n    tag_183:\n        /* \"#utility.yul\":9195:9286   */\n      tag_184\n        /* \"#utility.yul\":9244:9285   */\n      tag_185\n        /* \"#utility.yul\":9268:9284   */\n      dup3\n        /* \"#utility.yul\":9244:9285   */\n      tag_81\n      jump\t// in\n    tag_185:\n        /* \"#utility.yul\":9236:9242   */\n      dup5\n        /* \"#utility.yul\":9229:9233   */\n      dup5\n        /* \"#utility.yul\":9223:9234   */\n      sload\n        /* \"#utility.yul\":9195:9286   */\n      tag_77\n      jump\t// in\n    tag_184:\n        /* \"#utility.yul\":9189:9193   */\n      dup3\n        /* \"#utility.yul\":9182:9287   */\n      sstore\n        /* \"#utility.yul\":9100:9293   */\n      pop\n        /* \"#utility.yul\":9024:9293   */\n      pop\n      pop\n      pop\n      jump\t// out\n        /* \"#utility.yul\":9299:9372   */\n    tag_83:\n        /* \"#utility.yul\":9344:9347   */\n      0x00\n        /* \"#utility.yul\":9299:9372   */\n      swap1\n      jump\t// out\n        /* \"#utility.yul\":9378:9567   */\n    tag_84:\n        /* \"#utility.yul\":9455:9487   */\n      tag_188\n      tag_83\n      jump\t// in\n    tag_188:\n        /* \"#utility.yul\":9496:9561   */\n      tag_189\n        /* \"#utility.yul\":9554:9560   */\n      dup2\n        /* \"#utility.yul\":9546:9552   */\n      dup5\n        /* \"#utility.yul\":9540:9544   */\n      dup5\n        /* \"#utility.yul\":9496:9561   */\n      tag_82\n      jump\t// in\n    tag_189:\n        /* \"#utility.yul\":9431:9567   */\n      pop\n        /* \"#utility.yul\":9378:9567   */\n      pop\n      pop\n      jump\t// out\n        /* \"#utility.yul\":9573:9759   */\n    tag_85:\n        /* \"#utility.yul\":9633:9753   */\n    tag_191:\n        /* \"#utility.yul\":9650:9653   */\n      dup2\n        /* \"#utility.yul\":9643:9648   */\n      dup2\n        /* \"#utility.yul\":9640:9654   */\n      lt\n        /* \"#utility.yul\":9633:9753   */\n      iszero\n      tag_193\n      jumpi\n        /* \"#utility.yul\":9704:9743   */\n      tag_194\n        /* \"#utility.yul\":9741:9742   */\n      0x00\n        /* \"#utility.yul\":9734:9739   */\n      dup3\n        /* \"#utility.yul\":9704:9743   */\n      tag_84\n      jump\t// in\n    tag_194:\n        /* \"#utility.yul\":9677:9678   */\n      0x01\n        /* \"#utility.yul\":9670:9675   */\n      dup2\n        /* \"#utility.yul\":9666:9679   */\n      add\n        /* \"#utility.yul\":9657:9679   */\n      swap1\n      pop\n        /* \"#utility.yul\":9633:9753   */\n      jump(tag_191)\n    tag_193:\n        /* \"#utility.yul\":9573:9759   */\n      pop\n      pop\n      jump\t// out\n        /* \"#utility.yul\":9765:10308   */\n    tag_86:\n        /* \"#utility.yul\":9866:9868   */\n      0x1f\n        /* \"#utility.yul\":9861:9864   */\n      dup3\n        /* \"#utility.yul\":9858:9869   */\n      gt\n        /* \"#utility.yul\":9855:10301   */\n      iszero\n      tag_196\n      jumpi\n        /* \"#utility.yul\":9900:9938   */\n      tag_197\n        /* \"#utility.yul\":9932:9937   */\n      dup2\n        /* \"#utility.yul\":9900:9938   */\n      tag_74\n      jump\t// in\n    tag_197:\n        /* \"#utility.yul\":9984:10013   */\n      tag_198\n        /* \"#utility.yul\":10002:10012   */\n      dup5\n        /* \"#utility.yul\":9984:10013   */\n      tag_75\n      jump\t// in\n    tag_198:\n        /* \"#utility.yul\":9974:9982   */\n      dup2\n        /* \"#utility.yul\":9970:10014   */\n      add\n        /* \"#utility.yul\":10167:10169   */\n      0x20\n        /* \"#utility.yul\":10155:10165   */\n      dup6\n        /* \"#utility.yul\":10152:10170   */\n      lt\n        /* \"#utility.yul\":10149:10198   */\n      iszero\n      tag_199\n      jumpi\n        /* \"#utility.yul\":10188:10196   */\n      dup2\n        /* \"#utility.yul\":10173:10196   */\n      swap1\n      pop\n        /* \"#utility.yul\":10149:10198   */\n    tag_199:\n        /* \"#utility.yul\":10211:10291   */\n      tag_200\n        /* \"#utility.yul\":10267:10289   */\n      tag_201\n        /* \"#utility.yul\":10285:10288   */\n      dup6\n        /* \"#utility.yul\":10267:10289   */\n      tag_75\n      jump\t// in\n    tag_201:\n        /* \"#utility.yul\":10257:10265   */\n      dup4\n        /* \"#utility.yul\":10253:10290   */\n      add\n        /* \"#utility.yul\":10240:10251   */\n      dup3\n        /* \"#utility.yul\":10211:10291   */\n      tag_85\n      jump\t// in\n    tag_200:\n        /* \"#utility.yul\":9870:10301   */\n      pop\n      pop\n        /* \"#utility.yul\":9855:10301   */\n    tag_196:\n        /* \"#utility.yul\":9765:10308   */\n      pop\n      pop\n      pop\n      jump\t// out\n        /* \"#utility.yul\":10314:10431   */\n    tag_87:\n        /* \"#utility.yul\":10368:10376   */\n      0x00\n        /* \"#utility.yul\":10418:10423   */\n      dup3\n        /* \"#utility.yul\":10412:10416   */\n      dup3\n        /* \"#utility.yul\":10408:10424   */\n      shr\n        /* \"#utility.yul\":10387:10424   */\n      swap1\n      pop\n        /* \"#utility.yul\":10314:10431   */\n      swap3\n      swap2\n      pop\n      pop\n      jump\t// out\n        /* \"#utility.yul\":10437:10606   */\n    tag_88:\n        /* \"#utility.yul\":10481:10487   */\n      0x00\n        /* \"#utility.yul\":10514:10565   */\n      tag_204\n        /* \"#utility.yul\":10562:10563   */\n      0x00\n        /* \"#utility.yul\":10558:10564   */\n      not\n        /* \"#utility.yul\":10550:10555   */\n      dup5\n        /* \"#utility.yul\":10547:10548   */\n      0x08\n        /* \"#utility.yul\":10543:10556   */\n      mul\n        /* \"#utility.yul\":10514:10565   */\n      tag_87\n      jump\t// in\n    tag_204:\n        /* \"#utility.yul\":10510:10566   */\n      not\n        /* \"#utility.yul\":10595:10599   */\n      dup1\n        /* \"#utility.yul\":10589:10593   */\n      dup4\n        /* \"#utility.yul\":10585:10600   */\n      and\n        /* \"#utility.yul\":10575:10600   */\n      swap2\n      pop\n        /* \"#utility.yul\":10488:10606   */\n      pop\n        /* \"#utility.yul\":10437:10606   */\n      swap3\n      swap2\n      pop\n      pop\n      jump\t// out\n        /* \"#utility.yul\":10611:10906   */\n    tag_89:\n        /* \"#utility.yul\":10687:10691   */\n      0x00\n        /* \"#utility.yul\":10833:10862   */\n      tag_206\n        /* \"#utility.yul\":10858:10861   */\n      dup4\n        /* \"#utility.yul\":10852:10856   */\n      dup4\n        /* \"#utility.yul\":10833:10862   */\n      tag_88\n      jump\t// in\n    tag_206:\n        /* \"#utility.yul\":10825:10862   */\n      swap2\n      pop\n        /* \"#utility.yul\":10895:10898   */\n      dup3\n        /* \"#utility.yul\":10892:10893   */\n      0x02\n        /* \"#utility.yul\":10888:10899   */\n      mul\n        /* \"#utility.yul\":10882:10886   */\n      dup3\n        /* \"#utility.yul\":10879:10900   */\n      or\n        /* \"#utility.yul\":10871:10900   */\n      swap1\n      pop\n        /* \"#utility.yul\":10611:10906   */\n      swap3\n      swap2\n      pop\n      pop\n      jump\t// out\n        /* \"#utility.yul\":10911:12306   */\n    tag_37:\n        /* \"#utility.yul\":11028:11065   */\n      tag_208\n        /* \"#utility.yul\":11061:11064   */\n      dup3\n        /* \"#utility.yul\":11028:11065   */\n      tag_56\n      jump\t// in\n    tag_208:\n        /* \"#utility.yul\":11130:11148   */\n      0xffffffffffffffff\n        /* \"#utility.yul\":11122:11128   */\n      dup2\n        /* \"#utility.yul\":11119:11149   */\n      gt\n        /* \"#utility.yul\":11116:11172   */\n      iszero\n      tag_209\n      jumpi\n        /* \"#utility.yul\":11152:11170   */\n      tag_210\n      tag_64\n      jump\t// in\n    tag_210:\n        /* \"#utility.yul\":11116:11172   */\n    tag_209:\n        /* \"#utility.yul\":11196:11234   */\n      tag_211\n        /* \"#utility.yul\":11228:11232   */\n      dup3\n        /* \"#utility.yul\":11222:11233   */\n      sload\n        /* \"#utility.yul\":11196:11234   */\n      tag_25\n      jump\t// in\n    tag_211:\n        /* \"#utility.yul\":11281:11348   */\n      tag_212\n        /* \"#utility.yul\":11341:11347   */\n      dup3\n        /* \"#utility.yul\":11333:11339   */\n      dup3\n        /* \"#utility.yul\":11327:11331   */\n      dup6\n        /* \"#utility.yul\":11281:11348   */\n      tag_86\n      jump\t// in\n    tag_212:\n        /* \"#utility.yul\":11375:11376   */\n      0x00\n        /* \"#utility.yul\":11399:11403   */\n      0x20\n        /* \"#utility.yul\":11386:11403   */\n      swap1\n      pop\n        /* \"#utility.yul\":11431:11433   */\n      0x1f\n        /* \"#utility.yul\":11423:11429   */\n      dup4\n        /* \"#utility.yul\":11420:11434   */\n      gt\n        /* \"#utility.yul\":11448:11449   */\n      0x01\n        /* \"#utility.yul\":11443:12061   */\n      dup2\n      eq\n      tag_214\n      jumpi\n        /* \"#utility.yul\":12105:12106   */\n      0x00\n        /* \"#utility.yul\":12122:12128   */\n      dup5\n        /* \"#utility.yul\":12119:12196   */\n      iszero\n      tag_215\n      jumpi\n        /* \"#utility.yul\":12171:12180   */\n      dup3\n        /* \"#utility.yul\":12166:12169   */\n      dup8\n        /* \"#utility.yul\":12162:12181   */\n      add\n        /* \"#utility.yul\":12156:12182   */\n      mload\n        /* \"#utility.yul\":12147:12182   */\n      swap1\n      pop\n        /* \"#utility.yul\":12119:12196   */\n    tag_215:\n        /* \"#utility.yul\":12222:12289   */\n      tag_216\n        /* \"#utility.yul\":12282:12288   */\n      dup6\n        /* \"#utility.yul\":12275:12280   */\n      dup3\n        /* \"#utility.yul\":12222:12289   */\n      tag_89\n      jump\t// in\n    tag_216:\n        /* \"#utility.yul\":12216:12220   */\n      dup7\n        /* \"#utility.yul\":12209:12290   */\n      sstore\n        /* \"#utility.yul\":12078:12300   */\n      pop\n        /* \"#utility.yul\":11413:12300   */\n      jump(tag_213)\n        /* \"#utility.yul\":11443:12061   */\n    tag_214:\n        /* \"#utility.yul\":11495:11499   */\n      0x1f\n        /* \"#utility.yul\":11491:11500   */\n      not\n        /* \"#utility.yul\":11483:11489   */\n      dup5\n        /* \"#utility.yul\":11479:11501   */\n      and\n        /* \"#utility.yul\":11529:11566   */\n      tag_217\n        /* \"#utility.yul\":11561:11565   */\n      dup7\n        /* \"#utility.yul\":11529:11566   */\n      tag_74\n      jump\t// in\n    tag_217:\n        /* \"#utility.yul\":11588:11589   */\n      0x00\n        /* \"#utility.yul\":11602:11810   */\n    tag_218:\n        /* \"#utility.yul\":11616:11623   */\n      dup3\n        /* \"#utility.yul\":11613:11614   */\n      dup2\n        /* \"#utility.yul\":11610:11624   */\n      lt\n        /* \"#utility.yul\":11602:11810   */\n      iszero\n      tag_220\n      jumpi\n        /* \"#utility.yul\":11695:11704   */\n      dup5\n        /* \"#utility.yul\":11690:11693   */\n      dup10\n        /* \"#utility.yul\":11686:11705   */\n      add\n        /* \"#utility.yul\":11680:11706   */\n      mload\n        /* \"#utility.yul\":11672:11678   */\n      dup3\n        /* \"#utility.yul\":11665:11707   */\n      sstore\n        /* \"#utility.yul\":11746:11747   */\n      0x01\n        /* \"#utility.yul\":11738:11744   */\n      dup3\n        /* \"#utility.yul\":11734:11748   */\n      add\n        /* \"#utility.yul\":11724:11748   */\n      swap2\n      pop\n        /* \"#utility.yul\":11793:11795   */\n      0x20\n        /* \"#utility.yul\":11782:11791   */\n      dup6\n        /* \"#utility.yul\":11778:11796   */\n      add\n        /* \"#utility.yul\":11765:11796   */\n      swap5\n      pop\n        /* \"#utility.yul\":11639:11643   */\n      0x20\n        /* \"#utility.yul\":11636:11637   */\n      dup2\n        /* \"#utility.yul\":11632:11644   */\n      add\n        /* \"#utility.yul\":11627:11644   */\n      swap1\n      pop\n        /* \"#utility.yul\":11602:11810   */\n      jump(tag_218)\n    tag_220:\n        /* \"#utility.yul\":11838:11844   */\n      dup7\n        /* \"#utility.yul\":11829:11836   */\n      dup4\n        /* \"#utility.yul\":11826:11845   */\n      lt\n        /* \"#utility.yul\":11823:12002   */\n      iszero\n      tag_221\n      jumpi\n        /* \"#utility.yul\":11896:11905   */\n      dup5\n        /* \"#utility.yul\":11891:11894   */\n      dup10\n        /* \"#utility.yul\":11887:11906   */\n      add\n        /* \"#utility.yul\":11881:11907   */\n      mload\n        /* \"#utility.yul\":11939:11987   */\n      tag_222\n        /* \"#utility.yul\":11981:11985   */\n      0x1f\n        /* \"#utility.yul\":11973:11979   */\n      dup10\n        /* \"#utility.yul\":11969:11986   */\n      and\n        /* \"#utility.yul\":11958:11967   */\n      dup3\n        /* \"#utility.yul\":11939:11987   */\n      tag_88\n      jump\t// in\n    tag_222:\n        /* \"#utility.yul\":11931:11937   */\n      dup4\n        /* \"#utility.yul\":11924:11988   */\n      sstore\n        /* \"#utility.yul\":11846:12002   */\n      pop\n        /* \"#utility.yul\":11823:12002   */\n    tag_221:\n        /* \"#utility.yul\":12048:12049   */\n      0x01\n        /* \"#utility.yul\":12044:12045   */\n      0x02\n        /* \"#utility.yul\":12036:12042   */\n      dup9\n        /* \"#utility.yul\":12032:12046   */\n      mul\n        /* \"#utility.yul\":12028:12050   */\n      add\n        /* \"#utility.yul\":12022:12026   */\n      dup9\n        /* \"#utility.yul\":12015:12051   */\n      sstore\n        /* \"#utility.yul\":11450:12061   */\n      pop\n      pop\n      pop\n        /* \"#utility.yul\":11413:12300   */\n    tag_213:\n      pop\n        /* \"#utility.yul\":11003:12306   */\n      pop\n      pop\n      pop\n        /* \"#utility.yul\":10911:12306   */\n      pop\n      pop\n      jump\t// out\n\n    auxdata: 0xa2646970667358221220692786ed60aafab3b9b635e69e8786df94f22cbee2a2f7736c39d07c598df66d64736f6c634300081a0033\n}\n",
				"bytecode": {
					"linkReferences": {},
					"object": "6080604052348015600e575f80fd5b50610a9d8061001c5f395ff3fe608060405234801561000f575f80fd5b506004361061003f575f3560e01c80630f53a470146100435780632ee27f9914610073578063bbe156271461008f575b5f80fd5b61005d60048036038101906100589190610468565b6100c0565b60405161006a9190610544565b60405180910390f35b61008d60048036038101906100889190610690565b610235565b005b6100a960048036038101906100a49190610468565b6102b8565b6040516100b7929190610760565b60405180910390f35b6100c86103e3565b5f808373ffffffffffffffffffffffffffffffffffffffff1673ffffffffffffffffffffffffffffffffffffffff1681526020019081526020015f206040518060400160405290815f8201805461011e906107c2565b80601f016020809104026020016040519081016040528092919081815260200182805461014a906107c2565b80156101955780601f1061016c57610100808354040283529160200191610195565b820191905f5260205f20905b81548152906001019060200180831161017857829003601f168201915b505050505081526020016001820180546101ae906107c2565b80601f01602080910402602001604051908101604052809291908181526020018280546101da906107c2565b80156102255780601f106101fc57610100808354040283529160200191610225565b820191905f5260205f20905b81548152906001019060200180831161020857829003601f168201915b5050505050815250509050919050565b6040518060400160405280838152602001828152505f808573ffffffffffffffffffffffffffffffffffffffff1673ffffffffffffffffffffffffffffffffffffffff1681526020019081526020015f205f820151815f0190816102999190610998565b5060208201518160010190816102af9190610998565b50905050505050565b5f602052805f5260405f205f91509050805f0180546102d6906107c2565b80601f0160208091040260200160405190810160405280929190818152602001828054610302906107c2565b801561034d5780601f106103245761010080835404028352916020019161034d565b820191905f5260205f20905b81548152906001019060200180831161033057829003601f168201915b505050505090806001018054610362906107c2565b80601f016020809104026020016040519081016040528092919081815260200182805461038e906107c2565b80156103d95780601f106103b0576101008083540402835291602001916103d9565b820191905f5260205f20905b8154815290600101906020018083116103bc57829003601f168201915b5050505050905082565b604051806040016040528060608152602001606081525090565b5f604051905090565b5f80fd5b5f80fd5b5f73ffffffffffffffffffffffffffffffffffffffff82169050919050565b5f6104378261040e565b9050919050565b6104478161042d565b8114610451575f80fd5b50565b5f813590506104628161043e565b92915050565b5f6020828403121561047d5761047c610406565b5b5f61048a84828501610454565b91505092915050565b5f81519050919050565b5f82825260208201905092915050565b8281835e5f83830152505050565b5f601f19601f8301169050919050565b5f6104d582610493565b6104df818561049d565b93506104ef8185602086016104ad565b6104f8816104bb565b840191505092915050565b5f604083015f8301518482035f86015261051d82826104cb565b9150506020830151848203602086015261053782826104cb565b9150508091505092915050565b5f6020820190508181035f83015261055c8184610503565b905092915050565b5f80fd5b5f80fd5b7f4e487b71000000000000000000000000000000000000000000000000000000005f52604160045260245ffd5b6105a2826104bb565b810181811067ffffffffffffffff821117156105c1576105c061056c565b5b80604052505050565b5f6105d36103fd565b90506105df8282610599565b919050565b5f67ffffffffffffffff8211156105fe576105fd61056c565b5b610607826104bb565b9050602081019050919050565b828183375f83830152505050565b5f61063461062f846105e4565b6105ca565b9050828152602081018484840111156106505761064f610568565b5b61065b848285610614565b509392505050565b5f82601f83011261067757610676610564565b5b8135610687848260208601610622565b91505092915050565b5f805f606084860312156106a7576106a6610406565b5b5f6106b486828701610454565b935050602084013567ffffffffffffffff8111156106d5576106d461040a565b5b6106e186828701610663565b925050604084013567ffffffffffffffff8111156107025761070161040a565b5b61070e86828701610663565b9150509250925092565b5f82825260208201905092915050565b5f61073282610493565b61073c8185610718565b935061074c8185602086016104ad565b610755816104bb565b840191505092915050565b5f6040820190508181035f8301526107788185610728565b9050818103602083015261078c8184610728565b90509392505050565b7f4e487b71000000000000000000000000000000000000000000000000000000005f52602260045260245ffd5b5f60028204905060018216806107d957607f821691505b6020821081036107ec576107eb610795565b5b50919050565b5f819050815f5260205f209050919050565b5f6020601f8301049050919050565b5f82821b905092915050565b5f6008830261084e7fffffffffffffffffffffffffffffffffffffffffffffffffffffffffffffffff82610813565b6108588683610813565b95508019841693508086168417925050509392505050565b5f819050919050565b5f819050919050565b5f61089c61089761089284610870565b610879565b610870565b9050919050565b5f819050919050565b6108b583610882565b6108c96108c1826108a3565b84845461081f565b825550505050565b5f90565b6108dd6108d1565b6108e88184846108ac565b505050565b5b8181101561090b576109005f826108d5565b6001810190506108ee565b5050565b601f82111561095057610921816107f2565b61092a84610804565b81016020851015610939578190505b61094d61094585610804565b8301826108ed565b50505b505050565b5f82821c905092915050565b5f6109705f1984600802610955565b1980831691505092915050565b5f6109888383610961565b9150826002028217905092915050565b6109a182610493565b67ffffffffffffffff8111156109ba576109b961056c565b5b6109c482546107c2565b6109cf82828561090f565b5f60209050601f831160018114610a00575f84156109ee578287015190505b6109f8858261097d565b865550610a5f565b601f198416610a0e866107f2565b5f5b82811015610a3557848901518255600182019150602085019450602081019050610a10565b86831015610a525784890151610a4e601f891682610961565b8355505b6001600288020188555050505b50505050505056fea2646970667358221220692786ed60aafab3b9b635e69e8786df94f22cbee2a2f7736c39d07c598df66d64736f6c634300081a0033",
					"opcodes": "PUSH1 0x80 PUSH1 0x40 MSTORE CALLVALUE DUP1 ISZERO PUSH1 0xE JUMPI PUSH0 DUP1 REVERT JUMPDEST POP PUSH2 0xA9D DUP1 PUSH2 0x1C PUSH0 CODECOPY PUSH0 RETURN INVALID PUSH1 0x80 PUSH1 0x40 MSTORE CALLVALUE DUP1 ISZERO PUSH2 0xF JUMPI PUSH0 DUP1 REVERT JUMPDEST POP PUSH1 0x4 CALLDATASIZE LT PUSH2 0x3F JUMPI PUSH0 CALLDATALOAD PUSH1 0xE0 SHR DUP1 PUSH4 0xF53A470 EQ PUSH2 0x43 JUMPI DUP1 PUSH4 0x2EE27F99 EQ PUSH2 0x73 JUMPI DUP1 PUSH4 0xBBE15627 EQ PUSH2 0x8F JUMPI JUMPDEST PUSH0 DUP1 REVERT JUMPDEST PUSH2 0x5D PUSH1 0x4 DUP1 CALLDATASIZE SUB DUP2 ADD SWAP1 PUSH2 0x58 SWAP2 SWAP1 PUSH2 0x468 JUMP JUMPDEST PUSH2 0xC0 JUMP JUMPDEST PUSH1 0x40 MLOAD PUSH2 0x6A SWAP2 SWAP1 PUSH2 0x544 JUMP JUMPDEST PUSH1 0x40 MLOAD DUP1 SWAP2 SUB SWAP1 RETURN JUMPDEST PUSH2 0x8D PUSH1 0x4 DUP1 CALLDATASIZE SUB DUP2 ADD SWAP1 PUSH2 0x88 SWAP2 SWAP1 PUSH2 0x690 JUMP JUMPDEST PUSH2 0x235 JUMP JUMPDEST STOP JUMPDEST PUSH2 0xA9 PUSH1 0x4 DUP1 CALLDATASIZE SUB DUP2 ADD SWAP1 PUSH2 0xA4 SWAP2 SWAP1 PUSH2 0x468 JUMP JUMPDEST PUSH2 0x2B8 JUMP JUMPDEST PUSH1 0x40 MLOAD PUSH2 0xB7 SWAP3 SWAP2 SWAP1 PUSH2 0x760 JUMP JUMPDEST PUSH1 0x40 MLOAD DUP1 SWAP2 SUB SWAP1 RETURN JUMPDEST PUSH2 0xC8 PUSH2 0x3E3 JUMP JUMPDEST PUSH0 DUP1 DUP4 PUSH20 0xFFFFFFFFFFFFFFFFFFFFFFFFFFFFFFFFFFFFFFFF AND PUSH20 0xFFFFFFFFFFFFFFFFFFFFFFFFFFFFFFFFFFFFFFFF AND DUP2 MSTORE PUSH1 0x20 ADD SWAP1 DUP2 MSTORE PUSH1 0x20 ADD PUSH0 KECCAK256 PUSH1 0x40 MLOAD DUP1 PUSH1 0x40 ADD PUSH1 0x40 MSTORE SWAP1 DUP2 PUSH0 DUP3 ADD DUP1 SLOAD PUSH2 0x11E SWAP1 PUSH2 0x7C2 JUMP JUMPDEST DUP1 PUSH1 0x1F ADD PUSH1 0x20 DUP1 SWAP2 DIV MUL PUSH1 0x20 ADD PUSH1 0x40 MLOAD SWAP1 DUP2 ADD PUSH1 0x40 MSTORE DUP1 SWAP3 SWAP2 SWAP1 DUP2 DUP2 MSTORE PUSH1 0x20 ADD DUP3 DUP1 SLOAD PUSH2 0x14A SWAP1 PUSH2 0x7C2 JUMP JUMPDEST DUP1 ISZERO PUSH2 0x195 JUMPI DUP1 PUSH1 0x1F LT PUSH2 0x16C JUMPI PUSH2 0x100 DUP1 DUP4 SLOAD DIV MUL DUP4 MSTORE SWAP2 PUSH1 0x20 ADD SWAP2 PUSH2 0x195 JUMP JUMPDEST DUP3 ADD SWAP2 SWAP1 PUSH0 MSTORE PUSH1 0x20 PUSH0 KECCAK256 SWAP1 JUMPDEST DUP2 SLOAD DUP2 MSTORE SWAP1 PUSH1 0x1 ADD SWAP1 PUSH1 0x20 ADD DUP1 DUP4 GT PUSH2 0x178 JUMPI DUP3 SWAP1 SUB PUSH1 0x1F AND DUP3 ADD SWAP2 JUMPDEST POP POP POP POP POP DUP2 MSTORE PUSH1 0x20 ADD PUSH1 0x1 DUP3 ADD DUP1 SLOAD PUSH2 0x1AE SWAP1 PUSH2 0x7C2 JUMP JUMPDEST DUP1 PUSH1 0x1F ADD PUSH1 0x20 DUP1 SWAP2 DIV MUL PUSH1 0x20 ADD PUSH1 0x40 MLOAD SWAP1 DUP2 ADD PUSH1 0x40 MSTORE DUP1 SWAP3 SWAP2 SWAP1 DUP2 DUP2 MSTORE PUSH1 0x20 ADD DUP3 DUP1 SLOAD PUSH2 0x1DA SWAP1 PUSH2 0x7C2 JUMP JUMPDEST DUP1 ISZERO PUSH2 0x225 JUMPI DUP1 PUSH1 0x1F LT PUSH2 0x1FC JUMPI PUSH2 0x100 DUP1 DUP4 SLOAD DIV MUL DUP4 MSTORE SWAP2 PUSH1 0x20 ADD SWAP2 PUSH2 0x225 JUMP JUMPDEST DUP3 ADD SWAP2 SWAP1 PUSH0 MSTORE PUSH1 0x20 PUSH0 KECCAK256 SWAP1 JUMPDEST DUP2 SLOAD DUP2 MSTORE SWAP1 PUSH1 0x1 ADD SWAP1 PUSH1 0x20 ADD DUP1 DUP4 GT PUSH2 0x208 JUMPI DUP3 SWAP1 SUB PUSH1 0x1F AND DUP3 ADD SWAP2 JUMPDEST POP POP POP POP POP DUP2 MSTORE POP POP SWAP1 POP SWAP2 SWAP1 POP JUMP JUMPDEST PUSH1 0x40 MLOAD DUP1 PUSH1 0x40 ADD PUSH1 0x40 MSTORE DUP1 DUP4 DUP2 MSTORE PUSH1 0x20 ADD DUP3 DUP2 MSTORE POP PUSH0 DUP1 DUP6 PUSH20 0xFFFFFFFFFFFFFFFFFFFFFFFFFFFFFFFFFFFFFFFF AND PUSH20 0xFFFFFFFFFFFFFFFFFFFFFFFFFFFFFFFFFFFFFFFF AND DUP2 MSTORE PUSH1 0x20 ADD SWAP1 DUP2 MSTORE PUSH1 0x20 ADD PUSH0 KECCAK256 PUSH0 DUP3 ADD MLOAD DUP2 PUSH0 ADD SWAP1 DUP2 PUSH2 0x299 SWAP2 SWAP1 PUSH2 0x998 JUMP JUMPDEST POP PUSH1 0x20 DUP3 ADD MLOAD DUP2 PUSH1 0x1 ADD SWAP1 DUP2 PUSH2 0x2AF SWAP2 SWAP1 PUSH2 0x998 JUMP JUMPDEST POP SWAP1 POP POP POP POP POP JUMP JUMPDEST PUSH0 PUSH1 0x20 MSTORE DUP1 PUSH0 MSTORE PUSH1 0x40 PUSH0 KECCAK256 PUSH0 SWAP2 POP SWAP1 POP DUP1 PUSH0 ADD DUP1 SLOAD PUSH2 0x2D6 SWAP1 PUSH2 0x7C2 JUMP JUMPDEST DUP1 PUSH1 0x1F ADD PUSH1 0x20 DUP1 SWAP2 DIV MUL PUSH1 0x20 ADD PUSH1 0x40 MLOAD SWAP1 DUP2 ADD PUSH1 0x40 MSTORE DUP1 SWAP3 SWAP2 SWAP1 DUP2 DUP2 MSTORE PUSH1 0x20 ADD DUP3 DUP1 SLOAD PUSH2 0x302 SWAP1 PUSH2 0x7C2 JUMP JUMPDEST DUP1 ISZERO PUSH2 0x34D JUMPI DUP1 PUSH1 0x1F LT PUSH2 0x324 JUMPI PUSH2 0x100 DUP1 DUP4 SLOAD DIV MUL DUP4 MSTORE SWAP2 PUSH1 0x20 ADD SWAP2 PUSH2 0x34D JUMP JUMPDEST DUP3 ADD SWAP2 SWAP1 PUSH0 MSTORE PUSH1 0x20 PUSH0 KECCAK256 SWAP1 JUMPDEST DUP2 SLOAD DUP2 MSTORE SWAP1 PUSH1 0x1 ADD SWAP1 PUSH1 0x20 ADD DUP1 DUP4 GT PUSH2 0x330 JUMPI DUP3 SWAP1 SUB PUSH1 0x1F AND DUP3 ADD SWAP2 JUMPDEST POP POP POP POP POP SWAP1 DUP1 PUSH1 0x1 ADD DUP1 SLOAD PUSH2 0x362 SWAP1 PUSH2 0x7C2 JUMP JUMPDEST DUP1 PUSH1 0x1F ADD PUSH1 0x20 DUP1 SWAP2 DIV MUL PUSH1 0x20 ADD PUSH1 0x40 MLOAD SWAP1 DUP2 ADD PUSH1 0x40 MSTORE DUP1 SWAP3 SWAP2 SWAP1 DUP2 DUP2 MSTORE PUSH1 0x20 ADD DUP3 DUP1 SLOAD PUSH2 0x38E SWAP1 PUSH2 0x7C2 JUMP JUMPDEST DUP1 ISZERO PUSH2 0x3D9 JUMPI DUP1 PUSH1 0x1F LT PUSH2 0x3B0 JUMPI PUSH2 0x100 DUP1 DUP4 SLOAD DIV MUL DUP4 MSTORE SWAP2 PUSH1 0x20 ADD SWAP2 PUSH2 0x3D9 JUMP JUMPDEST DUP3 ADD SWAP2 SWAP1 PUSH0 MSTORE PUSH1 0x20 PUSH0 KECCAK256 SWAP1 JUMPDEST DUP2 SLOAD DUP2 MSTORE SWAP1 PUSH1 0x1 ADD SWAP1 PUSH1 0x20 ADD DUP1 DUP4 GT PUSH2 0x3BC JUMPI DUP3 SWAP1 SUB PUSH1 0x1F AND DUP3 ADD SWAP2 JUMPDEST POP POP POP POP POP SWAP1 POP DUP3 JUMP JUMPDEST PUSH1 0x40 MLOAD DUP1 PUSH1 0x40 ADD PUSH1 0x40 MSTORE DUP1 PUSH1 0x60 DUP2 MSTORE PUSH1 0x20 ADD PUSH1 0x60 DUP2 MSTORE POP SWAP1 JUMP JUMPDEST PUSH0 PUSH1 0x40 MLOAD SWAP1 POP SWAP1 JUMP JUMPDEST PUSH0 DUP1 REVERT JUMPDEST PUSH0 DUP1 REVERT JUMPDEST PUSH0 PUSH20 0xFFFFFFFFFFFFFFFFFFFFFFFFFFFFFFFFFFFFFFFF DUP3 AND SWAP1 POP SWAP2 SWAP1 POP JUMP JUMPDEST PUSH0 PUSH2 0x437 DUP3 PUSH2 0x40E JUMP JUMPDEST SWAP1 POP SWAP2 SWAP1 POP JUMP JUMPDEST PUSH2 0x447 DUP2 PUSH2 0x42D JUMP JUMPDEST DUP2 EQ PUSH2 0x451 JUMPI PUSH0 DUP1 REVERT JUMPDEST POP JUMP JUMPDEST PUSH0 DUP2 CALLDATALOAD SWAP1 POP PUSH2 0x462 DUP2 PUSH2 0x43E JUMP JUMPDEST SWAP3 SWAP2 POP POP JUMP JUMPDEST PUSH0 PUSH1 0x20 DUP3 DUP5 SUB SLT ISZERO PUSH2 0x47D JUMPI PUSH2 0x47C PUSH2 0x406 JUMP JUMPDEST JUMPDEST PUSH0 PUSH2 0x48A DUP5 DUP3 DUP6 ADD PUSH2 0x454 JUMP JUMPDEST SWAP2 POP POP SWAP3 SWAP2 POP POP JUMP JUMPDEST PUSH0 DUP2 MLOAD SWAP1 POP SWAP2 SWAP1 POP JUMP JUMPDEST PUSH0 DUP3 DUP3 MSTORE PUSH1 0x20 DUP3 ADD SWAP1 POP SWAP3 SWAP2 POP POP JUMP JUMPDEST DUP3 DUP2 DUP4 MCOPY PUSH0 DUP4 DUP4 ADD MSTORE POP POP POP JUMP JUMPDEST PUSH0 PUSH1 0x1F NOT PUSH1 0x1F DUP4 ADD AND SWAP1 POP SWAP2 SWAP1 POP JUMP JUMPDEST PUSH0 PUSH2 0x4D5 DUP3 PUSH2 0x493 JUMP JUMPDEST PUSH2 0x4DF DUP2 DUP6 PUSH2 0x49D JUMP JUMPDEST SWAP4 POP PUSH2 0x4EF DUP2 DUP6 PUSH1 0x20 DUP7 ADD PUSH2 0x4AD JUMP JUMPDEST PUSH2 0x4F8 DUP2 PUSH2 0x4BB JUMP JUMPDEST DUP5 ADD SWAP2 POP POP SWAP3 SWAP2 POP POP JUMP JUMPDEST PUSH0 PUSH1 0x40 DUP4 ADD PUSH0 DUP4 ADD MLOAD DUP5 DUP3 SUB PUSH0 DUP7 ADD MSTORE PUSH2 0x51D DUP3 DUP3 PUSH2 0x4CB JUMP JUMPDEST SWAP2 POP POP PUSH1 0x20 DUP4 ADD MLOAD DUP5 DUP3 SUB PUSH1 0x20 DUP7 ADD MSTORE PUSH2 0x537 DUP3 DUP3 PUSH2 0x4CB JUMP JUMPDEST SWAP2 POP POP DUP1 SWAP2 POP POP SWAP3 SWAP2 POP POP JUMP JUMPDEST PUSH0 PUSH1 0x20 DUP3 ADD SWAP1 POP DUP2 DUP2 SUB PUSH0 DUP4 ADD MSTORE PUSH2 0x55C DUP2 DUP5 PUSH2 0x503 JUMP JUMPDEST SWAP1 POP SWAP3 SWAP2 POP POP JUMP JUMPDEST PUSH0 DUP1 REVERT JUMPDEST PUSH0 DUP1 REVERT JUMPDEST PUSH32 0x4E487B7100000000000000000000000000000000000000000000000000000000 PUSH0 MSTORE PUSH1 0x41 PUSH1 0x4 MSTORE PUSH1 0x24 PUSH0 REVERT JUMPDEST PUSH2 0x5A2 DUP3 PUSH2 0x4BB JUMP JUMPDEST DUP2 ADD DUP2 DUP2 LT PUSH8 0xFFFFFFFFFFFFFFFF DUP3 GT OR ISZERO PUSH2 0x5C1 JUMPI PUSH2 0x5C0 PUSH2 0x56C JUMP JUMPDEST JUMPDEST DUP1 PUSH1 0x40 MSTORE POP POP POP JUMP JUMPDEST PUSH0 PUSH2 0x5D3 PUSH2 0x3FD JUMP JUMPDEST SWAP1 POP PUSH2 0x5DF DUP3 DUP3 PUSH2 0x599 JUMP JUMPDEST SWAP2 SWAP1 POP JUMP JUMPDEST PUSH0 PUSH8 0xFFFFFFFFFFFFFFFF DUP3 GT ISZERO PUSH2 0x5FE JUMPI PUSH2 0x5FD PUSH2 0x56C JUMP JUMPDEST JUMPDEST PUSH2 0x607 DUP3 PUSH2 0x4BB JUMP JUMPDEST SWAP1 POP PUSH1 0x20 DUP2 ADD SWAP1 POP SWAP2 SWAP1 POP JUMP JUMPDEST DUP3 DUP2 DUP4 CALLDATACOPY PUSH0 DUP4 DUP4 ADD MSTORE POP POP POP JUMP JUMPDEST PUSH0 PUSH2 0x634 PUSH2 0x62F DUP5 PUSH2 0x5E4 JUMP JUMPDEST PUSH2 0x5CA JUMP JUMPDEST SWAP1 POP DUP3 DUP2 MSTORE PUSH1 0x20 DUP2 ADD DUP5 DUP5 DUP5 ADD GT ISZERO PUSH2 0x650 JUMPI PUSH2 0x64F PUSH2 0x568 JUMP JUMPDEST JUMPDEST PUSH2 0x65B DUP5 DUP3 DUP6 PUSH2 0x614 JUMP JUMPDEST POP SWAP4 SWAP3 POP POP POP JUMP JUMPDEST PUSH0 DUP3 PUSH1 0x1F DUP4 ADD SLT PUSH2 0x677 JUMPI PUSH2 0x676 PUSH2 0x564 JUMP JUMPDEST JUMPDEST DUP2 CALLDATALOAD PUSH2 0x687 DUP5 DUP3 PUSH1 0x20 DUP7 ADD PUSH2 0x622 JUMP JUMPDEST SWAP2 POP POP SWAP3 SWAP2 POP POP JUMP JUMPDEST PUSH0 DUP1 PUSH0 PUSH1 0x60 DUP5 DUP7 SUB SLT ISZERO PUSH2 0x6A7 JUMPI PUSH2 0x6A6 PUSH2 0x406 JUMP JUMPDEST JUMPDEST PUSH0 PUSH2 0x6B4 DUP7 DUP3 DUP8 ADD PUSH2 0x454 JUMP JUMPDEST SWAP4 POP POP PUSH1 0x20 DUP5 ADD CALLDATALOAD PUSH8 0xFFFFFFFFFFFFFFFF DUP2 GT ISZERO PUSH2 0x6D5 JUMPI PUSH2 0x6D4 PUSH2 0x40A JUMP JUMPDEST JUMPDEST PUSH2 0x6E1 DUP7 DUP3 DUP8 ADD PUSH2 0x663 JUMP JUMPDEST SWAP3 POP POP PUSH1 0x40 DUP5 ADD CALLDATALOAD PUSH8 0xFFFFFFFFFFFFFFFF DUP2 GT ISZERO PUSH2 0x702 JUMPI PUSH2 0x701 PUSH2 0x40A JUMP JUMPDEST JUMPDEST PUSH2 0x70E DUP7 DUP3 DUP8 ADD PUSH2 0x663 JUMP JUMPDEST SWAP2 POP POP SWAP3 POP SWAP3 POP SWAP3 JUMP JUMPDEST PUSH0 DUP3 DUP3 MSTORE PUSH1 0x20 DUP3 ADD SWAP1 POP SWAP3 SWAP2 POP POP JUMP JUMPDEST PUSH0 PUSH2 0x732 DUP3 PUSH2 0x493 JUMP JUMPDEST PUSH2 0x73C DUP2 DUP6 PUSH2 0x718 JUMP JUMPDEST SWAP4 POP PUSH2 0x74C DUP2 DUP6 PUSH1 0x20 DUP7 ADD PUSH2 0x4AD JUMP JUMPDEST PUSH2 0x755 DUP2 PUSH2 0x4BB JUMP JUMPDEST DUP5 ADD SWAP2 POP POP SWAP3 SWAP2 POP POP JUMP JUMPDEST PUSH0 PUSH1 0x40 DUP3 ADD SWAP1 POP DUP2 DUP2 SUB PUSH0 DUP4 ADD MSTORE PUSH2 0x778 DUP2 DUP6 PUSH2 0x728 JUMP JUMPDEST SWAP1 POP DUP2 DUP2 SUB PUSH1 0x20 DUP4 ADD MSTORE PUSH2 0x78C DUP2 DUP5 PUSH2 0x728 JUMP JUMPDEST SWAP1 POP SWAP4 SWAP3 POP POP POP JUMP JUMPDEST PUSH32 0x4E487B7100000000000000000000000000000000000000000000000000000000 PUSH0 MSTORE PUSH1 0x22 PUSH1 0x4 MSTORE PUSH1 0x24 PUSH0 REVERT JUMPDEST PUSH0 PUSH1 0x2 DUP3 DIV SWAP1 POP PUSH1 0x1 DUP3 AND DUP1 PUSH2 0x7D9 JUMPI PUSH1 0x7F DUP3 AND SWAP2 POP JUMPDEST PUSH1 0x20 DUP3 LT DUP2 SUB PUSH2 0x7EC JUMPI PUSH2 0x7EB PUSH2 0x795 JUMP JUMPDEST JUMPDEST POP SWAP2 SWAP1 POP JUMP JUMPDEST PUSH0 DUP2 SWAP1 POP DUP2 PUSH0 MSTORE PUSH1 0x20 PUSH0 KECCAK256 SWAP1 POP SWAP2 SWAP1 POP JUMP JUMPDEST PUSH0 PUSH1 0x20 PUSH1 0x1F DUP4 ADD DIV SWAP1 POP SWAP2 SWAP1 POP JUMP JUMPDEST PUSH0 DUP3 DUP3 SHL SWAP1 POP SWAP3 SWAP2 POP POP JUMP JUMPDEST PUSH0 PUSH1 0x8 DUP4 MUL PUSH2 0x84E PUSH32 0xFFFFFFFFFFFFFFFFFFFFFFFFFFFFFFFFFFFFFFFFFFFFFFFFFFFFFFFFFFFFFFFF DUP3 PUSH2 0x813 JUMP JUMPDEST PUSH2 0x858 DUP7 DUP4 PUSH2 0x813 JUMP JUMPDEST SWAP6 POP DUP1 NOT DUP5 AND SWAP4 POP DUP1 DUP7 AND DUP5 OR SWAP3 POP POP POP SWAP4 SWAP3 POP POP POP JUMP JUMPDEST PUSH0 DUP2 SWAP1 POP SWAP2 SWAP1 POP JUMP JUMPDEST PUSH0 DUP2 SWAP1 POP SWAP2 SWAP1 POP JUMP JUMPDEST PUSH0 PUSH2 0x89C PUSH2 0x897 PUSH2 0x892 DUP5 PUSH2 0x870 JUMP JUMPDEST PUSH2 0x879 JUMP JUMPDEST PUSH2 0x870 JUMP JUMPDEST SWAP1 POP SWAP2 SWAP1 POP JUMP JUMPDEST PUSH0 DUP2 SWAP1 POP SWAP2 SWAP1 POP JUMP JUMPDEST PUSH2 0x8B5 DUP4 PUSH2 0x882 JUMP JUMPDEST PUSH2 0x8C9 PUSH2 0x8C1 DUP3 PUSH2 0x8A3 JUMP JUMPDEST DUP5 DUP5 SLOAD PUSH2 0x81F JUMP JUMPDEST DUP3 SSTORE POP POP POP POP JUMP JUMPDEST PUSH0 SWAP1 JUMP JUMPDEST PUSH2 0x8DD PUSH2 0x8D1 JUMP JUMPDEST PUSH2 0x8E8 DUP2 DUP5 DUP5 PUSH2 0x8AC JUMP JUMPDEST POP POP POP JUMP JUMPDEST JUMPDEST DUP2 DUP2 LT ISZERO PUSH2 0x90B JUMPI PUSH2 0x900 PUSH0 DUP3 PUSH2 0x8D5 JUMP JUMPDEST PUSH1 0x1 DUP2 ADD SWAP1 POP PUSH2 0x8EE JUMP JUMPDEST POP POP JUMP JUMPDEST PUSH1 0x1F DUP3 GT ISZERO PUSH2 0x950 JUMPI PUSH2 0x921 DUP2 PUSH2 0x7F2 JUMP JUMPDEST PUSH2 0x92A DUP5 PUSH2 0x804 JUMP JUMPDEST DUP2 ADD PUSH1 0x20 DUP6 LT ISZERO PUSH2 0x939 JUMPI DUP2 SWAP1 POP JUMPDEST PUSH2 0x94D PUSH2 0x945 DUP6 PUSH2 0x804 JUMP JUMPDEST DUP4 ADD DUP3 PUSH2 0x8ED JUMP JUMPDEST POP POP JUMPDEST POP POP POP JUMP JUMPDEST PUSH0 DUP3 DUP3 SHR SWAP1 POP SWAP3 SWAP2 POP POP JUMP JUMPDEST PUSH0 PUSH2 0x970 PUSH0 NOT DUP5 PUSH1 0x8 MUL PUSH2 0x955 JUMP JUMPDEST NOT DUP1 DUP4 AND SWAP2 POP POP SWAP3 SWAP2 POP POP JUMP JUMPDEST PUSH0 PUSH2 0x988 DUP4 DUP4 PUSH2 0x961 JUMP JUMPDEST SWAP2 POP DUP3 PUSH1 0x2 MUL DUP3 OR SWAP1 POP SWAP3 SWAP2 POP POP JUMP JUMPDEST PUSH2 0x9A1 DUP3 PUSH2 0x493 JUMP JUMPDEST PUSH8 0xFFFFFFFFFFFFFFFF DUP2 GT ISZERO PUSH2 0x9BA JUMPI PUSH2 0x9B9 PUSH2 0x56C JUMP JUMPDEST JUMPDEST PUSH2 0x9C4 DUP3 SLOAD PUSH2 0x7C2 JUMP JUMPDEST PUSH2 0x9CF DUP3 DUP3 DUP6 PUSH2 0x90F JUMP JUMPDEST PUSH0 PUSH1 0x20 SWAP1 POP PUSH1 0x1F DUP4 GT PUSH1 0x1 DUP2 EQ PUSH2 0xA00 JUMPI PUSH0 DUP5 ISZERO PUSH2 0x9EE JUMPI DUP3 DUP8 ADD MLOAD SWAP1 POP JUMPDEST PUSH2 0x9F8 DUP6 DUP3 PUSH2 0x97D JUMP JUMPDEST DUP7 SSTORE POP PUSH2 0xA5F JUMP JUMPDEST PUSH1 0x1F NOT DUP5 AND PUSH2 0xA0E DUP7 PUSH2 0x7F2 JUMP JUMPDEST PUSH0 JUMPDEST DUP3 DUP2 LT ISZERO PUSH2 0xA35 JUMPI DUP5 DUP10 ADD MLOAD DUP3 SSTORE PUSH1 0x1 DUP3 ADD SWAP2 POP PUSH1 0x20 DUP6 ADD SWAP5 POP PUSH1 0x20 DUP2 ADD SWAP1 POP PUSH2 0xA10 JUMP JUMPDEST DUP7 DUP4 LT ISZERO PUSH2 0xA52 JUMPI DUP5 DUP10 ADD MLOAD PUSH2 0xA4E PUSH1 0x1F DUP10 AND DUP3 PUSH2 0x961 JUMP JUMPDEST DUP4 SSTORE POP JUMPDEST PUSH1 0x1 PUSH1 0x2 DUP9 MUL ADD DUP9 SSTORE POP POP POP JUMPDEST POP POP POP POP POP POP JUMP INVALID LOG2 PUSH5 0x6970667358 0x22 SLT KECCAK256 PUSH10 0x2786ED60AAFAB3B9B635 0xE6 SWAP15 DUP8 DUP7 0xDF SWAP5 CALLCODE 0x2C 0xBE 0xE2 LOG2 0xF7 PUSH20 0x6C39D07C598DF66D64736F6C634300081A003300 "
				},
				"gasEstimates": {
					"creation": {
						"codeDepositCost": "543400",
						"executionCost": "573",
						"totalCost": "543973"
					},
					"external": {
						"getProfile(address)": "infinite",
						"profiles(address)": "infinite",
						"setProfile(address,string,string)": "infinite"
					}
				},
				"methodIdentifiers": {
					"getProfile(address)": "0f53a470",
					"profiles(address)": "bbe15627",
					"setProfile(address,string,string)": "2ee27f99"
				}
			},
			"storageLayout": {
				"storage": [
					{
						"astId": 11,
						"contract": "contracts/twitter/Profile.sol:Profile",
						"label": "profiles",
						"offset": 0,
						"slot": "0",
						"type": "t_mapping(t_address,t_struct(UserProfile)6_storage)"
					}
				],
				"types": {
					"t_address": {
						"encoding": "inplace",
						"label": "address",
						"numberOfBytes": "20"
					},
					"t_mapping(t_address,t_struct(UserProfile)6_storage)": {
						"encoding": "mapping",
						"key": "t_address",
						"label": "mapping(address => struct Profile.UserProfile)",
						"numberOfBytes": "32",
						"value": "t_struct(UserProfile)6_storage"
					},
					"t_string_storage": {
						"encoding": "bytes",
						"label": "string",
						"numberOfBytes": "32"
					},
					"t_struct(UserProfile)6_storage": {
						"encoding": "inplace",
						"label": "struct Profile.UserProfile",
						"members": [
							{
								"astId": 3,
								"contract": "contracts/twitter/Profile.sol:Profile",
								"label": "displayName",
								"offset": 0,
								"slot": "0",
								"type": "t_string_storage"
							},
							{
								"astId": 5,
								"contract": "contracts/twitter/Profile.sol:Profile",
								"label": "bio",
								"offset": 0,
								"slot": "1",
								"type": "t_string_storage"
							}
						],
						"numberOfBytes": "64"
					}
				}
			},
			"userdoc": {
				"kind": "user",
				"methods": {},
				"version": 1
			}
		}
	}
}