{
	"contracts/twitter/Twitter.sol": {
		"Twitter": {
			"abi": [
				{
					"inputs": [
						{
							"internalType": "string",
							"name": "_tweet",
							"type": "string"
						}
					],
					"name": "createTweet",
					"outputs": [],
					"stateMutability": "nonpayable",
					"type": "function"
				},
				{
					"inputs": [
						{
							"internalType": "address",
							"name": "_owner",
							"type": "address"
						},
						{
							"internalType": "uint256",
							"name": "_i",
							"type": "uint256"
						}
					],
					"name": "getTweet",
					"outputs": [
						{
							"components": [
								{
									"internalType": "address",
									"name": "author",
									"type": "address"
								},
								{
									"internalType": "string",
									"name": "content",
									"type": "string"
								},
								{
									"internalType": "uint256",
									"name": "timestamp",
									"type": "uint256"
								},
								{
									"internalType": "uint256",
									"name": "likes",
									"type": "uint256"
								}
							],
							"internalType": "struct Twitter.Tweet",
							"name": "",
							"type": "tuple"
						}
					],
					"stateMutability": "view",
					"type": "function"
				},
				{
					"inputs": [
						{
							"internalType": "address",
							"name": "_owner",
							"type": "address"
						}
					],
					"name": "getTweets",
					"outputs": [
						{
							"components": [
								{
									"internalType": "address",
									"name": "author",
									"type": "address"
								},
								{
									"internalType": "string",
									"name": "content",
									"type": "string"
								},
								{
									"internalType": "uint256",
									"name": "timestamp",
									"type": "uint256"
								},
								{
									"internalType": "uint256",
									"name": "likes",
									"type": "uint256"
								}
							],
							"internalType": "struct Twitter.Tweet[]",
							"name": "",
							"type": "tuple[]"
						}
					],
					"stateMutability": "view",
					"type": "function"
				},
				{
					"inputs": [
						{
							"internalType": "address",
							"name": "",
							"type": "address"
						},
						{
							"internalType": "uint256",
							"name": "",
							"type": "uint256"
						}
					],
					"name": "tweets",
					"outputs": [
						{
							"internalType": "address",
							"name": "author",
							"type": "address"
						},
						{
							"internalType": "string",
							"name": "content",
							"type": "string"
						},
						{
							"internalType": "uint256",
							"name": "timestamp",
							"type": "uint256"
						},
						{
							"internalType": "uint256",
							"name": "likes",
							"type": "uint256"
						}
					],
					"stateMutability": "view",
					"type": "function"
				}
			],
			"devdoc": {
				"kind": "dev",
				"methods": {},
				"version": 1
			},
			"evm": {
				"assembly": "    /* \"contracts/twitter/Twitter.sol\":61:972  contract Twitter{... */\n  mstore(0x40, 0x80)\n  callvalue\n  dup1\n  iszero\n  tag_1\n  jumpi\n  0x00\n  dup1\n  revert\ntag_1:\n  pop\n  dataSize(sub_0)\n  dup1\n  dataOffset(sub_0)\n  0x00\n  codecopy\n  0x00\n  return\nstop\n\nsub_0: assembly {\n        /* \"contracts/twitter/Twitter.sol\":61:972  contract Twitter{... */\n      mstore(0x40, 0x80)\n      callvalue\n      dup1\n      iszero\n      tag_1\n      jumpi\n      0x00\n      dup1\n      revert\n    tag_1:\n      pop\n      jumpi(tag_2, lt(calldatasize, 0x04))\n      shr(0xe0, calldataload(0x00))\n      dup1\n      0x05a1b4a9\n      eq\n      tag_3\n      jumpi\n      dup1\n      0x112f54e3\n      eq\n      tag_4\n      jumpi\n      dup1\n      0x7c9cd2bc\n      eq\n      tag_5\n      jumpi\n      dup1\n      0x9e92b093\n      eq\n      tag_6\n      jumpi\n    tag_2:\n      0x00\n      dup1\n      revert\n        /* \"contracts/twitter/Twitter.sol\":256:297  mapping(address => Tweet[]) public tweets */\n    tag_3:\n      tag_7\n      0x04\n      dup1\n      calldatasize\n      sub\n      dup2\n      add\n      swap1\n      tag_8\n      swap2\n      swap1\n      tag_9\n      jump\t// in\n    tag_8:\n      tag_10\n      jump\t// in\n    tag_7:\n      mload(0x40)\n      tag_11\n      swap5\n      swap4\n      swap3\n      swap2\n      swap1\n      tag_12\n      jump\t// in\n    tag_11:\n      mload(0x40)\n      dup1\n      swap2\n      sub\n      swap1\n      return\n        /* \"contracts/twitter/Twitter.sol\":729:850  function getTweet(address _owner, uint _i) public view returns (Tweet memory){... */\n    tag_4:\n      tag_13\n      0x04\n      dup1\n      calldatasize\n      sub\n      dup2\n      add\n      swap1\n      tag_14\n      swap2\n      swap1\n      tag_9\n      jump\t// in\n    tag_14:\n      tag_15\n      jump\t// in\n    tag_13:\n      mload(0x40)\n      tag_16\n      swap2\n      swap1\n      tag_17\n      jump\t// in\n    tag_16:\n      mload(0x40)\n      dup1\n      swap2\n      sub\n      swap1\n      return\n        /* \"contracts/twitter/Twitter.sol\":306:721  function createTweet(string memory _tweet) public {... */\n    tag_5:\n      tag_18\n      0x04\n      dup1\n      calldatasize\n      sub\n      dup2\n      add\n      swap1\n      tag_19\n      swap2\n      swap1\n      tag_20\n      jump\t// in\n    tag_19:\n      tag_21\n      jump\t// in\n    tag_18:\n      stop\n        /* \"contracts/twitter/Twitter.sol\":858:969  function getTweets(address _owner) public view returns (Tweet[] memory){... */\n    tag_6:\n      tag_22\n      0x04\n      dup1\n      calldatasize\n      sub\n      dup2\n      add\n      swap1\n      tag_23\n      swap2\n      swap1\n      tag_24\n      jump\t// in\n    tag_23:\n      tag_25\n      jump\t// in\n    tag_22:\n      mload(0x40)\n      tag_26\n      swap2\n      swap1\n      tag_27\n      jump\t// in\n    tag_26:\n      mload(0x40)\n      dup1\n      swap2\n      sub\n      swap1\n      return\n        /* \"contracts/twitter/Twitter.sol\":256:297  mapping(address => Tweet[]) public tweets */\n    tag_10:\n      mstore(0x20, 0x00)\n      dup2\n      0x00\n      mstore\n      keccak256(0x00, 0x40)\n      dup2\n      dup2\n      sload\n      dup2\n      lt\n      tag_28\n      jumpi\n      0x00\n      dup1\n      revert\n    tag_28:\n      swap1\n      0x00\n      mstore\n      keccak256(0x00, 0x20)\n      swap1\n      0x04\n      mul\n      add\n      0x00\n      swap2\n      pop\n      swap2\n      pop\n      pop\n      dup1\n      0x00\n      add\n      0x00\n      swap1\n      sload\n      swap1\n      0x0100\n      exp\n      swap1\n      div\n      0xffffffffffffffffffffffffffffffffffffffff\n      and\n      swap1\n      dup1\n      0x01\n      add\n      dup1\n      sload\n      tag_30\n      swap1\n      tag_31\n      jump\t// in\n    tag_30:\n      dup1\n      0x1f\n      add\n      0x20\n      dup1\n      swap2\n      div\n      mul\n      0x20\n      add\n      mload(0x40)\n      swap1\n      dup2\n      add\n      0x40\n      mstore\n      dup1\n      swap3\n      swap2\n      swap1\n      dup2\n      dup2\n      mstore\n      0x20\n      add\n      dup3\n      dup1\n      sload\n      tag_32\n      swap1\n      tag_31\n      jump\t// in\n    tag_32:\n      dup1\n      iszero\n      tag_33\n      jumpi\n      dup1\n      0x1f\n      lt\n      tag_34\n      jumpi\n      0x0100\n      dup1\n      dup4\n      sload\n      div\n      mul\n      dup4\n      mstore\n      swap2\n      0x20\n      add\n      swap2\n      jump(tag_33)\n    tag_34:\n      dup3\n      add\n      swap2\n      swap1\n      0x00\n      mstore\n      keccak256(0x00, 0x20)\n      swap1\n    tag_35:\n      dup2\n      sload\n      dup2\n      mstore\n      swap1\n      0x01\n      add\n      swap1\n      0x20\n      add\n      dup1\n      dup4\n      gt\n      tag_35\n      jumpi\n      dup3\n      swap1\n      sub\n      0x1f\n      and\n      dup3\n      add\n      swap2\n    tag_33:\n      pop\n      pop\n      pop\n      pop\n      pop\n      swap1\n      dup1\n      0x02\n      add\n      sload\n      swap1\n      dup1\n      0x03\n      add\n      sload\n      swap1\n      pop\n      dup5\n      jump\t// out\n        /* \"contracts/twitter/Twitter.sol\":729:850  function getTweet(address _owner, uint _i) public view returns (Tweet memory){... */\n    tag_15:\n        /* \"contracts/twitter/Twitter.sol\":793:805  Tweet memory */\n      tag_36\n      tag_37\n      jump\t// in\n    tag_36:\n        /* \"contracts/twitter/Twitter.sol\":824:830  tweets */\n      0x00\n        /* \"contracts/twitter/Twitter.sol\":824:838  tweets[_owner] */\n      dup1\n        /* \"contracts/twitter/Twitter.sol\":831:837  _owner */\n      dup5\n        /* \"contracts/twitter/Twitter.sol\":824:838  tweets[_owner] */\n      0xffffffffffffffffffffffffffffffffffffffff\n      and\n      0xffffffffffffffffffffffffffffffffffffffff\n      and\n      dup2\n      mstore\n      0x20\n      add\n      swap1\n      dup2\n      mstore\n      0x20\n      add\n      0x00\n      keccak256\n        /* \"contracts/twitter/Twitter.sol\":839:841  _i */\n      dup3\n        /* \"contracts/twitter/Twitter.sol\":824:842  tweets[_owner][_i] */\n      dup2\n      sload\n      dup2\n      lt\n      tag_39\n      jumpi\n      tag_40\n      tag_41\n      jump\t// in\n    tag_40:\n    tag_39:\n      swap1\n      0x00\n      mstore\n      keccak256(0x00, 0x20)\n      swap1\n      0x04\n      mul\n      add\n        /* \"contracts/twitter/Twitter.sol\":817:842  return tweets[_owner][_i] */\n      mload(0x40)\n      dup1\n      0x80\n      add\n      0x40\n      mstore\n      swap1\n      dup2\n      0x00\n      dup3\n      add\n      0x00\n      swap1\n      sload\n      swap1\n      0x0100\n      exp\n      swap1\n      div\n      0xffffffffffffffffffffffffffffffffffffffff\n      and\n      0xffffffffffffffffffffffffffffffffffffffff\n      and\n      0xffffffffffffffffffffffffffffffffffffffff\n      and\n      dup2\n      mstore\n      0x20\n      add\n      0x01\n      dup3\n      add\n      dup1\n      sload\n      tag_43\n      swap1\n      tag_31\n      jump\t// in\n    tag_43:\n      dup1\n      0x1f\n      add\n      0x20\n      dup1\n      swap2\n      div\n      mul\n      0x20\n      add\n      mload(0x40)\n      swap1\n      dup2\n      add\n      0x40\n      mstore\n      dup1\n      swap3\n      swap2\n      swap1\n      dup2\n      dup2\n      mstore\n      0x20\n      add\n      dup3\n      dup1\n      sload\n      tag_44\n      swap1\n      tag_31\n      jump\t// in\n    tag_44:\n      dup1\n      iszero\n      tag_45\n      jumpi\n      dup1\n      0x1f\n      lt\n      tag_46\n      jumpi\n      0x0100\n      dup1\n      dup4\n      sload\n      div\n      mul\n      dup4\n      mstore\n      swap2\n      0x20\n      add\n      swap2\n      jump(tag_45)\n    tag_46:\n      dup3\n      add\n      swap2\n      swap1\n      0x00\n      mstore\n      keccak256(0x00, 0x20)\n      swap1\n    tag_47:\n      dup2\n      sload\n      dup2\n      mstore\n      swap1\n      0x01\n      add\n      swap1\n      0x20\n      add\n      dup1\n      dup4\n      gt\n      tag_47\n      jumpi\n      dup3\n      swap1\n      sub\n      0x1f\n      and\n      dup3\n      add\n      swap2\n    tag_45:\n      pop\n      pop\n      pop\n      pop\n      pop\n      dup2\n      mstore\n      0x20\n      add\n      0x02\n      dup3\n      add\n      sload\n      dup2\n      mstore\n      0x20\n      add\n      0x03\n      dup3\n      add\n      sload\n      dup2\n      mstore\n      pop\n      pop\n      swap1\n      pop\n        /* \"contracts/twitter/Twitter.sol\":729:850  function getTweet(address _owner, uint _i) public view returns (Tweet memory){... */\n      swap3\n      swap2\n      pop\n      pop\n      jump\t// out\n        /* \"contracts/twitter/Twitter.sol\":306:721  function createTweet(string memory _tweet) public {... */\n    tag_21:\n        /* \"contracts/twitter/Twitter.sol\":116:119  200 */\n      0xc8\n        /* \"contracts/twitter/Twitter.sol\":375:413  bytes(_tweet).length <= maxTweetLength */\n      0xff\n      and\n        /* \"contracts/twitter/Twitter.sol\":381:387  _tweet */\n      dup2\n        /* \"contracts/twitter/Twitter.sol\":375:395  bytes(_tweet).length */\n      mload\n        /* \"contracts/twitter/Twitter.sol\":375:413  bytes(_tweet).length <= maxTweetLength */\n      gt\n      iszero\n        /* \"contracts/twitter/Twitter.sol\":367:435  require(bytes(_tweet).length <= maxTweetLength, \"Tweet is too long\") */\n      tag_49\n      jumpi\n      mload(0x40)\n      0x08c379a000000000000000000000000000000000000000000000000000000000\n      dup2\n      mstore\n      0x04\n      add\n      tag_50\n      swap1\n      tag_51\n      jump\t// in\n    tag_50:\n      mload(0x40)\n      dup1\n      swap2\n      sub\n      swap1\n      revert\n    tag_49:\n        /* \"contracts/twitter/Twitter.sol\":446:467  Tweet memory newTweet */\n      0x00\n        /* \"contracts/twitter/Twitter.sol\":470:578  Tweet(... */\n      mload(0x40)\n      dup1\n      0x80\n      add\n      0x40\n      mstore\n      dup1\n        /* \"contracts/twitter/Twitter.sol\":490:500  msg.sender */\n      caller\n        /* \"contracts/twitter/Twitter.sol\":470:578  Tweet(... */\n      0xffffffffffffffffffffffffffffffffffffffff\n      and\n      dup2\n      mstore\n      0x20\n      add\n        /* \"contracts/twitter/Twitter.sol\":515:521  _tweet */\n      dup4\n        /* \"contracts/twitter/Twitter.sol\":470:578  Tweet(... */\n      dup2\n      mstore\n      0x20\n      add\n        /* \"contracts/twitter/Twitter.sol\":536:551  block.timestamp */\n      timestamp\n        /* \"contracts/twitter/Twitter.sol\":470:578  Tweet(... */\n      dup2\n      mstore\n      0x20\n      add\n        /* \"contracts/twitter/Twitter.sol\":566:567  0 */\n      0x00\n        /* \"contracts/twitter/Twitter.sol\":470:578  Tweet(... */\n      dup2\n      mstore\n      pop\n        /* \"contracts/twitter/Twitter.sol\":446:578  Tweet memory newTweet = Tweet(... */\n      swap1\n      pop\n        /* \"contracts/twitter/Twitter.sol\":680:686  tweets */\n      0x00\n        /* \"contracts/twitter/Twitter.sol\":680:698  tweets[msg.sender] */\n      dup1\n        /* \"contracts/twitter/Twitter.sol\":687:697  msg.sender */\n      caller\n        /* \"contracts/twitter/Twitter.sol\":680:698  tweets[msg.sender] */\n      0xffffffffffffffffffffffffffffffffffffffff\n      and\n      0xffffffffffffffffffffffffffffffffffffffff\n      and\n      dup2\n      mstore\n      0x20\n      add\n      swap1\n      dup2\n      mstore\n      0x20\n      add\n      0x00\n      keccak256\n        /* \"contracts/twitter/Twitter.sol\":704:712  newTweet */\n      dup2\n        /* \"contracts/twitter/Twitter.sol\":680:713  tweets[msg.sender].push(newTweet) */\n      swap1\n      dup1\n      0x01\n      dup2\n      sload\n      add\n      dup1\n      dup3\n      sstore\n      dup1\n      swap2\n      pop\n      pop\n      0x01\n      swap1\n      sub\n      swap1\n      0x00\n      mstore\n      keccak256(0x00, 0x20)\n      swap1\n      0x04\n      mul\n      add\n      0x00\n      swap1\n      swap2\n      swap1\n      swap2\n      swap1\n      swap2\n      pop\n      0x00\n      dup3\n      add\n      mload\n      dup2\n      0x00\n      add\n      exp(0x0100, 0x00)\n      dup2\n      sload\n      dup2\n      0xffffffffffffffffffffffffffffffffffffffff\n      mul\n      not\n      and\n      swap1\n      dup4\n      0xffffffffffffffffffffffffffffffffffffffff\n      and\n      mul\n      or\n      swap1\n      sstore\n      pop\n      0x20\n      dup3\n      add\n      mload\n      dup2\n      0x01\n      add\n      swap1\n      dup2\n      tag_53\n      swap2\n      swap1\n      tag_54\n      jump\t// in\n    tag_53:\n      pop\n      0x40\n      dup3\n      add\n      mload\n      dup2\n      0x02\n      add\n      sstore\n      0x60\n      dup3\n      add\n      mload\n      dup2\n      0x03\n      add\n      sstore\n      pop\n      pop\n        /* \"contracts/twitter/Twitter.sol\":356:721  {... */\n      pop\n        /* \"contracts/twitter/Twitter.sol\":306:721  function createTweet(string memory _tweet) public {... */\n      pop\n      jump\t// out\n        /* \"contracts/twitter/Twitter.sol\":858:969  function getTweets(address _owner) public view returns (Tweet[] memory){... */\n    tag_25:\n        /* \"contracts/twitter/Twitter.sol\":914:928  Tweet[] memory */\n      0x60\n        /* \"contracts/twitter/Twitter.sol\":947:953  tweets */\n      0x00\n        /* \"contracts/twitter/Twitter.sol\":947:961  tweets[_owner] */\n      dup1\n        /* \"contracts/twitter/Twitter.sol\":954:960  _owner */\n      dup4\n        /* \"contracts/twitter/Twitter.sol\":947:961  tweets[_owner] */\n      0xffffffffffffffffffffffffffffffffffffffff\n      and\n      0xffffffffffffffffffffffffffffffffffffffff\n      and\n      dup2\n      mstore\n      0x20\n      add\n      swap1\n      dup2\n      mstore\n      0x20\n      add\n      0x00\n      keccak256\n        /* \"contracts/twitter/Twitter.sol\":940:961  return tweets[_owner] */\n      dup1\n      sload\n      dup1\n      0x20\n      mul\n      0x20\n      add\n      mload(0x40)\n      swap1\n      dup2\n      add\n      0x40\n      mstore\n      dup1\n      swap3\n      swap2\n      swap1\n      dup2\n      dup2\n      mstore\n      0x20\n      add\n      0x00\n      swap1\n    tag_56:\n      dup3\n      dup3\n      lt\n      iszero\n      tag_57\n      jumpi\n      dup4\n      dup3\n      swap1\n      0x00\n      mstore\n      keccak256(0x00, 0x20)\n      swap1\n      0x04\n      mul\n      add\n      mload(0x40)\n      dup1\n      0x80\n      add\n      0x40\n      mstore\n      swap1\n      dup2\n      0x00\n      dup3\n      add\n      0x00\n      swap1\n      sload\n      swap1\n      0x0100\n      exp\n      swap1\n      div\n      0xffffffffffffffffffffffffffffffffffffffff\n      and\n      0xffffffffffffffffffffffffffffffffffffffff\n      and\n      0xffffffffffffffffffffffffffffffffffffffff\n      and\n      dup2\n      mstore\n      0x20\n      add\n      0x01\n      dup3\n      add\n      dup1\n      sload\n      tag_59\n      swap1\n      tag_31\n      jump\t// in\n    tag_59:\n      dup1\n      0x1f\n      add\n      0x20\n      dup1\n      swap2\n      div\n      mul\n      0x20\n      add\n      mload(0x40)\n      swap1\n      dup2\n      add\n      0x40\n      mstore\n      dup1\n      swap3\n      swap2\n      swap1\n      dup2\n      dup2\n      mstore\n      0x20\n      add\n      dup3\n      dup1\n      sload\n      tag_60\n      swap1\n      tag_31\n      jump\t// in\n    tag_60:\n      dup1\n      iszero\n      tag_61\n      jumpi\n      dup1\n      0x1f\n      lt\n      tag_62\n      jumpi\n      0x0100\n      dup1\n      dup4\n      sload\n      div\n      mul\n      dup4\n      mstore\n      swap2\n      0x20\n      add\n      swap2\n      jump(tag_61)\n    tag_62:\n      dup3\n      add\n      swap2\n      swap1\n      0x00\n      mstore\n      keccak256(0x00, 0x20)\n      swap1\n    tag_63:\n      dup2\n      sload\n      dup2\n      mstore\n      swap1\n      0x01\n      add\n      swap1\n      0x20\n      add\n      dup1\n      dup4\n      gt\n      tag_63\n      jumpi\n      dup3\n      swap1\n      sub\n      0x1f\n      and\n      dup3\n      add\n      swap2\n    tag_61:\n      pop\n      pop\n      pop\n      pop\n      pop\n      dup2\n      mstore\n      0x20\n      add\n      0x02\n      dup3\n      add\n      sload\n      dup2\n      mstore\n      0x20\n      add\n      0x03\n      dup3\n      add\n      sload\n      dup2\n      mstore\n      pop\n      pop\n      dup2\n      mstore\n      0x20\n      add\n      swap1\n      0x01\n      add\n      swap1\n      jump(tag_56)\n    tag_57:\n      pop\n      pop\n      pop\n      pop\n      swap1\n      pop\n        /* \"contracts/twitter/Twitter.sol\":858:969  function getTweets(address _owner) public view returns (Tweet[] memory){... */\n      swap2\n      swap1\n      pop\n      jump\t// out\n    tag_37:\n      mload(0x40)\n      dup1\n      0x80\n      add\n      0x40\n      mstore\n      dup1\n      and(0xffffffffffffffffffffffffffffffffffffffff, 0x00)\n      dup2\n      mstore\n      0x20\n      add\n      0x60\n      dup2\n      mstore\n      0x20\n      add\n      0x00\n      dup2\n      mstore\n      0x20\n      add\n      0x00\n      dup2\n      mstore\n      pop\n      swap1\n      jump\t// out\n        /* \"#utility.yul\":7:82   */\n    tag_64:\n        /* \"#utility.yul\":40:46   */\n      0x00\n        /* \"#utility.yul\":73:75   */\n      0x40\n        /* \"#utility.yul\":67:76   */\n      mload\n        /* \"#utility.yul\":57:76   */\n      swap1\n      pop\n        /* \"#utility.yul\":7:82   */\n      swap1\n      jump\t// out\n        /* \"#utility.yul\":88:205   */\n    tag_65:\n        /* \"#utility.yul\":197:198   */\n      0x00\n        /* \"#utility.yul\":194:195   */\n      dup1\n        /* \"#utility.yul\":187:199   */\n      revert\n        /* \"#utility.yul\":211:328   */\n    tag_66:\n        /* \"#utility.yul\":320:321   */\n      0x00\n        /* \"#utility.yul\":317:318   */\n      dup1\n        /* \"#utility.yul\":310:322   */\n      revert\n        /* \"#utility.yul\":334:460   */\n    tag_67:\n        /* \"#utility.yul\":371:378   */\n      0x00\n        /* \"#utility.yul\":411:453   */\n      0xffffffffffffffffffffffffffffffffffffffff\n        /* \"#utility.yul\":404:409   */\n      dup3\n        /* \"#utility.yul\":400:454   */\n      and\n        /* \"#utility.yul\":389:454   */\n      swap1\n      pop\n        /* \"#utility.yul\":334:460   */\n      swap2\n      swap1\n      pop\n      jump\t// out\n        /* \"#utility.yul\":466:562   */\n    tag_68:\n        /* \"#utility.yul\":503:510   */\n      0x00\n        /* \"#utility.yul\":532:556   */\n      tag_126\n        /* \"#utility.yul\":550:555   */\n      dup3\n        /* \"#utility.yul\":532:556   */\n      tag_67\n      jump\t// in\n    tag_126:\n        /* \"#utility.yul\":521:556   */\n      swap1\n      pop\n        /* \"#utility.yul\":466:562   */\n      swap2\n      swap1\n      pop\n      jump\t// out\n        /* \"#utility.yul\":568:690   */\n    tag_69:\n        /* \"#utility.yul\":641:665   */\n      tag_128\n        /* \"#utility.yul\":659:664   */\n      dup2\n        /* \"#utility.yul\":641:665   */\n      tag_68\n      jump\t// in\n    tag_128:\n        /* \"#utility.yul\":634:639   */\n      dup2\n        /* \"#utility.yul\":631:666   */\n      eq\n        /* \"#utility.yul\":621:684   */\n      tag_129\n      jumpi\n        /* \"#utility.yul\":680:681   */\n      0x00\n        /* \"#utility.yul\":677:678   */\n      dup1\n        /* \"#utility.yul\":670:682   */\n      revert\n        /* \"#utility.yul\":621:684   */\n    tag_129:\n        /* \"#utility.yul\":568:690   */\n      pop\n      jump\t// out\n        /* \"#utility.yul\":696:835   */\n    tag_70:\n        /* \"#utility.yul\":742:747   */\n      0x00\n        /* \"#utility.yul\":780:786   */\n      dup2\n        /* \"#utility.yul\":767:787   */\n      calldataload\n        /* \"#utility.yul\":758:787   */\n      swap1\n      pop\n        /* \"#utility.yul\":796:829   */\n      tag_131\n        /* \"#utility.yul\":823:828   */\n      dup2\n        /* \"#utility.yul\":796:829   */\n      tag_69\n      jump\t// in\n    tag_131:\n        /* \"#utility.yul\":696:835   */\n      swap3\n      swap2\n      pop\n      pop\n      jump\t// out\n        /* \"#utility.yul\":841:918   */\n    tag_71:\n        /* \"#utility.yul\":878:885   */\n      0x00\n        /* \"#utility.yul\":907:912   */\n      dup2\n        /* \"#utility.yul\":896:912   */\n      swap1\n      pop\n        /* \"#utility.yul\":841:918   */\n      swap2\n      swap1\n      pop\n      jump\t// out\n        /* \"#utility.yul\":924:1046   */\n    tag_72:\n        /* \"#utility.yul\":997:1021   */\n      tag_134\n        /* \"#utility.yul\":1015:1020   */\n      dup2\n        /* \"#utility.yul\":997:1021   */\n      tag_71\n      jump\t// in\n    tag_134:\n        /* \"#utility.yul\":990:995   */\n      dup2\n        /* \"#utility.yul\":987:1022   */\n      eq\n        /* \"#utility.yul\":977:1040   */\n      tag_135\n      jumpi\n        /* \"#utility.yul\":1036:1037   */\n      0x00\n        /* \"#utility.yul\":1033:1034   */\n      dup1\n        /* \"#utility.yul\":1026:1038   */\n      revert\n        /* \"#utility.yul\":977:1040   */\n    tag_135:\n        /* \"#utility.yul\":924:1046   */\n      pop\n      jump\t// out\n        /* \"#utility.yul\":1052:1191   */\n    tag_73:\n        /* \"#utility.yul\":1098:1103   */\n      0x00\n        /* \"#utility.yul\":1136:1142   */\n      dup2\n        /* \"#utility.yul\":1123:1143   */\n      calldataload\n        /* \"#utility.yul\":1114:1143   */\n      swap1\n      pop\n        /* \"#utility.yul\":1152:1185   */\n      tag_137\n        /* \"#utility.yul\":1179:1184   */\n      dup2\n        /* \"#utility.yul\":1152:1185   */\n      tag_72\n      jump\t// in\n    tag_137:\n        /* \"#utility.yul\":1052:1191   */\n      swap3\n      swap2\n      pop\n      pop\n      jump\t// out\n        /* \"#utility.yul\":1197:1671   */\n    tag_9:\n        /* \"#utility.yul\":1265:1271   */\n      0x00\n        /* \"#utility.yul\":1273:1279   */\n      dup1\n        /* \"#utility.yul\":1322:1324   */\n      0x40\n        /* \"#utility.yul\":1310:1319   */\n      dup4\n        /* \"#utility.yul\":1301:1308   */\n      dup6\n        /* \"#utility.yul\":1297:1320   */\n      sub\n        /* \"#utility.yul\":1293:1325   */\n      slt\n        /* \"#utility.yul\":1290:1409   */\n      iszero\n      tag_139\n      jumpi\n        /* \"#utility.yul\":1328:1407   */\n      tag_140\n      tag_65\n      jump\t// in\n    tag_140:\n        /* \"#utility.yul\":1290:1409   */\n    tag_139:\n        /* \"#utility.yul\":1448:1449   */\n      0x00\n        /* \"#utility.yul\":1473:1526   */\n      tag_141\n        /* \"#utility.yul\":1518:1525   */\n      dup6\n        /* \"#utility.yul\":1509:1515   */\n      dup3\n        /* \"#utility.yul\":1498:1507   */\n      dup7\n        /* \"#utility.yul\":1494:1516   */\n      add\n        /* \"#utility.yul\":1473:1526   */\n      tag_70\n      jump\t// in\n    tag_141:\n        /* \"#utility.yul\":1463:1526   */\n      swap3\n      pop\n        /* \"#utility.yul\":1419:1536   */\n      pop\n        /* \"#utility.yul\":1575:1577   */\n      0x20\n        /* \"#utility.yul\":1601:1654   */\n      tag_142\n        /* \"#utility.yul\":1646:1653   */\n      dup6\n        /* \"#utility.yul\":1637:1643   */\n      dup3\n        /* \"#utility.yul\":1626:1635   */\n      dup7\n        /* \"#utility.yul\":1622:1644   */\n      add\n        /* \"#utility.yul\":1601:1654   */\n      tag_73\n      jump\t// in\n    tag_142:\n        /* \"#utility.yul\":1591:1654   */\n      swap2\n      pop\n        /* \"#utility.yul\":1546:1664   */\n      pop\n        /* \"#utility.yul\":1197:1671   */\n      swap3\n      pop\n      swap3\n      swap1\n      pop\n      jump\t// out\n        /* \"#utility.yul\":1677:1795   */\n    tag_74:\n        /* \"#utility.yul\":1764:1788   */\n      tag_144\n        /* \"#utility.yul\":1782:1787   */\n      dup2\n        /* \"#utility.yul\":1764:1788   */\n      tag_68\n      jump\t// in\n    tag_144:\n        /* \"#utility.yul\":1759:1762   */\n      dup3\n        /* \"#utility.yul\":1752:1789   */\n      mstore\n        /* \"#utility.yul\":1677:1795   */\n      pop\n      pop\n      jump\t// out\n        /* \"#utility.yul\":1801:1900   */\n    tag_75:\n        /* \"#utility.yul\":1853:1859   */\n      0x00\n        /* \"#utility.yul\":1887:1892   */\n      dup2\n        /* \"#utility.yul\":1881:1893   */\n      mload\n        /* \"#utility.yul\":1871:1893   */\n      swap1\n      pop\n        /* \"#utility.yul\":1801:1900   */\n      swap2\n      swap1\n      pop\n      jump\t// out\n        /* \"#utility.yul\":1906:2075   */\n    tag_76:\n        /* \"#utility.yul\":1990:2001   */\n      0x00\n        /* \"#utility.yul\":2024:2030   */\n      dup3\n        /* \"#utility.yul\":2019:2022   */\n      dup3\n        /* \"#utility.yul\":2012:2031   */\n      mstore\n        /* \"#utility.yul\":2064:2068   */\n      0x20\n        /* \"#utility.yul\":2059:2062   */\n      dup3\n        /* \"#utility.yul\":2055:2069   */\n      add\n        /* \"#utility.yul\":2040:2069   */\n      swap1\n      pop\n        /* \"#utility.yul\":1906:2075   */\n      swap3\n      swap2\n      pop\n      pop\n      jump\t// out\n        /* \"#utility.yul\":2081:2220   */\n    tag_77:\n        /* \"#utility.yul\":2170:2176   */\n      dup3\n        /* \"#utility.yul\":2165:2168   */\n      dup2\n        /* \"#utility.yul\":2160:2163   */\n      dup4\n        /* \"#utility.yul\":2154:2177   */\n      mcopy\n        /* \"#utility.yul\":2211:2212   */\n      0x00\n        /* \"#utility.yul\":2202:2208   */\n      dup4\n        /* \"#utility.yul\":2197:2200   */\n      dup4\n        /* \"#utility.yul\":2193:2209   */\n      add\n        /* \"#utility.yul\":2186:2213   */\n      mstore\n        /* \"#utility.yul\":2081:2220   */\n      pop\n      pop\n      pop\n      jump\t// out\n        /* \"#utility.yul\":2226:2328   */\n    tag_78:\n        /* \"#utility.yul\":2267:2273   */\n      0x00\n        /* \"#utility.yul\":2318:2320   */\n      0x1f\n        /* \"#utility.yul\":2314:2321   */\n      not\n        /* \"#utility.yul\":2309:2311   */\n      0x1f\n        /* \"#utility.yul\":2302:2307   */\n      dup4\n        /* \"#utility.yul\":2298:2312   */\n      add\n        /* \"#utility.yul\":2294:2322   */\n      and\n        /* \"#utility.yul\":2284:2322   */\n      swap1\n      pop\n        /* \"#utility.yul\":2226:2328   */\n      swap2\n      swap1\n      pop\n      jump\t// out\n        /* \"#utility.yul\":2334:2711   */\n    tag_79:\n        /* \"#utility.yul\":2422:2425   */\n      0x00\n        /* \"#utility.yul\":2450:2489   */\n      tag_150\n        /* \"#utility.yul\":2483:2488   */\n      dup3\n        /* \"#utility.yul\":2450:2489   */\n      tag_75\n      jump\t// in\n    tag_150:\n        /* \"#utility.yul\":2505:2576   */\n      tag_151\n        /* \"#utility.yul\":2569:2575   */\n      dup2\n        /* \"#utility.yul\":2564:2567   */\n      dup6\n        /* \"#utility.yul\":2505:2576   */\n      tag_76\n      jump\t// in\n    tag_151:\n        /* \"#utility.yul\":2498:2576   */\n      swap4\n      pop\n        /* \"#utility.yul\":2585:2650   */\n      tag_152\n        /* \"#utility.yul\":2643:2649   */\n      dup2\n        /* \"#utility.yul\":2638:2641   */\n      dup6\n        /* \"#utility.yul\":2631:2635   */\n      0x20\n        /* \"#utility.yul\":2624:2629   */\n      dup7\n        /* \"#utility.yul\":2620:2636   */\n      add\n        /* \"#utility.yul\":2585:2650   */\n      tag_77\n      jump\t// in\n    tag_152:\n        /* \"#utility.yul\":2675:2704   */\n      tag_153\n        /* \"#utility.yul\":2697:2703   */\n      dup2\n        /* \"#utility.yul\":2675:2704   */\n      tag_78\n      jump\t// in\n    tag_153:\n        /* \"#utility.yul\":2670:2673   */\n      dup5\n        /* \"#utility.yul\":2666:2705   */\n      add\n        /* \"#utility.yul\":2659:2705   */\n      swap2\n      pop\n        /* \"#utility.yul\":2426:2711   */\n      pop\n        /* \"#utility.yul\":2334:2711   */\n      swap3\n      swap2\n      pop\n      pop\n      jump\t// out\n        /* \"#utility.yul\":2717:2835   */\n    tag_80:\n        /* \"#utility.yul\":2804:2828   */\n      tag_155\n        /* \"#utility.yul\":2822:2827   */\n      dup2\n        /* \"#utility.yul\":2804:2828   */\n      tag_71\n      jump\t// in\n    tag_155:\n        /* \"#utility.yul\":2799:2802   */\n      dup3\n        /* \"#utility.yul\":2792:2829   */\n      mstore\n        /* \"#utility.yul\":2717:2835   */\n      pop\n      pop\n      jump\t// out\n        /* \"#utility.yul\":2841:3485   */\n    tag_12:\n        /* \"#utility.yul\":3038:3042   */\n      0x00\n        /* \"#utility.yul\":3076:3079   */\n      0x80\n        /* \"#utility.yul\":3065:3074   */\n      dup3\n        /* \"#utility.yul\":3061:3080   */\n      add\n        /* \"#utility.yul\":3053:3080   */\n      swap1\n      pop\n        /* \"#utility.yul\":3090:3161   */\n      tag_157\n        /* \"#utility.yul\":3158:3159   */\n      0x00\n        /* \"#utility.yul\":3147:3156   */\n      dup4\n        /* \"#utility.yul\":3143:3160   */\n      add\n        /* \"#utility.yul\":3134:3140   */\n      dup8\n        /* \"#utility.yul\":3090:3161   */\n      tag_74\n      jump\t// in\n    tag_157:\n        /* \"#utility.yul\":3208:3217   */\n      dup2\n        /* \"#utility.yul\":3202:3206   */\n      dup2\n        /* \"#utility.yul\":3198:3218   */\n      sub\n        /* \"#utility.yul\":3193:3195   */\n      0x20\n        /* \"#utility.yul\":3182:3191   */\n      dup4\n        /* \"#utility.yul\":3178:3196   */\n      add\n        /* \"#utility.yul\":3171:3219   */\n      mstore\n        /* \"#utility.yul\":3236:3314   */\n      tag_158\n        /* \"#utility.yul\":3309:3313   */\n      dup2\n        /* \"#utility.yul\":3300:3306   */\n      dup7\n        /* \"#utility.yul\":3236:3314   */\n      tag_79\n      jump\t// in\n    tag_158:\n        /* \"#utility.yul\":3228:3314   */\n      swap1\n      pop\n        /* \"#utility.yul\":3324:3396   */\n      tag_159\n        /* \"#utility.yul\":3392:3394   */\n      0x40\n        /* \"#utility.yul\":3381:3390   */\n      dup4\n        /* \"#utility.yul\":3377:3395   */\n      add\n        /* \"#utility.yul\":3368:3374   */\n      dup6\n        /* \"#utility.yul\":3324:3396   */\n      tag_80\n      jump\t// in\n    tag_159:\n        /* \"#utility.yul\":3406:3478   */\n      tag_160\n        /* \"#utility.yul\":3474:3476   */\n      0x60\n        /* \"#utility.yul\":3463:3472   */\n      dup4\n        /* \"#utility.yul\":3459:3477   */\n      add\n        /* \"#utility.yul\":3450:3456   */\n      dup5\n        /* \"#utility.yul\":3406:3478   */\n      tag_80\n      jump\t// in\n    tag_160:\n        /* \"#utility.yul\":2841:3485   */\n      swap6\n      swap5\n      pop\n      pop\n      pop\n      pop\n      pop\n      jump\t// out\n        /* \"#utility.yul\":3491:3599   */\n    tag_81:\n        /* \"#utility.yul\":3568:3592   */\n      tag_162\n        /* \"#utility.yul\":3586:3591   */\n      dup2\n        /* \"#utility.yul\":3568:3592   */\n      tag_68\n      jump\t// in\n    tag_162:\n        /* \"#utility.yul\":3563:3566   */\n      dup3\n        /* \"#utility.yul\":3556:3593   */\n      mstore\n        /* \"#utility.yul\":3491:3599   */\n      pop\n      pop\n      jump\t// out\n        /* \"#utility.yul\":3605:3764   */\n    tag_82:\n        /* \"#utility.yul\":3679:3690   */\n      0x00\n        /* \"#utility.yul\":3713:3719   */\n      dup3\n        /* \"#utility.yul\":3708:3711   */\n      dup3\n        /* \"#utility.yul\":3701:3720   */\n      mstore\n        /* \"#utility.yul\":3753:3757   */\n      0x20\n        /* \"#utility.yul\":3748:3751   */\n      dup3\n        /* \"#utility.yul\":3744:3758   */\n      add\n        /* \"#utility.yul\":3729:3758   */\n      swap1\n      pop\n        /* \"#utility.yul\":3605:3764   */\n      swap3\n      swap2\n      pop\n      pop\n      jump\t// out\n        /* \"#utility.yul\":3770:4127   */\n    tag_83:\n        /* \"#utility.yul\":3848:3851   */\n      0x00\n        /* \"#utility.yul\":3876:3915   */\n      tag_165\n        /* \"#utility.yul\":3909:3914   */\n      dup3\n        /* \"#utility.yul\":3876:3915   */\n      tag_75\n      jump\t// in\n    tag_165:\n        /* \"#utility.yul\":3931:3992   */\n      tag_166\n        /* \"#utility.yul\":3985:3991   */\n      dup2\n        /* \"#utility.yul\":3980:3983   */\n      dup6\n        /* \"#utility.yul\":3931:3992   */\n      tag_82\n      jump\t// in\n    tag_166:\n        /* \"#utility.yul\":3924:3992   */\n      swap4\n      pop\n        /* \"#utility.yul\":4001:4066   */\n      tag_167\n        /* \"#utility.yul\":4059:4065   */\n      dup2\n        /* \"#utility.yul\":4054:4057   */\n      dup6\n        /* \"#utility.yul\":4047:4051   */\n      0x20\n        /* \"#utility.yul\":4040:4045   */\n      dup7\n        /* \"#utility.yul\":4036:4052   */\n      add\n        /* \"#utility.yul\":4001:4066   */\n      tag_77\n      jump\t// in\n    tag_167:\n        /* \"#utility.yul\":4091:4120   */\n      tag_168\n        /* \"#utility.yul\":4113:4119   */\n      dup2\n        /* \"#utility.yul\":4091:4120   */\n      tag_78\n      jump\t// in\n    tag_168:\n        /* \"#utility.yul\":4086:4089   */\n      dup5\n        /* \"#utility.yul\":4082:4121   */\n      add\n        /* \"#utility.yul\":4075:4121   */\n      swap2\n      pop\n        /* \"#utility.yul\":3852:4127   */\n      pop\n        /* \"#utility.yul\":3770:4127   */\n      swap3\n      swap2\n      pop\n      pop\n      jump\t// out\n        /* \"#utility.yul\":4133:4241   */\n    tag_84:\n        /* \"#utility.yul\":4210:4234   */\n      tag_170\n        /* \"#utility.yul\":4228:4233   */\n      dup2\n        /* \"#utility.yul\":4210:4234   */\n      tag_71\n      jump\t// in\n    tag_170:\n        /* \"#utility.yul\":4205:4208   */\n      dup3\n        /* \"#utility.yul\":4198:4235   */\n      mstore\n        /* \"#utility.yul\":4133:4241   */\n      pop\n      pop\n      jump\t// out\n        /* \"#utility.yul\":4299:5256   */\n    tag_85:\n        /* \"#utility.yul\":4410:4413   */\n      0x00\n        /* \"#utility.yul\":4446:4450   */\n      0x80\n        /* \"#utility.yul\":4441:4444   */\n      dup4\n        /* \"#utility.yul\":4437:4451   */\n      add\n        /* \"#utility.yul\":4535:4539   */\n      0x00\n        /* \"#utility.yul\":4528:4533   */\n      dup4\n        /* \"#utility.yul\":4524:4540   */\n      add\n        /* \"#utility.yul\":4518:4541   */\n      mload\n        /* \"#utility.yul\":4554:4617   */\n      tag_172\n        /* \"#utility.yul\":4611:4615   */\n      0x00\n        /* \"#utility.yul\":4606:4609   */\n      dup7\n        /* \"#utility.yul\":4602:4616   */\n      add\n        /* \"#utility.yul\":4588:4600   */\n      dup3\n        /* \"#utility.yul\":4554:4617   */\n      tag_81\n      jump\t// in\n    tag_172:\n        /* \"#utility.yul\":4461:4627   */\n      pop\n        /* \"#utility.yul\":4712:4716   */\n      0x20\n        /* \"#utility.yul\":4705:4710   */\n      dup4\n        /* \"#utility.yul\":4701:4717   */\n      add\n        /* \"#utility.yul\":4695:4718   */\n      mload\n        /* \"#utility.yul\":4765:4768   */\n      dup5\n        /* \"#utility.yul\":4759:4763   */\n      dup3\n        /* \"#utility.yul\":4755:4769   */\n      sub\n        /* \"#utility.yul\":4748:4752   */\n      0x20\n        /* \"#utility.yul\":4743:4746   */\n      dup7\n        /* \"#utility.yul\":4739:4753   */\n      add\n        /* \"#utility.yul\":4732:4770   */\n      mstore\n        /* \"#utility.yul\":4791:4864   */\n      tag_173\n        /* \"#utility.yul\":4859:4863   */\n      dup3\n        /* \"#utility.yul\":4845:4857   */\n      dup3\n        /* \"#utility.yul\":4791:4864   */\n      tag_83\n      jump\t// in\n    tag_173:\n        /* \"#utility.yul\":4783:4864   */\n      swap2\n      pop\n        /* \"#utility.yul\":4637:4875   */\n      pop\n        /* \"#utility.yul\":4962:4966   */\n      0x40\n        /* \"#utility.yul\":4955:4960   */\n      dup4\n        /* \"#utility.yul\":4951:4967   */\n      add\n        /* \"#utility.yul\":4945:4968   */\n      mload\n        /* \"#utility.yul\":4981:5044   */\n      tag_174\n        /* \"#utility.yul\":5038:5042   */\n      0x40\n        /* \"#utility.yul\":5033:5036   */\n      dup7\n        /* \"#utility.yul\":5029:5043   */\n      add\n        /* \"#utility.yul\":5015:5027   */\n      dup3\n        /* \"#utility.yul\":4981:5044   */\n      tag_84\n      jump\t// in\n    tag_174:\n        /* \"#utility.yul\":4885:5054   */\n      pop\n        /* \"#utility.yul\":5137:5141   */\n      0x60\n        /* \"#utility.yul\":5130:5135   */\n      dup4\n        /* \"#utility.yul\":5126:5142   */\n      add\n        /* \"#utility.yul\":5120:5143   */\n      mload\n        /* \"#utility.yul\":5156:5219   */\n      tag_175\n        /* \"#utility.yul\":5213:5217   */\n      0x60\n        /* \"#utility.yul\":5208:5211   */\n      dup7\n        /* \"#utility.yul\":5204:5218   */\n      add\n        /* \"#utility.yul\":5190:5202   */\n      dup3\n        /* \"#utility.yul\":5156:5219   */\n      tag_84\n      jump\t// in\n    tag_175:\n        /* \"#utility.yul\":5064:5229   */\n      pop\n        /* \"#utility.yul\":5246:5250   */\n      dup1\n        /* \"#utility.yul\":5239:5250   */\n      swap2\n      pop\n        /* \"#utility.yul\":4415:5256   */\n      pop\n        /* \"#utility.yul\":4299:5256   */\n      swap3\n      swap2\n      pop\n      pop\n      jump\t// out\n        /* \"#utility.yul\":5262:5619   */\n    tag_17:\n        /* \"#utility.yul\":5397:5401   */\n      0x00\n        /* \"#utility.yul\":5435:5437   */\n      0x20\n        /* \"#utility.yul\":5424:5433   */\n      dup3\n        /* \"#utility.yul\":5420:5438   */\n      add\n        /* \"#utility.yul\":5412:5438   */\n      swap1\n      pop\n        /* \"#utility.yul\":5484:5493   */\n      dup2\n        /* \"#utility.yul\":5478:5482   */\n      dup2\n        /* \"#utility.yul\":5474:5494   */\n      sub\n        /* \"#utility.yul\":5470:5471   */\n      0x00\n        /* \"#utility.yul\":5459:5468   */\n      dup4\n        /* \"#utility.yul\":5455:5472   */\n      add\n        /* \"#utility.yul\":5448:5495   */\n      mstore\n        /* \"#utility.yul\":5512:5612   */\n      tag_177\n        /* \"#utility.yul\":5607:5611   */\n      dup2\n        /* \"#utility.yul\":5598:5604   */\n      dup5\n        /* \"#utility.yul\":5512:5612   */\n      tag_85\n      jump\t// in\n    tag_177:\n        /* \"#utility.yul\":5504:5612   */\n      swap1\n      pop\n        /* \"#utility.yul\":5262:5619   */\n      swap3\n      swap2\n      pop\n      pop\n      jump\t// out\n        /* \"#utility.yul\":5625:5742   */\n    tag_86:\n        /* \"#utility.yul\":5734:5735   */\n      0x00\n        /* \"#utility.yul\":5731:5732   */\n      dup1\n        /* \"#utility.yul\":5724:5736   */\n      revert\n        /* \"#utility.yul\":5748:5865   */\n    tag_87:\n        /* \"#utility.yul\":5857:5858   */\n      0x00\n        /* \"#utility.yul\":5854:5855   */\n      dup1\n        /* \"#utility.yul\":5847:5859   */\n      revert\n        /* \"#utility.yul\":5871:6051   */\n    tag_88:\n        /* \"#utility.yul\":5919:5996   */\n      0x4e487b7100000000000000000000000000000000000000000000000000000000\n        /* \"#utility.yul\":5916:5917   */\n      0x00\n        /* \"#utility.yul\":5909:5997   */\n      mstore\n        /* \"#utility.yul\":6016:6020   */\n      0x41\n        /* \"#utility.yul\":6013:6014   */\n      0x04\n        /* \"#utility.yul\":6006:6021   */\n      mstore\n        /* \"#utility.yul\":6040:6044   */\n      0x24\n        /* \"#utility.yul\":6037:6038   */\n      0x00\n        /* \"#utility.yul\":6030:6045   */\n      revert\n        /* \"#utility.yul\":6057:6338   */\n    tag_89:\n        /* \"#utility.yul\":6140:6167   */\n      tag_182\n        /* \"#utility.yul\":6162:6166   */\n      dup3\n        /* \"#utility.yul\":6140:6167   */\n      tag_78\n      jump\t// in\n    tag_182:\n        /* \"#utility.yul\":6132:6138   */\n      dup2\n        /* \"#utility.yul\":6128:6168   */\n      add\n        /* \"#utility.yul\":6270:6276   */\n      dup2\n        /* \"#utility.yul\":6258:6268   */\n      dup2\n        /* \"#utility.yul\":6255:6277   */\n      lt\n        /* \"#utility.yul\":6234:6252   */\n      0xffffffffffffffff\n        /* \"#utility.yul\":6222:6232   */\n      dup3\n        /* \"#utility.yul\":6219:6253   */\n      gt\n        /* \"#utility.yul\":6216:6278   */\n      or\n        /* \"#utility.yul\":6213:6301   */\n      iszero\n      tag_183\n      jumpi\n        /* \"#utility.yul\":6281:6299   */\n      tag_184\n      tag_88\n      jump\t// in\n    tag_184:\n        /* \"#utility.yul\":6213:6301   */\n    tag_183:\n        /* \"#utility.yul\":6321:6331   */\n      dup1\n        /* \"#utility.yul\":6317:6319   */\n      0x40\n        /* \"#utility.yul\":6310:6332   */\n      mstore\n        /* \"#utility.yul\":6100:6338   */\n      pop\n        /* \"#utility.yul\":6057:6338   */\n      pop\n      pop\n      jump\t// out\n        /* \"#utility.yul\":6344:6473   */\n    tag_90:\n        /* \"#utility.yul\":6378:6384   */\n      0x00\n        /* \"#utility.yul\":6405:6425   */\n      tag_186\n      tag_64\n      jump\t// in\n    tag_186:\n        /* \"#utility.yul\":6395:6425   */\n      swap1\n      pop\n        /* \"#utility.yul\":6434:6467   */\n      tag_187\n        /* \"#utility.yul\":6462:6466   */\n      dup3\n        /* \"#utility.yul\":6454:6460   */\n      dup3\n        /* \"#utility.yul\":6434:6467   */\n      tag_89\n      jump\t// in\n    tag_187:\n        /* \"#utility.yul\":6344:6473   */\n      swap2\n      swap1\n      pop\n      jump\t// out\n        /* \"#utility.yul\":6479:6787   */\n    tag_91:\n        /* \"#utility.yul\":6541:6545   */\n      0x00\n        /* \"#utility.yul\":6631:6649   */\n      0xffffffffffffffff\n        /* \"#utility.yul\":6623:6629   */\n      dup3\n        /* \"#utility.yul\":6620:6650   */\n      gt\n        /* \"#utility.yul\":6617:6673   */\n      iszero\n      tag_189\n      jumpi\n        /* \"#utility.yul\":6653:6671   */\n      tag_190\n      tag_88\n      jump\t// in\n    tag_190:\n        /* \"#utility.yul\":6617:6673   */\n    tag_189:\n        /* \"#utility.yul\":6691:6720   */\n      tag_191\n        /* \"#utility.yul\":6713:6719   */\n      dup3\n        /* \"#utility.yul\":6691:6720   */\n      tag_78\n      jump\t// in\n    tag_191:\n        /* \"#utility.yul\":6683:6720   */\n      swap1\n      pop\n        /* \"#utility.yul\":6775:6779   */\n      0x20\n        /* \"#utility.yul\":6769:6773   */\n      dup2\n        /* \"#utility.yul\":6765:6780   */\n      add\n        /* \"#utility.yul\":6757:6780   */\n      swap1\n      pop\n        /* \"#utility.yul\":6479:6787   */\n      swap2\n      swap1\n      pop\n      jump\t// out\n        /* \"#utility.yul\":6793:6941   */\n    tag_92:\n        /* \"#utility.yul\":6891:6897   */\n      dup3\n        /* \"#utility.yul\":6886:6889   */\n      dup2\n        /* \"#utility.yul\":6881:6884   */\n      dup4\n        /* \"#utility.yul\":6868:6898   */\n      calldatacopy\n        /* \"#utility.yul\":6932:6933   */\n      0x00\n        /* \"#utility.yul\":6923:6929   */\n      dup4\n        /* \"#utility.yul\":6918:6921   */\n      dup4\n        /* \"#utility.yul\":6914:6930   */\n      add\n        /* \"#utility.yul\":6907:6934   */\n      mstore\n        /* \"#utility.yul\":6793:6941   */\n      pop\n      pop\n      pop\n      jump\t// out\n        /* \"#utility.yul\":6947:7372   */\n    tag_93:\n        /* \"#utility.yul\":7025:7030   */\n      0x00\n        /* \"#utility.yul\":7050:7116   */\n      tag_194\n        /* \"#utility.yul\":7066:7115   */\n      tag_195\n        /* \"#utility.yul\":7108:7114   */\n      dup5\n        /* \"#utility.yul\":7066:7115   */\n      tag_91\n      jump\t// in\n    tag_195:\n        /* \"#utility.yul\":7050:7116   */\n      tag_90\n      jump\t// in\n    tag_194:\n        /* \"#utility.yul\":7041:7116   */\n      swap1\n      pop\n        /* \"#utility.yul\":7139:7145   */\n      dup3\n        /* \"#utility.yul\":7132:7137   */\n      dup2\n        /* \"#utility.yul\":7125:7146   */\n      mstore\n        /* \"#utility.yul\":7177:7181   */\n      0x20\n        /* \"#utility.yul\":7170:7175   */\n      dup2\n        /* \"#utility.yul\":7166:7182   */\n      add\n        /* \"#utility.yul\":7215:7218   */\n      dup5\n        /* \"#utility.yul\":7206:7212   */\n      dup5\n        /* \"#utility.yul\":7201:7204   */\n      dup5\n        /* \"#utility.yul\":7197:7213   */\n      add\n        /* \"#utility.yul\":7194:7219   */\n      gt\n        /* \"#utility.yul\":7191:7303   */\n      iszero\n      tag_196\n      jumpi\n        /* \"#utility.yul\":7222:7301   */\n      tag_197\n      tag_87\n      jump\t// in\n    tag_197:\n        /* \"#utility.yul\":7191:7303   */\n    tag_196:\n        /* \"#utility.yul\":7312:7366   */\n      tag_198\n        /* \"#utility.yul\":7359:7365   */\n      dup5\n        /* \"#utility.yul\":7354:7357   */\n      dup3\n        /* \"#utility.yul\":7349:7352   */\n      dup6\n        /* \"#utility.yul\":7312:7366   */\n      tag_92\n      jump\t// in\n    tag_198:\n        /* \"#utility.yul\":7031:7372   */\n      pop\n        /* \"#utility.yul\":6947:7372   */\n      swap4\n      swap3\n      pop\n      pop\n      pop\n      jump\t// out\n        /* \"#utility.yul\":7392:7732   */\n    tag_94:\n        /* \"#utility.yul\":7448:7453   */\n      0x00\n        /* \"#utility.yul\":7497:7500   */\n      dup3\n        /* \"#utility.yul\":7490:7494   */\n      0x1f\n        /* \"#utility.yul\":7482:7488   */\n      dup4\n        /* \"#utility.yul\":7478:7495   */\n      add\n        /* \"#utility.yul\":7474:7501   */\n      slt\n        /* \"#utility.yul\":7464:7586   */\n      tag_200\n      jumpi\n        /* \"#utility.yul\":7505:7584   */\n      tag_201\n      tag_86\n      jump\t// in\n    tag_201:\n        /* \"#utility.yul\":7464:7586   */\n    tag_200:\n        /* \"#utility.yul\":7622:7628   */\n      dup2\n        /* \"#utility.yul\":7609:7629   */\n      calldataload\n        /* \"#utility.yul\":7647:7726   */\n      tag_202\n        /* \"#utility.yul\":7722:7725   */\n      dup5\n        /* \"#utility.yul\":7714:7720   */\n      dup3\n        /* \"#utility.yul\":7707:7711   */\n      0x20\n        /* \"#utility.yul\":7699:7705   */\n      dup7\n        /* \"#utility.yul\":7695:7712   */\n      add\n        /* \"#utility.yul\":7647:7726   */\n      tag_93\n      jump\t// in\n    tag_202:\n        /* \"#utility.yul\":7638:7726   */\n      swap2\n      pop\n        /* \"#utility.yul\":7454:7732   */\n      pop\n        /* \"#utility.yul\":7392:7732   */\n      swap3\n      swap2\n      pop\n      pop\n      jump\t// out\n        /* \"#utility.yul\":7738:8247   */\n    tag_20:\n        /* \"#utility.yul\":7807:7813   */\n      0x00\n        /* \"#utility.yul\":7856:7858   */\n      0x20\n        /* \"#utility.yul\":7844:7853   */\n      dup3\n        /* \"#utility.yul\":7835:7842   */\n      dup5\n        /* \"#utility.yul\":7831:7854   */\n      sub\n        /* \"#utility.yul\":7827:7859   */\n      slt\n        /* \"#utility.yul\":7824:7943   */\n      iszero\n      tag_204\n      jumpi\n        /* \"#utility.yul\":7862:7941   */\n      tag_205\n      tag_65\n      jump\t// in\n    tag_205:\n        /* \"#utility.yul\":7824:7943   */\n    tag_204:\n        /* \"#utility.yul\":8010:8011   */\n      0x00\n        /* \"#utility.yul\":7999:8008   */\n      dup3\n        /* \"#utility.yul\":7995:8012   */\n      add\n        /* \"#utility.yul\":7982:8013   */\n      calldataload\n        /* \"#utility.yul\":8040:8058   */\n      0xffffffffffffffff\n        /* \"#utility.yul\":8032:8038   */\n      dup2\n        /* \"#utility.yul\":8029:8059   */\n      gt\n        /* \"#utility.yul\":8026:8143   */\n      iszero\n      tag_206\n      jumpi\n        /* \"#utility.yul\":8062:8141   */\n      tag_207\n      tag_66\n      jump\t// in\n    tag_207:\n        /* \"#utility.yul\":8026:8143   */\n    tag_206:\n        /* \"#utility.yul\":8167:8230   */\n      tag_208\n        /* \"#utility.yul\":8222:8229   */\n      dup5\n        /* \"#utility.yul\":8213:8219   */\n      dup3\n        /* \"#utility.yul\":8202:8211   */\n      dup6\n        /* \"#utility.yul\":8198:8220   */\n      add\n        /* \"#utility.yul\":8167:8230   */\n      tag_94\n      jump\t// in\n    tag_208:\n        /* \"#utility.yul\":8157:8230   */\n      swap2\n      pop\n        /* \"#utility.yul\":7953:8240   */\n      pop\n        /* \"#utility.yul\":7738:8247   */\n      swap3\n      swap2\n      pop\n      pop\n      jump\t// out\n        /* \"#utility.yul\":8253:8582   */\n    tag_24:\n        /* \"#utility.yul\":8312:8318   */\n      0x00\n        /* \"#utility.yul\":8361:8363   */\n      0x20\n        /* \"#utility.yul\":8349:8358   */\n      dup3\n        /* \"#utility.yul\":8340:8347   */\n      dup5\n        /* \"#utility.yul\":8336:8359   */\n      sub\n        /* \"#utility.yul\":8332:8364   */\n      slt\n        /* \"#utility.yul\":8329:8448   */\n      iszero\n      tag_210\n      jumpi\n        /* \"#utility.yul\":8367:8446   */\n      tag_211\n      tag_65\n      jump\t// in\n    tag_211:\n        /* \"#utility.yul\":8329:8448   */\n    tag_210:\n        /* \"#utility.yul\":8487:8488   */\n      0x00\n        /* \"#utility.yul\":8512:8565   */\n      tag_212\n        /* \"#utility.yul\":8557:8564   */\n      dup5\n        /* \"#utility.yul\":8548:8554   */\n      dup3\n        /* \"#utility.yul\":8537:8546   */\n      dup6\n        /* \"#utility.yul\":8533:8555   */\n      add\n        /* \"#utility.yul\":8512:8565   */\n      tag_70\n      jump\t// in\n    tag_212:\n        /* \"#utility.yul\":8502:8565   */\n      swap2\n      pop\n        /* \"#utility.yul\":8458:8575   */\n      pop\n        /* \"#utility.yul\":8253:8582   */\n      swap3\n      swap2\n      pop\n      pop\n      jump\t// out\n        /* \"#utility.yul\":8588:8723   */\n    tag_95:\n        /* \"#utility.yul\":8676:8682   */\n      0x00\n        /* \"#utility.yul\":8710:8715   */\n      dup2\n        /* \"#utility.yul\":8704:8716   */\n      mload\n        /* \"#utility.yul\":8694:8716   */\n      swap1\n      pop\n        /* \"#utility.yul\":8588:8723   */\n      swap2\n      swap1\n      pop\n      jump\t// out\n        /* \"#utility.yul\":8729:8934   */\n    tag_96:\n        /* \"#utility.yul\":8849:8860   */\n      0x00\n        /* \"#utility.yul\":8883:8889   */\n      dup3\n        /* \"#utility.yul\":8878:8881   */\n      dup3\n        /* \"#utility.yul\":8871:8890   */\n      mstore\n        /* \"#utility.yul\":8923:8927   */\n      0x20\n        /* \"#utility.yul\":8918:8921   */\n      dup3\n        /* \"#utility.yul\":8914:8928   */\n      add\n        /* \"#utility.yul\":8899:8928   */\n      swap1\n      pop\n        /* \"#utility.yul\":8729:8934   */\n      swap3\n      swap2\n      pop\n      pop\n      jump\t// out\n        /* \"#utility.yul\":8940:9093   */\n    tag_97:\n        /* \"#utility.yul\":9028:9032   */\n      0x00\n        /* \"#utility.yul\":9051:9054   */\n      dup2\n        /* \"#utility.yul\":9043:9054   */\n      swap1\n      pop\n        /* \"#utility.yul\":9081:9085   */\n      0x20\n        /* \"#utility.yul\":9076:9079   */\n      dup3\n        /* \"#utility.yul\":9072:9086   */\n      add\n        /* \"#utility.yul\":9064:9086   */\n      swap1\n      pop\n        /* \"#utility.yul\":8940:9093   */\n      swap2\n      swap1\n      pop\n      jump\t// out\n        /* \"#utility.yul\":9151:10098   */\n    tag_98:\n        /* \"#utility.yul\":9252:9255   */\n      0x00\n        /* \"#utility.yul\":9288:9292   */\n      0x80\n        /* \"#utility.yul\":9283:9286   */\n      dup4\n        /* \"#utility.yul\":9279:9293   */\n      add\n        /* \"#utility.yul\":9377:9381   */\n      0x00\n        /* \"#utility.yul\":9370:9375   */\n      dup4\n        /* \"#utility.yul\":9366:9382   */\n      add\n        /* \"#utility.yul\":9360:9383   */\n      mload\n        /* \"#utility.yul\":9396:9459   */\n      tag_217\n        /* \"#utility.yul\":9453:9457   */\n      0x00\n        /* \"#utility.yul\":9448:9451   */\n      dup7\n        /* \"#utility.yul\":9444:9458   */\n      add\n        /* \"#utility.yul\":9430:9442   */\n      dup3\n        /* \"#utility.yul\":9396:9459   */\n      tag_81\n      jump\t// in\n    tag_217:\n        /* \"#utility.yul\":9303:9469   */\n      pop\n        /* \"#utility.yul\":9554:9558   */\n      0x20\n        /* \"#utility.yul\":9547:9552   */\n      dup4\n        /* \"#utility.yul\":9543:9559   */\n      add\n        /* \"#utility.yul\":9537:9560   */\n      mload\n        /* \"#utility.yul\":9607:9610   */\n      dup5\n        /* \"#utility.yul\":9601:9605   */\n      dup3\n        /* \"#utility.yul\":9597:9611   */\n      sub\n        /* \"#utility.yul\":9590:9594   */\n      0x20\n        /* \"#utility.yul\":9585:9588   */\n      dup7\n        /* \"#utility.yul\":9581:9595   */\n      add\n        /* \"#utility.yul\":9574:9612   */\n      mstore\n        /* \"#utility.yul\":9633:9706   */\n      tag_218\n        /* \"#utility.yul\":9701:9705   */\n      dup3\n        /* \"#utility.yul\":9687:9699   */\n      dup3\n        /* \"#utility.yul\":9633:9706   */\n      tag_83\n      jump\t// in\n    tag_218:\n        /* \"#utility.yul\":9625:9706   */\n      swap2\n      pop\n        /* \"#utility.yul\":9479:9717   */\n      pop\n        /* \"#utility.yul\":9804:9808   */\n      0x40\n        /* \"#utility.yul\":9797:9802   */\n      dup4\n        /* \"#utility.yul\":9793:9809   */\n      add\n        /* \"#utility.yul\":9787:9810   */\n      mload\n        /* \"#utility.yul\":9823:9886   */\n      tag_219\n        /* \"#utility.yul\":9880:9884   */\n      0x40\n        /* \"#utility.yul\":9875:9878   */\n      dup7\n        /* \"#utility.yul\":9871:9885   */\n      add\n        /* \"#utility.yul\":9857:9869   */\n      dup3\n        /* \"#utility.yul\":9823:9886   */\n      tag_84\n      jump\t// in\n    tag_219:\n        /* \"#utility.yul\":9727:9896   */\n      pop\n        /* \"#utility.yul\":9979:9983   */\n      0x60\n        /* \"#utility.yul\":9972:9977   */\n      dup4\n        /* \"#utility.yul\":9968:9984   */\n      add\n        /* \"#utility.yul\":9962:9985   */\n      mload\n        /* \"#utility.yul\":9998:10061   */\n      tag_220\n        /* \"#utility.yul\":10055:10059   */\n      0x60\n        /* \"#utility.yul\":10050:10053   */\n      dup7\n        /* \"#utility.yul\":10046:10060   */\n      add\n        /* \"#utility.yul\":10032:10044   */\n      dup3\n        /* \"#utility.yul\":9998:10061   */\n      tag_84\n      jump\t// in\n    tag_220:\n        /* \"#utility.yul\":9906:10071   */\n      pop\n        /* \"#utility.yul\":10088:10092   */\n      dup1\n        /* \"#utility.yul\":10081:10092   */\n      swap2\n      pop\n        /* \"#utility.yul\":9257:10098   */\n      pop\n        /* \"#utility.yul\":9151:10098   */\n      swap3\n      swap2\n      pop\n      pop\n      jump\t// out\n        /* \"#utility.yul\":10104:10344   */\n    tag_99:\n        /* \"#utility.yul\":10215:10225   */\n      0x00\n        /* \"#utility.yul\":10250:10338   */\n      tag_222\n        /* \"#utility.yul\":10334:10337   */\n      dup4\n        /* \"#utility.yul\":10326:10332   */\n      dup4\n        /* \"#utility.yul\":10250:10338   */\n      tag_98\n      jump\t// in\n    tag_222:\n        /* \"#utility.yul\":10236:10338   */\n      swap1\n      pop\n        /* \"#utility.yul\":10104:10344   */\n      swap3\n      swap2\n      pop\n      pop\n      jump\t// out\n        /* \"#utility.yul\":10350:10484   */\n    tag_100:\n        /* \"#utility.yul\":10441:10445   */\n      0x00\n        /* \"#utility.yul\":10473:10477   */\n      0x20\n        /* \"#utility.yul\":10468:10471   */\n      dup3\n        /* \"#utility.yul\":10464:10478   */\n      add\n        /* \"#utility.yul\":10456:10478   */\n      swap1\n      pop\n        /* \"#utility.yul\":10350:10484   */\n      swap2\n      swap1\n      pop\n      jump\t// out\n        /* \"#utility.yul\":10546:11625   */\n    tag_101:\n        /* \"#utility.yul\":10707:10710   */\n      0x00\n        /* \"#utility.yul\":10736:10811   */\n      tag_225\n        /* \"#utility.yul\":10805:10810   */\n      dup3\n        /* \"#utility.yul\":10736:10811   */\n      tag_95\n      jump\t// in\n    tag_225:\n        /* \"#utility.yul\":10827:10934   */\n      tag_226\n        /* \"#utility.yul\":10927:10933   */\n      dup2\n        /* \"#utility.yul\":10922:10925   */\n      dup6\n        /* \"#utility.yul\":10827:10934   */\n      tag_96\n      jump\t// in\n    tag_226:\n        /* \"#utility.yul\":10820:10934   */\n      swap4\n      pop\n        /* \"#utility.yul\":10960:10963   */\n      dup4\n        /* \"#utility.yul\":11005:11009   */\n      0x20\n        /* \"#utility.yul\":10997:11003   */\n      dup3\n        /* \"#utility.yul\":10993:11010   */\n      mul\n        /* \"#utility.yul\":10988:10991   */\n      dup6\n        /* \"#utility.yul\":10984:11011   */\n      add\n        /* \"#utility.yul\":11035:11112   */\n      tag_227\n        /* \"#utility.yul\":11106:11111   */\n      dup6\n        /* \"#utility.yul\":11035:11112   */\n      tag_97\n      jump\t// in\n    tag_227:\n        /* \"#utility.yul\":11135:11142   */\n      dup1\n        /* \"#utility.yul\":11166:11167   */\n      0x00\n        /* \"#utility.yul\":11151:11580   */\n    tag_228:\n        /* \"#utility.yul\":11176:11182   */\n      dup6\n        /* \"#utility.yul\":11173:11174   */\n      dup2\n        /* \"#utility.yul\":11170:11183   */\n      lt\n        /* \"#utility.yul\":11151:11580   */\n      iszero\n      tag_230\n      jumpi\n        /* \"#utility.yul\":11247:11256   */\n      dup5\n        /* \"#utility.yul\":11241:11245   */\n      dup5\n        /* \"#utility.yul\":11237:11257   */\n      sub\n        /* \"#utility.yul\":11232:11235   */\n      dup10\n        /* \"#utility.yul\":11225:11258   */\n      mstore\n        /* \"#utility.yul\":11298:11304   */\n      dup2\n        /* \"#utility.yul\":11292:11305   */\n      mload\n        /* \"#utility.yul\":11326:11432   */\n      tag_231\n        /* \"#utility.yul\":11427:11431   */\n      dup6\n        /* \"#utility.yul\":11412:11425   */\n      dup3\n        /* \"#utility.yul\":11326:11432   */\n      tag_99\n      jump\t// in\n    tag_231:\n        /* \"#utility.yul\":11318:11432   */\n      swap5\n      pop\n        /* \"#utility.yul\":11455:11536   */\n      tag_232\n        /* \"#utility.yul\":11529:11535   */\n      dup4\n        /* \"#utility.yul\":11455:11536   */\n      tag_100\n      jump\t// in\n    tag_232:\n        /* \"#utility.yul\":11445:11536   */\n      swap3\n      pop\n        /* \"#utility.yul\":11565:11569   */\n      0x20\n        /* \"#utility.yul\":11560:11563   */\n      dup11\n        /* \"#utility.yul\":11556:11570   */\n      add\n        /* \"#utility.yul\":11549:11570   */\n      swap10\n      pop\n        /* \"#utility.yul\":11211:11580   */\n      pop\n        /* \"#utility.yul\":11198:11199   */\n      0x01\n        /* \"#utility.yul\":11195:11196   */\n      dup2\n        /* \"#utility.yul\":11191:11200   */\n      add\n        /* \"#utility.yul\":11186:11200   */\n      swap1\n      pop\n        /* \"#utility.yul\":11151:11580   */\n      jump(tag_228)\n    tag_230:\n        /* \"#utility.yul\":11155:11169   */\n      pop\n        /* \"#utility.yul\":11596:11600   */\n      dup3\n        /* \"#utility.yul\":11589:11600   */\n      swap8\n      pop\n        /* \"#utility.yul\":11616:11619   */\n      dup8\n        /* \"#utility.yul\":11609:11619   */\n      swap6\n      pop\n        /* \"#utility.yul\":10712:11625   */\n      pop\n      pop\n      pop\n      pop\n      pop\n        /* \"#utility.yul\":10546:11625   */\n      swap3\n      swap2\n      pop\n      pop\n      jump\t// out\n        /* \"#utility.yul\":11631:12088   */\n    tag_27:\n        /* \"#utility.yul\":11816:11820   */\n      0x00\n        /* \"#utility.yul\":11854:11856   */\n      0x20\n        /* \"#utility.yul\":11843:11852   */\n      dup3\n        /* \"#utility.yul\":11839:11857   */\n      add\n        /* \"#utility.yul\":11831:11857   */\n      swap1\n      pop\n        /* \"#utility.yul\":11903:11912   */\n      dup2\n        /* \"#utility.yul\":11897:11901   */\n      dup2\n        /* \"#utility.yul\":11893:11913   */\n      sub\n        /* \"#utility.yul\":11889:11890   */\n      0x00\n        /* \"#utility.yul\":11878:11887   */\n      dup4\n        /* \"#utility.yul\":11874:11891   */\n      add\n        /* \"#utility.yul\":11867:11914   */\n      mstore\n        /* \"#utility.yul\":11931:12081   */\n      tag_234\n        /* \"#utility.yul\":12076:12080   */\n      dup2\n        /* \"#utility.yul\":12067:12073   */\n      dup5\n        /* \"#utility.yul\":11931:12081   */\n      tag_101\n      jump\t// in\n    tag_234:\n        /* \"#utility.yul\":11923:12081   */\n      swap1\n      pop\n        /* \"#utility.yul\":11631:12088   */\n      swap3\n      swap2\n      pop\n      pop\n      jump\t// out\n        /* \"#utility.yul\":12094:12274   */\n    tag_102:\n        /* \"#utility.yul\":12142:12219   */\n      0x4e487b7100000000000000000000000000000000000000000000000000000000\n        /* \"#utility.yul\":12139:12140   */\n      0x00\n        /* \"#utility.yul\":12132:12220   */\n      mstore\n        /* \"#utility.yul\":12239:12243   */\n      0x22\n        /* \"#utility.yul\":12236:12237   */\n      0x04\n        /* \"#utility.yul\":12229:12244   */\n      mstore\n        /* \"#utility.yul\":12263:12267   */\n      0x24\n        /* \"#utility.yul\":12260:12261   */\n      0x00\n        /* \"#utility.yul\":12253:12268   */\n      revert\n        /* \"#utility.yul\":12280:12600   */\n    tag_31:\n        /* \"#utility.yul\":12324:12330   */\n      0x00\n        /* \"#utility.yul\":12361:12362   */\n      0x02\n        /* \"#utility.yul\":12355:12359   */\n      dup3\n        /* \"#utility.yul\":12351:12363   */\n      div\n        /* \"#utility.yul\":12341:12363   */\n      swap1\n      pop\n        /* \"#utility.yul\":12408:12409   */\n      0x01\n        /* \"#utility.yul\":12402:12406   */\n      dup3\n        /* \"#utility.yul\":12398:12410   */\n      and\n        /* \"#utility.yul\":12429:12447   */\n      dup1\n        /* \"#utility.yul\":12419:12500   */\n      tag_237\n      jumpi\n        /* \"#utility.yul\":12485:12489   */\n      0x7f\n        /* \"#utility.yul\":12477:12483   */\n      dup3\n        /* \"#utility.yul\":12473:12490   */\n      and\n        /* \"#utility.yul\":12463:12490   */\n      swap2\n      pop\n        /* \"#utility.yul\":12419:12500   */\n    tag_237:\n        /* \"#utility.yul\":12547:12549   */\n      0x20\n        /* \"#utility.yul\":12539:12545   */\n      dup3\n        /* \"#utility.yul\":12536:12550   */\n      lt\n        /* \"#utility.yul\":12516:12534   */\n      dup2\n        /* \"#utility.yul\":12513:12551   */\n      sub\n        /* \"#utility.yul\":12510:12594   */\n      tag_238\n      jumpi\n        /* \"#utility.yul\":12566:12584   */\n      tag_239\n      tag_102\n      jump\t// in\n    tag_239:\n        /* \"#utility.yul\":12510:12594   */\n    tag_238:\n        /* \"#utility.yul\":12331:12600   */\n      pop\n        /* \"#utility.yul\":12280:12600   */\n      swap2\n      swap1\n      pop\n      jump\t// out\n        /* \"#utility.yul\":12606:12786   */\n    tag_41:\n        /* \"#utility.yul\":12654:12731   */\n      0x4e487b7100000000000000000000000000000000000000000000000000000000\n        /* \"#utility.yul\":12651:12652   */\n      0x00\n        /* \"#utility.yul\":12644:12732   */\n      mstore\n        /* \"#utility.yul\":12751:12755   */\n      0x32\n        /* \"#utility.yul\":12748:12749   */\n      0x04\n        /* \"#utility.yul\":12741:12756   */\n      mstore\n        /* \"#utility.yul\":12775:12779   */\n      0x24\n        /* \"#utility.yul\":12772:12773   */\n      0x00\n        /* \"#utility.yul\":12765:12780   */\n      revert\n        /* \"#utility.yul\":12792:12959   */\n    tag_103:\n        /* \"#utility.yul\":12932:12951   */\n      0x547765657420697320746f6f206c6f6e67000000000000000000000000000000\n        /* \"#utility.yul\":12928:12929   */\n      0x00\n        /* \"#utility.yul\":12920:12926   */\n      dup3\n        /* \"#utility.yul\":12916:12930   */\n      add\n        /* \"#utility.yul\":12909:12952   */\n      mstore\n        /* \"#utility.yul\":12792:12959   */\n      pop\n      jump\t// out\n        /* \"#utility.yul\":12965:13331   */\n    tag_104:\n        /* \"#utility.yul\":13107:13110   */\n      0x00\n        /* \"#utility.yul\":13128:13195   */\n      tag_243\n        /* \"#utility.yul\":13192:13194   */\n      0x11\n        /* \"#utility.yul\":13187:13190   */\n      dup4\n        /* \"#utility.yul\":13128:13195   */\n      tag_76\n      jump\t// in\n    tag_243:\n        /* \"#utility.yul\":13121:13195   */\n      swap2\n      pop\n        /* \"#utility.yul\":13204:13297   */\n      tag_244\n        /* \"#utility.yul\":13293:13296   */\n      dup3\n        /* \"#utility.yul\":13204:13297   */\n      tag_103\n      jump\t// in\n    tag_244:\n        /* \"#utility.yul\":13322:13324   */\n      0x20\n        /* \"#utility.yul\":13317:13320   */\n      dup3\n        /* \"#utility.yul\":13313:13325   */\n      add\n        /* \"#utility.yul\":13306:13325   */\n      swap1\n      pop\n        /* \"#utility.yul\":12965:13331   */\n      swap2\n      swap1\n      pop\n      jump\t// out\n        /* \"#utility.yul\":13337:13756   */\n    tag_51:\n        /* \"#utility.yul\":13503:13507   */\n      0x00\n        /* \"#utility.yul\":13541:13543   */\n      0x20\n        /* \"#utility.yul\":13530:13539   */\n      dup3\n        /* \"#utility.yul\":13526:13544   */\n      add\n        /* \"#utility.yul\":13518:13544   */\n      swap1\n      pop\n        /* \"#utility.yul\":13590:13599   */\n      dup2\n        /* \"#utility.yul\":13584:13588   */\n      dup2\n        /* \"#utility.yul\":13580:13600   */\n      sub\n        /* \"#utility.yul\":13576:13577   */\n      0x00\n        /* \"#utility.yul\":13565:13574   */\n      dup4\n        /* \"#utility.yul\":13561:13578   */\n      add\n        /* \"#utility.yul\":13554:13601   */\n      mstore\n        /* \"#utility.yul\":13618:13749   */\n      tag_246\n        /* \"#utility.yul\":13744:13748   */\n      dup2\n        /* \"#utility.yul\":13618:13749   */\n      tag_104\n      jump\t// in\n    tag_246:\n        /* \"#utility.yul\":13610:13749   */\n      swap1\n      pop\n        /* \"#utility.yul\":13337:13756   */\n      swap2\n      swap1\n      pop\n      jump\t// out\n        /* \"#utility.yul\":13762:13903   */\n    tag_105:\n        /* \"#utility.yul\":13811:13815   */\n      0x00\n        /* \"#utility.yul\":13834:13837   */\n      dup2\n        /* \"#utility.yul\":13826:13837   */\n      swap1\n      pop\n        /* \"#utility.yul\":13857:13860   */\n      dup2\n        /* \"#utility.yul\":13854:13855   */\n      0x00\n        /* \"#utility.yul\":13847:13861   */\n      mstore\n        /* \"#utility.yul\":13891:13895   */\n      0x20\n        /* \"#utility.yul\":13888:13889   */\n      0x00\n        /* \"#utility.yul\":13878:13896   */\n      keccak256\n        /* \"#utility.yul\":13870:13896   */\n      swap1\n      pop\n        /* \"#utility.yul\":13762:13903   */\n      swap2\n      swap1\n      pop\n      jump\t// out\n        /* \"#utility.yul\":13909:14002   */\n    tag_106:\n        /* \"#utility.yul\":13946:13952   */\n      0x00\n        /* \"#utility.yul\":13993:13995   */\n      0x20\n        /* \"#utility.yul\":13988:13990   */\n      0x1f\n        /* \"#utility.yul\":13981:13986   */\n      dup4\n        /* \"#utility.yul\":13977:13991   */\n      add\n        /* \"#utility.yul\":13973:13996   */\n      div\n        /* \"#utility.yul\":13963:13996   */\n      swap1\n      pop\n        /* \"#utility.yul\":13909:14002   */\n      swap2\n      swap1\n      pop\n      jump\t// out\n        /* \"#utility.yul\":14008:14115   */\n    tag_107:\n        /* \"#utility.yul\":14052:14060   */\n      0x00\n        /* \"#utility.yul\":14102:14107   */\n      dup3\n        /* \"#utility.yul\":14096:14100   */\n      dup3\n        /* \"#utility.yul\":14092:14108   */\n      shl\n        /* \"#utility.yul\":14071:14108   */\n      swap1\n      pop\n        /* \"#utility.yul\":14008:14115   */\n      swap3\n      swap2\n      pop\n      pop\n      jump\t// out\n        /* \"#utility.yul\":14121:14514   */\n    tag_108:\n        /* \"#utility.yul\":14190:14196   */\n      0x00\n        /* \"#utility.yul\":14240:14241   */\n      0x08\n        /* \"#utility.yul\":14228:14238   */\n      dup4\n        /* \"#utility.yul\":14224:14242   */\n      mul\n        /* \"#utility.yul\":14263:14360   */\n      tag_251\n        /* \"#utility.yul\":14293:14359   */\n      0xffffffffffffffffffffffffffffffffffffffffffffffffffffffffffffffff\n        /* \"#utility.yul\":14282:14291   */\n      dup3\n        /* \"#utility.yul\":14263:14360   */\n      tag_107\n      jump\t// in\n    tag_251:\n        /* \"#utility.yul\":14381:14420   */\n      tag_252\n        /* \"#utility.yul\":14411:14419   */\n      dup7\n        /* \"#utility.yul\":14400:14409   */\n      dup4\n        /* \"#utility.yul\":14381:14420   */\n      tag_107\n      jump\t// in\n    tag_252:\n        /* \"#utility.yul\":14369:14420   */\n      swap6\n      pop\n        /* \"#utility.yul\":14453:14457   */\n      dup1\n        /* \"#utility.yul\":14449:14458   */\n      not\n        /* \"#utility.yul\":14442:14447   */\n      dup5\n        /* \"#utility.yul\":14438:14459   */\n      and\n        /* \"#utility.yul\":14429:14459   */\n      swap4\n      pop\n        /* \"#utility.yul\":14502:14506   */\n      dup1\n        /* \"#utility.yul\":14492:14500   */\n      dup7\n        /* \"#utility.yul\":14488:14507   */\n      and\n        /* \"#utility.yul\":14481:14486   */\n      dup5\n        /* \"#utility.yul\":14478:14508   */\n      or\n        /* \"#utility.yul\":14468:14508   */\n      swap3\n      pop\n        /* \"#utility.yul\":14197:14514   */\n      pop\n      pop\n        /* \"#utility.yul\":14121:14514   */\n      swap4\n      swap3\n      pop\n      pop\n      pop\n      jump\t// out\n        /* \"#utility.yul\":14520:14580   */\n    tag_109:\n        /* \"#utility.yul\":14548:14551   */\n      0x00\n        /* \"#utility.yul\":14569:14574   */\n      dup2\n        /* \"#utility.yul\":14562:14574   */\n      swap1\n      pop\n        /* \"#utility.yul\":14520:14580   */\n      swap2\n      swap1\n      pop\n      jump\t// out\n        /* \"#utility.yul\":14586:14728   */\n    tag_110:\n        /* \"#utility.yul\":14636:14645   */\n      0x00\n        /* \"#utility.yul\":14669:14722   */\n      tag_255\n        /* \"#utility.yul\":14687:14721   */\n      tag_256\n        /* \"#utility.yul\":14696:14720   */\n      tag_257\n        /* \"#utility.yul\":14714:14719   */\n      dup5\n        /* \"#utility.yul\":14696:14720   */\n      tag_71\n      jump\t// in\n    tag_257:\n        /* \"#utility.yul\":14687:14721   */\n      tag_109\n      jump\t// in\n    tag_256:\n        /* \"#utility.yul\":14669:14722   */\n      tag_71\n      jump\t// in\n    tag_255:\n        /* \"#utility.yul\":14656:14722   */\n      swap1\n      pop\n        /* \"#utility.yul\":14586:14728   */\n      swap2\n      swap1\n      pop\n      jump\t// out\n        /* \"#utility.yul\":14734:14809   */\n    tag_111:\n        /* \"#utility.yul\":14777:14780   */\n      0x00\n        /* \"#utility.yul\":14798:14803   */\n      dup2\n        /* \"#utility.yul\":14791:14803   */\n      swap1\n      pop\n        /* \"#utility.yul\":14734:14809   */\n      swap2\n      swap1\n      pop\n      jump\t// out\n        /* \"#utility.yul\":14815:15084   */\n    tag_112:\n        /* \"#utility.yul\":14925:14964   */\n      tag_260\n        /* \"#utility.yul\":14956:14963   */\n      dup4\n        /* \"#utility.yul\":14925:14964   */\n      tag_110\n      jump\t// in\n    tag_260:\n        /* \"#utility.yul\":14986:15077   */\n      tag_261\n        /* \"#utility.yul\":15035:15076   */\n      tag_262\n        /* \"#utility.yul\":15059:15075   */\n      dup3\n        /* \"#utility.yul\":15035:15076   */\n      tag_111\n      jump\t// in\n    tag_262:\n        /* \"#utility.yul\":15027:15033   */\n      dup5\n        /* \"#utility.yul\":15020:15024   */\n      dup5\n        /* \"#utility.yul\":15014:15025   */\n      sload\n        /* \"#utility.yul\":14986:15077   */\n      tag_108\n      jump\t// in\n    tag_261:\n        /* \"#utility.yul\":14980:14984   */\n      dup3\n        /* \"#utility.yul\":14973:15078   */\n      sstore\n        /* \"#utility.yul\":14891:15084   */\n      pop\n        /* \"#utility.yul\":14815:15084   */\n      pop\n      pop\n      pop\n      jump\t// out\n        /* \"#utility.yul\":15090:15163   */\n    tag_113:\n        /* \"#utility.yul\":15135:15138   */\n      0x00\n        /* \"#utility.yul\":15090:15163   */\n      swap1\n      jump\t// out\n        /* \"#utility.yul\":15169:15358   */\n    tag_114:\n        /* \"#utility.yul\":15246:15278   */\n      tag_265\n      tag_113\n      jump\t// in\n    tag_265:\n        /* \"#utility.yul\":15287:15352   */\n      tag_266\n        /* \"#utility.yul\":15345:15351   */\n      dup2\n        /* \"#utility.yul\":15337:15343   */\n      dup5\n        /* \"#utility.yul\":15331:15335   */\n      dup5\n        /* \"#utility.yul\":15287:15352   */\n      tag_112\n      jump\t// in\n    tag_266:\n        /* \"#utility.yul\":15222:15358   */\n      pop\n        /* \"#utility.yul\":15169:15358   */\n      pop\n      pop\n      jump\t// out\n        /* \"#utility.yul\":15364:15550   */\n    tag_115:\n        /* \"#utility.yul\":15424:15544   */\n    tag_268:\n        /* \"#utility.yul\":15441:15444   */\n      dup2\n        /* \"#utility.yul\":15434:15439   */\n      dup2\n        /* \"#utility.yul\":15431:15445   */\n      lt\n        /* \"#utility.yul\":15424:15544   */\n      iszero\n      tag_270\n      jumpi\n        /* \"#utility.yul\":15495:15534   */\n      tag_271\n        /* \"#utility.yul\":15532:15533   */\n      0x00\n        /* \"#utility.yul\":15525:15530   */\n      dup3\n        /* \"#utility.yul\":15495:15534   */\n      tag_114\n      jump\t// in\n    tag_271:\n        /* \"#utility.yul\":15468:15469   */\n      0x01\n        /* \"#utility.yul\":15461:15466   */\n      dup2\n        /* \"#utility.yul\":15457:15470   */\n      add\n        /* \"#utility.yul\":15448:15470   */\n      swap1\n      pop\n        /* \"#utility.yul\":15424:15544   */\n      jump(tag_268)\n    tag_270:\n        /* \"#utility.yul\":15364:15550   */\n      pop\n      pop\n      jump\t// out\n        /* \"#utility.yul\":15556:16099   */\n    tag_116:\n        /* \"#utility.yul\":15657:15659   */\n      0x1f\n        /* \"#utility.yul\":15652:15655   */\n      dup3\n        /* \"#utility.yul\":15649:15660   */\n      gt\n        /* \"#utility.yul\":15646:16092   */\n      iszero\n      tag_273\n      jumpi\n        /* \"#utility.yul\":15691:15729   */\n      tag_274\n        /* \"#utility.yul\":15723:15728   */\n      dup2\n        /* \"#utility.yul\":15691:15729   */\n      tag_105\n      jump\t// in\n    tag_274:\n        /* \"#utility.yul\":15775:15804   */\n      tag_275\n        /* \"#utility.yul\":15793:15803   */\n      dup5\n        /* \"#utility.yul\":15775:15804   */\n      tag_106\n      jump\t// in\n    tag_275:\n        /* \"#utility.yul\":15765:15773   */\n      dup2\n        /* \"#utility.yul\":15761:15805   */\n      add\n        /* \"#utility.yul\":15958:15960   */\n      0x20\n        /* \"#utility.yul\":15946:15956   */\n      dup6\n        /* \"#utility.yul\":15943:15961   */\n      lt\n        /* \"#utility.yul\":15940:15989   */\n      iszero\n      tag_276\n      jumpi\n        /* \"#utility.yul\":15979:15987   */\n      dup2\n        /* \"#utility.yul\":15964:15987   */\n      swap1\n      pop\n        /* \"#utility.yul\":15940:15989   */\n    tag_276:\n        /* \"#utility.yul\":16002:16082   */\n      tag_277\n        /* \"#utility.yul\":16058:16080   */\n      tag_278\n        /* \"#utility.yul\":16076:16079   */\n      dup6\n        /* \"#utility.yul\":16058:16080   */\n      tag_106\n      jump\t// in\n    tag_278:\n        /* \"#utility.yul\":16048:16056   */\n      dup4\n        /* \"#utility.yul\":16044:16081   */\n      add\n        /* \"#utility.yul\":16031:16042   */\n      dup3\n        /* \"#utility.yul\":16002:16082   */\n      tag_115\n      jump\t// in\n    tag_277:\n        /* \"#utility.yul\":15661:16092   */\n      pop\n      pop\n        /* \"#utility.yul\":15646:16092   */\n    tag_273:\n        /* \"#utility.yul\":15556:16099   */\n      pop\n      pop\n      pop\n      jump\t// out\n        /* \"#utility.yul\":16105:16222   */\n    tag_117:\n        /* \"#utility.yul\":16159:16167   */\n      0x00\n        /* \"#utility.yul\":16209:16214   */\n      dup3\n        /* \"#utility.yul\":16203:16207   */\n      dup3\n        /* \"#utility.yul\":16199:16215   */\n      shr\n        /* \"#utility.yul\":16178:16215   */\n      swap1\n      pop\n        /* \"#utility.yul\":16105:16222   */\n      swap3\n      swap2\n      pop\n      pop\n      jump\t// out\n        /* \"#utility.yul\":16228:16397   */\n    tag_118:\n        /* \"#utility.yul\":16272:16278   */\n      0x00\n        /* \"#utility.yul\":16305:16356   */\n      tag_281\n        /* \"#utility.yul\":16353:16354   */\n      0x00\n        /* \"#utility.yul\":16349:16355   */\n      not\n        /* \"#utility.yul\":16341:16346   */\n      dup5\n        /* \"#utility.yul\":16338:16339   */\n      0x08\n        /* \"#utility.yul\":16334:16347   */\n      mul\n        /* \"#utility.yul\":16305:16356   */\n      tag_117\n      jump\t// in\n    tag_281:\n        /* \"#utility.yul\":16301:16357   */\n      not\n        /* \"#utility.yul\":16386:16390   */\n      dup1\n        /* \"#utility.yul\":16380:16384   */\n      dup4\n        /* \"#utility.yul\":16376:16391   */\n      and\n        /* \"#utility.yul\":16366:16391   */\n      swap2\n      pop\n        /* \"#utility.yul\":16279:16397   */\n      pop\n        /* \"#utility.yul\":16228:16397   */\n      swap3\n      swap2\n      pop\n      pop\n      jump\t// out\n        /* \"#utility.yul\":16402:16697   */\n    tag_119:\n        /* \"#utility.yul\":16478:16482   */\n      0x00\n        /* \"#utility.yul\":16624:16653   */\n      tag_283\n        /* \"#utility.yul\":16649:16652   */\n      dup4\n        /* \"#utility.yul\":16643:16647   */\n      dup4\n        /* \"#utility.yul\":16624:16653   */\n      tag_118\n      jump\t// in\n    tag_283:\n        /* \"#utility.yul\":16616:16653   */\n      swap2\n      pop\n        /* \"#utility.yul\":16686:16689   */\n      dup3\n        /* \"#utility.yul\":16683:16684   */\n      0x02\n        /* \"#utility.yul\":16679:16690   */\n      mul\n        /* \"#utility.yul\":16673:16677   */\n      dup3\n        /* \"#utility.yul\":16670:16691   */\n      or\n        /* \"#utility.yul\":16662:16691   */\n      swap1\n      pop\n        /* \"#utility.yul\":16402:16697   */\n      swap3\n      swap2\n      pop\n      pop\n      jump\t// out\n        /* \"#utility.yul\":16702:18097   */\n    tag_54:\n        /* \"#utility.yul\":16819:16856   */\n      tag_285\n        /* \"#utility.yul\":16852:16855   */\n      dup3\n        /* \"#utility.yul\":16819:16856   */\n      tag_75\n      jump\t// in\n    tag_285:\n        /* \"#utility.yul\":16921:16939   */\n      0xffffffffffffffff\n        /* \"#utility.yul\":16913:16919   */\n      dup2\n        /* \"#utility.yul\":16910:16940   */\n      gt\n        /* \"#utility.yul\":16907:16963   */\n      iszero\n      tag_286\n      jumpi\n        /* \"#utility.yul\":16943:16961   */\n      tag_287\n      tag_88\n      jump\t// in\n    tag_287:\n        /* \"#utility.yul\":16907:16963   */\n    tag_286:\n        /* \"#utility.yul\":16987:17025   */\n      tag_288\n        /* \"#utility.yul\":17019:17023   */\n      dup3\n        /* \"#utility.yul\":17013:17024   */\n      sload\n        /* \"#utility.yul\":16987:17025   */\n      tag_31\n      jump\t// in\n    tag_288:\n        /* \"#utility.yul\":17072:17139   */\n      tag_289\n        /* \"#utility.yul\":17132:17138   */\n      dup3\n        /* \"#utility.yul\":17124:17130   */\n      dup3\n        /* \"#utility.yul\":17118:17122   */\n      dup6\n        /* \"#utility.yul\":17072:17139   */\n      tag_116\n      jump\t// in\n    tag_289:\n        /* \"#utility.yul\":17166:17167   */\n      0x00\n        /* \"#utility.yul\":17190:17194   */\n      0x20\n        /* \"#utility.yul\":17177:17194   */\n      swap1\n      pop\n        /* \"#utility.yul\":17222:17224   */\n      0x1f\n        /* \"#utility.yul\":17214:17220   */\n      dup4\n        /* \"#utility.yul\":17211:17225   */\n      gt\n        /* \"#utility.yul\":17239:17240   */\n      0x01\n        /* \"#utility.yul\":17234:17852   */\n      dup2\n      eq\n      tag_291\n      jumpi\n        /* \"#utility.yul\":17896:17897   */\n      0x00\n        /* \"#utility.yul\":17913:17919   */\n      dup5\n        /* \"#utility.yul\":17910:17987   */\n      iszero\n      tag_292\n      jumpi\n        /* \"#utility.yul\":17962:17971   */\n      dup3\n        /* \"#utility.yul\":17957:17960   */\n      dup8\n        /* \"#utility.yul\":17953:17972   */\n      add\n        /* \"#utility.yul\":17947:17973   */\n      mload\n        /* \"#utility.yul\":17938:17973   */\n      swap1\n      pop\n        /* \"#utility.yul\":17910:17987   */\n    tag_292:\n        /* \"#utility.yul\":18013:18080   */\n      tag_293\n        /* \"#utility.yul\":18073:18079   */\n      dup6\n        /* \"#utility.yul\":18066:18071   */\n      dup3\n        /* \"#utility.yul\":18013:18080   */\n      tag_119\n      jump\t// in\n    tag_293:\n        /* \"#utility.yul\":18007:18011   */\n      dup7\n        /* \"#utility.yul\":18000:18081   */\n      sstore\n        /* \"#utility.yul\":17869:18091   */\n      pop\n        /* \"#utility.yul\":17204:18091   */\n      jump(tag_290)\n        /* \"#utility.yul\":17234:17852   */\n    tag_291:\n        /* \"#utility.yul\":17286:17290   */\n      0x1f\n        /* \"#utility.yul\":17282:17291   */\n      not\n        /* \"#utility.yul\":17274:17280   */\n      dup5\n        /* \"#utility.yul\":17270:17292   */\n      and\n        /* \"#utility.yul\":17320:17357   */\n      tag_294\n        /* \"#utility.yul\":17352:17356   */\n      dup7\n        /* \"#utility.yul\":17320:17357   */\n      tag_105\n      jump\t// in\n    tag_294:\n        /* \"#utility.yul\":17379:17380   */\n      0x00\n        /* \"#utility.yul\":17393:17601   */\n    tag_295:\n        /* \"#utility.yul\":17407:17414   */\n      dup3\n        /* \"#utility.yul\":17404:17405   */\n      dup2\n        /* \"#utility.yul\":17401:17415   */\n      lt\n        /* \"#utility.yul\":17393:17601   */\n      iszero\n      tag_297\n      jumpi\n        /* \"#utility.yul\":17486:17495   */\n      dup5\n        /* \"#utility.yul\":17481:17484   */\n      dup10\n        /* \"#utility.yul\":17477:17496   */\n      add\n        /* \"#utility.yul\":17471:17497   */\n      mload\n        /* \"#utility.yul\":17463:17469   */\n      dup3\n        /* \"#utility.yul\":17456:17498   */\n      sstore\n        /* \"#utility.yul\":17537:17538   */\n      0x01\n        /* \"#utility.yul\":17529:17535   */\n      dup3\n        /* \"#utility.yul\":17525:17539   */\n      add\n        /* \"#utility.yul\":17515:17539   */\n      swap2\n      pop\n        /* \"#utility.yul\":17584:17586   */\n      0x20\n        /* \"#utility.yul\":17573:17582   */\n      dup6\n        /* \"#utility.yul\":17569:17587   */\n      add\n        /* \"#utility.yul\":17556:17587   */\n      swap5\n      pop\n        /* \"#utility.yul\":17430:17434   */\n      0x20\n        /* \"#utility.yul\":17427:17428   */\n      dup2\n        /* \"#utility.yul\":17423:17435   */\n      add\n        /* \"#utility.yul\":17418:17435   */\n      swap1\n      pop\n        /* \"#utility.yul\":17393:17601   */\n      jump(tag_295)\n    tag_297:\n        /* \"#utility.yul\":17629:17635   */\n      dup7\n        /* \"#utility.yul\":17620:17627   */\n      dup4\n        /* \"#utility.yul\":17617:17636   */\n      lt\n        /* \"#utility.yul\":17614:17793   */\n      iszero\n      tag_298\n      jumpi\n        /* \"#utility.yul\":17687:17696   */\n      dup5\n        /* \"#utility.yul\":17682:17685   */\n      dup10\n        /* \"#utility.yul\":17678:17697   */\n      add\n        /* \"#utility.yul\":17672:17698   */\n      mload\n        /* \"#utility.yul\":17730:17778   */\n      tag_299\n        /* \"#utility.yul\":17772:17776   */\n      0x1f\n        /* \"#utility.yul\":17764:17770   */\n      dup10\n        /* \"#utility.yul\":17760:17777   */\n      and\n        /* \"#utility.yul\":17749:17758   */\n      dup3\n        /* \"#utility.yul\":17730:17778   */\n      tag_118\n      jump\t// in\n    tag_299:\n        /* \"#utility.yul\":17722:17728   */\n      dup4\n        /* \"#utility.yul\":17715:17779   */\n      sstore\n        /* \"#utility.yul\":17637:17793   */\n      pop\n        /* \"#utility.yul\":17614:17793   */\n    tag_298:\n        /* \"#utility.yul\":17839:17840   */\n      0x01\n        /* \"#utility.yul\":17835:17836   */\n      0x02\n        /* \"#utility.yul\":17827:17833   */\n      dup9\n        /* \"#utility.yul\":17823:17837   */\n      mul\n        /* \"#utility.yul\":17819:17841   */\n      add\n        /* \"#utility.yul\":17813:17817   */\n      dup9\n        /* \"#utility.yul\":17806:17842   */\n      sstore\n        /* \"#utility.yul\":17241:17852   */\n      pop\n      pop\n      pop\n        /* \"#utility.yul\":17204:18091   */\n    tag_290:\n      pop\n        /* \"#utility.yul\":16794:18097   */\n      pop\n      pop\n      pop\n        /* \"#utility.yul\":16702:18097   */\n      pop\n      pop\n      jump\t// out\n\n    auxdata: 0xa26469706673582212203fe5c79eb06ebf3c2046189d00646be265fd44d04b14d52f10fd036d2874a59a64736f6c634300081a0033\n}\n",
				"bytecode": {
					"linkReferences": {},
					"object": "6080604052348015600e575f80fd5b50610f7f8061001c5f395ff3fe608060405234801561000f575f80fd5b506004361061004a575f3560e01c806305a1b4a91461004e578063112f54e3146100815780637c9cd2bc146100b15780639e92b093146100cd575b5f80fd5b61006860048036038101906100639190610716565b6100fd565b60405161007894939291906107e2565b60405180910390f35b61009b60048036038101906100969190610716565b6101e7565b6040516100a891906108f2565b60405180910390f35b6100cb60048036038101906100c69190610a3e565b610354565b005b6100e760048036038101906100e29190610a85565b6104ad565b6040516100f49190610bcb565b60405180910390f35b5f602052815f5260405f208181548110610115575f80fd5b905f5260205f2090600402015f9150915050805f015f9054906101000a900473ffffffffffffffffffffffffffffffffffffffff169080600101805461015a90610c18565b80601f016020809104026020016040519081016040528092919081815260200182805461018690610c18565b80156101d15780601f106101a8576101008083540402835291602001916101d1565b820191905f5260205f20905b8154815290600101906020018083116101b457829003601f168201915b5050505050908060020154908060030154905084565b6101ef61063d565b5f808473ffffffffffffffffffffffffffffffffffffffff1673ffffffffffffffffffffffffffffffffffffffff1681526020019081526020015f20828154811061023d5761023c610c48565b5b905f5260205f2090600402016040518060800160405290815f82015f9054906101000a900473ffffffffffffffffffffffffffffffffffffffff1673ffffffffffffffffffffffffffffffffffffffff1673ffffffffffffffffffffffffffffffffffffffff1681526020016001820180546102b890610c18565b80601f01602080910402602001604051908101604052809291908181526020018280546102e490610c18565b801561032f5780601f106103065761010080835404028352916020019161032f565b820191905f5260205f20905b81548152906001019060200180831161031257829003601f168201915b5050505050815260200160028201548152602001600382015481525050905092915050565b60c860ff168151111561039c576040517f08c379a000000000000000000000000000000000000000000000000000000000815260040161039390610cbf565b60405180910390fd5b5f60405180608001604052803373ffffffffffffffffffffffffffffffffffffffff1681526020018381526020014281526020015f81525090505f803373ffffffffffffffffffffffffffffffffffffffff1673ffffffffffffffffffffffffffffffffffffffff1681526020019081526020015f2081908060018154018082558091505060019003905f5260205f2090600402015f909190919091505f820151815f015f6101000a81548173ffffffffffffffffffffffffffffffffffffffff021916908373ffffffffffffffffffffffffffffffffffffffff16021790555060208201518160010190816104929190610e7a565b50604082015181600201556060820151816003015550505050565b60605f808373ffffffffffffffffffffffffffffffffffffffff1673ffffffffffffffffffffffffffffffffffffffff1681526020019081526020015f20805480602002602001604051908101604052809291908181526020015f905b82821015610632578382905f5260205f2090600402016040518060800160405290815f82015f9054906101000a900473ffffffffffffffffffffffffffffffffffffffff1673ffffffffffffffffffffffffffffffffffffffff1673ffffffffffffffffffffffffffffffffffffffff16815260200160018201805461058f90610c18565b80601f01602080910402602001604051908101604052809291908181526020018280546105bb90610c18565b80156106065780601f106105dd57610100808354040283529160200191610606565b820191905f5260205f20905b8154815290600101906020018083116105e957829003601f168201915b50505050508152602001600282015481526020016003820154815250508152602001906001019061050a565b505050509050919050565b60405180608001604052805f73ffffffffffffffffffffffffffffffffffffffff168152602001606081526020015f81526020015f81525090565b5f604051905090565b5f80fd5b5f80fd5b5f73ffffffffffffffffffffffffffffffffffffffff82169050919050565b5f6106b282610689565b9050919050565b6106c2816106a8565b81146106cc575f80fd5b50565b5f813590506106dd816106b9565b92915050565b5f819050919050565b6106f5816106e3565b81146106ff575f80fd5b50565b5f81359050610710816106ec565b92915050565b5f806040838503121561072c5761072b610681565b5b5f610739858286016106cf565b925050602061074a85828601610702565b9150509250929050565b61075d816106a8565b82525050565b5f81519050919050565b5f82825260208201905092915050565b8281835e5f83830152505050565b5f601f19601f8301169050919050565b5f6107a582610763565b6107af818561076d565b93506107bf81856020860161077d565b6107c88161078b565b840191505092915050565b6107dc816106e3565b82525050565b5f6080820190506107f55f830187610754565b8181036020830152610807818661079b565b905061081660408301856107d3565b61082360608301846107d3565b95945050505050565b610835816106a8565b82525050565b5f82825260208201905092915050565b5f61085582610763565b61085f818561083b565b935061086f81856020860161077d565b6108788161078b565b840191505092915050565b61088c816106e3565b82525050565b5f608083015f8301516108a75f86018261082c565b50602083015184820360208601526108bf828261084b565b91505060408301516108d46040860182610883565b5060608301516108e76060860182610883565b508091505092915050565b5f6020820190508181035f83015261090a8184610892565b905092915050565b5f80fd5b5f80fd5b7f4e487b71000000000000000000000000000000000000000000000000000000005f52604160045260245ffd5b6109508261078b565b810181811067ffffffffffffffff8211171561096f5761096e61091a565b5b80604052505050565b5f610981610678565b905061098d8282610947565b919050565b5f67ffffffffffffffff8211156109ac576109ab61091a565b5b6109b58261078b565b9050602081019050919050565b828183375f83830152505050565b5f6109e26109dd84610992565b610978565b9050828152602081018484840111156109fe576109fd610916565b5b610a098482856109c2565b509392505050565b5f82601f830112610a2557610a24610912565b5b8135610a358482602086016109d0565b91505092915050565b5f60208284031215610a5357610a52610681565b5b5f82013567ffffffffffffffff811115610a7057610a6f610685565b5b610a7c84828501610a11565b91505092915050565b5f60208284031215610a9a57610a99610681565b5b5f610aa7848285016106cf565b91505092915050565b5f81519050919050565b5f82825260208201905092915050565b5f819050602082019050919050565b5f608083015f830151610aee5f86018261082c565b5060208301518482036020860152610b06828261084b565b9150506040830151610b1b6040860182610883565b506060830151610b2e6060860182610883565b508091505092915050565b5f610b448383610ad9565b905092915050565b5f602082019050919050565b5f610b6282610ab0565b610b6c8185610aba565b935083602082028501610b7e85610aca565b805f5b85811015610bb95784840389528151610b9a8582610b39565b9450610ba583610b4c565b925060208a01995050600181019050610b81565b50829750879550505050505092915050565b5f6020820190508181035f830152610be38184610b58565b905092915050565b7f4e487b71000000000000000000000000000000000000000000000000000000005f52602260045260245ffd5b5f6002820490506001821680610c2f57607f821691505b602082108103610c4257610c41610beb565b5b50919050565b7f4e487b71000000000000000000000000000000000000000000000000000000005f52603260045260245ffd5b7f547765657420697320746f6f206c6f6e670000000000000000000000000000005f82015250565b5f610ca960118361076d565b9150610cb482610c75565b602082019050919050565b5f6020820190508181035f830152610cd681610c9d565b9050919050565b5f819050815f5260205f209050919050565b5f6020601f8301049050919050565b5f82821b905092915050565b5f60088302610d397fffffffffffffffffffffffffffffffffffffffffffffffffffffffffffffffff82610cfe565b610d438683610cfe565b95508019841693508086168417925050509392505050565b5f819050919050565b5f610d7e610d79610d74846106e3565b610d5b565b6106e3565b9050919050565b5f819050919050565b610d9783610d64565b610dab610da382610d85565b848454610d0a565b825550505050565b5f90565b610dbf610db3565b610dca818484610d8e565b505050565b5b81811015610ded57610de25f82610db7565b600181019050610dd0565b5050565b601f821115610e3257610e0381610cdd565b610e0c84610cef565b81016020851015610e1b578190505b610e2f610e2785610cef565b830182610dcf565b50505b505050565b5f82821c905092915050565b5f610e525f1984600802610e37565b1980831691505092915050565b5f610e6a8383610e43565b9150826002028217905092915050565b610e8382610763565b67ffffffffffffffff811115610e9c57610e9b61091a565b5b610ea68254610c18565b610eb1828285610df1565b5f60209050601f831160018114610ee2575f8415610ed0578287015190505b610eda8582610e5f565b865550610f41565b601f198416610ef086610cdd565b5f5b82811015610f1757848901518255600182019150602085019450602081019050610ef2565b86831015610f345784890151610f30601f891682610e43565b8355505b6001600288020188555050505b50505050505056fea26469706673582212203fe5c79eb06ebf3c2046189d00646be265fd44d04b14d52f10fd036d2874a59a64736f6c634300081a0033",
					"opcodes": "PUSH1 0x80 PUSH1 0x40 MSTORE CALLVALUE DUP1 ISZERO PUSH1 0xE JUMPI PUSH0 DUP1 REVERT JUMPDEST POP PUSH2 0xF7F DUP1 PUSH2 0x1C PUSH0 CODECOPY PUSH0 RETURN INVALID PUSH1 0x80 PUSH1 0x40 MSTORE CALLVALUE DUP1 ISZERO PUSH2 0xF JUMPI PUSH0 DUP1 REVERT JUMPDEST POP PUSH1 0x4 CALLDATASIZE LT PUSH2 0x4A JUMPI PUSH0 CALLDATALOAD PUSH1 0xE0 SHR DUP1 PUSH4 0x5A1B4A9 EQ PUSH2 0x4E JUMPI DUP1 PUSH4 0x112F54E3 EQ PUSH2 0x81 JUMPI DUP1 PUSH4 0x7C9CD2BC EQ PUSH2 0xB1 JUMPI DUP1 PUSH4 0x9E92B093 EQ PUSH2 0xCD JUMPI JUMPDEST PUSH0 DUP1 REVERT JUMPDEST PUSH2 0x68 PUSH1 0x4 DUP1 CALLDATASIZE SUB DUP2 ADD SWAP1 PUSH2 0x63 SWAP2 SWAP1 PUSH2 0x716 JUMP JUMPDEST PUSH2 0xFD JUMP JUMPDEST PUSH1 0x40 MLOAD PUSH2 0x78 SWAP5 SWAP4 SWAP3 SWAP2 SWAP1 PUSH2 0x7E2 JUMP JUMPDEST PUSH1 0x40 MLOAD DUP1 SWAP2 SUB SWAP1 RETURN JUMPDEST PUSH2 0x9B PUSH1 0x4 DUP1 CALLDATASIZE SUB DUP2 ADD SWAP1 PUSH2 0x96 SWAP2 SWAP1 PUSH2 0x716 JUMP JUMPDEST PUSH2 0x1E7 JUMP JUMPDEST PUSH1 0x40 MLOAD PUSH2 0xA8 SWAP2 SWAP1 PUSH2 0x8F2 JUMP JUMPDEST PUSH1 0x40 MLOAD DUP1 SWAP2 SUB SWAP1 RETURN JUMPDEST PUSH2 0xCB PUSH1 0x4 DUP1 CALLDATASIZE SUB DUP2 ADD SWAP1 PUSH2 0xC6 SWAP2 SWAP1 PUSH2 0xA3E JUMP JUMPDEST PUSH2 0x354 JUMP JUMPDEST STOP JUMPDEST PUSH2 0xE7 PUSH1 0x4 DUP1 CALLDATASIZE SUB DUP2 ADD SWAP1 PUSH2 0xE2 SWAP2 SWAP1 PUSH2 0xA85 JUMP JUMPDEST PUSH2 0x4AD JUMP JUMPDEST PUSH1 0x40 MLOAD PUSH2 0xF4 SWAP2 SWAP1 PUSH2 0xBCB JUMP JUMPDEST PUSH1 0x40 MLOAD DUP1 SWAP2 SUB SWAP1 RETURN JUMPDEST PUSH0 PUSH1 0x20 MSTORE DUP2 PUSH0 MSTORE PUSH1 0x40 PUSH0 KECCAK256 DUP2 DUP2 SLOAD DUP2 LT PUSH2 0x115 JUMPI PUSH0 DUP1 REVERT JUMPDEST SWAP1 PUSH0 MSTORE PUSH1 0x20 PUSH0 KECCAK256 SWAP1 PUSH1 0x4 MUL ADD PUSH0 SWAP2 POP SWAP2 POP POP DUP1 PUSH0 ADD PUSH0 SWAP1 SLOAD SWAP1 PUSH2 0x100 EXP SWAP1 DIV PUSH20 0xFFFFFFFFFFFFFFFFFFFFFFFFFFFFFFFFFFFFFFFF AND SWAP1 DUP1 PUSH1 0x1 ADD DUP1 SLOAD PUSH2 0x15A SWAP1 PUSH2 0xC18 JUMP JUMPDEST DUP1 PUSH1 0x1F ADD PUSH1 0x20 DUP1 SWAP2 DIV MUL PUSH1 0x20 ADD PUSH1 0x40 MLOAD SWAP1 DUP2 ADD PUSH1 0x40 MSTORE DUP1 SWAP3 SWAP2 SWAP1 DUP2 DUP2 MSTORE PUSH1 0x20 ADD DUP3 DUP1 SLOAD PUSH2 0x186 SWAP1 PUSH2 0xC18 JUMP JUMPDEST DUP1 ISZERO PUSH2 0x1D1 JUMPI DUP1 PUSH1 0x1F LT PUSH2 0x1A8 JUMPI PUSH2 0x100 DUP1 DUP4 SLOAD DIV MUL DUP4 MSTORE SWAP2 PUSH1 0x20 ADD SWAP2 PUSH2 0x1D1 JUMP JUMPDEST DUP3 ADD SWAP2 SWAP1 PUSH0 MSTORE PUSH1 0x20 PUSH0 KECCAK256 SWAP1 JUMPDEST DUP2 SLOAD DUP2 MSTORE SWAP1 PUSH1 0x1 ADD SWAP1 PUSH1 0x20 ADD DUP1 DUP4 GT PUSH2 0x1B4 JUMPI DUP3 SWAP1 SUB PUSH1 0x1F AND DUP3 ADD SWAP2 JUMPDEST POP POP POP POP POP SWAP1 DUP1 PUSH1 0x2 ADD SLOAD SWAP1 DUP1 PUSH1 0x3 ADD SLOAD SWAP1 POP DUP5 JUMP JUMPDEST PUSH2 0x1EF PUSH2 0x63D JUMP JUMPDEST PUSH0 DUP1 DUP5 PUSH20 0xFFFFFFFFFFFFFFFFFFFFFFFFFFFFFFFFFFFFFFFF AND PUSH20 0xFFFFFFFFFFFFFFFFFFFFFFFFFFFFFFFFFFFFFFFF AND DUP2 MSTORE PUSH1 0x20 ADD SWAP1 DUP2 MSTORE PUSH1 0x20 ADD PUSH0 KECCAK256 DUP3 DUP2 SLOAD DUP2 LT PUSH2 0x23D JUMPI PUSH2 0x23C PUSH2 0xC48 JUMP JUMPDEST JUMPDEST SWAP1 PUSH0 MSTORE PUSH1 0x20 PUSH0 KECCAK256 SWAP1 PUSH1 0x4 MUL ADD PUSH1 0x40 MLOAD DUP1 PUSH1 0x80 ADD PUSH1 0x40 MSTORE SWAP1 DUP2 PUSH0 DUP3 ADD PUSH0 SWAP1 SLOAD SWAP1 PUSH2 0x100 EXP SWAP1 DIV PUSH20 0xFFFFFFFFFFFFFFFFFFFFFFFFFFFFFFFFFFFFFFFF AND PUSH20 0xFFFFFFFFFFFFFFFFFFFFFFFFFFFFFFFFFFFFFFFF AND PUSH20 0xFFFFFFFFFFFFFFFFFFFFFFFFFFFFFFFFFFFFFFFF AND DUP2 MSTORE PUSH1 0x20 ADD PUSH1 0x1 DUP3 ADD DUP1 SLOAD PUSH2 0x2B8 SWAP1 PUSH2 0xC18 JUMP JUMPDEST DUP1 PUSH1 0x1F ADD PUSH1 0x20 DUP1 SWAP2 DIV MUL PUSH1 0x20 ADD PUSH1 0x40 MLOAD SWAP1 DUP2 ADD PUSH1 0x40 MSTORE DUP1 SWAP3 SWAP2 SWAP1 DUP2 DUP2 MSTORE PUSH1 0x20 ADD DUP3 DUP1 SLOAD PUSH2 0x2E4 SWAP1 PUSH2 0xC18 JUMP JUMPDEST DUP1 ISZERO PUSH2 0x32F JUMPI DUP1 PUSH1 0x1F LT PUSH2 0x306 JUMPI PUSH2 0x100 DUP1 DUP4 SLOAD DIV MUL DUP4 MSTORE SWAP2 PUSH1 0x20 ADD SWAP2 PUSH2 0x32F JUMP JUMPDEST DUP3 ADD SWAP2 SWAP1 PUSH0 MSTORE PUSH1 0x20 PUSH0 KECCAK256 SWAP1 JUMPDEST DUP2 SLOAD DUP2 MSTORE SWAP1 PUSH1 0x1 ADD SWAP1 PUSH1 0x20 ADD DUP1 DUP4 GT PUSH2 0x312 JUMPI DUP3 SWAP1 SUB PUSH1 0x1F AND DUP3 ADD SWAP2 JUMPDEST POP POP POP POP POP DUP2 MSTORE PUSH1 0x20 ADD PUSH1 0x2 DUP3 ADD SLOAD DUP2 MSTORE PUSH1 0x20 ADD PUSH1 0x3 DUP3 ADD SLOAD DUP2 MSTORE POP POP SWAP1 POP SWAP3 SWAP2 POP POP JUMP JUMPDEST PUSH1 0xC8 PUSH1 0xFF AND DUP2 MLOAD GT ISZERO PUSH2 0x39C JUMPI PUSH1 0x40 MLOAD PUSH32 0x8C379A000000000000000000000000000000000000000000000000000000000 DUP2 MSTORE PUSH1 0x4 ADD PUSH2 0x393 SWAP1 PUSH2 0xCBF JUMP JUMPDEST PUSH1 0x40 MLOAD DUP1 SWAP2 SUB SWAP1 REVERT JUMPDEST PUSH0 PUSH1 0x40 MLOAD DUP1 PUSH1 0x80 ADD PUSH1 0x40 MSTORE DUP1 CALLER PUSH20 0xFFFFFFFFFFFFFFFFFFFFFFFFFFFFFFFFFFFFFFFF AND DUP2 MSTORE PUSH1 0x20 ADD DUP4 DUP2 MSTORE PUSH1 0x20 ADD TIMESTAMP DUP2 MSTORE PUSH1 0x20 ADD PUSH0 DUP2 MSTORE POP SWAP1 POP PUSH0 DUP1 CALLER PUSH20 0xFFFFFFFFFFFFFFFFFFFFFFFFFFFFFFFFFFFFFFFF AND PUSH20 0xFFFFFFFFFFFFFFFFFFFFFFFFFFFFFFFFFFFFFFFF AND DUP2 MSTORE PUSH1 0x20 ADD SWAP1 DUP2 MSTORE PUSH1 0x20 ADD PUSH0 KECCAK256 DUP2 SWAP1 DUP1 PUSH1 0x1 DUP2 SLOAD ADD DUP1 DUP3 SSTORE DUP1 SWAP2 POP POP PUSH1 0x1 SWAP1 SUB SWAP1 PUSH0 MSTORE PUSH1 0x20 PUSH0 KECCAK256 SWAP1 PUSH1 0x4 MUL ADD PUSH0 SWAP1 SWAP2 SWAP1 SWAP2 SWAP1 SWAP2 POP PUSH0 DUP3 ADD MLOAD DUP2 PUSH0 ADD PUSH0 PUSH2 0x100 EXP DUP2 SLOAD DUP2 PUSH20 0xFFFFFFFFFFFFFFFFFFFFFFFFFFFFFFFFFFFFFFFF MUL NOT AND SWAP1 DUP4 PUSH20 0xFFFFFFFFFFFFFFFFFFFFFFFFFFFFFFFFFFFFFFFF AND MUL OR SWAP1 SSTORE POP PUSH1 0x20 DUP3 ADD MLOAD DUP2 PUSH1 0x1 ADD SWAP1 DUP2 PUSH2 0x492 SWAP2 SWAP1 PUSH2 0xE7A JUMP JUMPDEST POP PUSH1 0x40 DUP3 ADD MLOAD DUP2 PUSH1 0x2 ADD SSTORE PUSH1 0x60 DUP3 ADD MLOAD DUP2 PUSH1 0x3 ADD SSTORE POP POP POP POP JUMP JUMPDEST PUSH1 0x60 PUSH0 DUP1 DUP4 PUSH20 0xFFFFFFFFFFFFFFFFFFFFFFFFFFFFFFFFFFFFFFFF AND PUSH20 0xFFFFFFFFFFFFFFFFFFFFFFFFFFFFFFFFFFFFFFFF AND DUP2 MSTORE PUSH1 0x20 ADD SWAP1 DUP2 MSTORE PUSH1 0x20 ADD PUSH0 KECCAK256 DUP1 SLOAD DUP1 PUSH1 0x20 MUL PUSH1 0x20 ADD PUSH1 0x40 MLOAD SWAP1 DUP2 ADD PUSH1 0x40 MSTORE DUP1 SWAP3 SWAP2 SWAP1 DUP2 DUP2 MSTORE PUSH1 0x20 ADD PUSH0 SWAP1 JUMPDEST DUP3 DUP3 LT ISZERO PUSH2 0x632 JUMPI DUP4 DUP3 SWAP1 PUSH0 MSTORE PUSH1 0x20 PUSH0 KECCAK256 SWAP1 PUSH1 0x4 MUL ADD PUSH1 0x40 MLOAD DUP1 PUSH1 0x80 ADD PUSH1 0x40 MSTORE SWAP1 DUP2 PUSH0 DUP3 ADD PUSH0 SWAP1 SLOAD SWAP1 PUSH2 0x100 EXP SWAP1 DIV PUSH20 0xFFFFFFFFFFFFFFFFFFFFFFFFFFFFFFFFFFFFFFFF AND PUSH20 0xFFFFFFFFFFFFFFFFFFFFFFFFFFFFFFFFFFFFFFFF AND PUSH20 0xFFFFFFFFFFFFFFFFFFFFFFFFFFFFFFFFFFFFFFFF AND DUP2 MSTORE PUSH1 0x20 ADD PUSH1 0x1 DUP3 ADD DUP1 SLOAD PUSH2 0x58F SWAP1 PUSH2 0xC18 JUMP JUMPDEST DUP1 PUSH1 0x1F ADD PUSH1 0x20 DUP1 SWAP2 DIV MUL PUSH1 0x20 ADD PUSH1 0x40 MLOAD SWAP1 DUP2 ADD PUSH1 0x40 MSTORE DUP1 SWAP3 SWAP2 SWAP1 DUP2 DUP2 MSTORE PUSH1 0x20 ADD DUP3 DUP1 SLOAD PUSH2 0x5BB SWAP1 PUSH2 0xC18 JUMP JUMPDEST DUP1 ISZERO PUSH2 0x606 JUMPI DUP1 PUSH1 0x1F LT PUSH2 0x5DD JUMPI PUSH2 0x100 DUP1 DUP4 SLOAD DIV MUL DUP4 MSTORE SWAP2 PUSH1 0x20 ADD SWAP2 PUSH2 0x606 JUMP JUMPDEST DUP3 ADD SWAP2 SWAP1 PUSH0 MSTORE PUSH1 0x20 PUSH0 KECCAK256 SWAP1 JUMPDEST DUP2 SLOAD DUP2 MSTORE SWAP1 PUSH1 0x1 ADD SWAP1 PUSH1 0x20 ADD DUP1 DUP4 GT PUSH2 0x5E9 JUMPI DUP3 SWAP1 SUB PUSH1 0x1F AND DUP3 ADD SWAP2 JUMPDEST POP POP POP POP POP DUP2 MSTORE PUSH1 0x20 ADD PUSH1 0x2 DUP3 ADD SLOAD DUP2 MSTORE PUSH1 0x20 ADD PUSH1 0x3 DUP3 ADD SLOAD DUP2 MSTORE POP POP DUP2 MSTORE PUSH1 0x20 ADD SWAP1 PUSH1 0x1 ADD SWAP1 PUSH2 0x50A JUMP JUMPDEST POP POP POP POP SWAP1 POP SWAP2 SWAP1 POP JUMP JUMPDEST PUSH1 0x40 MLOAD DUP1 PUSH1 0x80 ADD PUSH1 0x40 MSTORE DUP1 PUSH0 PUSH20 0xFFFFFFFFFFFFFFFFFFFFFFFFFFFFFFFFFFFFFFFF AND DUP2 MSTORE PUSH1 0x20 ADD PUSH1 0x60 DUP2 MSTORE PUSH1 0x20 ADD PUSH0 DUP2 MSTORE PUSH1 0x20 ADD PUSH0 DUP2 MSTORE POP SWAP1 JUMP JUMPDEST PUSH0 PUSH1 0x40 MLOAD SWAP1 POP SWAP1 JUMP JUMPDEST PUSH0 DUP1 REVERT JUMPDEST PUSH0 DUP1 REVERT JUMPDEST PUSH0 PUSH20 0xFFFFFFFFFFFFFFFFFFFFFFFFFFFFFFFFFFFFFFFF DUP3 AND SWAP1 POP SWAP2 SWAP1 POP JUMP JUMPDEST PUSH0 PUSH2 0x6B2 DUP3 PUSH2 0x689 JUMP JUMPDEST SWAP1 POP SWAP2 SWAP1 POP JUMP JUMPDEST PUSH2 0x6C2 DUP2 PUSH2 0x6A8 JUMP JUMPDEST DUP2 EQ PUSH2 0x6CC JUMPI PUSH0 DUP1 REVERT JUMPDEST POP JUMP JUMPDEST PUSH0 DUP2 CALLDATALOAD SWAP1 POP PUSH2 0x6DD DUP2 PUSH2 0x6B9 JUMP JUMPDEST SWAP3 SWAP2 POP POP JUMP JUMPDEST PUSH0 DUP2 SWAP1 POP SWAP2 SWAP1 POP JUMP JUMPDEST PUSH2 0x6F5 DUP2 PUSH2 0x6E3 JUMP JUMPDEST DUP2 EQ PUSH2 0x6FF JUMPI PUSH0 DUP1 REVERT JUMPDEST POP JUMP JUMPDEST PUSH0 DUP2 CALLDATALOAD SWAP1 POP PUSH2 0x710 DUP2 PUSH2 0x6EC JUMP JUMPDEST SWAP3 SWAP2 POP POP JUMP JUMPDEST PUSH0 DUP1 PUSH1 0x40 DUP4 DUP6 SUB SLT ISZERO PUSH2 0x72C JUMPI PUSH2 0x72B PUSH2 0x681 JUMP JUMPDEST JUMPDEST PUSH0 PUSH2 0x739 DUP6 DUP3 DUP7 ADD PUSH2 0x6CF JUMP JUMPDEST SWAP3 POP POP PUSH1 0x20 PUSH2 0x74A DUP6 DUP3 DUP7 ADD PUSH2 0x702 JUMP JUMPDEST SWAP2 POP POP SWAP3 POP SWAP3 SWAP1 POP JUMP JUMPDEST PUSH2 0x75D DUP2 PUSH2 0x6A8 JUMP JUMPDEST DUP3 MSTORE POP POP JUMP JUMPDEST PUSH0 DUP2 MLOAD SWAP1 POP SWAP2 SWAP1 POP JUMP JUMPDEST PUSH0 DUP3 DUP3 MSTORE PUSH1 0x20 DUP3 ADD SWAP1 POP SWAP3 SWAP2 POP POP JUMP JUMPDEST DUP3 DUP2 DUP4 MCOPY PUSH0 DUP4 DUP4 ADD MSTORE POP POP POP JUMP JUMPDEST PUSH0 PUSH1 0x1F NOT PUSH1 0x1F DUP4 ADD AND SWAP1 POP SWAP2 SWAP1 POP JUMP JUMPDEST PUSH0 PUSH2 0x7A5 DUP3 PUSH2 0x763 JUMP JUMPDEST PUSH2 0x7AF DUP2 DUP6 PUSH2 0x76D JUMP JUMPDEST SWAP4 POP PUSH2 0x7BF DUP2 DUP6 PUSH1 0x20 DUP7 ADD PUSH2 0x77D JUMP JUMPDEST PUSH2 0x7C8 DUP2 PUSH2 0x78B JUMP JUMPDEST DUP5 ADD SWAP2 POP POP SWAP3 SWAP2 POP POP JUMP JUMPDEST PUSH2 0x7DC DUP2 PUSH2 0x6E3 JUMP JUMPDEST DUP3 MSTORE POP POP JUMP JUMPDEST PUSH0 PUSH1 0x80 DUP3 ADD SWAP1 POP PUSH2 0x7F5 PUSH0 DUP4 ADD DUP8 PUSH2 0x754 JUMP JUMPDEST DUP2 DUP2 SUB PUSH1 0x20 DUP4 ADD MSTORE PUSH2 0x807 DUP2 DUP7 PUSH2 0x79B JUMP JUMPDEST SWAP1 POP PUSH2 0x816 PUSH1 0x40 DUP4 ADD DUP6 PUSH2 0x7D3 JUMP JUMPDEST PUSH2 0x823 PUSH1 0x60 DUP4 ADD DUP5 PUSH2 0x7D3 JUMP JUMPDEST SWAP6 SWAP5 POP POP POP POP POP JUMP JUMPDEST PUSH2 0x835 DUP2 PUSH2 0x6A8 JUMP JUMPDEST DUP3 MSTORE POP POP JUMP JUMPDEST PUSH0 DUP3 DUP3 MSTORE PUSH1 0x20 DUP3 ADD SWAP1 POP SWAP3 SWAP2 POP POP JUMP JUMPDEST PUSH0 PUSH2 0x855 DUP3 PUSH2 0x763 JUMP JUMPDEST PUSH2 0x85F DUP2 DUP6 PUSH2 0x83B JUMP JUMPDEST SWAP4 POP PUSH2 0x86F DUP2 DUP6 PUSH1 0x20 DUP7 ADD PUSH2 0x77D JUMP JUMPDEST PUSH2 0x878 DUP2 PUSH2 0x78B JUMP JUMPDEST DUP5 ADD SWAP2 POP POP SWAP3 SWAP2 POP POP JUMP JUMPDEST PUSH2 0x88C DUP2 PUSH2 0x6E3 JUMP JUMPDEST DUP3 MSTORE POP POP JUMP JUMPDEST PUSH0 PUSH1 0x80 DUP4 ADD PUSH0 DUP4 ADD MLOAD PUSH2 0x8A7 PUSH0 DUP7 ADD DUP3 PUSH2 0x82C JUMP JUMPDEST POP PUSH1 0x20 DUP4 ADD MLOAD DUP5 DUP3 SUB PUSH1 0x20 DUP7 ADD MSTORE PUSH2 0x8BF DUP3 DUP3 PUSH2 0x84B JUMP JUMPDEST SWAP2 POP POP PUSH1 0x40 DUP4 ADD MLOAD PUSH2 0x8D4 PUSH1 0x40 DUP7 ADD DUP3 PUSH2 0x883 JUMP JUMPDEST POP PUSH1 0x60 DUP4 ADD MLOAD PUSH2 0x8E7 PUSH1 0x60 DUP7 ADD DUP3 PUSH2 0x883 JUMP JUMPDEST POP DUP1 SWAP2 POP POP SWAP3 SWAP2 POP POP JUMP JUMPDEST PUSH0 PUSH1 0x20 DUP3 ADD SWAP1 POP DUP2 DUP2 SUB PUSH0 DUP4 ADD MSTORE PUSH2 0x90A DUP2 DUP5 PUSH2 0x892 JUMP JUMPDEST SWAP1 POP SWAP3 SWAP2 POP POP JUMP JUMPDEST PUSH0 DUP1 REVERT JUMPDEST PUSH0 DUP1 REVERT JUMPDEST PUSH32 0x4E487B7100000000000000000000000000000000000000000000000000000000 PUSH0 MSTORE PUSH1 0x41 PUSH1 0x4 MSTORE PUSH1 0x24 PUSH0 REVERT JUMPDEST PUSH2 0x950 DUP3 PUSH2 0x78B JUMP JUMPDEST DUP2 ADD DUP2 DUP2 LT PUSH8 0xFFFFFFFFFFFFFFFF DUP3 GT OR ISZERO PUSH2 0x96F JUMPI PUSH2 0x96E PUSH2 0x91A JUMP JUMPDEST JUMPDEST DUP1 PUSH1 0x40 MSTORE POP POP POP JUMP JUMPDEST PUSH0 PUSH2 0x981 PUSH2 0x678 JUMP JUMPDEST SWAP1 POP PUSH2 0x98D DUP3 DUP3 PUSH2 0x947 JUMP JUMPDEST SWAP2 SWAP1 POP JUMP JUMPDEST PUSH0 PUSH8 0xFFFFFFFFFFFFFFFF DUP3 GT ISZERO PUSH2 0x9AC JUMPI PUSH2 0x9AB PUSH2 0x91A JUMP JUMPDEST JUMPDEST PUSH2 0x9B5 DUP3 PUSH2 0x78B JUMP JUMPDEST SWAP1 POP PUSH1 0x20 DUP2 ADD SWAP1 POP SWAP2 SWAP1 POP JUMP JUMPDEST DUP3 DUP2 DUP4 CALLDATACOPY PUSH0 DUP4 DUP4 ADD MSTORE POP POP POP JUMP JUMPDEST PUSH0 PUSH2 0x9E2 PUSH2 0x9DD DUP5 PUSH2 0x992 JUMP JUMPDEST PUSH2 0x978 JUMP JUMPDEST SWAP1 POP DUP3 DUP2 MSTORE PUSH1 0x20 DUP2 ADD DUP5 DUP5 DUP5 ADD GT ISZERO PUSH2 0x9FE JUMPI PUSH2 0x9FD PUSH2 0x916 JUMP JUMPDEST JUMPDEST PUSH2 0xA09 DUP5 DUP3 DUP6 PUSH2 0x9C2 JUMP JUMPDEST POP SWAP4 SWAP3 POP POP POP JUMP JUMPDEST PUSH0 DUP3 PUSH1 0x1F DUP4 ADD SLT PUSH2 0xA25 JUMPI PUSH2 0xA24 PUSH2 0x912 JUMP JUMPDEST JUMPDEST DUP2 CALLDATALOAD PUSH2 0xA35 DUP5 DUP3 PUSH1 0x20 DUP7 ADD PUSH2 0x9D0 JUMP JUMPDEST SWAP2 POP POP SWAP3 SWAP2 POP POP JUMP JUMPDEST PUSH0 PUSH1 0x20 DUP3 DUP5 SUB SLT ISZERO PUSH2 0xA53 JUMPI PUSH2 0xA52 PUSH2 0x681 JUMP JUMPDEST JUMPDEST PUSH0 DUP3 ADD CALLDATALOAD PUSH8 0xFFFFFFFFFFFFFFFF DUP2 GT ISZERO PUSH2 0xA70 JUMPI PUSH2 0xA6F PUSH2 0x685 JUMP JUMPDEST JUMPDEST PUSH2 0xA7C DUP5 DUP3 DUP6 ADD PUSH2 0xA11 JUMP JUMPDEST SWAP2 POP POP SWAP3 SWAP2 POP POP JUMP JUMPDEST PUSH0 PUSH1 0x20 DUP3 DUP5 SUB SLT ISZERO PUSH2 0xA9A JUMPI PUSH2 0xA99 PUSH2 0x681 JUMP JUMPDEST JUMPDEST PUSH0 PUSH2 0xAA7 DUP5 DUP3 DUP6 ADD PUSH2 0x6CF JUMP JUMPDEST SWAP2 POP POP SWAP3 SWAP2 POP POP JUMP JUMPDEST PUSH0 DUP2 MLOAD SWAP1 POP SWAP2 SWAP1 POP JUMP JUMPDEST PUSH0 DUP3 DUP3 MSTORE PUSH1 0x20 DUP3 ADD SWAP1 POP SWAP3 SWAP2 POP POP JUMP JUMPDEST PUSH0 DUP2 SWAP1 POP PUSH1 0x20 DUP3 ADD SWAP1 POP SWAP2 SWAP1 POP JUMP JUMPDEST PUSH0 PUSH1 0x80 DUP4 ADD PUSH0 DUP4 ADD MLOAD PUSH2 0xAEE PUSH0 DUP7 ADD DUP3 PUSH2 0x82C JUMP JUMPDEST POP PUSH1 0x20 DUP4 ADD MLOAD DUP5 DUP3 SUB PUSH1 0x20 DUP7 ADD MSTORE PUSH2 0xB06 DUP3 DUP3 PUSH2 0x84B JUMP JUMPDEST SWAP2 POP POP PUSH1 0x40 DUP4 ADD MLOAD PUSH2 0xB1B PUSH1 0x40 DUP7 ADD DUP3 PUSH2 0x883 JUMP JUMPDEST POP PUSH1 0x60 DUP4 ADD MLOAD PUSH2 0xB2E PUSH1 0x60 DUP7 ADD DUP3 PUSH2 0x883 JUMP JUMPDEST POP DUP1 SWAP2 POP POP SWAP3 SWAP2 POP POP JUMP JUMPDEST PUSH0 PUSH2 0xB44 DUP4 DUP4 PUSH2 0xAD9 JUMP JUMPDEST SWAP1 POP SWAP3 SWAP2 POP POP JUMP JUMPDEST PUSH0 PUSH1 0x20 DUP3 ADD SWAP1 POP SWAP2 SWAP1 POP JUMP JUMPDEST PUSH0 PUSH2 0xB62 DUP3 PUSH2 0xAB0 JUMP JUMPDEST PUSH2 0xB6C DUP2 DUP6 PUSH2 0xABA JUMP JUMPDEST SWAP4 POP DUP4 PUSH1 0x20 DUP3 MUL DUP6 ADD PUSH2 0xB7E DUP6 PUSH2 0xACA JUMP JUMPDEST DUP1 PUSH0 JUMPDEST DUP6 DUP2 LT ISZERO PUSH2 0xBB9 JUMPI DUP5 DUP5 SUB DUP10 MSTORE DUP2 MLOAD PUSH2 0xB9A DUP6 DUP3 PUSH2 0xB39 JUMP JUMPDEST SWAP5 POP PUSH2 0xBA5 DUP4 PUSH2 0xB4C JUMP JUMPDEST SWAP3 POP PUSH1 0x20 DUP11 ADD SWAP10 POP POP PUSH1 0x1 DUP2 ADD SWAP1 POP PUSH2 0xB81 JUMP JUMPDEST POP DUP3 SWAP8 POP DUP8 SWAP6 POP POP POP POP POP POP SWAP3 SWAP2 POP POP JUMP JUMPDEST PUSH0 PUSH1 0x20 DUP3 ADD SWAP1 POP DUP2 DUP2 SUB PUSH0 DUP4 ADD MSTORE PUSH2 0xBE3 DUP2 DUP5 PUSH2 0xB58 JUMP JUMPDEST SWAP1 POP SWAP3 SWAP2 POP POP JUMP JUMPDEST PUSH32 0x4E487B7100000000000000000000000000000000000000000000000000000000 PUSH0 MSTORE PUSH1 0x22 PUSH1 0x4 MSTORE PUSH1 0x24 PUSH0 REVERT JUMPDEST PUSH0 PUSH1 0x2 DUP3 DIV SWAP1 POP PUSH1 0x1 DUP3 AND DUP1 PUSH2 0xC2F JUMPI PUSH1 0x7F DUP3 AND SWAP2 POP JUMPDEST PUSH1 0x20 DUP3 LT DUP2 SUB PUSH2 0xC42 JUMPI PUSH2 0xC41 PUSH2 0xBEB JUMP JUMPDEST JUMPDEST POP SWAP2 SWAP1 POP JUMP JUMPDEST PUSH32 0x4E487B7100000000000000000000000000000000000000000000000000000000 PUSH0 MSTORE PUSH1 0x32 PUSH1 0x4 MSTORE PUSH1 0x24 PUSH0 REVERT JUMPDEST PUSH32 0x547765657420697320746F6F206C6F6E67000000000000000000000000000000 PUSH0 DUP3 ADD MSTORE POP JUMP JUMPDEST PUSH0 PUSH2 0xCA9 PUSH1 0x11 DUP4 PUSH2 0x76D JUMP JUMPDEST SWAP2 POP PUSH2 0xCB4 DUP3 PUSH2 0xC75 JUMP JUMPDEST PUSH1 0x20 DUP3 ADD SWAP1 POP SWAP2 SWAP1 POP JUMP JUMPDEST PUSH0 PUSH1 0x20 DUP3 ADD SWAP1 POP DUP2 DUP2 SUB PUSH0 DUP4 ADD MSTORE PUSH2 0xCD6 DUP2 PUSH2 0xC9D JUMP JUMPDEST SWAP1 POP SWAP2 SWAP1 POP JUMP JUMPDEST PUSH0 DUP2 SWAP1 POP DUP2 PUSH0 MSTORE PUSH1 0x20 PUSH0 KECCAK256 SWAP1 POP SWAP2 SWAP1 POP JUMP JUMPDEST PUSH0 PUSH1 0x20 PUSH1 0x1F DUP4 ADD DIV SWAP1 POP SWAP2 SWAP1 POP JUMP JUMPDEST PUSH0 DUP3 DUP3 SHL SWAP1 POP SWAP3 SWAP2 POP POP JUMP JUMPDEST PUSH0 PUSH1 0x8 DUP4 MUL PUSH2 0xD39 PUSH32 0xFFFFFFFFFFFFFFFFFFFFFFFFFFFFFFFFFFFFFFFFFFFFFFFFFFFFFFFFFFFFFFFF DUP3 PUSH2 0xCFE JUMP JUMPDEST PUSH2 0xD43 DUP7 DUP4 PUSH2 0xCFE JUMP JUMPDEST SWAP6 POP DUP1 NOT DUP5 AND SWAP4 POP DUP1 DUP7 AND DUP5 OR SWAP3 POP POP POP SWAP4 SWAP3 POP POP POP JUMP JUMPDEST PUSH0 DUP2 SWAP1 POP SWAP2 SWAP1 POP JUMP JUMPDEST PUSH0 PUSH2 0xD7E PUSH2 0xD79 PUSH2 0xD74 DUP5 PUSH2 0x6E3 JUMP JUMPDEST PUSH2 0xD5B JUMP JUMPDEST PUSH2 0x6E3 JUMP JUMPDEST SWAP1 POP SWAP2 SWAP1 POP JUMP JUMPDEST PUSH0 DUP2 SWAP1 POP SWAP2 SWAP1 POP JUMP JUMPDEST PUSH2 0xD97 DUP4 PUSH2 0xD64 JUMP JUMPDEST PUSH2 0xDAB PUSH2 0xDA3 DUP3 PUSH2 0xD85 JUMP JUMPDEST DUP5 DUP5 SLOAD PUSH2 0xD0A JUMP JUMPDEST DUP3 SSTORE POP POP POP POP JUMP JUMPDEST PUSH0 SWAP1 JUMP JUMPDEST PUSH2 0xDBF PUSH2 0xDB3 JUMP JUMPDEST PUSH2 0xDCA DUP2 DUP5 DUP5 PUSH2 0xD8E JUMP JUMPDEST POP POP POP JUMP JUMPDEST JUMPDEST DUP2 DUP2 LT ISZERO PUSH2 0xDED JUMPI PUSH2 0xDE2 PUSH0 DUP3 PUSH2 0xDB7 JUMP JUMPDEST PUSH1 0x1 DUP2 ADD SWAP1 POP PUSH2 0xDD0 JUMP JUMPDEST POP POP JUMP JUMPDEST PUSH1 0x1F DUP3 GT ISZERO PUSH2 0xE32 JUMPI PUSH2 0xE03 DUP2 PUSH2 0xCDD JUMP JUMPDEST PUSH2 0xE0C DUP5 PUSH2 0xCEF JUMP JUMPDEST DUP2 ADD PUSH1 0x20 DUP6 LT ISZERO PUSH2 0xE1B JUMPI DUP2 SWAP1 POP JUMPDEST PUSH2 0xE2F PUSH2 0xE27 DUP6 PUSH2 0xCEF JUMP JUMPDEST DUP4 ADD DUP3 PUSH2 0xDCF JUMP JUMPDEST POP POP JUMPDEST POP POP POP JUMP JUMPDEST PUSH0 DUP3 DUP3 SHR SWAP1 POP SWAP3 SWAP2 POP POP JUMP JUMPDEST PUSH0 PUSH2 0xE52 PUSH0 NOT DUP5 PUSH1 0x8 MUL PUSH2 0xE37 JUMP JUMPDEST NOT DUP1 DUP4 AND SWAP2 POP POP SWAP3 SWAP2 POP POP JUMP JUMPDEST PUSH0 PUSH2 0xE6A DUP4 DUP4 PUSH2 0xE43 JUMP JUMPDEST SWAP2 POP DUP3 PUSH1 0x2 MUL DUP3 OR SWAP1 POP SWAP3 SWAP2 POP POP JUMP JUMPDEST PUSH2 0xE83 DUP3 PUSH2 0x763 JUMP JUMPDEST PUSH8 0xFFFFFFFFFFFFFFFF DUP2 GT ISZERO PUSH2 0xE9C JUMPI PUSH2 0xE9B PUSH2 0x91A JUMP JUMPDEST JUMPDEST PUSH2 0xEA6 DUP3 SLOAD PUSH2 0xC18 JUMP JUMPDEST PUSH2 0xEB1 DUP3 DUP3 DUP6 PUSH2 0xDF1 JUMP JUMPDEST PUSH0 PUSH1 0x20 SWAP1 POP PUSH1 0x1F DUP4 GT PUSH1 0x1 DUP2 EQ PUSH2 0xEE2 JUMPI PUSH0 DUP5 ISZERO PUSH2 0xED0 JUMPI DUP3 DUP8 ADD MLOAD SWAP1 POP JUMPDEST PUSH2 0xEDA DUP6 DUP3 PUSH2 0xE5F JUMP JUMPDEST DUP7 SSTORE POP PUSH2 0xF41 JUMP JUMPDEST PUSH1 0x1F NOT DUP5 AND PUSH2 0xEF0 DUP7 PUSH2 0xCDD JUMP JUMPDEST PUSH0 JUMPDEST DUP3 DUP2 LT ISZERO PUSH2 0xF17 JUMPI DUP5 DUP10 ADD MLOAD DUP3 SSTORE PUSH1 0x1 DUP3 ADD SWAP2 POP PUSH1 0x20 DUP6 ADD SWAP5 POP PUSH1 0x20 DUP2 ADD SWAP1 POP PUSH2 0xEF2 JUMP JUMPDEST DUP7 DUP4 LT ISZERO PUSH2 0xF34 JUMPI DUP5 DUP10 ADD MLOAD PUSH2 0xF30 PUSH1 0x1F DUP10 AND DUP3 PUSH2 0xE43 JUMP JUMPDEST DUP4 SSTORE POP JUMPDEST PUSH1 0x1 PUSH1 0x2 DUP9 MUL ADD DUP9 SSTORE POP POP POP JUMPDEST POP POP POP POP POP POP JUMP INVALID LOG2 PUSH5 0x6970667358 0x22 SLT KECCAK256 EXTCODEHASH 0xE5 0xC7 SWAP15 0xB0 PUSH15 0xBF3C2046189D00646BE265FD44D04B EQ 0xD5 0x2F LT REVERT SUB PUSH14 0x2874A59A64736F6C634300081A00 CALLER "
				},
				"gasEstimates": {
					"creation": {
						"codeDepositCost": "793400",
						"executionCost": "823",
						"totalCost": "794223"
					},
					"external": {
						"createTweet(string)": "infinite",
						"getTweet(address,uint256)": "infinite",
						"getTweets(address)": "infinite",
						"tweets(address,uint256)": "infinite"
					}
				},
				"methodIdentifiers": {
					"createTweet(string)": "7c9cd2bc",
					"getTweet(address,uint256)": "112f54e3",
					"getTweets(address)": "9e92b093",
					"tweets(address,uint256)": "05a1b4a9"
				}
			},
			"storageLayout": {
				"storage": [
					{
						"astId": 19,
						"contract": "contracts/twitter/Twitter.sol:Twitter",
						"label": "tweets",
						"offset": 0,
						"slot": "0",
						"type": "t_mapping(t_address,t_array(t_struct(Tweet)13_storage)dyn_storage)"
					}
				],
				"types": {
					"t_address": {
						"encoding": "inplace",
						"label": "address",
						"numberOfBytes": "20"
					},
					"t_array(t_struct(Tweet)13_storage)dyn_storage": {
						"base": "t_struct(Tweet)13_storage",
						"encoding": "dynamic_array",
						"label": "struct Twitter.Tweet[]",
						"numberOfBytes": "32"
					},
					"t_mapping(t_address,t_array(t_struct(Tweet)13_storage)dyn_storage)": {
						"encoding": "mapping",
						"key": "t_address",
						"label": "mapping(address => struct Twitter.Tweet[])",
						"numberOfBytes": "32",
						"value": "t_array(t_struct(Tweet)13_storage)dyn_storage"
					},
					"t_string_storage": {
						"encoding": "bytes",
						"label": "string",
						"numberOfBytes": "32"
					},
					"t_struct(Tweet)13_storage": {
						"encoding": "inplace",
						"label": "struct Twitter.Tweet",
						"members": [
							{
								"astId": 6,
								"contract": "contracts/twitter/Twitter.sol:Twitter",
								"label": "author",
								"offset": 0,
								"slot": "0",
								"type": "t_address"
							},
							{
								"astId": 8,
								"contract": "contracts/twitter/Twitter.sol:Twitter",
								"label": "content",
								"offset": 0,
								"slot": "1",
								"type": "t_string_storage"
							},
							{
								"astId": 10,
								"contract": "contracts/twitter/Twitter.sol:Twitter",
								"label": "timestamp",
								"offset": 0,
								"slot": "2",
								"type": "t_uint256"
							},
							{
								"astId": 12,
								"contract": "contracts/twitter/Twitter.sol:Twitter",
								"label": "likes",
								"offset": 0,
								"slot": "3",
								"type": "t_uint256"
							}
						],
						"numberOfBytes": "128"
					},
					"t_uint256": {
						"encoding": "inplace",
						"label": "uint256",
						"numberOfBytes": "32"
					}
				}
			},
			"userdoc": {
				"kind": "user",
				"methods": {},
				"version": 1
			}
		}
	}
}