{
	"contracts/twitter/Twitter.sol": {
		"Twitter": {
			"abi": [
				{
					"inputs": [],
					"stateMutability": "nonpayable",
					"type": "constructor"
				},
				{
					"anonymous": false,
					"inputs": [
						{
							"indexed": false,
							"internalType": "uint256",
							"name": "id",
							"type": "uint256"
						},
						{
							"indexed": true,
							"internalType": "address",
							"name": "author",
							"type": "address"
						},
						{
							"indexed": false,
							"internalType": "string",
							"name": "content",
							"type": "string"
						},
						{
							"indexed": false,
							"internalType": "uint256",
							"name": "timestamp",
							"type": "uint256"
						}
					],
					"name": "TweetCreated",
					"type": "event"
				},
				{
					"anonymous": false,
					"inputs": [
						{
							"indexed": true,
							"internalType": "address",
							"name": "liker",
							"type": "address"
						},
						{
							"indexed": false,
							"internalType": "address",
							"name": "author",
							"type": "address"
						},
						{
							"indexed": false,
							"internalType": "uint256",
							"name": "id",
							"type": "uint256"
						}
					],
					"name": "TweetLiked",
					"type": "event"
				},
				{
					"inputs": [
						{
							"internalType": "uint8",
							"name": "_newTweetLength",
							"type": "uint8"
						}
					],
					"name": "changeTweetLength",
					"outputs": [],
					"stateMutability": "nonpayable",
					"type": "function"
				},
				{
					"inputs": [
						{
							"internalType": "string",
							"name": "_tweet",
							"type": "string"
						}
					],
					"name": "createTweet",
					"outputs": [],
					"stateMutability": "nonpayable",
					"type": "function"
				},
				{
					"inputs": [
						{
							"internalType": "address",
							"name": "_owner",
							"type": "address"
						},
						{
							"internalType": "uint256",
							"name": "_i",
							"type": "uint256"
						}
					],
					"name": "getTweet",
					"outputs": [
						{
							"internalType": "uint256",
							"name": "id",
							"type": "uint256"
						},
						{
							"internalType": "address",
							"name": "author",
							"type": "address"
						},
						{
							"internalType": "string",
							"name": "content",
							"type": "string"
						},
						{
							"internalType": "uint256",
							"name": "timestamp",
							"type": "uint256"
						},
						{
							"internalType": "uint256",
							"name": "likeCount",
							"type": "uint256"
						}
					],
					"stateMutability": "view",
					"type": "function"
				},
				{
					"inputs": [
						{
							"internalType": "address",
							"name": "_owner",
							"type": "address"
						}
					],
					"name": "getTweets",
					"outputs": [
						{
							"components": [
								{
									"internalType": "uint256",
									"name": "id",
									"type": "uint256"
								},
								{
									"internalType": "address",
									"name": "author",
									"type": "address"
								},
								{
									"internalType": "string",
									"name": "content",
									"type": "string"
								},
								{
									"internalType": "uint256",
									"name": "timestamp",
									"type": "uint256"
								},
								{
									"internalType": "uint256",
									"name": "likeCount",
									"type": "uint256"
								}
							],
							"internalType": "struct Twitter.TweetView[]",
							"name": "",
							"type": "tuple[]"
						}
					],
					"stateMutability": "view",
					"type": "function"
				},
				{
					"inputs": [
						{
							"internalType": "address",
							"name": "_owner",
							"type": "address"
						},
						{
							"internalType": "uint256",
							"name": "tweetId",
							"type": "uint256"
						},
						{
							"internalType": "address",
							"name": "liker",
							"type": "address"
						}
					],
					"name": "hasLiked",
					"outputs": [
						{
							"internalType": "bool",
							"name": "",
							"type": "bool"
						}
					],
					"stateMutability": "view",
					"type": "function"
				},
				{
					"inputs": [
						{
							"internalType": "address",
							"name": "author",
							"type": "address"
						},
						{
							"internalType": "uint256",
							"name": "tweetId",
							"type": "uint256"
						}
					],
					"name": "likeTweet",
					"outputs": [],
					"stateMutability": "nonpayable",
					"type": "function"
				},
				{
					"inputs": [],
					"name": "owner",
					"outputs": [
						{
							"internalType": "address",
							"name": "",
							"type": "address"
						}
					],
					"stateMutability": "view",
					"type": "function"
				},
				{
					"inputs": [
						{
							"internalType": "address",
							"name": "",
							"type": "address"
						},
						{
							"internalType": "uint256",
							"name": "",
							"type": "uint256"
						}
					],
					"name": "tweets",
					"outputs": [
						{
							"internalType": "uint256",
							"name": "id",
							"type": "uint256"
						},
						{
							"internalType": "address",
							"name": "author",
							"type": "address"
						},
						{
							"internalType": "string",
							"name": "content",
							"type": "string"
						},
						{
							"internalType": "uint256",
							"name": "timestamp",
							"type": "uint256"
						},
						{
							"internalType": "uint256",
							"name": "likeCount",
							"type": "uint256"
						}
					],
					"stateMutability": "view",
					"type": "function"
				}
			],
			"devdoc": {
				"kind": "dev",
				"methods": {},
				"version": 1
			},
			"evm": {
				"assembly": "    /* \"contracts/twitter/Twitter.sol\":58:3134  contract Twitter {... */\n  mstore(0x40, 0x80)\n    /* \"contracts/twitter/Twitter.sol\":104:107  200 */\n  0xc8\n    /* \"contracts/twitter/Twitter.sol\":81:107  uint8 maxTweetLength = 200 */\n  0x00\n  dup1\n  0x0100\n  exp\n  dup2\n  sload\n  dup2\n  0xff\n  mul\n  not\n  and\n  swap1\n  dup4\n  0xff\n  and\n  mul\n  or\n  swap1\n  sstore\n  pop\n    /* \"contracts/twitter/Twitter.sol\":761:810  constructor() {... */\n  callvalue\n  dup1\n  iszero\n  tag_1\n  jumpi\n  0x00\n  dup1\n  revert\ntag_1:\n  pop\n    /* \"contracts/twitter/Twitter.sol\":793:803  msg.sender */\n  caller\n    /* \"contracts/twitter/Twitter.sol\":785:790  owner */\n  0x00\n  0x01\n    /* \"contracts/twitter/Twitter.sol\":785:803  owner = msg.sender */\n  0x0100\n  exp\n  dup2\n  sload\n  dup2\n  0xffffffffffffffffffffffffffffffffffffffff\n  mul\n  not\n  and\n  swap1\n  dup4\n  0xffffffffffffffffffffffffffffffffffffffff\n  and\n  mul\n  or\n  swap1\n  sstore\n  pop\n    /* \"contracts/twitter/Twitter.sol\":58:3134  contract Twitter {... */\n  dataSize(sub_0)\n  dup1\n  dataOffset(sub_0)\n  0x00\n  codecopy\n  0x00\n  return\nstop\n\nsub_0: assembly {\n        /* \"contracts/twitter/Twitter.sol\":58:3134  contract Twitter {... */\n      mstore(0x40, 0x80)\n      callvalue\n      dup1\n      iszero\n      tag_1\n      jumpi\n      0x00\n      dup1\n      revert\n    tag_1:\n      pop\n      jumpi(tag_2, lt(calldatasize, 0x04))\n      shr(0xe0, calldataload(0x00))\n      dup1\n      0x63378216\n      gt\n      tag_11\n      jumpi\n      dup1\n      0x63378216\n      eq\n      tag_7\n      jumpi\n      dup1\n      0x7c9cd2bc\n      eq\n      tag_8\n      jumpi\n      dup1\n      0x8da5cb5b\n      eq\n      tag_9\n      jumpi\n      dup1\n      0x9e92b093\n      eq\n      tag_10\n      jumpi\n      jump(tag_2)\n    tag_11:\n      dup1\n      0x05a1b4a9\n      eq\n      tag_3\n      jumpi\n      dup1\n      0x112f54e3\n      eq\n      tag_4\n      jumpi\n      dup1\n      0x3a11e192\n      eq\n      tag_5\n      jumpi\n      dup1\n      0x4ddf8940\n      eq\n      tag_6\n      jumpi\n    tag_2:\n      0x00\n      dup1\n      revert\n        /* \"contracts/twitter/Twitter.sol\":139:180  mapping(address => Tweet[]) public tweets */\n    tag_3:\n      tag_12\n      0x04\n      dup1\n      calldatasize\n      sub\n      dup2\n      add\n      swap1\n      tag_13\n      swap2\n      swap1\n      tag_14\n      jump\t// in\n    tag_13:\n      tag_15\n      jump\t// in\n    tag_12:\n      mload(0x40)\n      tag_16\n      swap6\n      swap5\n      swap4\n      swap3\n      swap2\n      swap1\n      tag_17\n      jump\t// in\n    tag_16:\n      mload(0x40)\n      dup1\n      swap2\n      sub\n      swap1\n      return\n        /* \"contracts/twitter/Twitter.sol\":1426:1803  function getTweet(address _owner, uint256 _i)... */\n    tag_4:\n      tag_18\n      0x04\n      dup1\n      calldatasize\n      sub\n      dup2\n      add\n      swap1\n      tag_19\n      swap2\n      swap1\n      tag_14\n      jump\t// in\n    tag_19:\n      tag_20\n      jump\t// in\n    tag_18:\n      mload(0x40)\n      tag_21\n      swap6\n      swap5\n      swap4\n      swap3\n      swap2\n      swap1\n      tag_17\n      jump\t// in\n    tag_21:\n      mload(0x40)\n      dup1\n      swap2\n      sub\n      swap1\n      return\n        /* \"contracts/twitter/Twitter.sol\":2384:2500  function changeTweetLength(uint8 _newTweetLength) public onlyOwner {... */\n    tag_5:\n      tag_22\n      0x04\n      dup1\n      calldatasize\n      sub\n      dup2\n      add\n      swap1\n      tag_23\n      swap2\n      swap1\n      tag_24\n      jump\t// in\n    tag_23:\n      tag_25\n      jump\t// in\n    tag_22:\n      stop\n        /* \"contracts/twitter/Twitter.sol\":2506:2691  function hasLiked(... */\n    tag_6:\n      tag_26\n      0x04\n      dup1\n      calldatasize\n      sub\n      dup2\n      add\n      swap1\n      tag_27\n      swap2\n      swap1\n      tag_28\n      jump\t// in\n    tag_27:\n      tag_29\n      jump\t// in\n    tag_26:\n      mload(0x40)\n      tag_30\n      swap2\n      swap1\n      tag_31\n      jump\t// in\n    tag_30:\n      mload(0x40)\n      dup1\n      swap2\n      sub\n      swap1\n      return\n        /* \"contracts/twitter/Twitter.sol\":2697:3132  function likeTweet(address author, uint256 tweetId) external {... */\n    tag_7:\n      tag_32\n      0x04\n      dup1\n      calldatasize\n      sub\n      dup2\n      add\n      swap1\n      tag_33\n      swap2\n      swap1\n      tag_14\n      jump\t// in\n    tag_33:\n      tag_34\n      jump\t// in\n    tag_32:\n      stop\n        /* \"contracts/twitter/Twitter.sol\":924:1420  function createTweet(string memory _tweet) public {... */\n    tag_8:\n      tag_35\n      0x04\n      dup1\n      calldatasize\n      sub\n      dup2\n      add\n      swap1\n      tag_36\n      swap2\n      swap1\n      tag_37\n      jump\t// in\n    tag_36:\n      tag_38\n      jump\t// in\n    tag_35:\n      stop\n        /* \"contracts/twitter/Twitter.sol\":113:133  address public owner */\n    tag_9:\n      tag_39\n      tag_40\n      jump\t// in\n    tag_39:\n      mload(0x40)\n      tag_41\n      swap2\n      swap1\n      tag_42\n      jump\t// in\n    tag_41:\n      mload(0x40)\n      dup1\n      swap2\n      sub\n      swap1\n      return\n        /* \"contracts/twitter/Twitter.sol\":1809:2378  function getTweets(address _owner)... */\n    tag_10:\n      tag_43\n      0x04\n      dup1\n      calldatasize\n      sub\n      dup2\n      add\n      swap1\n      tag_44\n      swap2\n      swap1\n      tag_45\n      jump\t// in\n    tag_44:\n      tag_46\n      jump\t// in\n    tag_43:\n      mload(0x40)\n      tag_47\n      swap2\n      swap1\n      tag_48\n      jump\t// in\n    tag_47:\n      mload(0x40)\n      dup1\n      swap2\n      sub\n      swap1\n      return\n        /* \"contracts/twitter/Twitter.sol\":139:180  mapping(address => Tweet[]) public tweets */\n    tag_15:\n      mstore(0x20, 0x01)\n      dup2\n      0x00\n      mstore\n      keccak256(0x00, 0x40)\n      dup2\n      dup2\n      sload\n      dup2\n      lt\n      tag_49\n      jumpi\n      0x00\n      dup1\n      revert\n    tag_49:\n      swap1\n      0x00\n      mstore\n      keccak256(0x00, 0x20)\n      swap1\n      0x06\n      mul\n      add\n      0x00\n      swap2\n      pop\n      swap2\n      pop\n      pop\n      dup1\n      0x00\n      add\n      sload\n      swap1\n      dup1\n      0x01\n      add\n      0x00\n      swap1\n      sload\n      swap1\n      0x0100\n      exp\n      swap1\n      div\n      0xffffffffffffffffffffffffffffffffffffffff\n      and\n      swap1\n      dup1\n      0x02\n      add\n      dup1\n      sload\n      tag_51\n      swap1\n      tag_52\n      jump\t// in\n    tag_51:\n      dup1\n      0x1f\n      add\n      0x20\n      dup1\n      swap2\n      div\n      mul\n      0x20\n      add\n      mload(0x40)\n      swap1\n      dup2\n      add\n      0x40\n      mstore\n      dup1\n      swap3\n      swap2\n      swap1\n      dup2\n      dup2\n      mstore\n      0x20\n      add\n      dup3\n      dup1\n      sload\n      tag_53\n      swap1\n      tag_52\n      jump\t// in\n    tag_53:\n      dup1\n      iszero\n      tag_54\n      jumpi\n      dup1\n      0x1f\n      lt\n      tag_55\n      jumpi\n      0x0100\n      dup1\n      dup4\n      sload\n      div\n      mul\n      dup4\n      mstore\n      swap2\n      0x20\n      add\n      swap2\n      jump(tag_54)\n    tag_55:\n      dup3\n      add\n      swap2\n      swap1\n      0x00\n      mstore\n      keccak256(0x00, 0x20)\n      swap1\n    tag_56:\n      dup2\n      sload\n      dup2\n      mstore\n      swap1\n      0x01\n      add\n      swap1\n      0x20\n      add\n      dup1\n      dup4\n      gt\n      tag_56\n      jumpi\n      dup3\n      swap1\n      sub\n      0x1f\n      and\n      dup3\n      add\n      swap2\n    tag_54:\n      pop\n      pop\n      pop\n      pop\n      pop\n      swap1\n      dup1\n      0x03\n      add\n      sload\n      swap1\n      dup1\n      0x04\n      add\n      sload\n      swap1\n      pop\n      dup6\n      jump\t// out\n        /* \"contracts/twitter/Twitter.sol\":1426:1803  function getTweet(address _owner, uint256 _i)... */\n    tag_20:\n        /* \"contracts/twitter/Twitter.sol\":1530:1540  uint256 id */\n      0x00\n        /* \"contracts/twitter/Twitter.sol\":1554:1568  address author */\n      dup1\n        /* \"contracts/twitter/Twitter.sol\":1582:1603  string memory content */\n      0x60\n        /* \"contracts/twitter/Twitter.sol\":1617:1634  uint256 timestamp */\n      0x00\n        /* \"contracts/twitter/Twitter.sol\":1648:1665  uint256 likeCount */\n      dup1\n        /* \"contracts/twitter/Twitter.sol\":1690:1705  Tweet storage t */\n      0x00\n        /* \"contracts/twitter/Twitter.sol\":1708:1714  tweets */\n      0x01\n        /* \"contracts/twitter/Twitter.sol\":1708:1722  tweets[_owner] */\n      0x00\n        /* \"contracts/twitter/Twitter.sol\":1715:1721  _owner */\n      dup10\n        /* \"contracts/twitter/Twitter.sol\":1708:1722  tweets[_owner] */\n      0xffffffffffffffffffffffffffffffffffffffff\n      and\n      0xffffffffffffffffffffffffffffffffffffffff\n      and\n      dup2\n      mstore\n      0x20\n      add\n      swap1\n      dup2\n      mstore\n      0x20\n      add\n      0x00\n      keccak256\n        /* \"contracts/twitter/Twitter.sol\":1723:1725  _i */\n      dup8\n        /* \"contracts/twitter/Twitter.sol\":1708:1726  tweets[_owner][_i] */\n      dup2\n      sload\n      dup2\n      lt\n      tag_58\n      jumpi\n      tag_59\n      tag_60\n      jump\t// in\n    tag_59:\n    tag_58:\n      swap1\n      0x00\n      mstore\n      keccak256(0x00, 0x20)\n      swap1\n      0x06\n      mul\n      add\n        /* \"contracts/twitter/Twitter.sol\":1690:1726  Tweet storage t = tweets[_owner][_i] */\n      swap1\n      pop\n        /* \"contracts/twitter/Twitter.sol\":1744:1745  t */\n      dup1\n        /* \"contracts/twitter/Twitter.sol\":1744:1748  t.id */\n      0x00\n      add\n      sload\n        /* \"contracts/twitter/Twitter.sol\":1750:1751  t */\n      dup2\n        /* \"contracts/twitter/Twitter.sol\":1750:1758  t.author */\n      0x01\n      add\n      0x00\n      swap1\n      sload\n      swap1\n      0x0100\n      exp\n      swap1\n      div\n      0xffffffffffffffffffffffffffffffffffffffff\n      and\n        /* \"contracts/twitter/Twitter.sol\":1760:1761  t */\n      dup3\n        /* \"contracts/twitter/Twitter.sol\":1760:1769  t.content */\n      0x02\n      add\n        /* \"contracts/twitter/Twitter.sol\":1771:1772  t */\n      dup4\n        /* \"contracts/twitter/Twitter.sol\":1771:1782  t.timestamp */\n      0x03\n      add\n      sload\n        /* \"contracts/twitter/Twitter.sol\":1784:1785  t */\n      dup5\n        /* \"contracts/twitter/Twitter.sol\":1784:1795  t.likeCount */\n      0x04\n      add\n      sload\n        /* \"contracts/twitter/Twitter.sol\":1736:1796  return (t.id, t.author, t.content, t.timestamp, t.likeCount) */\n      dup3\n      dup1\n      sload\n      tag_62\n      swap1\n      tag_52\n      jump\t// in\n    tag_62:\n      dup1\n      0x1f\n      add\n      0x20\n      dup1\n      swap2\n      div\n      mul\n      0x20\n      add\n      mload(0x40)\n      swap1\n      dup2\n      add\n      0x40\n      mstore\n      dup1\n      swap3\n      swap2\n      swap1\n      dup2\n      dup2\n      mstore\n      0x20\n      add\n      dup3\n      dup1\n      sload\n      tag_63\n      swap1\n      tag_52\n      jump\t// in\n    tag_63:\n      dup1\n      iszero\n      tag_64\n      jumpi\n      dup1\n      0x1f\n      lt\n      tag_65\n      jumpi\n      0x0100\n      dup1\n      dup4\n      sload\n      div\n      mul\n      dup4\n      mstore\n      swap2\n      0x20\n      add\n      swap2\n      jump(tag_64)\n    tag_65:\n      dup3\n      add\n      swap2\n      swap1\n      0x00\n      mstore\n      keccak256(0x00, 0x20)\n      swap1\n    tag_66:\n      dup2\n      sload\n      dup2\n      mstore\n      swap1\n      0x01\n      add\n      swap1\n      0x20\n      add\n      dup1\n      dup4\n      gt\n      tag_66\n      jumpi\n      dup3\n      swap1\n      sub\n      0x1f\n      and\n      dup3\n      add\n      swap2\n    tag_64:\n      pop\n      pop\n      pop\n      pop\n      pop\n      swap3\n      pop\n      swap6\n      pop\n      swap6\n      pop\n      swap6\n      pop\n      swap6\n      pop\n      swap6\n      pop\n      pop\n        /* \"contracts/twitter/Twitter.sol\":1426:1803  function getTweet(address _owner, uint256 _i)... */\n      swap3\n      swap6\n      pop\n      swap3\n      swap6\n      swap1\n      swap4\n      pop\n      jump\t// out\n        /* \"contracts/twitter/Twitter.sol\":2384:2500  function changeTweetLength(uint8 _newTweetLength) public onlyOwner {... */\n    tag_25:\n        /* \"contracts/twitter/Twitter.sol\":869:874  owner */\n      0x00\n      0x01\n      swap1\n      sload\n      swap1\n      0x0100\n      exp\n      swap1\n      div\n      0xffffffffffffffffffffffffffffffffffffffff\n      and\n        /* \"contracts/twitter/Twitter.sol\":855:874  msg.sender == owner */\n      0xffffffffffffffffffffffffffffffffffffffff\n      and\n        /* \"contracts/twitter/Twitter.sol\":855:865  msg.sender */\n      caller\n        /* \"contracts/twitter/Twitter.sol\":855:874  msg.sender == owner */\n      0xffffffffffffffffffffffffffffffffffffffff\n      and\n      eq\n        /* \"contracts/twitter/Twitter.sol\":847:900  require(msg.sender == owner, \"You are not the owner\") */\n      tag_68\n      jumpi\n      mload(0x40)\n      0x08c379a000000000000000000000000000000000000000000000000000000000\n      dup2\n      mstore\n      0x04\n      add\n      tag_69\n      swap1\n      tag_70\n      jump\t// in\n    tag_69:\n      mload(0x40)\n      dup1\n      swap2\n      sub\n      swap1\n      revert\n    tag_68:\n        /* \"contracts/twitter/Twitter.sol\":2478:2493  _newTweetLength */\n      dup1\n        /* \"contracts/twitter/Twitter.sol\":2461:2475  maxTweetLength */\n      0x00\n      dup1\n        /* \"contracts/twitter/Twitter.sol\":2461:2493  maxTweetLength = _newTweetLength */\n      0x0100\n      exp\n      dup2\n      sload\n      dup2\n      0xff\n      mul\n      not\n      and\n      swap1\n      dup4\n      0xff\n      and\n      mul\n      or\n      swap1\n      sstore\n      pop\n        /* \"contracts/twitter/Twitter.sol\":2384:2500  function changeTweetLength(uint8 _newTweetLength) public onlyOwner {... */\n      pop\n      jump\t// out\n        /* \"contracts/twitter/Twitter.sol\":2506:2691  function hasLiked(... */\n    tag_29:\n        /* \"contracts/twitter/Twitter.sol\":2623:2627  bool */\n      0x00\n        /* \"contracts/twitter/Twitter.sol\":2646:2652  tweets */\n      0x01\n        /* \"contracts/twitter/Twitter.sol\":2646:2660  tweets[_owner] */\n      0x00\n        /* \"contracts/twitter/Twitter.sol\":2653:2659  _owner */\n      dup6\n        /* \"contracts/twitter/Twitter.sol\":2646:2660  tweets[_owner] */\n      0xffffffffffffffffffffffffffffffffffffffff\n      and\n      0xffffffffffffffffffffffffffffffffffffffff\n      and\n      dup2\n      mstore\n      0x20\n      add\n      swap1\n      dup2\n      mstore\n      0x20\n      add\n      0x00\n      keccak256\n        /* \"contracts/twitter/Twitter.sol\":2661:2668  tweetId */\n      dup4\n        /* \"contracts/twitter/Twitter.sol\":2646:2669  tweets[_owner][tweetId] */\n      dup2\n      sload\n      dup2\n      lt\n      tag_73\n      jumpi\n      tag_74\n      tag_60\n      jump\t// in\n    tag_74:\n    tag_73:\n      swap1\n      0x00\n      mstore\n      keccak256(0x00, 0x20)\n      swap1\n      0x06\n      mul\n      add\n        /* \"contracts/twitter/Twitter.sol\":2646:2677  tweets[_owner][tweetId].likedBy */\n      0x05\n      add\n        /* \"contracts/twitter/Twitter.sol\":2646:2684  tweets[_owner][tweetId].likedBy[liker] */\n      0x00\n        /* \"contracts/twitter/Twitter.sol\":2678:2683  liker */\n      dup4\n        /* \"contracts/twitter/Twitter.sol\":2646:2684  tweets[_owner][tweetId].likedBy[liker] */\n      0xffffffffffffffffffffffffffffffffffffffff\n      and\n      0xffffffffffffffffffffffffffffffffffffffff\n      and\n      dup2\n      mstore\n      0x20\n      add\n      swap1\n      dup2\n      mstore\n      0x20\n      add\n      0x00\n      keccak256\n      0x00\n      swap1\n      sload\n      swap1\n      0x0100\n      exp\n      swap1\n      div\n      0xff\n      and\n        /* \"contracts/twitter/Twitter.sol\":2639:2684  return tweets[_owner][tweetId].likedBy[liker] */\n      swap1\n      pop\n        /* \"contracts/twitter/Twitter.sol\":2506:2691  function hasLiked(... */\n      swap4\n      swap3\n      pop\n      pop\n      pop\n      jump\t// out\n        /* \"contracts/twitter/Twitter.sol\":2697:3132  function likeTweet(address author, uint256 tweetId) external {... */\n    tag_34:\n        /* \"contracts/twitter/Twitter.sol\":2772:2809  hasLiked(author, tweetId, msg.sender) */\n      tag_77\n        /* \"contracts/twitter/Twitter.sol\":2781:2787  author */\n      dup3\n        /* \"contracts/twitter/Twitter.sol\":2789:2796  tweetId */\n      dup3\n        /* \"contracts/twitter/Twitter.sol\":2798:2808  msg.sender */\n      caller\n        /* \"contracts/twitter/Twitter.sol\":2772:2780  hasLiked */\n      tag_29\n        /* \"contracts/twitter/Twitter.sol\":2772:2809  hasLiked(author, tweetId, msg.sender) */\n      jump\t// in\n    tag_77:\n        /* \"contracts/twitter/Twitter.sol\":2768:3072  if (hasLiked(author, tweetId, msg.sender)) {... */\n      iszero\n      tag_78\n      jumpi\n        /* \"contracts/twitter/Twitter.sol\":2862:2863  1 */\n      0x01\n        /* \"contracts/twitter/Twitter.sol\":2825:2831  tweets */\n      dup1\n        /* \"contracts/twitter/Twitter.sol\":2825:2839  tweets[author] */\n      0x00\n        /* \"contracts/twitter/Twitter.sol\":2832:2838  author */\n      dup5\n        /* \"contracts/twitter/Twitter.sol\":2825:2839  tweets[author] */\n      0xffffffffffffffffffffffffffffffffffffffff\n      and\n      0xffffffffffffffffffffffffffffffffffffffff\n      and\n      dup2\n      mstore\n      0x20\n      add\n      swap1\n      dup2\n      mstore\n      0x20\n      add\n      0x00\n      keccak256\n        /* \"contracts/twitter/Twitter.sol\":2840:2847  tweetId */\n      dup3\n        /* \"contracts/twitter/Twitter.sol\":2825:2848  tweets[author][tweetId] */\n      dup2\n      sload\n      dup2\n      lt\n      tag_79\n      jumpi\n      tag_80\n      tag_60\n      jump\t// in\n    tag_80:\n    tag_79:\n      swap1\n      0x00\n      mstore\n      keccak256(0x00, 0x20)\n      swap1\n      0x06\n      mul\n      add\n        /* \"contracts/twitter/Twitter.sol\":2825:2858  tweets[author][tweetId].likeCount */\n      0x04\n      add\n      0x00\n        /* \"contracts/twitter/Twitter.sol\":2825:2863  tweets[author][tweetId].likeCount -= 1 */\n      dup3\n      dup3\n      sload\n      tag_82\n      swap2\n      swap1\n      tag_83\n      jump\t// in\n    tag_82:\n      swap3\n      pop\n      pop\n      dup2\n      swap1\n      sstore\n      pop\n        /* \"contracts/twitter/Twitter.sol\":2923:2928  false */\n      0x00\n        /* \"contracts/twitter/Twitter.sol\":2877:2883  tweets */\n      0x01\n        /* \"contracts/twitter/Twitter.sol\":2877:2891  tweets[author] */\n      0x00\n        /* \"contracts/twitter/Twitter.sol\":2884:2890  author */\n      dup5\n        /* \"contracts/twitter/Twitter.sol\":2877:2891  tweets[author] */\n      0xffffffffffffffffffffffffffffffffffffffff\n      and\n      0xffffffffffffffffffffffffffffffffffffffff\n      and\n      dup2\n      mstore\n      0x20\n      add\n      swap1\n      dup2\n      mstore\n      0x20\n      add\n      0x00\n      keccak256\n        /* \"contracts/twitter/Twitter.sol\":2892:2899  tweetId */\n      dup3\n        /* \"contracts/twitter/Twitter.sol\":2877:2900  tweets[author][tweetId] */\n      dup2\n      sload\n      dup2\n      lt\n      tag_84\n      jumpi\n      tag_85\n      tag_60\n      jump\t// in\n    tag_85:\n    tag_84:\n      swap1\n      0x00\n      mstore\n      keccak256(0x00, 0x20)\n      swap1\n      0x06\n      mul\n      add\n        /* \"contracts/twitter/Twitter.sol\":2877:2908  tweets[author][tweetId].likedBy */\n      0x05\n      add\n        /* \"contracts/twitter/Twitter.sol\":2877:2920  tweets[author][tweetId].likedBy[msg.sender] */\n      0x00\n        /* \"contracts/twitter/Twitter.sol\":2909:2919  msg.sender */\n      caller\n        /* \"contracts/twitter/Twitter.sol\":2877:2920  tweets[author][tweetId].likedBy[msg.sender] */\n      0xffffffffffffffffffffffffffffffffffffffff\n      and\n      0xffffffffffffffffffffffffffffffffffffffff\n      and\n      dup2\n      mstore\n      0x20\n      add\n      swap1\n      dup2\n      mstore\n      0x20\n      add\n      0x00\n      keccak256\n      0x00\n        /* \"contracts/twitter/Twitter.sol\":2877:2928  tweets[author][tweetId].likedBy[msg.sender] = false */\n      0x0100\n      exp\n      dup2\n      sload\n      dup2\n      0xff\n      mul\n      not\n      and\n      swap1\n      dup4\n      iszero\n      iszero\n      mul\n      or\n      swap1\n      sstore\n      pop\n        /* \"contracts/twitter/Twitter.sol\":2768:3072  if (hasLiked(author, tweetId, msg.sender)) {... */\n      jump(tag_87)\n    tag_78:\n        /* \"contracts/twitter/Twitter.sol\":2996:2997  1 */\n      0x01\n        /* \"contracts/twitter/Twitter.sol\":2959:2965  tweets */\n      dup1\n        /* \"contracts/twitter/Twitter.sol\":2959:2973  tweets[author] */\n      0x00\n        /* \"contracts/twitter/Twitter.sol\":2966:2972  author */\n      dup5\n        /* \"contracts/twitter/Twitter.sol\":2959:2973  tweets[author] */\n      0xffffffffffffffffffffffffffffffffffffffff\n      and\n      0xffffffffffffffffffffffffffffffffffffffff\n      and\n      dup2\n      mstore\n      0x20\n      add\n      swap1\n      dup2\n      mstore\n      0x20\n      add\n      0x00\n      keccak256\n        /* \"contracts/twitter/Twitter.sol\":2974:2981  tweetId */\n      dup3\n        /* \"contracts/twitter/Twitter.sol\":2959:2982  tweets[author][tweetId] */\n      dup2\n      sload\n      dup2\n      lt\n      tag_88\n      jumpi\n      tag_89\n      tag_60\n      jump\t// in\n    tag_89:\n    tag_88:\n      swap1\n      0x00\n      mstore\n      keccak256(0x00, 0x20)\n      swap1\n      0x06\n      mul\n      add\n        /* \"contracts/twitter/Twitter.sol\":2959:2992  tweets[author][tweetId].likeCount */\n      0x04\n      add\n      0x00\n        /* \"contracts/twitter/Twitter.sol\":2959:2997  tweets[author][tweetId].likeCount += 1 */\n      dup3\n      dup3\n      sload\n      tag_91\n      swap2\n      swap1\n      tag_92\n      jump\t// in\n    tag_91:\n      swap3\n      pop\n      pop\n      dup2\n      swap1\n      sstore\n      pop\n        /* \"contracts/twitter/Twitter.sol\":3057:3061  true */\n      0x01\n        /* \"contracts/twitter/Twitter.sol\":3011:3017  tweets */\n      dup1\n        /* \"contracts/twitter/Twitter.sol\":3011:3025  tweets[author] */\n      0x00\n        /* \"contracts/twitter/Twitter.sol\":3018:3024  author */\n      dup5\n        /* \"contracts/twitter/Twitter.sol\":3011:3025  tweets[author] */\n      0xffffffffffffffffffffffffffffffffffffffff\n      and\n      0xffffffffffffffffffffffffffffffffffffffff\n      and\n      dup2\n      mstore\n      0x20\n      add\n      swap1\n      dup2\n      mstore\n      0x20\n      add\n      0x00\n      keccak256\n        /* \"contracts/twitter/Twitter.sol\":3026:3033  tweetId */\n      dup3\n        /* \"contracts/twitter/Twitter.sol\":3011:3034  tweets[author][tweetId] */\n      dup2\n      sload\n      dup2\n      lt\n      tag_93\n      jumpi\n      tag_94\n      tag_60\n      jump\t// in\n    tag_94:\n    tag_93:\n      swap1\n      0x00\n      mstore\n      keccak256(0x00, 0x20)\n      swap1\n      0x06\n      mul\n      add\n        /* \"contracts/twitter/Twitter.sol\":3011:3042  tweets[author][tweetId].likedBy */\n      0x05\n      add\n        /* \"contracts/twitter/Twitter.sol\":3011:3054  tweets[author][tweetId].likedBy[msg.sender] */\n      0x00\n        /* \"contracts/twitter/Twitter.sol\":3043:3053  msg.sender */\n      caller\n        /* \"contracts/twitter/Twitter.sol\":3011:3054  tweets[author][tweetId].likedBy[msg.sender] */\n      0xffffffffffffffffffffffffffffffffffffffff\n      and\n      0xffffffffffffffffffffffffffffffffffffffff\n      and\n      dup2\n      mstore\n      0x20\n      add\n      swap1\n      dup2\n      mstore\n      0x20\n      add\n      0x00\n      keccak256\n      0x00\n        /* \"contracts/twitter/Twitter.sol\":3011:3061  tweets[author][tweetId].likedBy[msg.sender] = true */\n      0x0100\n      exp\n      dup2\n      sload\n      dup2\n      0xff\n      mul\n      not\n      and\n      swap1\n      dup4\n      iszero\n      iszero\n      mul\n      or\n      swap1\n      sstore\n      pop\n        /* \"contracts/twitter/Twitter.sol\":2768:3072  if (hasLiked(author, tweetId, msg.sender)) {... */\n    tag_87:\n        /* \"contracts/twitter/Twitter.sol\":3097:3107  msg.sender */\n      caller\n        /* \"contracts/twitter/Twitter.sol\":3086:3125  TweetLiked(msg.sender, author, tweetId) */\n      0xffffffffffffffffffffffffffffffffffffffff\n      and\n      0x7c4b06baee4c2050d672eef0084a1baaf8d938d7f9eddc476d9a89847171b537\n        /* \"contracts/twitter/Twitter.sol\":3109:3115  author */\n      dup4\n        /* \"contracts/twitter/Twitter.sol\":3117:3124  tweetId */\n      dup4\n        /* \"contracts/twitter/Twitter.sol\":3086:3125  TweetLiked(msg.sender, author, tweetId) */\n      mload(0x40)\n      tag_96\n      swap3\n      swap2\n      swap1\n      tag_97\n      jump\t// in\n    tag_96:\n      mload(0x40)\n      dup1\n      swap2\n      sub\n      swap1\n      log2\n        /* \"contracts/twitter/Twitter.sol\":2697:3132  function likeTweet(address author, uint256 tweetId) external {... */\n      pop\n      pop\n      jump\t// out\n        /* \"contracts/twitter/Twitter.sol\":924:1420  function createTweet(string memory _tweet) public {... */\n    tag_38:\n        /* \"contracts/twitter/Twitter.sol\":1016:1030  maxTweetLength */\n      0x00\n      dup1\n      sload\n      swap1\n      0x0100\n      exp\n      swap1\n      div\n      0xff\n      and\n        /* \"contracts/twitter/Twitter.sol\":992:1030  bytes(_tweet).length <= maxTweetLength */\n      0xff\n      and\n        /* \"contracts/twitter/Twitter.sol\":998:1004  _tweet */\n      dup2\n        /* \"contracts/twitter/Twitter.sol\":992:1012  bytes(_tweet).length */\n      mload\n        /* \"contracts/twitter/Twitter.sol\":992:1030  bytes(_tweet).length <= maxTweetLength */\n      gt\n      iszero\n        /* \"contracts/twitter/Twitter.sol\":984:1052  require(bytes(_tweet).length <= maxTweetLength, \"Tweet is too long\") */\n      tag_99\n      jumpi\n      mload(0x40)\n      0x08c379a000000000000000000000000000000000000000000000000000000000\n      dup2\n      mstore\n      0x04\n      add\n      tag_100\n      swap1\n      tag_101\n      jump\t// in\n    tag_100:\n      mload(0x40)\n      dup1\n      swap2\n      sub\n      swap1\n      revert\n    tag_99:\n        /* \"contracts/twitter/Twitter.sol\":1063:1085  Tweet storage newTweet */\n      0x00\n        /* \"contracts/twitter/Twitter.sol\":1088:1094  tweets */\n      0x01\n        /* \"contracts/twitter/Twitter.sol\":1088:1106  tweets[msg.sender] */\n      0x00\n        /* \"contracts/twitter/Twitter.sol\":1095:1105  msg.sender */\n      caller\n        /* \"contracts/twitter/Twitter.sol\":1088:1106  tweets[msg.sender] */\n      0xffffffffffffffffffffffffffffffffffffffff\n      and\n      0xffffffffffffffffffffffffffffffffffffffff\n      and\n      dup2\n      mstore\n      0x20\n      add\n      swap1\n      dup2\n      mstore\n      0x20\n      add\n      0x00\n      keccak256\n        /* \"contracts/twitter/Twitter.sol\":1088:1113  tweets[msg.sender].push() */\n      0x01\n      dup2\n      0x01\n      dup2\n      sload\n      add\n      dup1\n      dup3\n      sstore\n      dup1\n      swap2\n      pop\n      pop\n      sub\n      swap1\n      0x00\n      mstore\n      keccak256(0x00, 0x20)\n      swap1\n      0x06\n      mul\n      add\n        /* \"contracts/twitter/Twitter.sol\":1063:1113  Tweet storage newTweet = tweets[msg.sender].push() */\n      swap1\n      pop\n        /* \"contracts/twitter/Twitter.sol\":1166:1167  1 */\n      0x01\n        /* \"contracts/twitter/Twitter.sol\":1138:1144  tweets */\n      dup1\n        /* \"contracts/twitter/Twitter.sol\":1138:1156  tweets[msg.sender] */\n      0x00\n        /* \"contracts/twitter/Twitter.sol\":1145:1155  msg.sender */\n      caller\n        /* \"contracts/twitter/Twitter.sol\":1138:1156  tweets[msg.sender] */\n      0xffffffffffffffffffffffffffffffffffffffff\n      and\n      0xffffffffffffffffffffffffffffffffffffffff\n      and\n      dup2\n      mstore\n      0x20\n      add\n      swap1\n      dup2\n      mstore\n      0x20\n      add\n      0x00\n      keccak256\n        /* \"contracts/twitter/Twitter.sol\":1138:1163  tweets[msg.sender].length */\n      dup1\n      sload\n      swap1\n      pop\n        /* \"contracts/twitter/Twitter.sol\":1138:1167  tweets[msg.sender].length - 1 */\n      tag_103\n      swap2\n      swap1\n      tag_83\n      jump\t// in\n    tag_103:\n        /* \"contracts/twitter/Twitter.sol\":1124:1132  newTweet */\n      dup2\n        /* \"contracts/twitter/Twitter.sol\":1124:1135  newTweet.id */\n      0x00\n      add\n        /* \"contracts/twitter/Twitter.sol\":1124:1167  newTweet.id = tweets[msg.sender].length - 1 */\n      dup2\n      swap1\n      sstore\n      pop\n        /* \"contracts/twitter/Twitter.sol\":1195:1205  msg.sender */\n      caller\n        /* \"contracts/twitter/Twitter.sol\":1177:1185  newTweet */\n      dup2\n        /* \"contracts/twitter/Twitter.sol\":1177:1192  newTweet.author */\n      0x01\n      add\n      0x00\n        /* \"contracts/twitter/Twitter.sol\":1177:1205  newTweet.author = msg.sender */\n      0x0100\n      exp\n      dup2\n      sload\n      dup2\n      0xffffffffffffffffffffffffffffffffffffffff\n      mul\n      not\n      and\n      swap1\n      dup4\n      0xffffffffffffffffffffffffffffffffffffffff\n      and\n      mul\n      or\n      swap1\n      sstore\n      pop\n        /* \"contracts/twitter/Twitter.sol\":1234:1240  _tweet */\n      dup2\n        /* \"contracts/twitter/Twitter.sol\":1215:1223  newTweet */\n      dup2\n        /* \"contracts/twitter/Twitter.sol\":1215:1231  newTweet.content */\n      0x02\n      add\n        /* \"contracts/twitter/Twitter.sol\":1215:1240  newTweet.content = _tweet */\n      swap1\n      dup2\n      tag_104\n      swap2\n      swap1\n      tag_105\n      jump\t// in\n    tag_104:\n      pop\n        /* \"contracts/twitter/Twitter.sol\":1271:1286  block.timestamp */\n      timestamp\n        /* \"contracts/twitter/Twitter.sol\":1250:1258  newTweet */\n      dup2\n        /* \"contracts/twitter/Twitter.sol\":1250:1268  newTweet.timestamp */\n      0x03\n      add\n        /* \"contracts/twitter/Twitter.sol\":1250:1286  newTweet.timestamp = block.timestamp */\n      dup2\n      swap1\n      sstore\n      pop\n        /* \"contracts/twitter/Twitter.sol\":1317:1318  0 */\n      0x00\n        /* \"contracts/twitter/Twitter.sol\":1296:1304  newTweet */\n      dup2\n        /* \"contracts/twitter/Twitter.sol\":1296:1314  newTweet.likeCount */\n      0x04\n      add\n        /* \"contracts/twitter/Twitter.sol\":1296:1318  newTweet.likeCount = 0 */\n      dup2\n      swap1\n      sstore\n      pop\n        /* \"contracts/twitter/Twitter.sol\":1359:1367  newTweet */\n      dup1\n        /* \"contracts/twitter/Twitter.sol\":1359:1374  newTweet.author */\n      0x01\n      add\n      0x00\n      swap1\n      sload\n      swap1\n      0x0100\n      exp\n      swap1\n      div\n      0xffffffffffffffffffffffffffffffffffffffff\n      and\n        /* \"contracts/twitter/Twitter.sol\":1333:1413  TweetCreated(newTweet.id, newTweet.author, newTweet.content, newTweet.timestamp) */\n      0xffffffffffffffffffffffffffffffffffffffff\n      and\n      0x16fd3c13e9d46923e0a8bce11c7b473ec508a72e6c96cd2404b29ce972afc29e\n        /* \"contracts/twitter/Twitter.sol\":1346:1354  newTweet */\n      dup3\n        /* \"contracts/twitter/Twitter.sol\":1346:1357  newTweet.id */\n      0x00\n      add\n      sload\n        /* \"contracts/twitter/Twitter.sol\":1376:1384  newTweet */\n      dup4\n        /* \"contracts/twitter/Twitter.sol\":1376:1392  newTweet.content */\n      0x02\n      add\n        /* \"contracts/twitter/Twitter.sol\":1394:1402  newTweet */\n      dup5\n        /* \"contracts/twitter/Twitter.sol\":1394:1412  newTweet.timestamp */\n      0x03\n      add\n      sload\n        /* \"contracts/twitter/Twitter.sol\":1333:1413  TweetCreated(newTweet.id, newTweet.author, newTweet.content, newTweet.timestamp) */\n      mload(0x40)\n      tag_106\n      swap4\n      swap3\n      swap2\n      swap1\n      tag_107\n      jump\t// in\n    tag_106:\n      mload(0x40)\n      dup1\n      swap2\n      sub\n      swap1\n      log2\n        /* \"contracts/twitter/Twitter.sol\":974:1420  {... */\n      pop\n        /* \"contracts/twitter/Twitter.sol\":924:1420  function createTweet(string memory _tweet) public {... */\n      pop\n      jump\t// out\n        /* \"contracts/twitter/Twitter.sol\":113:133  address public owner */\n    tag_40:\n      0x00\n      0x01\n      swap1\n      sload\n      swap1\n      0x0100\n      exp\n      swap1\n      div\n      0xffffffffffffffffffffffffffffffffffffffff\n      and\n      dup2\n      jump\t// out\n        /* \"contracts/twitter/Twitter.sol\":1809:2378  function getTweets(address _owner)... */\n    tag_46:\n        /* \"contracts/twitter/Twitter.sol\":1889:1907  TweetView[] memory */\n      0x60\n        /* \"contracts/twitter/Twitter.sol\":1923:1934  uint256 len */\n      0x00\n        /* \"contracts/twitter/Twitter.sol\":1937:1943  tweets */\n      0x01\n        /* \"contracts/twitter/Twitter.sol\":1937:1951  tweets[_owner] */\n      0x00\n        /* \"contracts/twitter/Twitter.sol\":1944:1950  _owner */\n      dup5\n        /* \"contracts/twitter/Twitter.sol\":1937:1951  tweets[_owner] */\n      0xffffffffffffffffffffffffffffffffffffffff\n      and\n      0xffffffffffffffffffffffffffffffffffffffff\n      and\n      dup2\n      mstore\n      0x20\n      add\n      swap1\n      dup2\n      mstore\n      0x20\n      add\n      0x00\n      keccak256\n        /* \"contracts/twitter/Twitter.sol\":1937:1958  tweets[_owner].length */\n      dup1\n      sload\n      swap1\n      pop\n        /* \"contracts/twitter/Twitter.sol\":1923:1958  uint256 len = tweets[_owner].length */\n      swap1\n      pop\n        /* \"contracts/twitter/Twitter.sol\":1968:1993  TweetView[] memory result */\n      0x00\n        /* \"contracts/twitter/Twitter.sol\":2012:2015  len */\n      dup2\n        /* \"contracts/twitter/Twitter.sol\":1996:2016  new TweetView[](len) */\n      0xffffffffffffffff\n      dup2\n      gt\n      iszero\n      tag_109\n      jumpi\n      tag_110\n      tag_111\n      jump\t// in\n    tag_110:\n    tag_109:\n      mload(0x40)\n      swap1\n      dup1\n      dup3\n      mstore\n      dup1\n      0x20\n      mul\n      0x20\n      add\n      dup3\n      add\n      0x40\n      mstore\n      dup1\n      iszero\n      tag_112\n      jumpi\n      dup2\n      0x20\n      add\n    tag_113:\n      tag_114\n      tag_115\n      jump\t// in\n    tag_114:\n      dup2\n      mstore\n      0x20\n      add\n      swap1\n      0x01\n      swap1\n      sub\n      swap1\n      dup2\n      tag_113\n      jumpi\n      swap1\n      pop\n    tag_112:\n      pop\n        /* \"contracts/twitter/Twitter.sol\":1968:2016  TweetView[] memory result = new TweetView[](len) */\n      swap1\n      pop\n        /* \"contracts/twitter/Twitter.sol\":2032:2041  uint256 i */\n      0x00\n        /* \"contracts/twitter/Twitter.sol\":2027:2348  for (uint256 i = 0; i < len; i++) {... */\n    tag_116:\n        /* \"contracts/twitter/Twitter.sol\":2051:2054  len */\n      dup3\n        /* \"contracts/twitter/Twitter.sol\":2047:2048  i */\n      dup2\n        /* \"contracts/twitter/Twitter.sol\":2047:2054  i < len */\n      lt\n        /* \"contracts/twitter/Twitter.sol\":2027:2348  for (uint256 i = 0; i < len; i++) {... */\n      iszero\n      tag_117\n      jumpi\n        /* \"contracts/twitter/Twitter.sol\":2075:2090  Tweet storage t */\n      0x00\n        /* \"contracts/twitter/Twitter.sol\":2093:2099  tweets */\n      0x01\n        /* \"contracts/twitter/Twitter.sol\":2093:2107  tweets[_owner] */\n      0x00\n        /* \"contracts/twitter/Twitter.sol\":2100:2106  _owner */\n      dup8\n        /* \"contracts/twitter/Twitter.sol\":2093:2107  tweets[_owner] */\n      0xffffffffffffffffffffffffffffffffffffffff\n      and\n      0xffffffffffffffffffffffffffffffffffffffff\n      and\n      dup2\n      mstore\n      0x20\n      add\n      swap1\n      dup2\n      mstore\n      0x20\n      add\n      0x00\n      keccak256\n        /* \"contracts/twitter/Twitter.sol\":2108:2109  i */\n      dup3\n        /* \"contracts/twitter/Twitter.sol\":2093:2110  tweets[_owner][i] */\n      dup2\n      sload\n      dup2\n      lt\n      tag_119\n      jumpi\n      tag_120\n      tag_60\n      jump\t// in\n    tag_120:\n    tag_119:\n      swap1\n      0x00\n      mstore\n      keccak256(0x00, 0x20)\n      swap1\n      0x06\n      mul\n      add\n        /* \"contracts/twitter/Twitter.sol\":2075:2110  Tweet storage t = tweets[_owner][i] */\n      swap1\n      pop\n        /* \"contracts/twitter/Twitter.sol\":2136:2337  TweetView({... */\n      mload(0x40)\n      dup1\n      0xa0\n      add\n      0x40\n      mstore\n      dup1\n        /* \"contracts/twitter/Twitter.sol\":2168:2169  t */\n      dup3\n        /* \"contracts/twitter/Twitter.sol\":2168:2172  t.id */\n      0x00\n      add\n      sload\n        /* \"contracts/twitter/Twitter.sol\":2136:2337  TweetView({... */\n      dup2\n      mstore\n      0x20\n      add\n        /* \"contracts/twitter/Twitter.sol\":2198:2199  t */\n      dup3\n        /* \"contracts/twitter/Twitter.sol\":2198:2206  t.author */\n      0x01\n      add\n      0x00\n      swap1\n      sload\n      swap1\n      0x0100\n      exp\n      swap1\n      div\n      0xffffffffffffffffffffffffffffffffffffffff\n      and\n        /* \"contracts/twitter/Twitter.sol\":2136:2337  TweetView({... */\n      0xffffffffffffffffffffffffffffffffffffffff\n      and\n      dup2\n      mstore\n      0x20\n      add\n        /* \"contracts/twitter/Twitter.sol\":2233:2234  t */\n      dup3\n        /* \"contracts/twitter/Twitter.sol\":2233:2242  t.content */\n      0x02\n      add\n        /* \"contracts/twitter/Twitter.sol\":2136:2337  TweetView({... */\n      dup1\n      sload\n      tag_122\n      swap1\n      tag_52\n      jump\t// in\n    tag_122:\n      dup1\n      0x1f\n      add\n      0x20\n      dup1\n      swap2\n      div\n      mul\n      0x20\n      add\n      mload(0x40)\n      swap1\n      dup2\n      add\n      0x40\n      mstore\n      dup1\n      swap3\n      swap2\n      swap1\n      dup2\n      dup2\n      mstore\n      0x20\n      add\n      dup3\n      dup1\n      sload\n      tag_123\n      swap1\n      tag_52\n      jump\t// in\n    tag_123:\n      dup1\n      iszero\n      tag_124\n      jumpi\n      dup1\n      0x1f\n      lt\n      tag_125\n      jumpi\n      0x0100\n      dup1\n      dup4\n      sload\n      div\n      mul\n      dup4\n      mstore\n      swap2\n      0x20\n      add\n      swap2\n      jump(tag_124)\n    tag_125:\n      dup3\n      add\n      swap2\n      swap1\n      0x00\n      mstore\n      keccak256(0x00, 0x20)\n      swap1\n    tag_126:\n      dup2\n      sload\n      dup2\n      mstore\n      swap1\n      0x01\n      add\n      swap1\n      0x20\n      add\n      dup1\n      dup4\n      gt\n      tag_126\n      jumpi\n      dup3\n      swap1\n      sub\n      0x1f\n      and\n      dup3\n      add\n      swap2\n    tag_124:\n      pop\n      pop\n      pop\n      pop\n      pop\n      dup2\n      mstore\n      0x20\n      add\n        /* \"contracts/twitter/Twitter.sol\":2271:2272  t */\n      dup3\n        /* \"contracts/twitter/Twitter.sol\":2271:2282  t.timestamp */\n      0x03\n      add\n      sload\n        /* \"contracts/twitter/Twitter.sol\":2136:2337  TweetView({... */\n      dup2\n      mstore\n      0x20\n      add\n        /* \"contracts/twitter/Twitter.sol\":2311:2312  t */\n      dup3\n        /* \"contracts/twitter/Twitter.sol\":2311:2322  t.likeCount */\n      0x04\n      add\n      sload\n        /* \"contracts/twitter/Twitter.sol\":2136:2337  TweetView({... */\n      dup2\n      mstore\n      pop\n        /* \"contracts/twitter/Twitter.sol\":2124:2130  result */\n      dup4\n        /* \"contracts/twitter/Twitter.sol\":2131:2132  i */\n      dup4\n        /* \"contracts/twitter/Twitter.sol\":2124:2133  result[i] */\n      dup2\n      mload\n      dup2\n      lt\n      tag_127\n      jumpi\n      tag_128\n      tag_60\n      jump\t// in\n    tag_128:\n    tag_127:\n      0x20\n      mul\n      0x20\n      add\n      add\n        /* \"contracts/twitter/Twitter.sol\":2124:2337  result[i] = TweetView({... */\n      dup2\n      swap1\n      mstore\n      pop\n        /* \"contracts/twitter/Twitter.sol\":2061:2348  {... */\n      pop\n        /* \"contracts/twitter/Twitter.sol\":2056:2059  i++ */\n      dup1\n      dup1\n      0x01\n      add\n      swap2\n      pop\n      pop\n        /* \"contracts/twitter/Twitter.sol\":2027:2348  for (uint256 i = 0; i < len; i++) {... */\n      jump(tag_116)\n    tag_117:\n      pop\n        /* \"contracts/twitter/Twitter.sol\":2365:2371  result */\n      dup1\n        /* \"contracts/twitter/Twitter.sol\":2358:2371  return result */\n      swap3\n      pop\n      pop\n      pop\n        /* \"contracts/twitter/Twitter.sol\":1809:2378  function getTweets(address _owner)... */\n      swap2\n      swap1\n      pop\n      jump\t// out\n    tag_115:\n      mload(0x40)\n      dup1\n      0xa0\n      add\n      0x40\n      mstore\n      dup1\n      0x00\n      dup2\n      mstore\n      0x20\n      add\n      and(0xffffffffffffffffffffffffffffffffffffffff, 0x00)\n      dup2\n      mstore\n      0x20\n      add\n      0x60\n      dup2\n      mstore\n      0x20\n      add\n      0x00\n      dup2\n      mstore\n      0x20\n      add\n      0x00\n      dup2\n      mstore\n      pop\n      swap1\n      jump\t// out\n        /* \"#utility.yul\":7:82   */\n    tag_129:\n        /* \"#utility.yul\":40:46   */\n      0x00\n        /* \"#utility.yul\":73:75   */\n      0x40\n        /* \"#utility.yul\":67:76   */\n      mload\n        /* \"#utility.yul\":57:76   */\n      swap1\n      pop\n        /* \"#utility.yul\":7:82   */\n      swap1\n      jump\t// out\n        /* \"#utility.yul\":88:205   */\n    tag_130:\n        /* \"#utility.yul\":197:198   */\n      0x00\n        /* \"#utility.yul\":194:195   */\n      dup1\n        /* \"#utility.yul\":187:199   */\n      revert\n        /* \"#utility.yul\":211:328   */\n    tag_131:\n        /* \"#utility.yul\":320:321   */\n      0x00\n        /* \"#utility.yul\":317:318   */\n      dup1\n        /* \"#utility.yul\":310:322   */\n      revert\n        /* \"#utility.yul\":334:460   */\n    tag_132:\n        /* \"#utility.yul\":371:378   */\n      0x00\n        /* \"#utility.yul\":411:453   */\n      0xffffffffffffffffffffffffffffffffffffffff\n        /* \"#utility.yul\":404:409   */\n      dup3\n        /* \"#utility.yul\":400:454   */\n      and\n        /* \"#utility.yul\":389:454   */\n      swap1\n      pop\n        /* \"#utility.yul\":334:460   */\n      swap2\n      swap1\n      pop\n      jump\t// out\n        /* \"#utility.yul\":466:562   */\n    tag_133:\n        /* \"#utility.yul\":503:510   */\n      0x00\n        /* \"#utility.yul\":532:556   */\n      tag_198\n        /* \"#utility.yul\":550:555   */\n      dup3\n        /* \"#utility.yul\":532:556   */\n      tag_132\n      jump\t// in\n    tag_198:\n        /* \"#utility.yul\":521:556   */\n      swap1\n      pop\n        /* \"#utility.yul\":466:562   */\n      swap2\n      swap1\n      pop\n      jump\t// out\n        /* \"#utility.yul\":568:690   */\n    tag_134:\n        /* \"#utility.yul\":641:665   */\n      tag_200\n        /* \"#utility.yul\":659:664   */\n      dup2\n        /* \"#utility.yul\":641:665   */\n      tag_133\n      jump\t// in\n    tag_200:\n        /* \"#utility.yul\":634:639   */\n      dup2\n        /* \"#utility.yul\":631:666   */\n      eq\n        /* \"#utility.yul\":621:684   */\n      tag_201\n      jumpi\n        /* \"#utility.yul\":680:681   */\n      0x00\n        /* \"#utility.yul\":677:678   */\n      dup1\n        /* \"#utility.yul\":670:682   */\n      revert\n        /* \"#utility.yul\":621:684   */\n    tag_201:\n        /* \"#utility.yul\":568:690   */\n      pop\n      jump\t// out\n        /* \"#utility.yul\":696:835   */\n    tag_135:\n        /* \"#utility.yul\":742:747   */\n      0x00\n        /* \"#utility.yul\":780:786   */\n      dup2\n        /* \"#utility.yul\":767:787   */\n      calldataload\n        /* \"#utility.yul\":758:787   */\n      swap1\n      pop\n        /* \"#utility.yul\":796:829   */\n      tag_203\n        /* \"#utility.yul\":823:828   */\n      dup2\n        /* \"#utility.yul\":796:829   */\n      tag_134\n      jump\t// in\n    tag_203:\n        /* \"#utility.yul\":696:835   */\n      swap3\n      swap2\n      pop\n      pop\n      jump\t// out\n        /* \"#utility.yul\":841:918   */\n    tag_136:\n        /* \"#utility.yul\":878:885   */\n      0x00\n        /* \"#utility.yul\":907:912   */\n      dup2\n        /* \"#utility.yul\":896:912   */\n      swap1\n      pop\n        /* \"#utility.yul\":841:918   */\n      swap2\n      swap1\n      pop\n      jump\t// out\n        /* \"#utility.yul\":924:1046   */\n    tag_137:\n        /* \"#utility.yul\":997:1021   */\n      tag_206\n        /* \"#utility.yul\":1015:1020   */\n      dup2\n        /* \"#utility.yul\":997:1021   */\n      tag_136\n      jump\t// in\n    tag_206:\n        /* \"#utility.yul\":990:995   */\n      dup2\n        /* \"#utility.yul\":987:1022   */\n      eq\n        /* \"#utility.yul\":977:1040   */\n      tag_207\n      jumpi\n        /* \"#utility.yul\":1036:1037   */\n      0x00\n        /* \"#utility.yul\":1033:1034   */\n      dup1\n        /* \"#utility.yul\":1026:1038   */\n      revert\n        /* \"#utility.yul\":977:1040   */\n    tag_207:\n        /* \"#utility.yul\":924:1046   */\n      pop\n      jump\t// out\n        /* \"#utility.yul\":1052:1191   */\n    tag_138:\n        /* \"#utility.yul\":1098:1103   */\n      0x00\n        /* \"#utility.yul\":1136:1142   */\n      dup2\n        /* \"#utility.yul\":1123:1143   */\n      calldataload\n        /* \"#utility.yul\":1114:1143   */\n      swap1\n      pop\n        /* \"#utility.yul\":1152:1185   */\n      tag_209\n        /* \"#utility.yul\":1179:1184   */\n      dup2\n        /* \"#utility.yul\":1152:1185   */\n      tag_137\n      jump\t// in\n    tag_209:\n        /* \"#utility.yul\":1052:1191   */\n      swap3\n      swap2\n      pop\n      pop\n      jump\t// out\n        /* \"#utility.yul\":1197:1671   */\n    tag_14:\n        /* \"#utility.yul\":1265:1271   */\n      0x00\n        /* \"#utility.yul\":1273:1279   */\n      dup1\n        /* \"#utility.yul\":1322:1324   */\n      0x40\n        /* \"#utility.yul\":1310:1319   */\n      dup4\n        /* \"#utility.yul\":1301:1308   */\n      dup6\n        /* \"#utility.yul\":1297:1320   */\n      sub\n        /* \"#utility.yul\":1293:1325   */\n      slt\n        /* \"#utility.yul\":1290:1409   */\n      iszero\n      tag_211\n      jumpi\n        /* \"#utility.yul\":1328:1407   */\n      tag_212\n      tag_130\n      jump\t// in\n    tag_212:\n        /* \"#utility.yul\":1290:1409   */\n    tag_211:\n        /* \"#utility.yul\":1448:1449   */\n      0x00\n        /* \"#utility.yul\":1473:1526   */\n      tag_213\n        /* \"#utility.yul\":1518:1525   */\n      dup6\n        /* \"#utility.yul\":1509:1515   */\n      dup3\n        /* \"#utility.yul\":1498:1507   */\n      dup7\n        /* \"#utility.yul\":1494:1516   */\n      add\n        /* \"#utility.yul\":1473:1526   */\n      tag_135\n      jump\t// in\n    tag_213:\n        /* \"#utility.yul\":1463:1526   */\n      swap3\n      pop\n        /* \"#utility.yul\":1419:1536   */\n      pop\n        /* \"#utility.yul\":1575:1577   */\n      0x20\n        /* \"#utility.yul\":1601:1654   */\n      tag_214\n        /* \"#utility.yul\":1646:1653   */\n      dup6\n        /* \"#utility.yul\":1637:1643   */\n      dup3\n        /* \"#utility.yul\":1626:1635   */\n      dup7\n        /* \"#utility.yul\":1622:1644   */\n      add\n        /* \"#utility.yul\":1601:1654   */\n      tag_138\n      jump\t// in\n    tag_214:\n        /* \"#utility.yul\":1591:1654   */\n      swap2\n      pop\n        /* \"#utility.yul\":1546:1664   */\n      pop\n        /* \"#utility.yul\":1197:1671   */\n      swap3\n      pop\n      swap3\n      swap1\n      pop\n      jump\t// out\n        /* \"#utility.yul\":1677:1795   */\n    tag_139:\n        /* \"#utility.yul\":1764:1788   */\n      tag_216\n        /* \"#utility.yul\":1782:1787   */\n      dup2\n        /* \"#utility.yul\":1764:1788   */\n      tag_136\n      jump\t// in\n    tag_216:\n        /* \"#utility.yul\":1759:1762   */\n      dup3\n        /* \"#utility.yul\":1752:1789   */\n      mstore\n        /* \"#utility.yul\":1677:1795   */\n      pop\n      pop\n      jump\t// out\n        /* \"#utility.yul\":1801:1919   */\n    tag_140:\n        /* \"#utility.yul\":1888:1912   */\n      tag_218\n        /* \"#utility.yul\":1906:1911   */\n      dup2\n        /* \"#utility.yul\":1888:1912   */\n      tag_133\n      jump\t// in\n    tag_218:\n        /* \"#utility.yul\":1883:1886   */\n      dup3\n        /* \"#utility.yul\":1876:1913   */\n      mstore\n        /* \"#utility.yul\":1801:1919   */\n      pop\n      pop\n      jump\t// out\n        /* \"#utility.yul\":1925:2024   */\n    tag_141:\n        /* \"#utility.yul\":1977:1983   */\n      0x00\n        /* \"#utility.yul\":2011:2016   */\n      dup2\n        /* \"#utility.yul\":2005:2017   */\n      mload\n        /* \"#utility.yul\":1995:2017   */\n      swap1\n      pop\n        /* \"#utility.yul\":1925:2024   */\n      swap2\n      swap1\n      pop\n      jump\t// out\n        /* \"#utility.yul\":2030:2199   */\n    tag_142:\n        /* \"#utility.yul\":2114:2125   */\n      0x00\n        /* \"#utility.yul\":2148:2154   */\n      dup3\n        /* \"#utility.yul\":2143:2146   */\n      dup3\n        /* \"#utility.yul\":2136:2155   */\n      mstore\n        /* \"#utility.yul\":2188:2192   */\n      0x20\n        /* \"#utility.yul\":2183:2186   */\n      dup3\n        /* \"#utility.yul\":2179:2193   */\n      add\n        /* \"#utility.yul\":2164:2193   */\n      swap1\n      pop\n        /* \"#utility.yul\":2030:2199   */\n      swap3\n      swap2\n      pop\n      pop\n      jump\t// out\n        /* \"#utility.yul\":2205:2344   */\n    tag_143:\n        /* \"#utility.yul\":2294:2300   */\n      dup3\n        /* \"#utility.yul\":2289:2292   */\n      dup2\n        /* \"#utility.yul\":2284:2287   */\n      dup4\n        /* \"#utility.yul\":2278:2301   */\n      mcopy\n        /* \"#utility.yul\":2335:2336   */\n      0x00\n        /* \"#utility.yul\":2326:2332   */\n      dup4\n        /* \"#utility.yul\":2321:2324   */\n      dup4\n        /* \"#utility.yul\":2317:2333   */\n      add\n        /* \"#utility.yul\":2310:2337   */\n      mstore\n        /* \"#utility.yul\":2205:2344   */\n      pop\n      pop\n      pop\n      jump\t// out\n        /* \"#utility.yul\":2350:2452   */\n    tag_144:\n        /* \"#utility.yul\":2391:2397   */\n      0x00\n        /* \"#utility.yul\":2442:2444   */\n      0x1f\n        /* \"#utility.yul\":2438:2445   */\n      not\n        /* \"#utility.yul\":2433:2435   */\n      0x1f\n        /* \"#utility.yul\":2426:2431   */\n      dup4\n        /* \"#utility.yul\":2422:2436   */\n      add\n        /* \"#utility.yul\":2418:2446   */\n      and\n        /* \"#utility.yul\":2408:2446   */\n      swap1\n      pop\n        /* \"#utility.yul\":2350:2452   */\n      swap2\n      swap1\n      pop\n      jump\t// out\n        /* \"#utility.yul\":2458:2835   */\n    tag_145:\n        /* \"#utility.yul\":2546:2549   */\n      0x00\n        /* \"#utility.yul\":2574:2613   */\n      tag_224\n        /* \"#utility.yul\":2607:2612   */\n      dup3\n        /* \"#utility.yul\":2574:2613   */\n      tag_141\n      jump\t// in\n    tag_224:\n        /* \"#utility.yul\":2629:2700   */\n      tag_225\n        /* \"#utility.yul\":2693:2699   */\n      dup2\n        /* \"#utility.yul\":2688:2691   */\n      dup6\n        /* \"#utility.yul\":2629:2700   */\n      tag_142\n      jump\t// in\n    tag_225:\n        /* \"#utility.yul\":2622:2700   */\n      swap4\n      pop\n        /* \"#utility.yul\":2709:2774   */\n      tag_226\n        /* \"#utility.yul\":2767:2773   */\n      dup2\n        /* \"#utility.yul\":2762:2765   */\n      dup6\n        /* \"#utility.yul\":2755:2759   */\n      0x20\n        /* \"#utility.yul\":2748:2753   */\n      dup7\n        /* \"#utility.yul\":2744:2760   */\n      add\n        /* \"#utility.yul\":2709:2774   */\n      tag_143\n      jump\t// in\n    tag_226:\n        /* \"#utility.yul\":2799:2828   */\n      tag_227\n        /* \"#utility.yul\":2821:2827   */\n      dup2\n        /* \"#utility.yul\":2799:2828   */\n      tag_144\n      jump\t// in\n    tag_227:\n        /* \"#utility.yul\":2794:2797   */\n      dup5\n        /* \"#utility.yul\":2790:2829   */\n      add\n        /* \"#utility.yul\":2783:2829   */\n      swap2\n      pop\n        /* \"#utility.yul\":2550:2835   */\n      pop\n        /* \"#utility.yul\":2458:2835   */\n      swap3\n      swap2\n      pop\n      pop\n      jump\t// out\n        /* \"#utility.yul\":2841:3596   */\n    tag_17:\n        /* \"#utility.yul\":3066:3070   */\n      0x00\n        /* \"#utility.yul\":3104:3107   */\n      0xa0\n        /* \"#utility.yul\":3093:3102   */\n      dup3\n        /* \"#utility.yul\":3089:3108   */\n      add\n        /* \"#utility.yul\":3081:3108   */\n      swap1\n      pop\n        /* \"#utility.yul\":3118:3189   */\n      tag_229\n        /* \"#utility.yul\":3186:3187   */\n      0x00\n        /* \"#utility.yul\":3175:3184   */\n      dup4\n        /* \"#utility.yul\":3171:3188   */\n      add\n        /* \"#utility.yul\":3162:3168   */\n      dup9\n        /* \"#utility.yul\":3118:3189   */\n      tag_139\n      jump\t// in\n    tag_229:\n        /* \"#utility.yul\":3199:3271   */\n      tag_230\n        /* \"#utility.yul\":3267:3269   */\n      0x20\n        /* \"#utility.yul\":3256:3265   */\n      dup4\n        /* \"#utility.yul\":3252:3270   */\n      add\n        /* \"#utility.yul\":3243:3249   */\n      dup8\n        /* \"#utility.yul\":3199:3271   */\n      tag_140\n      jump\t// in\n    tag_230:\n        /* \"#utility.yul\":3318:3327   */\n      dup2\n        /* \"#utility.yul\":3312:3316   */\n      dup2\n        /* \"#utility.yul\":3308:3328   */\n      sub\n        /* \"#utility.yul\":3303:3305   */\n      0x40\n        /* \"#utility.yul\":3292:3301   */\n      dup4\n        /* \"#utility.yul\":3288:3306   */\n      add\n        /* \"#utility.yul\":3281:3329   */\n      mstore\n        /* \"#utility.yul\":3346:3424   */\n      tag_231\n        /* \"#utility.yul\":3419:3423   */\n      dup2\n        /* \"#utility.yul\":3410:3416   */\n      dup7\n        /* \"#utility.yul\":3346:3424   */\n      tag_145\n      jump\t// in\n    tag_231:\n        /* \"#utility.yul\":3338:3424   */\n      swap1\n      pop\n        /* \"#utility.yul\":3434:3506   */\n      tag_232\n        /* \"#utility.yul\":3502:3504   */\n      0x60\n        /* \"#utility.yul\":3491:3500   */\n      dup4\n        /* \"#utility.yul\":3487:3505   */\n      add\n        /* \"#utility.yul\":3478:3484   */\n      dup6\n        /* \"#utility.yul\":3434:3506   */\n      tag_139\n      jump\t// in\n    tag_232:\n        /* \"#utility.yul\":3516:3589   */\n      tag_233\n        /* \"#utility.yul\":3584:3587   */\n      0x80\n        /* \"#utility.yul\":3573:3582   */\n      dup4\n        /* \"#utility.yul\":3569:3588   */\n      add\n        /* \"#utility.yul\":3560:3566   */\n      dup5\n        /* \"#utility.yul\":3516:3589   */\n      tag_139\n      jump\t// in\n    tag_233:\n        /* \"#utility.yul\":2841:3596   */\n      swap7\n      swap6\n      pop\n      pop\n      pop\n      pop\n      pop\n      pop\n      jump\t// out\n        /* \"#utility.yul\":3602:3688   */\n    tag_146:\n        /* \"#utility.yul\":3637:3644   */\n      0x00\n        /* \"#utility.yul\":3677:3681   */\n      0xff\n        /* \"#utility.yul\":3670:3675   */\n      dup3\n        /* \"#utility.yul\":3666:3682   */\n      and\n        /* \"#utility.yul\":3655:3682   */\n      swap1\n      pop\n        /* \"#utility.yul\":3602:3688   */\n      swap2\n      swap1\n      pop\n      jump\t// out\n        /* \"#utility.yul\":3694:3812   */\n    tag_147:\n        /* \"#utility.yul\":3765:3787   */\n      tag_236\n        /* \"#utility.yul\":3781:3786   */\n      dup2\n        /* \"#utility.yul\":3765:3787   */\n      tag_146\n      jump\t// in\n    tag_236:\n        /* \"#utility.yul\":3758:3763   */\n      dup2\n        /* \"#utility.yul\":3755:3788   */\n      eq\n        /* \"#utility.yul\":3745:3806   */\n      tag_237\n      jumpi\n        /* \"#utility.yul\":3802:3803   */\n      0x00\n        /* \"#utility.yul\":3799:3800   */\n      dup1\n        /* \"#utility.yul\":3792:3804   */\n      revert\n        /* \"#utility.yul\":3745:3806   */\n    tag_237:\n        /* \"#utility.yul\":3694:3812   */\n      pop\n      jump\t// out\n        /* \"#utility.yul\":3818:3953   */\n    tag_148:\n        /* \"#utility.yul\":3862:3867   */\n      0x00\n        /* \"#utility.yul\":3900:3906   */\n      dup2\n        /* \"#utility.yul\":3887:3907   */\n      calldataload\n        /* \"#utility.yul\":3878:3907   */\n      swap1\n      pop\n        /* \"#utility.yul\":3916:3947   */\n      tag_239\n        /* \"#utility.yul\":3941:3946   */\n      dup2\n        /* \"#utility.yul\":3916:3947   */\n      tag_147\n      jump\t// in\n    tag_239:\n        /* \"#utility.yul\":3818:3953   */\n      swap3\n      swap2\n      pop\n      pop\n      jump\t// out\n        /* \"#utility.yul\":3959:4284   */\n    tag_24:\n        /* \"#utility.yul\":4016:4022   */\n      0x00\n        /* \"#utility.yul\":4065:4067   */\n      0x20\n        /* \"#utility.yul\":4053:4062   */\n      dup3\n        /* \"#utility.yul\":4044:4051   */\n      dup5\n        /* \"#utility.yul\":4040:4063   */\n      sub\n        /* \"#utility.yul\":4036:4068   */\n      slt\n        /* \"#utility.yul\":4033:4152   */\n      iszero\n      tag_241\n      jumpi\n        /* \"#utility.yul\":4071:4150   */\n      tag_242\n      tag_130\n      jump\t// in\n    tag_242:\n        /* \"#utility.yul\":4033:4152   */\n    tag_241:\n        /* \"#utility.yul\":4191:4192   */\n      0x00\n        /* \"#utility.yul\":4216:4267   */\n      tag_243\n        /* \"#utility.yul\":4259:4266   */\n      dup5\n        /* \"#utility.yul\":4250:4256   */\n      dup3\n        /* \"#utility.yul\":4239:4248   */\n      dup6\n        /* \"#utility.yul\":4235:4257   */\n      add\n        /* \"#utility.yul\":4216:4267   */\n      tag_148\n      jump\t// in\n    tag_243:\n        /* \"#utility.yul\":4206:4267   */\n      swap2\n      pop\n        /* \"#utility.yul\":4162:4277   */\n      pop\n        /* \"#utility.yul\":3959:4284   */\n      swap3\n      swap2\n      pop\n      pop\n      jump\t// out\n        /* \"#utility.yul\":4290:4909   */\n    tag_28:\n        /* \"#utility.yul\":4367:4373   */\n      0x00\n        /* \"#utility.yul\":4375:4381   */\n      dup1\n        /* \"#utility.yul\":4383:4389   */\n      0x00\n        /* \"#utility.yul\":4432:4434   */\n      0x60\n        /* \"#utility.yul\":4420:4429   */\n      dup5\n        /* \"#utility.yul\":4411:4418   */\n      dup7\n        /* \"#utility.yul\":4407:4430   */\n      sub\n        /* \"#utility.yul\":4403:4435   */\n      slt\n        /* \"#utility.yul\":4400:4519   */\n      iszero\n      tag_245\n      jumpi\n        /* \"#utility.yul\":4438:4517   */\n      tag_246\n      tag_130\n      jump\t// in\n    tag_246:\n        /* \"#utility.yul\":4400:4519   */\n    tag_245:\n        /* \"#utility.yul\":4558:4559   */\n      0x00\n        /* \"#utility.yul\":4583:4636   */\n      tag_247\n        /* \"#utility.yul\":4628:4635   */\n      dup7\n        /* \"#utility.yul\":4619:4625   */\n      dup3\n        /* \"#utility.yul\":4608:4617   */\n      dup8\n        /* \"#utility.yul\":4604:4626   */\n      add\n        /* \"#utility.yul\":4583:4636   */\n      tag_135\n      jump\t// in\n    tag_247:\n        /* \"#utility.yul\":4573:4636   */\n      swap4\n      pop\n        /* \"#utility.yul\":4529:4646   */\n      pop\n        /* \"#utility.yul\":4685:4687   */\n      0x20\n        /* \"#utility.yul\":4711:4764   */\n      tag_248\n        /* \"#utility.yul\":4756:4763   */\n      dup7\n        /* \"#utility.yul\":4747:4753   */\n      dup3\n        /* \"#utility.yul\":4736:4745   */\n      dup8\n        /* \"#utility.yul\":4732:4754   */\n      add\n        /* \"#utility.yul\":4711:4764   */\n      tag_138\n      jump\t// in\n    tag_248:\n        /* \"#utility.yul\":4701:4764   */\n      swap3\n      pop\n        /* \"#utility.yul\":4656:4774   */\n      pop\n        /* \"#utility.yul\":4813:4815   */\n      0x40\n        /* \"#utility.yul\":4839:4892   */\n      tag_249\n        /* \"#utility.yul\":4884:4891   */\n      dup7\n        /* \"#utility.yul\":4875:4881   */\n      dup3\n        /* \"#utility.yul\":4864:4873   */\n      dup8\n        /* \"#utility.yul\":4860:4882   */\n      add\n        /* \"#utility.yul\":4839:4892   */\n      tag_135\n      jump\t// in\n    tag_249:\n        /* \"#utility.yul\":4829:4892   */\n      swap2\n      pop\n        /* \"#utility.yul\":4784:4902   */\n      pop\n        /* \"#utility.yul\":4290:4909   */\n      swap3\n      pop\n      swap3\n      pop\n      swap3\n      jump\t// out\n        /* \"#utility.yul\":4915:5005   */\n    tag_149:\n        /* \"#utility.yul\":4949:4956   */\n      0x00\n        /* \"#utility.yul\":4992:4997   */\n      dup2\n        /* \"#utility.yul\":4985:4998   */\n      iszero\n        /* \"#utility.yul\":4978:4999   */\n      iszero\n        /* \"#utility.yul\":4967:4999   */\n      swap1\n      pop\n        /* \"#utility.yul\":4915:5005   */\n      swap2\n      swap1\n      pop\n      jump\t// out\n        /* \"#utility.yul\":5011:5120   */\n    tag_150:\n        /* \"#utility.yul\":5092:5113   */\n      tag_252\n        /* \"#utility.yul\":5107:5112   */\n      dup2\n        /* \"#utility.yul\":5092:5113   */\n      tag_149\n      jump\t// in\n    tag_252:\n        /* \"#utility.yul\":5087:5090   */\n      dup3\n        /* \"#utility.yul\":5080:5114   */\n      mstore\n        /* \"#utility.yul\":5011:5120   */\n      pop\n      pop\n      jump\t// out\n        /* \"#utility.yul\":5126:5336   */\n    tag_31:\n        /* \"#utility.yul\":5213:5217   */\n      0x00\n        /* \"#utility.yul\":5251:5253   */\n      0x20\n        /* \"#utility.yul\":5240:5249   */\n      dup3\n        /* \"#utility.yul\":5236:5254   */\n      add\n        /* \"#utility.yul\":5228:5254   */\n      swap1\n      pop\n        /* \"#utility.yul\":5264:5329   */\n      tag_254\n        /* \"#utility.yul\":5326:5327   */\n      0x00\n        /* \"#utility.yul\":5315:5324   */\n      dup4\n        /* \"#utility.yul\":5311:5328   */\n      add\n        /* \"#utility.yul\":5302:5308   */\n      dup5\n        /* \"#utility.yul\":5264:5329   */\n      tag_150\n      jump\t// in\n    tag_254:\n        /* \"#utility.yul\":5126:5336   */\n      swap3\n      swap2\n      pop\n      pop\n      jump\t// out\n        /* \"#utility.yul\":5342:5459   */\n    tag_151:\n        /* \"#utility.yul\":5451:5452   */\n      0x00\n        /* \"#utility.yul\":5448:5449   */\n      dup1\n        /* \"#utility.yul\":5441:5453   */\n      revert\n        /* \"#utility.yul\":5465:5582   */\n    tag_152:\n        /* \"#utility.yul\":5574:5575   */\n      0x00\n        /* \"#utility.yul\":5571:5572   */\n      dup1\n        /* \"#utility.yul\":5564:5576   */\n      revert\n        /* \"#utility.yul\":5588:5768   */\n    tag_111:\n        /* \"#utility.yul\":5636:5713   */\n      0x4e487b7100000000000000000000000000000000000000000000000000000000\n        /* \"#utility.yul\":5633:5634   */\n      0x00\n        /* \"#utility.yul\":5626:5714   */\n      mstore\n        /* \"#utility.yul\":5733:5737   */\n      0x41\n        /* \"#utility.yul\":5730:5731   */\n      0x04\n        /* \"#utility.yul\":5723:5738   */\n      mstore\n        /* \"#utility.yul\":5757:5761   */\n      0x24\n        /* \"#utility.yul\":5754:5755   */\n      0x00\n        /* \"#utility.yul\":5747:5762   */\n      revert\n        /* \"#utility.yul\":5774:6055   */\n    tag_153:\n        /* \"#utility.yul\":5857:5884   */\n      tag_259\n        /* \"#utility.yul\":5879:5883   */\n      dup3\n        /* \"#utility.yul\":5857:5884   */\n      tag_144\n      jump\t// in\n    tag_259:\n        /* \"#utility.yul\":5849:5855   */\n      dup2\n        /* \"#utility.yul\":5845:5885   */\n      add\n        /* \"#utility.yul\":5987:5993   */\n      dup2\n        /* \"#utility.yul\":5975:5985   */\n      dup2\n        /* \"#utility.yul\":5972:5994   */\n      lt\n        /* \"#utility.yul\":5951:5969   */\n      0xffffffffffffffff\n        /* \"#utility.yul\":5939:5949   */\n      dup3\n        /* \"#utility.yul\":5936:5970   */\n      gt\n        /* \"#utility.yul\":5933:5995   */\n      or\n        /* \"#utility.yul\":5930:6018   */\n      iszero\n      tag_260\n      jumpi\n        /* \"#utility.yul\":5998:6016   */\n      tag_261\n      tag_111\n      jump\t// in\n    tag_261:\n        /* \"#utility.yul\":5930:6018   */\n    tag_260:\n        /* \"#utility.yul\":6038:6048   */\n      dup1\n        /* \"#utility.yul\":6034:6036   */\n      0x40\n        /* \"#utility.yul\":6027:6049   */\n      mstore\n        /* \"#utility.yul\":5817:6055   */\n      pop\n        /* \"#utility.yul\":5774:6055   */\n      pop\n      pop\n      jump\t// out\n        /* \"#utility.yul\":6061:6190   */\n    tag_154:\n        /* \"#utility.yul\":6095:6101   */\n      0x00\n        /* \"#utility.yul\":6122:6142   */\n      tag_263\n      tag_129\n      jump\t// in\n    tag_263:\n        /* \"#utility.yul\":6112:6142   */\n      swap1\n      pop\n        /* \"#utility.yul\":6151:6184   */\n      tag_264\n        /* \"#utility.yul\":6179:6183   */\n      dup3\n        /* \"#utility.yul\":6171:6177   */\n      dup3\n        /* \"#utility.yul\":6151:6184   */\n      tag_153\n      jump\t// in\n    tag_264:\n        /* \"#utility.yul\":6061:6190   */\n      swap2\n      swap1\n      pop\n      jump\t// out\n        /* \"#utility.yul\":6196:6504   */\n    tag_155:\n        /* \"#utility.yul\":6258:6262   */\n      0x00\n        /* \"#utility.yul\":6348:6366   */\n      0xffffffffffffffff\n        /* \"#utility.yul\":6340:6346   */\n      dup3\n        /* \"#utility.yul\":6337:6367   */\n      gt\n        /* \"#utility.yul\":6334:6390   */\n      iszero\n      tag_266\n      jumpi\n        /* \"#utility.yul\":6370:6388   */\n      tag_267\n      tag_111\n      jump\t// in\n    tag_267:\n        /* \"#utility.yul\":6334:6390   */\n    tag_266:\n        /* \"#utility.yul\":6408:6437   */\n      tag_268\n        /* \"#utility.yul\":6430:6436   */\n      dup3\n        /* \"#utility.yul\":6408:6437   */\n      tag_144\n      jump\t// in\n    tag_268:\n        /* \"#utility.yul\":6400:6437   */\n      swap1\n      pop\n        /* \"#utility.yul\":6492:6496   */\n      0x20\n        /* \"#utility.yul\":6486:6490   */\n      dup2\n        /* \"#utility.yul\":6482:6497   */\n      add\n        /* \"#utility.yul\":6474:6497   */\n      swap1\n      pop\n        /* \"#utility.yul\":6196:6504   */\n      swap2\n      swap1\n      pop\n      jump\t// out\n        /* \"#utility.yul\":6510:6658   */\n    tag_156:\n        /* \"#utility.yul\":6608:6614   */\n      dup3\n        /* \"#utility.yul\":6603:6606   */\n      dup2\n        /* \"#utility.yul\":6598:6601   */\n      dup4\n        /* \"#utility.yul\":6585:6615   */\n      calldatacopy\n        /* \"#utility.yul\":6649:6650   */\n      0x00\n        /* \"#utility.yul\":6640:6646   */\n      dup4\n        /* \"#utility.yul\":6635:6638   */\n      dup4\n        /* \"#utility.yul\":6631:6647   */\n      add\n        /* \"#utility.yul\":6624:6651   */\n      mstore\n        /* \"#utility.yul\":6510:6658   */\n      pop\n      pop\n      pop\n      jump\t// out\n        /* \"#utility.yul\":6664:7089   */\n    tag_157:\n        /* \"#utility.yul\":6742:6747   */\n      0x00\n        /* \"#utility.yul\":6767:6833   */\n      tag_271\n        /* \"#utility.yul\":6783:6832   */\n      tag_272\n        /* \"#utility.yul\":6825:6831   */\n      dup5\n        /* \"#utility.yul\":6783:6832   */\n      tag_155\n      jump\t// in\n    tag_272:\n        /* \"#utility.yul\":6767:6833   */\n      tag_154\n      jump\t// in\n    tag_271:\n        /* \"#utility.yul\":6758:6833   */\n      swap1\n      pop\n        /* \"#utility.yul\":6856:6862   */\n      dup3\n        /* \"#utility.yul\":6849:6854   */\n      dup2\n        /* \"#utility.yul\":6842:6863   */\n      mstore\n        /* \"#utility.yul\":6894:6898   */\n      0x20\n        /* \"#utility.yul\":6887:6892   */\n      dup2\n        /* \"#utility.yul\":6883:6899   */\n      add\n        /* \"#utility.yul\":6932:6935   */\n      dup5\n        /* \"#utility.yul\":6923:6929   */\n      dup5\n        /* \"#utility.yul\":6918:6921   */\n      dup5\n        /* \"#utility.yul\":6914:6930   */\n      add\n        /* \"#utility.yul\":6911:6936   */\n      gt\n        /* \"#utility.yul\":6908:7020   */\n      iszero\n      tag_273\n      jumpi\n        /* \"#utility.yul\":6939:7018   */\n      tag_274\n      tag_152\n      jump\t// in\n    tag_274:\n        /* \"#utility.yul\":6908:7020   */\n    tag_273:\n        /* \"#utility.yul\":7029:7083   */\n      tag_275\n        /* \"#utility.yul\":7076:7082   */\n      dup5\n        /* \"#utility.yul\":7071:7074   */\n      dup3\n        /* \"#utility.yul\":7066:7069   */\n      dup6\n        /* \"#utility.yul\":7029:7083   */\n      tag_156\n      jump\t// in\n    tag_275:\n        /* \"#utility.yul\":6748:7089   */\n      pop\n        /* \"#utility.yul\":6664:7089   */\n      swap4\n      swap3\n      pop\n      pop\n      pop\n      jump\t// out\n        /* \"#utility.yul\":7109:7449   */\n    tag_158:\n        /* \"#utility.yul\":7165:7170   */\n      0x00\n        /* \"#utility.yul\":7214:7217   */\n      dup3\n        /* \"#utility.yul\":7207:7211   */\n      0x1f\n        /* \"#utility.yul\":7199:7205   */\n      dup4\n        /* \"#utility.yul\":7195:7212   */\n      add\n        /* \"#utility.yul\":7191:7218   */\n      slt\n        /* \"#utility.yul\":7181:7303   */\n      tag_277\n      jumpi\n        /* \"#utility.yul\":7222:7301   */\n      tag_278\n      tag_151\n      jump\t// in\n    tag_278:\n        /* \"#utility.yul\":7181:7303   */\n    tag_277:\n        /* \"#utility.yul\":7339:7345   */\n      dup2\n        /* \"#utility.yul\":7326:7346   */\n      calldataload\n        /* \"#utility.yul\":7364:7443   */\n      tag_279\n        /* \"#utility.yul\":7439:7442   */\n      dup5\n        /* \"#utility.yul\":7431:7437   */\n      dup3\n        /* \"#utility.yul\":7424:7428   */\n      0x20\n        /* \"#utility.yul\":7416:7422   */\n      dup7\n        /* \"#utility.yul\":7412:7429   */\n      add\n        /* \"#utility.yul\":7364:7443   */\n      tag_157\n      jump\t// in\n    tag_279:\n        /* \"#utility.yul\":7355:7443   */\n      swap2\n      pop\n        /* \"#utility.yul\":7171:7449   */\n      pop\n        /* \"#utility.yul\":7109:7449   */\n      swap3\n      swap2\n      pop\n      pop\n      jump\t// out\n        /* \"#utility.yul\":7455:7964   */\n    tag_37:\n        /* \"#utility.yul\":7524:7530   */\n      0x00\n        /* \"#utility.yul\":7573:7575   */\n      0x20\n        /* \"#utility.yul\":7561:7570   */\n      dup3\n        /* \"#utility.yul\":7552:7559   */\n      dup5\n        /* \"#utility.yul\":7548:7571   */\n      sub\n        /* \"#utility.yul\":7544:7576   */\n      slt\n        /* \"#utility.yul\":7541:7660   */\n      iszero\n      tag_281\n      jumpi\n        /* \"#utility.yul\":7579:7658   */\n      tag_282\n      tag_130\n      jump\t// in\n    tag_282:\n        /* \"#utility.yul\":7541:7660   */\n    tag_281:\n        /* \"#utility.yul\":7727:7728   */\n      0x00\n        /* \"#utility.yul\":7716:7725   */\n      dup3\n        /* \"#utility.yul\":7712:7729   */\n      add\n        /* \"#utility.yul\":7699:7730   */\n      calldataload\n        /* \"#utility.yul\":7757:7775   */\n      0xffffffffffffffff\n        /* \"#utility.yul\":7749:7755   */\n      dup2\n        /* \"#utility.yul\":7746:7776   */\n      gt\n        /* \"#utility.yul\":7743:7860   */\n      iszero\n      tag_283\n      jumpi\n        /* \"#utility.yul\":7779:7858   */\n      tag_284\n      tag_131\n      jump\t// in\n    tag_284:\n        /* \"#utility.yul\":7743:7860   */\n    tag_283:\n        /* \"#utility.yul\":7884:7947   */\n      tag_285\n        /* \"#utility.yul\":7939:7946   */\n      dup5\n        /* \"#utility.yul\":7930:7936   */\n      dup3\n        /* \"#utility.yul\":7919:7928   */\n      dup6\n        /* \"#utility.yul\":7915:7937   */\n      add\n        /* \"#utility.yul\":7884:7947   */\n      tag_158\n      jump\t// in\n    tag_285:\n        /* \"#utility.yul\":7874:7947   */\n      swap2\n      pop\n        /* \"#utility.yul\":7670:7957   */\n      pop\n        /* \"#utility.yul\":7455:7964   */\n      swap3\n      swap2\n      pop\n      pop\n      jump\t// out\n        /* \"#utility.yul\":7970:8192   */\n    tag_42:\n        /* \"#utility.yul\":8063:8067   */\n      0x00\n        /* \"#utility.yul\":8101:8103   */\n      0x20\n        /* \"#utility.yul\":8090:8099   */\n      dup3\n        /* \"#utility.yul\":8086:8104   */\n      add\n        /* \"#utility.yul\":8078:8104   */\n      swap1\n      pop\n        /* \"#utility.yul\":8114:8185   */\n      tag_287\n        /* \"#utility.yul\":8182:8183   */\n      0x00\n        /* \"#utility.yul\":8171:8180   */\n      dup4\n        /* \"#utility.yul\":8167:8184   */\n      add\n        /* \"#utility.yul\":8158:8164   */\n      dup5\n        /* \"#utility.yul\":8114:8185   */\n      tag_140\n      jump\t// in\n    tag_287:\n        /* \"#utility.yul\":7970:8192   */\n      swap3\n      swap2\n      pop\n      pop\n      jump\t// out\n        /* \"#utility.yul\":8198:8527   */\n    tag_45:\n        /* \"#utility.yul\":8257:8263   */\n      0x00\n        /* \"#utility.yul\":8306:8308   */\n      0x20\n        /* \"#utility.yul\":8294:8303   */\n      dup3\n        /* \"#utility.yul\":8285:8292   */\n      dup5\n        /* \"#utility.yul\":8281:8304   */\n      sub\n        /* \"#utility.yul\":8277:8309   */\n      slt\n        /* \"#utility.yul\":8274:8393   */\n      iszero\n      tag_289\n      jumpi\n        /* \"#utility.yul\":8312:8391   */\n      tag_290\n      tag_130\n      jump\t// in\n    tag_290:\n        /* \"#utility.yul\":8274:8393   */\n    tag_289:\n        /* \"#utility.yul\":8432:8433   */\n      0x00\n        /* \"#utility.yul\":8457:8510   */\n      tag_291\n        /* \"#utility.yul\":8502:8509   */\n      dup5\n        /* \"#utility.yul\":8493:8499   */\n      dup3\n        /* \"#utility.yul\":8482:8491   */\n      dup6\n        /* \"#utility.yul\":8478:8500   */\n      add\n        /* \"#utility.yul\":8457:8510   */\n      tag_135\n      jump\t// in\n    tag_291:\n        /* \"#utility.yul\":8447:8510   */\n      swap2\n      pop\n        /* \"#utility.yul\":8403:8520   */\n      pop\n        /* \"#utility.yul\":8198:8527   */\n      swap3\n      swap2\n      pop\n      pop\n      jump\t// out\n        /* \"#utility.yul\":8533:8672   */\n    tag_159:\n        /* \"#utility.yul\":8625:8631   */\n      0x00\n        /* \"#utility.yul\":8659:8664   */\n      dup2\n        /* \"#utility.yul\":8653:8665   */\n      mload\n        /* \"#utility.yul\":8643:8665   */\n      swap1\n      pop\n        /* \"#utility.yul\":8533:8672   */\n      swap2\n      swap1\n      pop\n      jump\t// out\n        /* \"#utility.yul\":8678:8887   */\n    tag_160:\n        /* \"#utility.yul\":8802:8813   */\n      0x00\n        /* \"#utility.yul\":8836:8842   */\n      dup3\n        /* \"#utility.yul\":8831:8834   */\n      dup3\n        /* \"#utility.yul\":8824:8843   */\n      mstore\n        /* \"#utility.yul\":8876:8880   */\n      0x20\n        /* \"#utility.yul\":8871:8874   */\n      dup3\n        /* \"#utility.yul\":8867:8881   */\n      add\n        /* \"#utility.yul\":8852:8881   */\n      swap1\n      pop\n        /* \"#utility.yul\":8678:8887   */\n      swap3\n      swap2\n      pop\n      pop\n      jump\t// out\n        /* \"#utility.yul\":8893:9050   */\n    tag_161:\n        /* \"#utility.yul\":8985:8989   */\n      0x00\n        /* \"#utility.yul\":9008:9011   */\n      dup2\n        /* \"#utility.yul\":9000:9011   */\n      swap1\n      pop\n        /* \"#utility.yul\":9038:9042   */\n      0x20\n        /* \"#utility.yul\":9033:9036   */\n      dup3\n        /* \"#utility.yul\":9029:9043   */\n      add\n        /* \"#utility.yul\":9021:9043   */\n      swap1\n      pop\n        /* \"#utility.yul\":8893:9050   */\n      swap2\n      swap1\n      pop\n      jump\t// out\n        /* \"#utility.yul\":9056:9164   */\n    tag_162:\n        /* \"#utility.yul\":9133:9157   */\n      tag_296\n        /* \"#utility.yul\":9151:9156   */\n      dup2\n        /* \"#utility.yul\":9133:9157   */\n      tag_136\n      jump\t// in\n    tag_296:\n        /* \"#utility.yul\":9128:9131   */\n      dup3\n        /* \"#utility.yul\":9121:9158   */\n      mstore\n        /* \"#utility.yul\":9056:9164   */\n      pop\n      pop\n      jump\t// out\n        /* \"#utility.yul\":9170:9278   */\n    tag_163:\n        /* \"#utility.yul\":9247:9271   */\n      tag_298\n        /* \"#utility.yul\":9265:9270   */\n      dup2\n        /* \"#utility.yul\":9247:9271   */\n      tag_133\n      jump\t// in\n    tag_298:\n        /* \"#utility.yul\":9242:9245   */\n      dup3\n        /* \"#utility.yul\":9235:9272   */\n      mstore\n        /* \"#utility.yul\":9170:9278   */\n      pop\n      pop\n      jump\t// out\n        /* \"#utility.yul\":9284:9443   */\n    tag_164:\n        /* \"#utility.yul\":9358:9369   */\n      0x00\n        /* \"#utility.yul\":9392:9398   */\n      dup3\n        /* \"#utility.yul\":9387:9390   */\n      dup3\n        /* \"#utility.yul\":9380:9399   */\n      mstore\n        /* \"#utility.yul\":9432:9436   */\n      0x20\n        /* \"#utility.yul\":9427:9430   */\n      dup3\n        /* \"#utility.yul\":9423:9437   */\n      add\n        /* \"#utility.yul\":9408:9437   */\n      swap1\n      pop\n        /* \"#utility.yul\":9284:9443   */\n      swap3\n      swap2\n      pop\n      pop\n      jump\t// out\n        /* \"#utility.yul\":9449:9806   */\n    tag_165:\n        /* \"#utility.yul\":9527:9530   */\n      0x00\n        /* \"#utility.yul\":9555:9594   */\n      tag_301\n        /* \"#utility.yul\":9588:9593   */\n      dup3\n        /* \"#utility.yul\":9555:9594   */\n      tag_141\n      jump\t// in\n    tag_301:\n        /* \"#utility.yul\":9610:9671   */\n      tag_302\n        /* \"#utility.yul\":9664:9670   */\n      dup2\n        /* \"#utility.yul\":9659:9662   */\n      dup6\n        /* \"#utility.yul\":9610:9671   */\n      tag_164\n      jump\t// in\n    tag_302:\n        /* \"#utility.yul\":9603:9671   */\n      swap4\n      pop\n        /* \"#utility.yul\":9680:9745   */\n      tag_303\n        /* \"#utility.yul\":9738:9744   */\n      dup2\n        /* \"#utility.yul\":9733:9736   */\n      dup6\n        /* \"#utility.yul\":9726:9730   */\n      0x20\n        /* \"#utility.yul\":9719:9724   */\n      dup7\n        /* \"#utility.yul\":9715:9731   */\n      add\n        /* \"#utility.yul\":9680:9745   */\n      tag_143\n      jump\t// in\n    tag_303:\n        /* \"#utility.yul\":9770:9799   */\n      tag_304\n        /* \"#utility.yul\":9792:9798   */\n      dup2\n        /* \"#utility.yul\":9770:9799   */\n      tag_144\n      jump\t// in\n    tag_304:\n        /* \"#utility.yul\":9765:9768   */\n      dup5\n        /* \"#utility.yul\":9761:9800   */\n      add\n        /* \"#utility.yul\":9754:9800   */\n      swap2\n      pop\n        /* \"#utility.yul\":9531:9806   */\n      pop\n        /* \"#utility.yul\":9449:9806   */\n      swap3\n      swap2\n      pop\n      pop\n      jump\t// out\n        /* \"#utility.yul\":9872:11003   */\n    tag_166:\n        /* \"#utility.yul\":9981:9984   */\n      0x00\n        /* \"#utility.yul\":10017:10021   */\n      0xa0\n        /* \"#utility.yul\":10012:10015   */\n      dup4\n        /* \"#utility.yul\":10008:10022   */\n      add\n        /* \"#utility.yul\":10102:10106   */\n      0x00\n        /* \"#utility.yul\":10095:10100   */\n      dup4\n        /* \"#utility.yul\":10091:10107   */\n      add\n        /* \"#utility.yul\":10085:10108   */\n      mload\n        /* \"#utility.yul\":10121:10184   */\n      tag_306\n        /* \"#utility.yul\":10178:10182   */\n      0x00\n        /* \"#utility.yul\":10173:10176   */\n      dup7\n        /* \"#utility.yul\":10169:10183   */\n      add\n        /* \"#utility.yul\":10155:10167   */\n      dup3\n        /* \"#utility.yul\":10121:10184   */\n      tag_162\n      jump\t// in\n    tag_306:\n        /* \"#utility.yul\":10032:10194   */\n      pop\n        /* \"#utility.yul\":10278:10282   */\n      0x20\n        /* \"#utility.yul\":10271:10276   */\n      dup4\n        /* \"#utility.yul\":10267:10283   */\n      add\n        /* \"#utility.yul\":10261:10284   */\n      mload\n        /* \"#utility.yul\":10297:10360   */\n      tag_307\n        /* \"#utility.yul\":10354:10358   */\n      0x20\n        /* \"#utility.yul\":10349:10352   */\n      dup7\n        /* \"#utility.yul\":10345:10359   */\n      add\n        /* \"#utility.yul\":10331:10343   */\n      dup3\n        /* \"#utility.yul\":10297:10360   */\n      tag_163\n      jump\t// in\n    tag_307:\n        /* \"#utility.yul\":10204:10370   */\n      pop\n        /* \"#utility.yul\":10455:10459   */\n      0x40\n        /* \"#utility.yul\":10448:10453   */\n      dup4\n        /* \"#utility.yul\":10444:10460   */\n      add\n        /* \"#utility.yul\":10438:10461   */\n      mload\n        /* \"#utility.yul\":10508:10511   */\n      dup5\n        /* \"#utility.yul\":10502:10506   */\n      dup3\n        /* \"#utility.yul\":10498:10512   */\n      sub\n        /* \"#utility.yul\":10491:10495   */\n      0x40\n        /* \"#utility.yul\":10486:10489   */\n      dup7\n        /* \"#utility.yul\":10482:10496   */\n      add\n        /* \"#utility.yul\":10475:10513   */\n      mstore\n        /* \"#utility.yul\":10534:10607   */\n      tag_308\n        /* \"#utility.yul\":10602:10606   */\n      dup3\n        /* \"#utility.yul\":10588:10600   */\n      dup3\n        /* \"#utility.yul\":10534:10607   */\n      tag_165\n      jump\t// in\n    tag_308:\n        /* \"#utility.yul\":10526:10607   */\n      swap2\n      pop\n        /* \"#utility.yul\":10380:10618   */\n      pop\n        /* \"#utility.yul\":10705:10709   */\n      0x60\n        /* \"#utility.yul\":10698:10703   */\n      dup4\n        /* \"#utility.yul\":10694:10710   */\n      add\n        /* \"#utility.yul\":10688:10711   */\n      mload\n        /* \"#utility.yul\":10724:10787   */\n      tag_309\n        /* \"#utility.yul\":10781:10785   */\n      0x60\n        /* \"#utility.yul\":10776:10779   */\n      dup7\n        /* \"#utility.yul\":10772:10786   */\n      add\n        /* \"#utility.yul\":10758:10770   */\n      dup3\n        /* \"#utility.yul\":10724:10787   */\n      tag_162\n      jump\t// in\n    tag_309:\n        /* \"#utility.yul\":10628:10797   */\n      pop\n        /* \"#utility.yul\":10884:10888   */\n      0x80\n        /* \"#utility.yul\":10877:10882   */\n      dup4\n        /* \"#utility.yul\":10873:10889   */\n      add\n        /* \"#utility.yul\":10867:10890   */\n      mload\n        /* \"#utility.yul\":10903:10966   */\n      tag_310\n        /* \"#utility.yul\":10960:10964   */\n      0x80\n        /* \"#utility.yul\":10955:10958   */\n      dup7\n        /* \"#utility.yul\":10951:10965   */\n      add\n        /* \"#utility.yul\":10937:10949   */\n      dup3\n        /* \"#utility.yul\":10903:10966   */\n      tag_162\n      jump\t// in\n    tag_310:\n        /* \"#utility.yul\":10807:10976   */\n      pop\n        /* \"#utility.yul\":10993:10997   */\n      dup1\n        /* \"#utility.yul\":10986:10997   */\n      swap2\n      pop\n        /* \"#utility.yul\":9986:11003   */\n      pop\n        /* \"#utility.yul\":9872:11003   */\n      swap3\n      swap2\n      pop\n      pop\n      jump\t// out\n        /* \"#utility.yul\":11009:11265   */\n    tag_167:\n        /* \"#utility.yul\":11128:11138   */\n      0x00\n        /* \"#utility.yul\":11163:11259   */\n      tag_312\n        /* \"#utility.yul\":11255:11258   */\n      dup4\n        /* \"#utility.yul\":11247:11253   */\n      dup4\n        /* \"#utility.yul\":11163:11259   */\n      tag_166\n      jump\t// in\n    tag_312:\n        /* \"#utility.yul\":11149:11259   */\n      swap1\n      pop\n        /* \"#utility.yul\":11009:11265   */\n      swap3\n      swap2\n      pop\n      pop\n      jump\t// out\n        /* \"#utility.yul\":11271:11409   */\n    tag_168:\n        /* \"#utility.yul\":11366:11370   */\n      0x00\n        /* \"#utility.yul\":11398:11402   */\n      0x20\n        /* \"#utility.yul\":11393:11396   */\n      dup3\n        /* \"#utility.yul\":11389:11403   */\n      add\n        /* \"#utility.yul\":11381:11403   */\n      swap1\n      pop\n        /* \"#utility.yul\":11271:11409   */\n      swap2\n      swap1\n      pop\n      jump\t// out\n        /* \"#utility.yul\":11479:12590   */\n    tag_169:\n        /* \"#utility.yul\":11648:11651   */\n      0x00\n        /* \"#utility.yul\":11677:11756   */\n      tag_315\n        /* \"#utility.yul\":11750:11755   */\n      dup3\n        /* \"#utility.yul\":11677:11756   */\n      tag_159\n      jump\t// in\n    tag_315:\n        /* \"#utility.yul\":11772:11883   */\n      tag_316\n        /* \"#utility.yul\":11876:11882   */\n      dup2\n        /* \"#utility.yul\":11871:11874   */\n      dup6\n        /* \"#utility.yul\":11772:11883   */\n      tag_160\n      jump\t// in\n    tag_316:\n        /* \"#utility.yul\":11765:11883   */\n      swap4\n      pop\n        /* \"#utility.yul\":11909:11912   */\n      dup4\n        /* \"#utility.yul\":11954:11958   */\n      0x20\n        /* \"#utility.yul\":11946:11952   */\n      dup3\n        /* \"#utility.yul\":11942:11959   */\n      mul\n        /* \"#utility.yul\":11937:11940   */\n      dup6\n        /* \"#utility.yul\":11933:11960   */\n      add\n        /* \"#utility.yul\":11984:12065   */\n      tag_317\n        /* \"#utility.yul\":12059:12064   */\n      dup6\n        /* \"#utility.yul\":11984:12065   */\n      tag_161\n      jump\t// in\n    tag_317:\n        /* \"#utility.yul\":12088:12095   */\n      dup1\n        /* \"#utility.yul\":12119:12120   */\n      0x00\n        /* \"#utility.yul\":12104:12545   */\n    tag_318:\n        /* \"#utility.yul\":12129:12135   */\n      dup6\n        /* \"#utility.yul\":12126:12127   */\n      dup2\n        /* \"#utility.yul\":12123:12136   */\n      lt\n        /* \"#utility.yul\":12104:12545   */\n      iszero\n      tag_320\n      jumpi\n        /* \"#utility.yul\":12200:12209   */\n      dup5\n        /* \"#utility.yul\":12194:12198   */\n      dup5\n        /* \"#utility.yul\":12190:12210   */\n      sub\n        /* \"#utility.yul\":12185:12188   */\n      dup10\n        /* \"#utility.yul\":12178:12211   */\n      mstore\n        /* \"#utility.yul\":12251:12257   */\n      dup2\n        /* \"#utility.yul\":12245:12258   */\n      mload\n        /* \"#utility.yul\":12279:12393   */\n      tag_321\n        /* \"#utility.yul\":12388:12392   */\n      dup6\n        /* \"#utility.yul\":12373:12386   */\n      dup3\n        /* \"#utility.yul\":12279:12393   */\n      tag_167\n      jump\t// in\n    tag_321:\n        /* \"#utility.yul\":12271:12393   */\n      swap5\n      pop\n        /* \"#utility.yul\":12416:12501   */\n      tag_322\n        /* \"#utility.yul\":12494:12500   */\n      dup4\n        /* \"#utility.yul\":12416:12501   */\n      tag_168\n      jump\t// in\n    tag_322:\n        /* \"#utility.yul\":12406:12501   */\n      swap3\n      pop\n        /* \"#utility.yul\":12530:12534   */\n      0x20\n        /* \"#utility.yul\":12525:12528   */\n      dup11\n        /* \"#utility.yul\":12521:12535   */\n      add\n        /* \"#utility.yul\":12514:12535   */\n      swap10\n      pop\n        /* \"#utility.yul\":12164:12545   */\n      pop\n        /* \"#utility.yul\":12151:12152   */\n      0x01\n        /* \"#utility.yul\":12148:12149   */\n      dup2\n        /* \"#utility.yul\":12144:12153   */\n      add\n        /* \"#utility.yul\":12139:12153   */\n      swap1\n      pop\n        /* \"#utility.yul\":12104:12545   */\n      jump(tag_318)\n    tag_320:\n        /* \"#utility.yul\":12108:12122   */\n      pop\n        /* \"#utility.yul\":12561:12565   */\n      dup3\n        /* \"#utility.yul\":12554:12565   */\n      swap8\n      pop\n        /* \"#utility.yul\":12581:12584   */\n      dup8\n        /* \"#utility.yul\":12574:12584   */\n      swap6\n      pop\n        /* \"#utility.yul\":11653:12590   */\n      pop\n      pop\n      pop\n      pop\n      pop\n        /* \"#utility.yul\":11479:12590   */\n      swap3\n      swap2\n      pop\n      pop\n      jump\t// out\n        /* \"#utility.yul\":12596:13069   */\n    tag_48:\n        /* \"#utility.yul\":12789:12793   */\n      0x00\n        /* \"#utility.yul\":12827:12829   */\n      0x20\n        /* \"#utility.yul\":12816:12825   */\n      dup3\n        /* \"#utility.yul\":12812:12830   */\n      add\n        /* \"#utility.yul\":12804:12830   */\n      swap1\n      pop\n        /* \"#utility.yul\":12876:12885   */\n      dup2\n        /* \"#utility.yul\":12870:12874   */\n      dup2\n        /* \"#utility.yul\":12866:12886   */\n      sub\n        /* \"#utility.yul\":12862:12863   */\n      0x00\n        /* \"#utility.yul\":12851:12860   */\n      dup4\n        /* \"#utility.yul\":12847:12864   */\n      add\n        /* \"#utility.yul\":12840:12887   */\n      mstore\n        /* \"#utility.yul\":12904:13062   */\n      tag_324\n        /* \"#utility.yul\":13057:13061   */\n      dup2\n        /* \"#utility.yul\":13048:13054   */\n      dup5\n        /* \"#utility.yul\":12904:13062   */\n      tag_169\n      jump\t// in\n    tag_324:\n        /* \"#utility.yul\":12896:13062   */\n      swap1\n      pop\n        /* \"#utility.yul\":12596:13069   */\n      swap3\n      swap2\n      pop\n      pop\n      jump\t// out\n        /* \"#utility.yul\":13075:13255   */\n    tag_170:\n        /* \"#utility.yul\":13123:13200   */\n      0x4e487b7100000000000000000000000000000000000000000000000000000000\n        /* \"#utility.yul\":13120:13121   */\n      0x00\n        /* \"#utility.yul\":13113:13201   */\n      mstore\n        /* \"#utility.yul\":13220:13224   */\n      0x22\n        /* \"#utility.yul\":13217:13218   */\n      0x04\n        /* \"#utility.yul\":13210:13225   */\n      mstore\n        /* \"#utility.yul\":13244:13248   */\n      0x24\n        /* \"#utility.yul\":13241:13242   */\n      0x00\n        /* \"#utility.yul\":13234:13249   */\n      revert\n        /* \"#utility.yul\":13261:13581   */\n    tag_52:\n        /* \"#utility.yul\":13305:13311   */\n      0x00\n        /* \"#utility.yul\":13342:13343   */\n      0x02\n        /* \"#utility.yul\":13336:13340   */\n      dup3\n        /* \"#utility.yul\":13332:13344   */\n      div\n        /* \"#utility.yul\":13322:13344   */\n      swap1\n      pop\n        /* \"#utility.yul\":13389:13390   */\n      0x01\n        /* \"#utility.yul\":13383:13387   */\n      dup3\n        /* \"#utility.yul\":13379:13391   */\n      and\n        /* \"#utility.yul\":13410:13428   */\n      dup1\n        /* \"#utility.yul\":13400:13481   */\n      tag_327\n      jumpi\n        /* \"#utility.yul\":13466:13470   */\n      0x7f\n        /* \"#utility.yul\":13458:13464   */\n      dup3\n        /* \"#utility.yul\":13454:13471   */\n      and\n        /* \"#utility.yul\":13444:13471   */\n      swap2\n      pop\n        /* \"#utility.yul\":13400:13481   */\n    tag_327:\n        /* \"#utility.yul\":13528:13530   */\n      0x20\n        /* \"#utility.yul\":13520:13526   */\n      dup3\n        /* \"#utility.yul\":13517:13531   */\n      lt\n        /* \"#utility.yul\":13497:13515   */\n      dup2\n        /* \"#utility.yul\":13494:13532   */\n      sub\n        /* \"#utility.yul\":13491:13575   */\n      tag_328\n      jumpi\n        /* \"#utility.yul\":13547:13565   */\n      tag_329\n      tag_170\n      jump\t// in\n    tag_329:\n        /* \"#utility.yul\":13491:13575   */\n    tag_328:\n        /* \"#utility.yul\":13312:13581   */\n      pop\n        /* \"#utility.yul\":13261:13581   */\n      swap2\n      swap1\n      pop\n      jump\t// out\n        /* \"#utility.yul\":13587:13767   */\n    tag_60:\n        /* \"#utility.yul\":13635:13712   */\n      0x4e487b7100000000000000000000000000000000000000000000000000000000\n        /* \"#utility.yul\":13632:13633   */\n      0x00\n        /* \"#utility.yul\":13625:13713   */\n      mstore\n        /* \"#utility.yul\":13732:13736   */\n      0x32\n        /* \"#utility.yul\":13729:13730   */\n      0x04\n        /* \"#utility.yul\":13722:13737   */\n      mstore\n        /* \"#utility.yul\":13756:13760   */\n      0x24\n        /* \"#utility.yul\":13753:13754   */\n      0x00\n        /* \"#utility.yul\":13746:13761   */\n      revert\n        /* \"#utility.yul\":13773:13944   */\n    tag_171:\n        /* \"#utility.yul\":13913:13936   */\n      0x596f7520617265206e6f7420746865206f776e65720000000000000000000000\n        /* \"#utility.yul\":13909:13910   */\n      0x00\n        /* \"#utility.yul\":13901:13907   */\n      dup3\n        /* \"#utility.yul\":13897:13911   */\n      add\n        /* \"#utility.yul\":13890:13937   */\n      mstore\n        /* \"#utility.yul\":13773:13944   */\n      pop\n      jump\t// out\n        /* \"#utility.yul\":13950:14316   */\n    tag_172:\n        /* \"#utility.yul\":14092:14095   */\n      0x00\n        /* \"#utility.yul\":14113:14180   */\n      tag_333\n        /* \"#utility.yul\":14177:14179   */\n      0x15\n        /* \"#utility.yul\":14172:14175   */\n      dup4\n        /* \"#utility.yul\":14113:14180   */\n      tag_142\n      jump\t// in\n    tag_333:\n        /* \"#utility.yul\":14106:14180   */\n      swap2\n      pop\n        /* \"#utility.yul\":14189:14282   */\n      tag_334\n        /* \"#utility.yul\":14278:14281   */\n      dup3\n        /* \"#utility.yul\":14189:14282   */\n      tag_171\n      jump\t// in\n    tag_334:\n        /* \"#utility.yul\":14307:14309   */\n      0x20\n        /* \"#utility.yul\":14302:14305   */\n      dup3\n        /* \"#utility.yul\":14298:14310   */\n      add\n        /* \"#utility.yul\":14291:14310   */\n      swap1\n      pop\n        /* \"#utility.yul\":13950:14316   */\n      swap2\n      swap1\n      pop\n      jump\t// out\n        /* \"#utility.yul\":14322:14741   */\n    tag_70:\n        /* \"#utility.yul\":14488:14492   */\n      0x00\n        /* \"#utility.yul\":14526:14528   */\n      0x20\n        /* \"#utility.yul\":14515:14524   */\n      dup3\n        /* \"#utility.yul\":14511:14529   */\n      add\n        /* \"#utility.yul\":14503:14529   */\n      swap1\n      pop\n        /* \"#utility.yul\":14575:14584   */\n      dup2\n        /* \"#utility.yul\":14569:14573   */\n      dup2\n        /* \"#utility.yul\":14565:14585   */\n      sub\n        /* \"#utility.yul\":14561:14562   */\n      0x00\n        /* \"#utility.yul\":14550:14559   */\n      dup4\n        /* \"#utility.yul\":14546:14563   */\n      add\n        /* \"#utility.yul\":14539:14586   */\n      mstore\n        /* \"#utility.yul\":14603:14734   */\n      tag_336\n        /* \"#utility.yul\":14729:14733   */\n      dup2\n        /* \"#utility.yul\":14603:14734   */\n      tag_172\n      jump\t// in\n    tag_336:\n        /* \"#utility.yul\":14595:14734   */\n      swap1\n      pop\n        /* \"#utility.yul\":14322:14741   */\n      swap2\n      swap1\n      pop\n      jump\t// out\n        /* \"#utility.yul\":14747:14927   */\n    tag_173:\n        /* \"#utility.yul\":14795:14872   */\n      0x4e487b7100000000000000000000000000000000000000000000000000000000\n        /* \"#utility.yul\":14792:14793   */\n      0x00\n        /* \"#utility.yul\":14785:14873   */\n      mstore\n        /* \"#utility.yul\":14892:14896   */\n      0x11\n        /* \"#utility.yul\":14889:14890   */\n      0x04\n        /* \"#utility.yul\":14882:14897   */\n      mstore\n        /* \"#utility.yul\":14916:14920   */\n      0x24\n        /* \"#utility.yul\":14913:14914   */\n      0x00\n        /* \"#utility.yul\":14906:14921   */\n      revert\n        /* \"#utility.yul\":14933:15127   */\n    tag_83:\n        /* \"#utility.yul\":14973:14977   */\n      0x00\n        /* \"#utility.yul\":14993:15013   */\n      tag_339\n        /* \"#utility.yul\":15011:15012   */\n      dup3\n        /* \"#utility.yul\":14993:15013   */\n      tag_136\n      jump\t// in\n    tag_339:\n        /* \"#utility.yul\":14988:15013   */\n      swap2\n      pop\n        /* \"#utility.yul\":15027:15047   */\n      tag_340\n        /* \"#utility.yul\":15045:15046   */\n      dup4\n        /* \"#utility.yul\":15027:15047   */\n      tag_136\n      jump\t// in\n    tag_340:\n        /* \"#utility.yul\":15022:15047   */\n      swap3\n      pop\n        /* \"#utility.yul\":15071:15072   */\n      dup3\n        /* \"#utility.yul\":15068:15069   */\n      dup3\n        /* \"#utility.yul\":15064:15073   */\n      sub\n        /* \"#utility.yul\":15056:15073   */\n      swap1\n      pop\n        /* \"#utility.yul\":15095:15096   */\n      dup2\n        /* \"#utility.yul\":15089:15093   */\n      dup2\n        /* \"#utility.yul\":15086:15097   */\n      gt\n        /* \"#utility.yul\":15083:15120   */\n      iszero\n      tag_341\n      jumpi\n        /* \"#utility.yul\":15100:15118   */\n      tag_342\n      tag_173\n      jump\t// in\n    tag_342:\n        /* \"#utility.yul\":15083:15120   */\n    tag_341:\n        /* \"#utility.yul\":14933:15127   */\n      swap3\n      swap2\n      pop\n      pop\n      jump\t// out\n        /* \"#utility.yul\":15133:15324   */\n    tag_92:\n        /* \"#utility.yul\":15173:15176   */\n      0x00\n        /* \"#utility.yul\":15192:15212   */\n      tag_344\n        /* \"#utility.yul\":15210:15211   */\n      dup3\n        /* \"#utility.yul\":15192:15212   */\n      tag_136\n      jump\t// in\n    tag_344:\n        /* \"#utility.yul\":15187:15212   */\n      swap2\n      pop\n        /* \"#utility.yul\":15226:15246   */\n      tag_345\n        /* \"#utility.yul\":15244:15245   */\n      dup4\n        /* \"#utility.yul\":15226:15246   */\n      tag_136\n      jump\t// in\n    tag_345:\n        /* \"#utility.yul\":15221:15246   */\n      swap3\n      pop\n        /* \"#utility.yul\":15269:15270   */\n      dup3\n        /* \"#utility.yul\":15266:15267   */\n      dup3\n        /* \"#utility.yul\":15262:15271   */\n      add\n        /* \"#utility.yul\":15255:15271   */\n      swap1\n      pop\n        /* \"#utility.yul\":15290:15293   */\n      dup1\n        /* \"#utility.yul\":15287:15288   */\n      dup3\n        /* \"#utility.yul\":15284:15294   */\n      gt\n        /* \"#utility.yul\":15281:15317   */\n      iszero\n      tag_346\n      jumpi\n        /* \"#utility.yul\":15297:15315   */\n      tag_347\n      tag_173\n      jump\t// in\n    tag_347:\n        /* \"#utility.yul\":15281:15317   */\n    tag_346:\n        /* \"#utility.yul\":15133:15324   */\n      swap3\n      swap2\n      pop\n      pop\n      jump\t// out\n        /* \"#utility.yul\":15330:15662   */\n    tag_97:\n        /* \"#utility.yul\":15451:15455   */\n      0x00\n        /* \"#utility.yul\":15489:15491   */\n      0x40\n        /* \"#utility.yul\":15478:15487   */\n      dup3\n        /* \"#utility.yul\":15474:15492   */\n      add\n        /* \"#utility.yul\":15466:15492   */\n      swap1\n      pop\n        /* \"#utility.yul\":15502:15573   */\n      tag_349\n        /* \"#utility.yul\":15570:15571   */\n      0x00\n        /* \"#utility.yul\":15559:15568   */\n      dup4\n        /* \"#utility.yul\":15555:15572   */\n      add\n        /* \"#utility.yul\":15546:15552   */\n      dup6\n        /* \"#utility.yul\":15502:15573   */\n      tag_140\n      jump\t// in\n    tag_349:\n        /* \"#utility.yul\":15583:15655   */\n      tag_350\n        /* \"#utility.yul\":15651:15653   */\n      0x20\n        /* \"#utility.yul\":15640:15649   */\n      dup4\n        /* \"#utility.yul\":15636:15654   */\n      add\n        /* \"#utility.yul\":15627:15633   */\n      dup5\n        /* \"#utility.yul\":15583:15655   */\n      tag_139\n      jump\t// in\n    tag_350:\n        /* \"#utility.yul\":15330:15662   */\n      swap4\n      swap3\n      pop\n      pop\n      pop\n      jump\t// out\n        /* \"#utility.yul\":15668:15835   */\n    tag_174:\n        /* \"#utility.yul\":15808:15827   */\n      0x547765657420697320746f6f206c6f6e67000000000000000000000000000000\n        /* \"#utility.yul\":15804:15805   */\n      0x00\n        /* \"#utility.yul\":15796:15802   */\n      dup3\n        /* \"#utility.yul\":15792:15806   */\n      add\n        /* \"#utility.yul\":15785:15828   */\n      mstore\n        /* \"#utility.yul\":15668:15835   */\n      pop\n      jump\t// out\n        /* \"#utility.yul\":15841:16207   */\n    tag_175:\n        /* \"#utility.yul\":15983:15986   */\n      0x00\n        /* \"#utility.yul\":16004:16071   */\n      tag_353\n        /* \"#utility.yul\":16068:16070   */\n      0x11\n        /* \"#utility.yul\":16063:16066   */\n      dup4\n        /* \"#utility.yul\":16004:16071   */\n      tag_142\n      jump\t// in\n    tag_353:\n        /* \"#utility.yul\":15997:16071   */\n      swap2\n      pop\n        /* \"#utility.yul\":16080:16173   */\n      tag_354\n        /* \"#utility.yul\":16169:16172   */\n      dup3\n        /* \"#utility.yul\":16080:16173   */\n      tag_174\n      jump\t// in\n    tag_354:\n        /* \"#utility.yul\":16198:16200   */\n      0x20\n        /* \"#utility.yul\":16193:16196   */\n      dup3\n        /* \"#utility.yul\":16189:16201   */\n      add\n        /* \"#utility.yul\":16182:16201   */\n      swap1\n      pop\n        /* \"#utility.yul\":15841:16207   */\n      swap2\n      swap1\n      pop\n      jump\t// out\n        /* \"#utility.yul\":16213:16632   */\n    tag_101:\n        /* \"#utility.yul\":16379:16383   */\n      0x00\n        /* \"#utility.yul\":16417:16419   */\n      0x20\n        /* \"#utility.yul\":16406:16415   */\n      dup3\n        /* \"#utility.yul\":16402:16420   */\n      add\n        /* \"#utility.yul\":16394:16420   */\n      swap1\n      pop\n        /* \"#utility.yul\":16466:16475   */\n      dup2\n        /* \"#utility.yul\":16460:16464   */\n      dup2\n        /* \"#utility.yul\":16456:16476   */\n      sub\n        /* \"#utility.yul\":16452:16453   */\n      0x00\n        /* \"#utility.yul\":16441:16450   */\n      dup4\n        /* \"#utility.yul\":16437:16454   */\n      add\n        /* \"#utility.yul\":16430:16477   */\n      mstore\n        /* \"#utility.yul\":16494:16625   */\n      tag_356\n        /* \"#utility.yul\":16620:16624   */\n      dup2\n        /* \"#utility.yul\":16494:16625   */\n      tag_175\n      jump\t// in\n    tag_356:\n        /* \"#utility.yul\":16486:16625   */\n      swap1\n      pop\n        /* \"#utility.yul\":16213:16632   */\n      swap2\n      swap1\n      pop\n      jump\t// out\n        /* \"#utility.yul\":16638:16779   */\n    tag_176:\n        /* \"#utility.yul\":16687:16691   */\n      0x00\n        /* \"#utility.yul\":16710:16713   */\n      dup2\n        /* \"#utility.yul\":16702:16713   */\n      swap1\n      pop\n        /* \"#utility.yul\":16733:16736   */\n      dup2\n        /* \"#utility.yul\":16730:16731   */\n      0x00\n        /* \"#utility.yul\":16723:16737   */\n      mstore\n        /* \"#utility.yul\":16767:16771   */\n      0x20\n        /* \"#utility.yul\":16764:16765   */\n      0x00\n        /* \"#utility.yul\":16754:16772   */\n      keccak256\n        /* \"#utility.yul\":16746:16772   */\n      swap1\n      pop\n        /* \"#utility.yul\":16638:16779   */\n      swap2\n      swap1\n      pop\n      jump\t// out\n        /* \"#utility.yul\":16785:16878   */\n    tag_177:\n        /* \"#utility.yul\":16822:16828   */\n      0x00\n        /* \"#utility.yul\":16869:16871   */\n      0x20\n        /* \"#utility.yul\":16864:16866   */\n      0x1f\n        /* \"#utility.yul\":16857:16862   */\n      dup4\n        /* \"#utility.yul\":16853:16867   */\n      add\n        /* \"#utility.yul\":16849:16872   */\n      div\n        /* \"#utility.yul\":16839:16872   */\n      swap1\n      pop\n        /* \"#utility.yul\":16785:16878   */\n      swap2\n      swap1\n      pop\n      jump\t// out\n        /* \"#utility.yul\":16884:16991   */\n    tag_178:\n        /* \"#utility.yul\":16928:16936   */\n      0x00\n        /* \"#utility.yul\":16978:16983   */\n      dup3\n        /* \"#utility.yul\":16972:16976   */\n      dup3\n        /* \"#utility.yul\":16968:16984   */\n      shl\n        /* \"#utility.yul\":16947:16984   */\n      swap1\n      pop\n        /* \"#utility.yul\":16884:16991   */\n      swap3\n      swap2\n      pop\n      pop\n      jump\t// out\n        /* \"#utility.yul\":16997:17390   */\n    tag_179:\n        /* \"#utility.yul\":17066:17072   */\n      0x00\n        /* \"#utility.yul\":17116:17117   */\n      0x08\n        /* \"#utility.yul\":17104:17114   */\n      dup4\n        /* \"#utility.yul\":17100:17118   */\n      mul\n        /* \"#utility.yul\":17139:17236   */\n      tag_361\n        /* \"#utility.yul\":17169:17235   */\n      0xffffffffffffffffffffffffffffffffffffffffffffffffffffffffffffffff\n        /* \"#utility.yul\":17158:17167   */\n      dup3\n        /* \"#utility.yul\":17139:17236   */\n      tag_178\n      jump\t// in\n    tag_361:\n        /* \"#utility.yul\":17257:17296   */\n      tag_362\n        /* \"#utility.yul\":17287:17295   */\n      dup7\n        /* \"#utility.yul\":17276:17285   */\n      dup4\n        /* \"#utility.yul\":17257:17296   */\n      tag_178\n      jump\t// in\n    tag_362:\n        /* \"#utility.yul\":17245:17296   */\n      swap6\n      pop\n        /* \"#utility.yul\":17329:17333   */\n      dup1\n        /* \"#utility.yul\":17325:17334   */\n      not\n        /* \"#utility.yul\":17318:17323   */\n      dup5\n        /* \"#utility.yul\":17314:17335   */\n      and\n        /* \"#utility.yul\":17305:17335   */\n      swap4\n      pop\n        /* \"#utility.yul\":17378:17382   */\n      dup1\n        /* \"#utility.yul\":17368:17376   */\n      dup7\n        /* \"#utility.yul\":17364:17383   */\n      and\n        /* \"#utility.yul\":17357:17362   */\n      dup5\n        /* \"#utility.yul\":17354:17384   */\n      or\n        /* \"#utility.yul\":17344:17384   */\n      swap3\n      pop\n        /* \"#utility.yul\":17073:17390   */\n      pop\n      pop\n        /* \"#utility.yul\":16997:17390   */\n      swap4\n      swap3\n      pop\n      pop\n      pop\n      jump\t// out\n        /* \"#utility.yul\":17396:17456   */\n    tag_180:\n        /* \"#utility.yul\":17424:17427   */\n      0x00\n        /* \"#utility.yul\":17445:17450   */\n      dup2\n        /* \"#utility.yul\":17438:17450   */\n      swap1\n      pop\n        /* \"#utility.yul\":17396:17456   */\n      swap2\n      swap1\n      pop\n      jump\t// out\n        /* \"#utility.yul\":17462:17604   */\n    tag_181:\n        /* \"#utility.yul\":17512:17521   */\n      0x00\n        /* \"#utility.yul\":17545:17598   */\n      tag_365\n        /* \"#utility.yul\":17563:17597   */\n      tag_366\n        /* \"#utility.yul\":17572:17596   */\n      tag_367\n        /* \"#utility.yul\":17590:17595   */\n      dup5\n        /* \"#utility.yul\":17572:17596   */\n      tag_136\n      jump\t// in\n    tag_367:\n        /* \"#utility.yul\":17563:17597   */\n      tag_180\n      jump\t// in\n    tag_366:\n        /* \"#utility.yul\":17545:17598   */\n      tag_136\n      jump\t// in\n    tag_365:\n        /* \"#utility.yul\":17532:17598   */\n      swap1\n      pop\n        /* \"#utility.yul\":17462:17604   */\n      swap2\n      swap1\n      pop\n      jump\t// out\n        /* \"#utility.yul\":17610:17685   */\n    tag_182:\n        /* \"#utility.yul\":17653:17656   */\n      0x00\n        /* \"#utility.yul\":17674:17679   */\n      dup2\n        /* \"#utility.yul\":17667:17679   */\n      swap1\n      pop\n        /* \"#utility.yul\":17610:17685   */\n      swap2\n      swap1\n      pop\n      jump\t// out\n        /* \"#utility.yul\":17691:17960   */\n    tag_183:\n        /* \"#utility.yul\":17801:17840   */\n      tag_370\n        /* \"#utility.yul\":17832:17839   */\n      dup4\n        /* \"#utility.yul\":17801:17840   */\n      tag_181\n      jump\t// in\n    tag_370:\n        /* \"#utility.yul\":17862:17953   */\n      tag_371\n        /* \"#utility.yul\":17911:17952   */\n      tag_372\n        /* \"#utility.yul\":17935:17951   */\n      dup3\n        /* \"#utility.yul\":17911:17952   */\n      tag_182\n      jump\t// in\n    tag_372:\n        /* \"#utility.yul\":17903:17909   */\n      dup5\n        /* \"#utility.yul\":17896:17900   */\n      dup5\n        /* \"#utility.yul\":17890:17901   */\n      sload\n        /* \"#utility.yul\":17862:17953   */\n      tag_179\n      jump\t// in\n    tag_371:\n        /* \"#utility.yul\":17856:17860   */\n      dup3\n        /* \"#utility.yul\":17849:17954   */\n      sstore\n        /* \"#utility.yul\":17767:17960   */\n      pop\n        /* \"#utility.yul\":17691:17960   */\n      pop\n      pop\n      pop\n      jump\t// out\n        /* \"#utility.yul\":17966:18039   */\n    tag_184:\n        /* \"#utility.yul\":18011:18014   */\n      0x00\n        /* \"#utility.yul\":17966:18039   */\n      swap1\n      jump\t// out\n        /* \"#utility.yul\":18045:18234   */\n    tag_185:\n        /* \"#utility.yul\":18122:18154   */\n      tag_375\n      tag_184\n      jump\t// in\n    tag_375:\n        /* \"#utility.yul\":18163:18228   */\n      tag_376\n        /* \"#utility.yul\":18221:18227   */\n      dup2\n        /* \"#utility.yul\":18213:18219   */\n      dup5\n        /* \"#utility.yul\":18207:18211   */\n      dup5\n        /* \"#utility.yul\":18163:18228   */\n      tag_183\n      jump\t// in\n    tag_376:\n        /* \"#utility.yul\":18098:18234   */\n      pop\n        /* \"#utility.yul\":18045:18234   */\n      pop\n      pop\n      jump\t// out\n        /* \"#utility.yul\":18240:18426   */\n    tag_186:\n        /* \"#utility.yul\":18300:18420   */\n    tag_378:\n        /* \"#utility.yul\":18317:18320   */\n      dup2\n        /* \"#utility.yul\":18310:18315   */\n      dup2\n        /* \"#utility.yul\":18307:18321   */\n      lt\n        /* \"#utility.yul\":18300:18420   */\n      iszero\n      tag_380\n      jumpi\n        /* \"#utility.yul\":18371:18410   */\n      tag_381\n        /* \"#utility.yul\":18408:18409   */\n      0x00\n        /* \"#utility.yul\":18401:18406   */\n      dup3\n        /* \"#utility.yul\":18371:18410   */\n      tag_185\n      jump\t// in\n    tag_381:\n        /* \"#utility.yul\":18344:18345   */\n      0x01\n        /* \"#utility.yul\":18337:18342   */\n      dup2\n        /* \"#utility.yul\":18333:18346   */\n      add\n        /* \"#utility.yul\":18324:18346   */\n      swap1\n      pop\n        /* \"#utility.yul\":18300:18420   */\n      jump(tag_378)\n    tag_380:\n        /* \"#utility.yul\":18240:18426   */\n      pop\n      pop\n      jump\t// out\n        /* \"#utility.yul\":18432:18975   */\n    tag_187:\n        /* \"#utility.yul\":18533:18535   */\n      0x1f\n        /* \"#utility.yul\":18528:18531   */\n      dup3\n        /* \"#utility.yul\":18525:18536   */\n      gt\n        /* \"#utility.yul\":18522:18968   */\n      iszero\n      tag_383\n      jumpi\n        /* \"#utility.yul\":18567:18605   */\n      tag_384\n        /* \"#utility.yul\":18599:18604   */\n      dup2\n        /* \"#utility.yul\":18567:18605   */\n      tag_176\n      jump\t// in\n    tag_384:\n        /* \"#utility.yul\":18651:18680   */\n      tag_385\n        /* \"#utility.yul\":18669:18679   */\n      dup5\n        /* \"#utility.yul\":18651:18680   */\n      tag_177\n      jump\t// in\n    tag_385:\n        /* \"#utility.yul\":18641:18649   */\n      dup2\n        /* \"#utility.yul\":18637:18681   */\n      add\n        /* \"#utility.yul\":18834:18836   */\n      0x20\n        /* \"#utility.yul\":18822:18832   */\n      dup6\n        /* \"#utility.yul\":18819:18837   */\n      lt\n        /* \"#utility.yul\":18816:18865   */\n      iszero\n      tag_386\n      jumpi\n        /* \"#utility.yul\":18855:18863   */\n      dup2\n        /* \"#utility.yul\":18840:18863   */\n      swap1\n      pop\n        /* \"#utility.yul\":18816:18865   */\n    tag_386:\n        /* \"#utility.yul\":18878:18958   */\n      tag_387\n        /* \"#utility.yul\":18934:18956   */\n      tag_388\n        /* \"#utility.yul\":18952:18955   */\n      dup6\n        /* \"#utility.yul\":18934:18956   */\n      tag_177\n      jump\t// in\n    tag_388:\n        /* \"#utility.yul\":18924:18932   */\n      dup4\n        /* \"#utility.yul\":18920:18957   */\n      add\n        /* \"#utility.yul\":18907:18918   */\n      dup3\n        /* \"#utility.yul\":18878:18958   */\n      tag_186\n      jump\t// in\n    tag_387:\n        /* \"#utility.yul\":18537:18968   */\n      pop\n      pop\n        /* \"#utility.yul\":18522:18968   */\n    tag_383:\n        /* \"#utility.yul\":18432:18975   */\n      pop\n      pop\n      pop\n      jump\t// out\n        /* \"#utility.yul\":18981:19098   */\n    tag_188:\n        /* \"#utility.yul\":19035:19043   */\n      0x00\n        /* \"#utility.yul\":19085:19090   */\n      dup3\n        /* \"#utility.yul\":19079:19083   */\n      dup3\n        /* \"#utility.yul\":19075:19091   */\n      shr\n        /* \"#utility.yul\":19054:19091   */\n      swap1\n      pop\n        /* \"#utility.yul\":18981:19098   */\n      swap3\n      swap2\n      pop\n      pop\n      jump\t// out\n        /* \"#utility.yul\":19104:19273   */\n    tag_189:\n        /* \"#utility.yul\":19148:19154   */\n      0x00\n        /* \"#utility.yul\":19181:19232   */\n      tag_391\n        /* \"#utility.yul\":19229:19230   */\n      0x00\n        /* \"#utility.yul\":19225:19231   */\n      not\n        /* \"#utility.yul\":19217:19222   */\n      dup5\n        /* \"#utility.yul\":19214:19215   */\n      0x08\n        /* \"#utility.yul\":19210:19223   */\n      mul\n        /* \"#utility.yul\":19181:19232   */\n      tag_188\n      jump\t// in\n    tag_391:\n        /* \"#utility.yul\":19177:19233   */\n      not\n        /* \"#utility.yul\":19262:19266   */\n      dup1\n        /* \"#utility.yul\":19256:19260   */\n      dup4\n        /* \"#utility.yul\":19252:19267   */\n      and\n        /* \"#utility.yul\":19242:19267   */\n      swap2\n      pop\n        /* \"#utility.yul\":19155:19273   */\n      pop\n        /* \"#utility.yul\":19104:19273   */\n      swap3\n      swap2\n      pop\n      pop\n      jump\t// out\n        /* \"#utility.yul\":19278:19573   */\n    tag_190:\n        /* \"#utility.yul\":19354:19358   */\n      0x00\n        /* \"#utility.yul\":19500:19529   */\n      tag_393\n        /* \"#utility.yul\":19525:19528   */\n      dup4\n        /* \"#utility.yul\":19519:19523   */\n      dup4\n        /* \"#utility.yul\":19500:19529   */\n      tag_189\n      jump\t// in\n    tag_393:\n        /* \"#utility.yul\":19492:19529   */\n      swap2\n      pop\n        /* \"#utility.yul\":19562:19565   */\n      dup3\n        /* \"#utility.yul\":19559:19560   */\n      0x02\n        /* \"#utility.yul\":19555:19566   */\n      mul\n        /* \"#utility.yul\":19549:19553   */\n      dup3\n        /* \"#utility.yul\":19546:19567   */\n      or\n        /* \"#utility.yul\":19538:19567   */\n      swap1\n      pop\n        /* \"#utility.yul\":19278:19573   */\n      swap3\n      swap2\n      pop\n      pop\n      jump\t// out\n        /* \"#utility.yul\":19578:20973   */\n    tag_105:\n        /* \"#utility.yul\":19695:19732   */\n      tag_395\n        /* \"#utility.yul\":19728:19731   */\n      dup3\n        /* \"#utility.yul\":19695:19732   */\n      tag_141\n      jump\t// in\n    tag_395:\n        /* \"#utility.yul\":19797:19815   */\n      0xffffffffffffffff\n        /* \"#utility.yul\":19789:19795   */\n      dup2\n        /* \"#utility.yul\":19786:19816   */\n      gt\n        /* \"#utility.yul\":19783:19839   */\n      iszero\n      tag_396\n      jumpi\n        /* \"#utility.yul\":19819:19837   */\n      tag_397\n      tag_111\n      jump\t// in\n    tag_397:\n        /* \"#utility.yul\":19783:19839   */\n    tag_396:\n        /* \"#utility.yul\":19863:19901   */\n      tag_398\n        /* \"#utility.yul\":19895:19899   */\n      dup3\n        /* \"#utility.yul\":19889:19900   */\n      sload\n        /* \"#utility.yul\":19863:19901   */\n      tag_52\n      jump\t// in\n    tag_398:\n        /* \"#utility.yul\":19948:20015   */\n      tag_399\n        /* \"#utility.yul\":20008:20014   */\n      dup3\n        /* \"#utility.yul\":20000:20006   */\n      dup3\n        /* \"#utility.yul\":19994:19998   */\n      dup6\n        /* \"#utility.yul\":19948:20015   */\n      tag_187\n      jump\t// in\n    tag_399:\n        /* \"#utility.yul\":20042:20043   */\n      0x00\n        /* \"#utility.yul\":20066:20070   */\n      0x20\n        /* \"#utility.yul\":20053:20070   */\n      swap1\n      pop\n        /* \"#utility.yul\":20098:20100   */\n      0x1f\n        /* \"#utility.yul\":20090:20096   */\n      dup4\n        /* \"#utility.yul\":20087:20101   */\n      gt\n        /* \"#utility.yul\":20115:20116   */\n      0x01\n        /* \"#utility.yul\":20110:20728   */\n      dup2\n      eq\n      tag_401\n      jumpi\n        /* \"#utility.yul\":20772:20773   */\n      0x00\n        /* \"#utility.yul\":20789:20795   */\n      dup5\n        /* \"#utility.yul\":20786:20863   */\n      iszero\n      tag_402\n      jumpi\n        /* \"#utility.yul\":20838:20847   */\n      dup3\n        /* \"#utility.yul\":20833:20836   */\n      dup8\n        /* \"#utility.yul\":20829:20848   */\n      add\n        /* \"#utility.yul\":20823:20849   */\n      mload\n        /* \"#utility.yul\":20814:20849   */\n      swap1\n      pop\n        /* \"#utility.yul\":20786:20863   */\n    tag_402:\n        /* \"#utility.yul\":20889:20956   */\n      tag_403\n        /* \"#utility.yul\":20949:20955   */\n      dup6\n        /* \"#utility.yul\":20942:20947   */\n      dup3\n        /* \"#utility.yul\":20889:20956   */\n      tag_190\n      jump\t// in\n    tag_403:\n        /* \"#utility.yul\":20883:20887   */\n      dup7\n        /* \"#utility.yul\":20876:20957   */\n      sstore\n        /* \"#utility.yul\":20745:20967   */\n      pop\n        /* \"#utility.yul\":20080:20967   */\n      jump(tag_400)\n        /* \"#utility.yul\":20110:20728   */\n    tag_401:\n        /* \"#utility.yul\":20162:20166   */\n      0x1f\n        /* \"#utility.yul\":20158:20167   */\n      not\n        /* \"#utility.yul\":20150:20156   */\n      dup5\n        /* \"#utility.yul\":20146:20168   */\n      and\n        /* \"#utility.yul\":20196:20233   */\n      tag_404\n        /* \"#utility.yul\":20228:20232   */\n      dup7\n        /* \"#utility.yul\":20196:20233   */\n      tag_176\n      jump\t// in\n    tag_404:\n        /* \"#utility.yul\":20255:20256   */\n      0x00\n        /* \"#utility.yul\":20269:20477   */\n    tag_405:\n        /* \"#utility.yul\":20283:20290   */\n      dup3\n        /* \"#utility.yul\":20280:20281   */\n      dup2\n        /* \"#utility.yul\":20277:20291   */\n      lt\n        /* \"#utility.yul\":20269:20477   */\n      iszero\n      tag_407\n      jumpi\n        /* \"#utility.yul\":20362:20371   */\n      dup5\n        /* \"#utility.yul\":20357:20360   */\n      dup10\n        /* \"#utility.yul\":20353:20372   */\n      add\n        /* \"#utility.yul\":20347:20373   */\n      mload\n        /* \"#utility.yul\":20339:20345   */\n      dup3\n        /* \"#utility.yul\":20332:20374   */\n      sstore\n        /* \"#utility.yul\":20413:20414   */\n      0x01\n        /* \"#utility.yul\":20405:20411   */\n      dup3\n        /* \"#utility.yul\":20401:20415   */\n      add\n        /* \"#utility.yul\":20391:20415   */\n      swap2\n      pop\n        /* \"#utility.yul\":20460:20462   */\n      0x20\n        /* \"#utility.yul\":20449:20458   */\n      dup6\n        /* \"#utility.yul\":20445:20463   */\n      add\n        /* \"#utility.yul\":20432:20463   */\n      swap5\n      pop\n        /* \"#utility.yul\":20306:20310   */\n      0x20\n        /* \"#utility.yul\":20303:20304   */\n      dup2\n        /* \"#utility.yul\":20299:20311   */\n      add\n        /* \"#utility.yul\":20294:20311   */\n      swap1\n      pop\n        /* \"#utility.yul\":20269:20477   */\n      jump(tag_405)\n    tag_407:\n        /* \"#utility.yul\":20505:20511   */\n      dup7\n        /* \"#utility.yul\":20496:20503   */\n      dup4\n        /* \"#utility.yul\":20493:20512   */\n      lt\n        /* \"#utility.yul\":20490:20669   */\n      iszero\n      tag_408\n      jumpi\n        /* \"#utility.yul\":20563:20572   */\n      dup5\n        /* \"#utility.yul\":20558:20561   */\n      dup10\n        /* \"#utility.yul\":20554:20573   */\n      add\n        /* \"#utility.yul\":20548:20574   */\n      mload\n        /* \"#utility.yul\":20606:20654   */\n      tag_409\n        /* \"#utility.yul\":20648:20652   */\n      0x1f\n        /* \"#utility.yul\":20640:20646   */\n      dup10\n        /* \"#utility.yul\":20636:20653   */\n      and\n        /* \"#utility.yul\":20625:20634   */\n      dup3\n        /* \"#utility.yul\":20606:20654   */\n      tag_189\n      jump\t// in\n    tag_409:\n        /* \"#utility.yul\":20598:20604   */\n      dup4\n        /* \"#utility.yul\":20591:20655   */\n      sstore\n        /* \"#utility.yul\":20513:20669   */\n      pop\n        /* \"#utility.yul\":20490:20669   */\n    tag_408:\n        /* \"#utility.yul\":20715:20716   */\n      0x01\n        /* \"#utility.yul\":20711:20712   */\n      0x02\n        /* \"#utility.yul\":20703:20709   */\n      dup9\n        /* \"#utility.yul\":20699:20713   */\n      mul\n        /* \"#utility.yul\":20695:20717   */\n      add\n        /* \"#utility.yul\":20689:20693   */\n      dup9\n        /* \"#utility.yul\":20682:20718   */\n      sstore\n        /* \"#utility.yul\":20117:20728   */\n      pop\n      pop\n      pop\n        /* \"#utility.yul\":20080:20967   */\n    tag_400:\n      pop\n        /* \"#utility.yul\":19670:20973   */\n      pop\n      pop\n      pop\n        /* \"#utility.yul\":19578:20973   */\n      pop\n      pop\n      jump\t// out\n        /* \"#utility.yul\":21003:21834   */\n    tag_191:\n        /* \"#utility.yul\":21088:21091   */\n      0x00\n        /* \"#utility.yul\":21125:21130   */\n      dup2\n        /* \"#utility.yul\":21119:21131   */\n      sload\n        /* \"#utility.yul\":21154:21190   */\n      tag_411\n        /* \"#utility.yul\":21180:21189   */\n      dup2\n        /* \"#utility.yul\":21154:21190   */\n      tag_52\n      jump\t// in\n    tag_411:\n        /* \"#utility.yul\":21206:21277   */\n      tag_412\n        /* \"#utility.yul\":21270:21276   */\n      dup2\n        /* \"#utility.yul\":21265:21268   */\n      dup7\n        /* \"#utility.yul\":21206:21277   */\n      tag_142\n      jump\t// in\n    tag_412:\n        /* \"#utility.yul\":21199:21277   */\n      swap5\n      pop\n        /* \"#utility.yul\":21308:21309   */\n      0x01\n        /* \"#utility.yul\":21297:21306   */\n      dup3\n        /* \"#utility.yul\":21293:21310   */\n      and\n        /* \"#utility.yul\":21324:21325   */\n      0x00\n        /* \"#utility.yul\":21319:21483   */\n      dup2\n      eq\n      tag_414\n      jumpi\n        /* \"#utility.yul\":21497:21498   */\n      0x01\n        /* \"#utility.yul\":21492:21828   */\n      dup2\n      eq\n      tag_415\n      jumpi\n        /* \"#utility.yul\":21286:21828   */\n      jump(tag_413)\n        /* \"#utility.yul\":21319:21483   */\n    tag_414:\n        /* \"#utility.yul\":21403:21407   */\n      0xff\n        /* \"#utility.yul\":21399:21408   */\n      not\n        /* \"#utility.yul\":21388:21397   */\n      dup4\n        /* \"#utility.yul\":21384:21409   */\n      and\n        /* \"#utility.yul\":21379:21382   */\n      dup7\n        /* \"#utility.yul\":21372:21410   */\n      mstore\n        /* \"#utility.yul\":21463:21469   */\n      dup2\n        /* \"#utility.yul\":21456:21470   */\n      iszero\n        /* \"#utility.yul\":21449:21471   */\n      iszero\n        /* \"#utility.yul\":21443:21447   */\n      0x20\n        /* \"#utility.yul\":21439:21472   */\n      mul\n        /* \"#utility.yul\":21434:21437   */\n      dup7\n        /* \"#utility.yul\":21430:21473   */\n      add\n        /* \"#utility.yul\":21423:21473   */\n      swap4\n      pop\n        /* \"#utility.yul\":21319:21483   */\n      jump(tag_413)\n        /* \"#utility.yul\":21492:21828   */\n    tag_415:\n        /* \"#utility.yul\":21559:21597   */\n      tag_416\n        /* \"#utility.yul\":21591:21596   */\n      dup6\n        /* \"#utility.yul\":21559:21597   */\n      tag_176\n      jump\t// in\n    tag_416:\n        /* \"#utility.yul\":21619:21620   */\n      0x00\n        /* \"#utility.yul\":21633:21787   */\n    tag_417:\n        /* \"#utility.yul\":21647:21653   */\n      dup4\n        /* \"#utility.yul\":21644:21645   */\n      dup2\n        /* \"#utility.yul\":21641:21654   */\n      lt\n        /* \"#utility.yul\":21633:21787   */\n      iszero\n      tag_419\n      jumpi\n        /* \"#utility.yul\":21721:21728   */\n      dup2\n        /* \"#utility.yul\":21715:21729   */\n      sload\n        /* \"#utility.yul\":21711:21712   */\n      dup2\n        /* \"#utility.yul\":21706:21709   */\n      dup10\n        /* \"#utility.yul\":21702:21713   */\n      add\n        /* \"#utility.yul\":21695:21730   */\n      mstore\n        /* \"#utility.yul\":21771:21772   */\n      0x01\n        /* \"#utility.yul\":21762:21769   */\n      dup3\n        /* \"#utility.yul\":21758:21773   */\n      add\n        /* \"#utility.yul\":21747:21773   */\n      swap2\n      pop\n        /* \"#utility.yul\":21669:21673   */\n      0x20\n        /* \"#utility.yul\":21666:21667   */\n      dup2\n        /* \"#utility.yul\":21662:21674   */\n      add\n        /* \"#utility.yul\":21657:21674   */\n      swap1\n      pop\n        /* \"#utility.yul\":21633:21787   */\n      jump(tag_417)\n    tag_419:\n        /* \"#utility.yul\":21816:21817   */\n      dup1\n        /* \"#utility.yul\":21811:21814   */\n      dup9\n        /* \"#utility.yul\":21807:21818   */\n      add\n        /* \"#utility.yul\":21800:21818   */\n      swap6\n      pop\n        /* \"#utility.yul\":21499:21828   */\n      pop\n      pop\n        /* \"#utility.yul\":21286:21828   */\n    tag_413:\n      pop\n        /* \"#utility.yul\":21092:21834   */\n      pop\n      pop\n        /* \"#utility.yul\":21003:21834   */\n      swap3\n      swap2\n      pop\n      pop\n      jump\t// out\n        /* \"#utility.yul\":21840:22367   */\n    tag_107:\n        /* \"#utility.yul\":22006:22010   */\n      0x00\n        /* \"#utility.yul\":22044:22046   */\n      0x60\n        /* \"#utility.yul\":22033:22042   */\n      dup3\n        /* \"#utility.yul\":22029:22047   */\n      add\n        /* \"#utility.yul\":22021:22047   */\n      swap1\n      pop\n        /* \"#utility.yul\":22057:22128   */\n      tag_421\n        /* \"#utility.yul\":22125:22126   */\n      0x00\n        /* \"#utility.yul\":22114:22123   */\n      dup4\n        /* \"#utility.yul\":22110:22127   */\n      add\n        /* \"#utility.yul\":22101:22107   */\n      dup7\n        /* \"#utility.yul\":22057:22128   */\n      tag_139\n      jump\t// in\n    tag_421:\n        /* \"#utility.yul\":22175:22184   */\n      dup2\n        /* \"#utility.yul\":22169:22173   */\n      dup2\n        /* \"#utility.yul\":22165:22185   */\n      sub\n        /* \"#utility.yul\":22160:22162   */\n      0x20\n        /* \"#utility.yul\":22149:22158   */\n      dup4\n        /* \"#utility.yul\":22145:22163   */\n      add\n        /* \"#utility.yul\":22138:22186   */\n      mstore\n        /* \"#utility.yul\":22203:22278   */\n      tag_422\n        /* \"#utility.yul\":22273:22277   */\n      dup2\n        /* \"#utility.yul\":22264:22270   */\n      dup6\n        /* \"#utility.yul\":22203:22278   */\n      tag_191\n      jump\t// in\n    tag_422:\n        /* \"#utility.yul\":22195:22278   */\n      swap1\n      pop\n        /* \"#utility.yul\":22288:22360   */\n      tag_423\n        /* \"#utility.yul\":22356:22358   */\n      0x40\n        /* \"#utility.yul\":22345:22354   */\n      dup4\n        /* \"#utility.yul\":22341:22359   */\n      add\n        /* \"#utility.yul\":22332:22338   */\n      dup5\n        /* \"#utility.yul\":22288:22360   */\n      tag_139\n      jump\t// in\n    tag_423:\n        /* \"#utility.yul\":21840:22367   */\n      swap5\n      swap4\n      pop\n      pop\n      pop\n      pop\n      jump\t// out\n\n    auxdata: 0xa2646970667358221220b22844160ee0ec1ec8909aa1d513fabb7a8d55ea9f702ee4de43a688a706d46864736f6c634300081a0033\n}\n",
				"bytecode": {
					"linkReferences": {},
					"object": "608060405260c85f806101000a81548160ff021916908360ff1602179055503480156028575f80fd5b50335f60016101000a81548173ffffffffffffffffffffffffffffffffffffffff021916908373ffffffffffffffffffffffffffffffffffffffff160217905550611801806100765f395ff3fe608060405234801561000f575f80fd5b5060043610610086575f3560e01c80636337821611610059578063633782161461013e5780637c9cd2bc1461015a5780638da5cb5b146101765780639e92b0931461019457610086565b806305a1b4a91461008a578063112f54e3146100be5780633a11e192146100f25780634ddf89401461010e575b5f80fd5b6100a4600480360381019061009f9190610d1b565b6101c4565b6040516100b5959493929190610de7565b60405180910390f35b6100d860048036038101906100d39190610d1b565b6102b5565b6040516100e9959493929190610de7565b60405180910390f35b61010c60048036038101906101079190610e75565b6103ee565b005b61012860048036038101906101239190610ea0565b610499565b6040516101359190610f0a565b60405180910390f35b61015860048036038101906101539190610d1b565b610549565b005b610174600480360381019061016f919061104f565b6107fb565b005b61017e6109e6565b60405161018b9190611096565b60405180910390f35b6101ae60048036038101906101a991906110af565b610a0b565b6040516101bb919061126e565b60405180910390f35b6001602052815f5260405f2081815481106101dd575f80fd5b905f5260205f2090600602015f9150915050805f015490806001015f9054906101000a900473ffffffffffffffffffffffffffffffffffffffff1690806002018054610228906112bb565b80601f0160208091040260200160405190810160405280929190818152602001828054610254906112bb565b801561029f5780601f106102765761010080835404028352916020019161029f565b820191905f5260205f20905b81548152906001019060200180831161028257829003601f168201915b5050505050908060030154908060040154905085565b5f8060605f805f60015f8973ffffffffffffffffffffffffffffffffffffffff1673ffffffffffffffffffffffffffffffffffffffff1681526020019081526020015f20878154811061030b5761030a6112eb565b5b905f5260205f2090600602019050805f0154816001015f9054906101000a900473ffffffffffffffffffffffffffffffffffffffff16826002018360030154846004015482805461035b906112bb565b80601f0160208091040260200160405190810160405280929190818152602001828054610387906112bb565b80156103d25780601f106103a9576101008083540402835291602001916103d2565b820191905f5260205f20905b8154815290600101906020018083116103b557829003601f168201915b5050505050925095509550955095509550509295509295909350565b5f60019054906101000a900473ffffffffffffffffffffffffffffffffffffffff1673ffffffffffffffffffffffffffffffffffffffff163373ffffffffffffffffffffffffffffffffffffffff161461047d576040517f08c379a000000000000000000000000000000000000000000000000000000000815260040161047490611362565b60405180910390fd5b805f806101000a81548160ff021916908360ff16021790555050565b5f60015f8573ffffffffffffffffffffffffffffffffffffffff1673ffffffffffffffffffffffffffffffffffffffff1681526020019081526020015f2083815481106104e9576104e86112eb565b5b905f5260205f2090600602016005015f8373ffffffffffffffffffffffffffffffffffffffff1673ffffffffffffffffffffffffffffffffffffffff1681526020019081526020015f205f9054906101000a900460ff1690509392505050565b610554828233610499565b15610682576001805f8473ffffffffffffffffffffffffffffffffffffffff1673ffffffffffffffffffffffffffffffffffffffff1681526020019081526020015f2082815481106105a9576105a86112eb565b5b905f5260205f2090600602016004015f8282546105c691906113ad565b925050819055505f60015f8473ffffffffffffffffffffffffffffffffffffffff1673ffffffffffffffffffffffffffffffffffffffff1681526020019081526020015f20828154811061061d5761061c6112eb565b5b905f5260205f2090600602016005015f3373ffffffffffffffffffffffffffffffffffffffff1673ffffffffffffffffffffffffffffffffffffffff1681526020019081526020015f205f6101000a81548160ff0219169083151502179055506107a7565b6001805f8473ffffffffffffffffffffffffffffffffffffffff1673ffffffffffffffffffffffffffffffffffffffff1681526020019081526020015f2082815481106106d2576106d16112eb565b5b905f5260205f2090600602016004015f8282546106ef91906113e0565b925050819055506001805f8473ffffffffffffffffffffffffffffffffffffffff1673ffffffffffffffffffffffffffffffffffffffff1681526020019081526020015f208281548110610746576107456112eb565b5b905f5260205f2090600602016005015f3373ffffffffffffffffffffffffffffffffffffffff1673ffffffffffffffffffffffffffffffffffffffff1681526020019081526020015f205f6101000a81548160ff0219169083151502179055505b3373ffffffffffffffffffffffffffffffffffffffff167f7c4b06baee4c2050d672eef0084a1baaf8d938d7f9eddc476d9a89847171b53783836040516107ef929190611413565b60405180910390a25050565b5f8054906101000a900460ff1660ff168151111561084e576040517f08c379a000000000000000000000000000000000000000000000000000000000815260040161084590611484565b60405180910390fd5b5f60015f3373ffffffffffffffffffffffffffffffffffffffff1673ffffffffffffffffffffffffffffffffffffffff1681526020019081526020015f2060018160018154018082558091505003905f5260205f20906006020190506001805f3373ffffffffffffffffffffffffffffffffffffffff1673ffffffffffffffffffffffffffffffffffffffff1681526020019081526020015f20805490506108f691906113ad565b815f018190555033816001015f6101000a81548173ffffffffffffffffffffffffffffffffffffffff021916908373ffffffffffffffffffffffffffffffffffffffff16021790555081816002019081610950919061163f565b504281600301819055505f8160040181905550806001015f9054906101000a900473ffffffffffffffffffffffffffffffffffffffff1673ffffffffffffffffffffffffffffffffffffffff167f16fd3c13e9d46923e0a8bce11c7b473ec508a72e6c96cd2404b29ce972afc29e825f01548360020184600301546040516109da9392919061178f565b60405180910390a25050565b5f60019054906101000a900473ffffffffffffffffffffffffffffffffffffffff1681565b60605f60015f8473ffffffffffffffffffffffffffffffffffffffff1673ffffffffffffffffffffffffffffffffffffffff1681526020019081526020015f208054905090505f8167ffffffffffffffff811115610a6c57610a6b610f2b565b5b604051908082528060200260200182016040528015610aa557816020015b610a92610c3c565b815260200190600190039081610a8a5790505b5090505f5b82811015610c31575f60015f8773ffffffffffffffffffffffffffffffffffffffff1673ffffffffffffffffffffffffffffffffffffffff1681526020019081526020015f208281548110610b0257610b016112eb565b5b905f5260205f20906006020190506040518060a00160405280825f01548152602001826001015f9054906101000a900473ffffffffffffffffffffffffffffffffffffffff1673ffffffffffffffffffffffffffffffffffffffff168152602001826002018054610b72906112bb565b80601f0160208091040260200160405190810160405280929190818152602001828054610b9e906112bb565b8015610be95780601f10610bc057610100808354040283529160200191610be9565b820191905f5260205f20905b815481529060010190602001808311610bcc57829003601f168201915b50505050508152602001826003015481526020018260040154815250838381518110610c1857610c176112eb565b5b6020026020010181905250508080600101915050610aaa565b508092505050919050565b6040518060a001604052805f81526020015f73ffffffffffffffffffffffffffffffffffffffff168152602001606081526020015f81526020015f81525090565b5f604051905090565b5f80fd5b5f80fd5b5f73ffffffffffffffffffffffffffffffffffffffff82169050919050565b5f610cb782610c8e565b9050919050565b610cc781610cad565b8114610cd1575f80fd5b50565b5f81359050610ce281610cbe565b92915050565b5f819050919050565b610cfa81610ce8565b8114610d04575f80fd5b50565b5f81359050610d1581610cf1565b92915050565b5f8060408385031215610d3157610d30610c86565b5b5f610d3e85828601610cd4565b9250506020610d4f85828601610d07565b9150509250929050565b610d6281610ce8565b82525050565b610d7181610cad565b82525050565b5f81519050919050565b5f82825260208201905092915050565b8281835e5f83830152505050565b5f601f19601f8301169050919050565b5f610db982610d77565b610dc38185610d81565b9350610dd3818560208601610d91565b610ddc81610d9f565b840191505092915050565b5f60a082019050610dfa5f830188610d59565b610e076020830187610d68565b8181036040830152610e198186610daf565b9050610e286060830185610d59565b610e356080830184610d59565b9695505050505050565b5f60ff82169050919050565b610e5481610e3f565b8114610e5e575f80fd5b50565b5f81359050610e6f81610e4b565b92915050565b5f60208284031215610e8a57610e89610c86565b5b5f610e9784828501610e61565b91505092915050565b5f805f60608486031215610eb757610eb6610c86565b5b5f610ec486828701610cd4565b9350506020610ed586828701610d07565b9250506040610ee686828701610cd4565b9150509250925092565b5f8115159050919050565b610f0481610ef0565b82525050565b5f602082019050610f1d5f830184610efb565b92915050565b5f80fd5b5f80fd5b7f4e487b71000000000000000000000000000000000000000000000000000000005f52604160045260245ffd5b610f6182610d9f565b810181811067ffffffffffffffff82111715610f8057610f7f610f2b565b5b80604052505050565b5f610f92610c7d565b9050610f9e8282610f58565b919050565b5f67ffffffffffffffff821115610fbd57610fbc610f2b565b5b610fc682610d9f565b9050602081019050919050565b828183375f83830152505050565b5f610ff3610fee84610fa3565b610f89565b90508281526020810184848401111561100f5761100e610f27565b5b61101a848285610fd3565b509392505050565b5f82601f83011261103657611035610f23565b5b8135611046848260208601610fe1565b91505092915050565b5f6020828403121561106457611063610c86565b5b5f82013567ffffffffffffffff81111561108157611080610c8a565b5b61108d84828501611022565b91505092915050565b5f6020820190506110a95f830184610d68565b92915050565b5f602082840312156110c4576110c3610c86565b5b5f6110d184828501610cd4565b91505092915050565b5f81519050919050565b5f82825260208201905092915050565b5f819050602082019050919050565b61110c81610ce8565b82525050565b61111b81610cad565b82525050565b5f82825260208201905092915050565b5f61113b82610d77565b6111458185611121565b9350611155818560208601610d91565b61115e81610d9f565b840191505092915050565b5f60a083015f83015161117e5f860182611103565b5060208301516111916020860182611112565b50604083015184820360408601526111a98282611131565b91505060608301516111be6060860182611103565b5060808301516111d16080860182611103565b508091505092915050565b5f6111e78383611169565b905092915050565b5f602082019050919050565b5f611205826110da565b61120f81856110e4565b935083602082028501611221856110f4565b805f5b8581101561125c578484038952815161123d85826111dc565b9450611248836111ef565b925060208a01995050600181019050611224565b50829750879550505050505092915050565b5f6020820190508181035f83015261128681846111fb565b905092915050565b7f4e487b71000000000000000000000000000000000000000000000000000000005f52602260045260245ffd5b5f60028204905060018216806112d257607f821691505b6020821081036112e5576112e461128e565b5b50919050565b7f4e487b71000000000000000000000000000000000000000000000000000000005f52603260045260245ffd5b7f596f7520617265206e6f7420746865206f776e657200000000000000000000005f82015250565b5f61134c601583610d81565b915061135782611318565b602082019050919050565b5f6020820190508181035f83015261137981611340565b9050919050565b7f4e487b71000000000000000000000000000000000000000000000000000000005f52601160045260245ffd5b5f6113b782610ce8565b91506113c283610ce8565b92508282039050818111156113da576113d9611380565b5b92915050565b5f6113ea82610ce8565b91506113f583610ce8565b925082820190508082111561140d5761140c611380565b5b92915050565b5f6040820190506114265f830185610d68565b6114336020830184610d59565b9392505050565b7f547765657420697320746f6f206c6f6e670000000000000000000000000000005f82015250565b5f61146e601183610d81565b91506114798261143a565b602082019050919050565b5f6020820190508181035f83015261149b81611462565b9050919050565b5f819050815f5260205f209050919050565b5f6020601f8301049050919050565b5f82821b905092915050565b5f600883026114fe7fffffffffffffffffffffffffffffffffffffffffffffffffffffffffffffffff826114c3565b61150886836114c3565b95508019841693508086168417925050509392505050565b5f819050919050565b5f61154361153e61153984610ce8565b611520565b610ce8565b9050919050565b5f819050919050565b61155c83611529565b6115706115688261154a565b8484546114cf565b825550505050565b5f90565b611584611578565b61158f818484611553565b505050565b5b818110156115b2576115a75f8261157c565b600181019050611595565b5050565b601f8211156115f7576115c8816114a2565b6115d1846114b4565b810160208510156115e0578190505b6115f46115ec856114b4565b830182611594565b50505b505050565b5f82821c905092915050565b5f6116175f19846008026115fc565b1980831691505092915050565b5f61162f8383611608565b9150826002028217905092915050565b61164882610d77565b67ffffffffffffffff81111561166157611660610f2b565b5b61166b82546112bb565b6116768282856115b6565b5f60209050601f8311600181146116a7575f8415611695578287015190505b61169f8582611624565b865550611706565b601f1984166116b5866114a2565b5f5b828110156116dc578489015182556001820191506020850194506020810190506116b7565b868310156116f957848901516116f5601f891682611608565b8355505b6001600288020188555050505b505050505050565b5f815461171a816112bb565b6117248186610d81565b9450600182165f811461173e576001811461175457611786565b60ff198316865281151560200286019350611786565b61175d856114a2565b5f5b8381101561177e5781548189015260018201915060208101905061175f565b808801955050505b50505092915050565b5f6060820190506117a25f830186610d59565b81810360208301526117b4818561170e565b90506117c36040830184610d59565b94935050505056fea2646970667358221220b22844160ee0ec1ec8909aa1d513fabb7a8d55ea9f702ee4de43a688a706d46864736f6c634300081a0033",
					"opcodes": "PUSH1 0x80 PUSH1 0x40 MSTORE PUSH1 0xC8 PUSH0 DUP1 PUSH2 0x100 EXP DUP2 SLOAD DUP2 PUSH1 0xFF MUL NOT AND SWAP1 DUP4 PUSH1 0xFF AND MUL OR SWAP1 SSTORE POP CALLVALUE DUP1 ISZERO PUSH1 0x28 JUMPI PUSH0 DUP1 REVERT JUMPDEST POP CALLER PUSH0 PUSH1 0x1 PUSH2 0x100 EXP DUP2 SLOAD DUP2 PUSH20 0xFFFFFFFFFFFFFFFFFFFFFFFFFFFFFFFFFFFFFFFF MUL NOT AND SWAP1 DUP4 PUSH20 0xFFFFFFFFFFFFFFFFFFFFFFFFFFFFFFFFFFFFFFFF AND MUL OR SWAP1 SSTORE POP PUSH2 0x1801 DUP1 PUSH2 0x76 PUSH0 CODECOPY PUSH0 RETURN INVALID PUSH1 0x80 PUSH1 0x40 MSTORE CALLVALUE DUP1 ISZERO PUSH2 0xF JUMPI PUSH0 DUP1 REVERT JUMPDEST POP PUSH1 0x4 CALLDATASIZE LT PUSH2 0x86 JUMPI PUSH0 CALLDATALOAD PUSH1 0xE0 SHR DUP1 PUSH4 0x63378216 GT PUSH2 0x59 JUMPI DUP1 PUSH4 0x63378216 EQ PUSH2 0x13E JUMPI DUP1 PUSH4 0x7C9CD2BC EQ PUSH2 0x15A JUMPI DUP1 PUSH4 0x8DA5CB5B EQ PUSH2 0x176 JUMPI DUP1 PUSH4 0x9E92B093 EQ PUSH2 0x194 JUMPI PUSH2 0x86 JUMP JUMPDEST DUP1 PUSH4 0x5A1B4A9 EQ PUSH2 0x8A JUMPI DUP1 PUSH4 0x112F54E3 EQ PUSH2 0xBE JUMPI DUP1 PUSH4 0x3A11E192 EQ PUSH2 0xF2 JUMPI DUP1 PUSH4 0x4DDF8940 EQ PUSH2 0x10E JUMPI JUMPDEST PUSH0 DUP1 REVERT JUMPDEST PUSH2 0xA4 PUSH1 0x4 DUP1 CALLDATASIZE SUB DUP2 ADD SWAP1 PUSH2 0x9F SWAP2 SWAP1 PUSH2 0xD1B JUMP JUMPDEST PUSH2 0x1C4 JUMP JUMPDEST PUSH1 0x40 MLOAD PUSH2 0xB5 SWAP6 SWAP5 SWAP4 SWAP3 SWAP2 SWAP1 PUSH2 0xDE7 JUMP JUMPDEST PUSH1 0x40 MLOAD DUP1 SWAP2 SUB SWAP1 RETURN JUMPDEST PUSH2 0xD8 PUSH1 0x4 DUP1 CALLDATASIZE SUB DUP2 ADD SWAP1 PUSH2 0xD3 SWAP2 SWAP1 PUSH2 0xD1B JUMP JUMPDEST PUSH2 0x2B5 JUMP JUMPDEST PUSH1 0x40 MLOAD PUSH2 0xE9 SWAP6 SWAP5 SWAP4 SWAP3 SWAP2 SWAP1 PUSH2 0xDE7 JUMP JUMPDEST PUSH1 0x40 MLOAD DUP1 SWAP2 SUB SWAP1 RETURN JUMPDEST PUSH2 0x10C PUSH1 0x4 DUP1 CALLDATASIZE SUB DUP2 ADD SWAP1 PUSH2 0x107 SWAP2 SWAP1 PUSH2 0xE75 JUMP JUMPDEST PUSH2 0x3EE JUMP JUMPDEST STOP JUMPDEST PUSH2 0x128 PUSH1 0x4 DUP1 CALLDATASIZE SUB DUP2 ADD SWAP1 PUSH2 0x123 SWAP2 SWAP1 PUSH2 0xEA0 JUMP JUMPDEST PUSH2 0x499 JUMP JUMPDEST PUSH1 0x40 MLOAD PUSH2 0x135 SWAP2 SWAP1 PUSH2 0xF0A JUMP JUMPDEST PUSH1 0x40 MLOAD DUP1 SWAP2 SUB SWAP1 RETURN JUMPDEST PUSH2 0x158 PUSH1 0x4 DUP1 CALLDATASIZE SUB DUP2 ADD SWAP1 PUSH2 0x153 SWAP2 SWAP1 PUSH2 0xD1B JUMP JUMPDEST PUSH2 0x549 JUMP JUMPDEST STOP JUMPDEST PUSH2 0x174 PUSH1 0x4 DUP1 CALLDATASIZE SUB DUP2 ADD SWAP1 PUSH2 0x16F SWAP2 SWAP1 PUSH2 0x104F JUMP JUMPDEST PUSH2 0x7FB JUMP JUMPDEST STOP JUMPDEST PUSH2 0x17E PUSH2 0x9E6 JUMP JUMPDEST PUSH1 0x40 MLOAD PUSH2 0x18B SWAP2 SWAP1 PUSH2 0x1096 JUMP JUMPDEST PUSH1 0x40 MLOAD DUP1 SWAP2 SUB SWAP1 RETURN JUMPDEST PUSH2 0x1AE PUSH1 0x4 DUP1 CALLDATASIZE SUB DUP2 ADD SWAP1 PUSH2 0x1A9 SWAP2 SWAP1 PUSH2 0x10AF JUMP JUMPDEST PUSH2 0xA0B JUMP JUMPDEST PUSH1 0x40 MLOAD PUSH2 0x1BB SWAP2 SWAP1 PUSH2 0x126E JUMP JUMPDEST PUSH1 0x40 MLOAD DUP1 SWAP2 SUB SWAP1 RETURN JUMPDEST PUSH1 0x1 PUSH1 0x20 MSTORE DUP2 PUSH0 MSTORE PUSH1 0x40 PUSH0 KECCAK256 DUP2 DUP2 SLOAD DUP2 LT PUSH2 0x1DD JUMPI PUSH0 DUP1 REVERT JUMPDEST SWAP1 PUSH0 MSTORE PUSH1 0x20 PUSH0 KECCAK256 SWAP1 PUSH1 0x6 MUL ADD PUSH0 SWAP2 POP SWAP2 POP POP DUP1 PUSH0 ADD SLOAD SWAP1 DUP1 PUSH1 0x1 ADD PUSH0 SWAP1 SLOAD SWAP1 PUSH2 0x100 EXP SWAP1 DIV PUSH20 0xFFFFFFFFFFFFFFFFFFFFFFFFFFFFFFFFFFFFFFFF AND SWAP1 DUP1 PUSH1 0x2 ADD DUP1 SLOAD PUSH2 0x228 SWAP1 PUSH2 0x12BB JUMP JUMPDEST DUP1 PUSH1 0x1F ADD PUSH1 0x20 DUP1 SWAP2 DIV MUL PUSH1 0x20 ADD PUSH1 0x40 MLOAD SWAP1 DUP2 ADD PUSH1 0x40 MSTORE DUP1 SWAP3 SWAP2 SWAP1 DUP2 DUP2 MSTORE PUSH1 0x20 ADD DUP3 DUP1 SLOAD PUSH2 0x254 SWAP1 PUSH2 0x12BB JUMP JUMPDEST DUP1 ISZERO PUSH2 0x29F JUMPI DUP1 PUSH1 0x1F LT PUSH2 0x276 JUMPI PUSH2 0x100 DUP1 DUP4 SLOAD DIV MUL DUP4 MSTORE SWAP2 PUSH1 0x20 ADD SWAP2 PUSH2 0x29F JUMP JUMPDEST DUP3 ADD SWAP2 SWAP1 PUSH0 MSTORE PUSH1 0x20 PUSH0 KECCAK256 SWAP1 JUMPDEST DUP2 SLOAD DUP2 MSTORE SWAP1 PUSH1 0x1 ADD SWAP1 PUSH1 0x20 ADD DUP1 DUP4 GT PUSH2 0x282 JUMPI DUP3 SWAP1 SUB PUSH1 0x1F AND DUP3 ADD SWAP2 JUMPDEST POP POP POP POP POP SWAP1 DUP1 PUSH1 0x3 ADD SLOAD SWAP1 DUP1 PUSH1 0x4 ADD SLOAD SWAP1 POP DUP6 JUMP JUMPDEST PUSH0 DUP1 PUSH1 0x60 PUSH0 DUP1 PUSH0 PUSH1 0x1 PUSH0 DUP10 PUSH20 0xFFFFFFFFFFFFFFFFFFFFFFFFFFFFFFFFFFFFFFFF AND PUSH20 0xFFFFFFFFFFFFFFFFFFFFFFFFFFFFFFFFFFFFFFFF AND DUP2 MSTORE PUSH1 0x20 ADD SWAP1 DUP2 MSTORE PUSH1 0x20 ADD PUSH0 KECCAK256 DUP8 DUP2 SLOAD DUP2 LT PUSH2 0x30B JUMPI PUSH2 0x30A PUSH2 0x12EB JUMP JUMPDEST JUMPDEST SWAP1 PUSH0 MSTORE PUSH1 0x20 PUSH0 KECCAK256 SWAP1 PUSH1 0x6 MUL ADD SWAP1 POP DUP1 PUSH0 ADD SLOAD DUP2 PUSH1 0x1 ADD PUSH0 SWAP1 SLOAD SWAP1 PUSH2 0x100 EXP SWAP1 DIV PUSH20 0xFFFFFFFFFFFFFFFFFFFFFFFFFFFFFFFFFFFFFFFF AND DUP3 PUSH1 0x2 ADD DUP4 PUSH1 0x3 ADD SLOAD DUP5 PUSH1 0x4 ADD SLOAD DUP3 DUP1 SLOAD PUSH2 0x35B SWAP1 PUSH2 0x12BB JUMP JUMPDEST DUP1 PUSH1 0x1F ADD PUSH1 0x20 DUP1 SWAP2 DIV MUL PUSH1 0x20 ADD PUSH1 0x40 MLOAD SWAP1 DUP2 ADD PUSH1 0x40 MSTORE DUP1 SWAP3 SWAP2 SWAP1 DUP2 DUP2 MSTORE PUSH1 0x20 ADD DUP3 DUP1 SLOAD PUSH2 0x387 SWAP1 PUSH2 0x12BB JUMP JUMPDEST DUP1 ISZERO PUSH2 0x3D2 JUMPI DUP1 PUSH1 0x1F LT PUSH2 0x3A9 JUMPI PUSH2 0x100 DUP1 DUP4 SLOAD DIV MUL DUP4 MSTORE SWAP2 PUSH1 0x20 ADD SWAP2 PUSH2 0x3D2 JUMP JUMPDEST DUP3 ADD SWAP2 SWAP1 PUSH0 MSTORE PUSH1 0x20 PUSH0 KECCAK256 SWAP1 JUMPDEST DUP2 SLOAD DUP2 MSTORE SWAP1 PUSH1 0x1 ADD SWAP1 PUSH1 0x20 ADD DUP1 DUP4 GT PUSH2 0x3B5 JUMPI DUP3 SWAP1 SUB PUSH1 0x1F AND DUP3 ADD SWAP2 JUMPDEST POP POP POP POP POP SWAP3 POP SWAP6 POP SWAP6 POP SWAP6 POP SWAP6 POP SWAP6 POP POP SWAP3 SWAP6 POP SWAP3 SWAP6 SWAP1 SWAP4 POP JUMP JUMPDEST PUSH0 PUSH1 0x1 SWAP1 SLOAD SWAP1 PUSH2 0x100 EXP SWAP1 DIV PUSH20 0xFFFFFFFFFFFFFFFFFFFFFFFFFFFFFFFFFFFFFFFF AND PUSH20 0xFFFFFFFFFFFFFFFFFFFFFFFFFFFFFFFFFFFFFFFF AND CALLER PUSH20 0xFFFFFFFFFFFFFFFFFFFFFFFFFFFFFFFFFFFFFFFF AND EQ PUSH2 0x47D JUMPI PUSH1 0x40 MLOAD PUSH32 0x8C379A000000000000000000000000000000000000000000000000000000000 DUP2 MSTORE PUSH1 0x4 ADD PUSH2 0x474 SWAP1 PUSH2 0x1362 JUMP JUMPDEST PUSH1 0x40 MLOAD DUP1 SWAP2 SUB SWAP1 REVERT JUMPDEST DUP1 PUSH0 DUP1 PUSH2 0x100 EXP DUP2 SLOAD DUP2 PUSH1 0xFF MUL NOT AND SWAP1 DUP4 PUSH1 0xFF AND MUL OR SWAP1 SSTORE POP POP JUMP JUMPDEST PUSH0 PUSH1 0x1 PUSH0 DUP6 PUSH20 0xFFFFFFFFFFFFFFFFFFFFFFFFFFFFFFFFFFFFFFFF AND PUSH20 0xFFFFFFFFFFFFFFFFFFFFFFFFFFFFFFFFFFFFFFFF AND DUP2 MSTORE PUSH1 0x20 ADD SWAP1 DUP2 MSTORE PUSH1 0x20 ADD PUSH0 KECCAK256 DUP4 DUP2 SLOAD DUP2 LT PUSH2 0x4E9 JUMPI PUSH2 0x4E8 PUSH2 0x12EB JUMP JUMPDEST JUMPDEST SWAP1 PUSH0 MSTORE PUSH1 0x20 PUSH0 KECCAK256 SWAP1 PUSH1 0x6 MUL ADD PUSH1 0x5 ADD PUSH0 DUP4 PUSH20 0xFFFFFFFFFFFFFFFFFFFFFFFFFFFFFFFFFFFFFFFF AND PUSH20 0xFFFFFFFFFFFFFFFFFFFFFFFFFFFFFFFFFFFFFFFF AND DUP2 MSTORE PUSH1 0x20 ADD SWAP1 DUP2 MSTORE PUSH1 0x20 ADD PUSH0 KECCAK256 PUSH0 SWAP1 SLOAD SWAP1 PUSH2 0x100 EXP SWAP1 DIV PUSH1 0xFF AND SWAP1 POP SWAP4 SWAP3 POP POP POP JUMP JUMPDEST PUSH2 0x554 DUP3 DUP3 CALLER PUSH2 0x499 JUMP JUMPDEST ISZERO PUSH2 0x682 JUMPI PUSH1 0x1 DUP1 PUSH0 DUP5 PUSH20 0xFFFFFFFFFFFFFFFFFFFFFFFFFFFFFFFFFFFFFFFF AND PUSH20 0xFFFFFFFFFFFFFFFFFFFFFFFFFFFFFFFFFFFFFFFF AND DUP2 MSTORE PUSH1 0x20 ADD SWAP1 DUP2 MSTORE PUSH1 0x20 ADD PUSH0 KECCAK256 DUP3 DUP2 SLOAD DUP2 LT PUSH2 0x5A9 JUMPI PUSH2 0x5A8 PUSH2 0x12EB JUMP JUMPDEST JUMPDEST SWAP1 PUSH0 MSTORE PUSH1 0x20 PUSH0 KECCAK256 SWAP1 PUSH1 0x6 MUL ADD PUSH1 0x4 ADD PUSH0 DUP3 DUP3 SLOAD PUSH2 0x5C6 SWAP2 SWAP1 PUSH2 0x13AD JUMP JUMPDEST SWAP3 POP POP DUP2 SWAP1 SSTORE POP PUSH0 PUSH1 0x1 PUSH0 DUP5 PUSH20 0xFFFFFFFFFFFFFFFFFFFFFFFFFFFFFFFFFFFFFFFF AND PUSH20 0xFFFFFFFFFFFFFFFFFFFFFFFFFFFFFFFFFFFFFFFF AND DUP2 MSTORE PUSH1 0x20 ADD SWAP1 DUP2 MSTORE PUSH1 0x20 ADD PUSH0 KECCAK256 DUP3 DUP2 SLOAD DUP2 LT PUSH2 0x61D JUMPI PUSH2 0x61C PUSH2 0x12EB JUMP JUMPDEST JUMPDEST SWAP1 PUSH0 MSTORE PUSH1 0x20 PUSH0 KECCAK256 SWAP1 PUSH1 0x6 MUL ADD PUSH1 0x5 ADD PUSH0 CALLER PUSH20 0xFFFFFFFFFFFFFFFFFFFFFFFFFFFFFFFFFFFFFFFF AND PUSH20 0xFFFFFFFFFFFFFFFFFFFFFFFFFFFFFFFFFFFFFFFF AND DUP2 MSTORE PUSH1 0x20 ADD SWAP1 DUP2 MSTORE PUSH1 0x20 ADD PUSH0 KECCAK256 PUSH0 PUSH2 0x100 EXP DUP2 SLOAD DUP2 PUSH1 0xFF MUL NOT AND SWAP1 DUP4 ISZERO ISZERO MUL OR SWAP1 SSTORE POP PUSH2 0x7A7 JUMP JUMPDEST PUSH1 0x1 DUP1 PUSH0 DUP5 PUSH20 0xFFFFFFFFFFFFFFFFFFFFFFFFFFFFFFFFFFFFFFFF AND PUSH20 0xFFFFFFFFFFFFFFFFFFFFFFFFFFFFFFFFFFFFFFFF AND DUP2 MSTORE PUSH1 0x20 ADD SWAP1 DUP2 MSTORE PUSH1 0x20 ADD PUSH0 KECCAK256 DUP3 DUP2 SLOAD DUP2 LT PUSH2 0x6D2 JUMPI PUSH2 0x6D1 PUSH2 0x12EB JUMP JUMPDEST JUMPDEST SWAP1 PUSH0 MSTORE PUSH1 0x20 PUSH0 KECCAK256 SWAP1 PUSH1 0x6 MUL ADD PUSH1 0x4 ADD PUSH0 DUP3 DUP3 SLOAD PUSH2 0x6EF SWAP2 SWAP1 PUSH2 0x13E0 JUMP JUMPDEST SWAP3 POP POP DUP2 SWAP1 SSTORE POP PUSH1 0x1 DUP1 PUSH0 DUP5 PUSH20 0xFFFFFFFFFFFFFFFFFFFFFFFFFFFFFFFFFFFFFFFF AND PUSH20 0xFFFFFFFFFFFFFFFFFFFFFFFFFFFFFFFFFFFFFFFF AND DUP2 MSTORE PUSH1 0x20 ADD SWAP1 DUP2 MSTORE PUSH1 0x20 ADD PUSH0 KECCAK256 DUP3 DUP2 SLOAD DUP2 LT PUSH2 0x746 JUMPI PUSH2 0x745 PUSH2 0x12EB JUMP JUMPDEST JUMPDEST SWAP1 PUSH0 MSTORE PUSH1 0x20 PUSH0 KECCAK256 SWAP1 PUSH1 0x6 MUL ADD PUSH1 0x5 ADD PUSH0 CALLER PUSH20 0xFFFFFFFFFFFFFFFFFFFFFFFFFFFFFFFFFFFFFFFF AND PUSH20 0xFFFFFFFFFFFFFFFFFFFFFFFFFFFFFFFFFFFFFFFF AND DUP2 MSTORE PUSH1 0x20 ADD SWAP1 DUP2 MSTORE PUSH1 0x20 ADD PUSH0 KECCAK256 PUSH0 PUSH2 0x100 EXP DUP2 SLOAD DUP2 PUSH1 0xFF MUL NOT AND SWAP1 DUP4 ISZERO ISZERO MUL OR SWAP1 SSTORE POP JUMPDEST CALLER PUSH20 0xFFFFFFFFFFFFFFFFFFFFFFFFFFFFFFFFFFFFFFFF AND PUSH32 0x7C4B06BAEE4C2050D672EEF0084A1BAAF8D938D7F9EDDC476D9A89847171B537 DUP4 DUP4 PUSH1 0x40 MLOAD PUSH2 0x7EF SWAP3 SWAP2 SWAP1 PUSH2 0x1413 JUMP JUMPDEST PUSH1 0x40 MLOAD DUP1 SWAP2 SUB SWAP1 LOG2 POP POP JUMP JUMPDEST PUSH0 DUP1 SLOAD SWAP1 PUSH2 0x100 EXP SWAP1 DIV PUSH1 0xFF AND PUSH1 0xFF AND DUP2 MLOAD GT ISZERO PUSH2 0x84E JUMPI PUSH1 0x40 MLOAD PUSH32 0x8C379A000000000000000000000000000000000000000000000000000000000 DUP2 MSTORE PUSH1 0x4 ADD PUSH2 0x845 SWAP1 PUSH2 0x1484 JUMP JUMPDEST PUSH1 0x40 MLOAD DUP1 SWAP2 SUB SWAP1 REVERT JUMPDEST PUSH0 PUSH1 0x1 PUSH0 CALLER PUSH20 0xFFFFFFFFFFFFFFFFFFFFFFFFFFFFFFFFFFFFFFFF AND PUSH20 0xFFFFFFFFFFFFFFFFFFFFFFFFFFFFFFFFFFFFFFFF AND DUP2 MSTORE PUSH1 0x20 ADD SWAP1 DUP2 MSTORE PUSH1 0x20 ADD PUSH0 KECCAK256 PUSH1 0x1 DUP2 PUSH1 0x1 DUP2 SLOAD ADD DUP1 DUP3 SSTORE DUP1 SWAP2 POP POP SUB SWAP1 PUSH0 MSTORE PUSH1 0x20 PUSH0 KECCAK256 SWAP1 PUSH1 0x6 MUL ADD SWAP1 POP PUSH1 0x1 DUP1 PUSH0 CALLER PUSH20 0xFFFFFFFFFFFFFFFFFFFFFFFFFFFFFFFFFFFFFFFF AND PUSH20 0xFFFFFFFFFFFFFFFFFFFFFFFFFFFFFFFFFFFFFFFF AND DUP2 MSTORE PUSH1 0x20 ADD SWAP1 DUP2 MSTORE PUSH1 0x20 ADD PUSH0 KECCAK256 DUP1 SLOAD SWAP1 POP PUSH2 0x8F6 SWAP2 SWAP1 PUSH2 0x13AD JUMP JUMPDEST DUP2 PUSH0 ADD DUP2 SWAP1 SSTORE POP CALLER DUP2 PUSH1 0x1 ADD PUSH0 PUSH2 0x100 EXP DUP2 SLOAD DUP2 PUSH20 0xFFFFFFFFFFFFFFFFFFFFFFFFFFFFFFFFFFFFFFFF MUL NOT AND SWAP1 DUP4 PUSH20 0xFFFFFFFFFFFFFFFFFFFFFFFFFFFFFFFFFFFFFFFF AND MUL OR SWAP1 SSTORE POP DUP2 DUP2 PUSH1 0x2 ADD SWAP1 DUP2 PUSH2 0x950 SWAP2 SWAP1 PUSH2 0x163F JUMP JUMPDEST POP TIMESTAMP DUP2 PUSH1 0x3 ADD DUP2 SWAP1 SSTORE POP PUSH0 DUP2 PUSH1 0x4 ADD DUP2 SWAP1 SSTORE POP DUP1 PUSH1 0x1 ADD PUSH0 SWAP1 SLOAD SWAP1 PUSH2 0x100 EXP SWAP1 DIV PUSH20 0xFFFFFFFFFFFFFFFFFFFFFFFFFFFFFFFFFFFFFFFF AND PUSH20 0xFFFFFFFFFFFFFFFFFFFFFFFFFFFFFFFFFFFFFFFF AND PUSH32 0x16FD3C13E9D46923E0A8BCE11C7B473EC508A72E6C96CD2404B29CE972AFC29E DUP3 PUSH0 ADD SLOAD DUP4 PUSH1 0x2 ADD DUP5 PUSH1 0x3 ADD SLOAD PUSH1 0x40 MLOAD PUSH2 0x9DA SWAP4 SWAP3 SWAP2 SWAP1 PUSH2 0x178F JUMP JUMPDEST PUSH1 0x40 MLOAD DUP1 SWAP2 SUB SWAP1 LOG2 POP POP JUMP JUMPDEST PUSH0 PUSH1 0x1 SWAP1 SLOAD SWAP1 PUSH2 0x100 EXP SWAP1 DIV PUSH20 0xFFFFFFFFFFFFFFFFFFFFFFFFFFFFFFFFFFFFFFFF AND DUP2 JUMP JUMPDEST PUSH1 0x60 PUSH0 PUSH1 0x1 PUSH0 DUP5 PUSH20 0xFFFFFFFFFFFFFFFFFFFFFFFFFFFFFFFFFFFFFFFF AND PUSH20 0xFFFFFFFFFFFFFFFFFFFFFFFFFFFFFFFFFFFFFFFF AND DUP2 MSTORE PUSH1 0x20 ADD SWAP1 DUP2 MSTORE PUSH1 0x20 ADD PUSH0 KECCAK256 DUP1 SLOAD SWAP1 POP SWAP1 POP PUSH0 DUP2 PUSH8 0xFFFFFFFFFFFFFFFF DUP2 GT ISZERO PUSH2 0xA6C JUMPI PUSH2 0xA6B PUSH2 0xF2B JUMP JUMPDEST JUMPDEST PUSH1 0x40 MLOAD SWAP1 DUP1 DUP3 MSTORE DUP1 PUSH1 0x20 MUL PUSH1 0x20 ADD DUP3 ADD PUSH1 0x40 MSTORE DUP1 ISZERO PUSH2 0xAA5 JUMPI DUP2 PUSH1 0x20 ADD JUMPDEST PUSH2 0xA92 PUSH2 0xC3C JUMP JUMPDEST DUP2 MSTORE PUSH1 0x20 ADD SWAP1 PUSH1 0x1 SWAP1 SUB SWAP1 DUP2 PUSH2 0xA8A JUMPI SWAP1 POP JUMPDEST POP SWAP1 POP PUSH0 JUMPDEST DUP3 DUP2 LT ISZERO PUSH2 0xC31 JUMPI PUSH0 PUSH1 0x1 PUSH0 DUP8 PUSH20 0xFFFFFFFFFFFFFFFFFFFFFFFFFFFFFFFFFFFFFFFF AND PUSH20 0xFFFFFFFFFFFFFFFFFFFFFFFFFFFFFFFFFFFFFFFF AND DUP2 MSTORE PUSH1 0x20 ADD SWAP1 DUP2 MSTORE PUSH1 0x20 ADD PUSH0 KECCAK256 DUP3 DUP2 SLOAD DUP2 LT PUSH2 0xB02 JUMPI PUSH2 0xB01 PUSH2 0x12EB JUMP JUMPDEST JUMPDEST SWAP1 PUSH0 MSTORE PUSH1 0x20 PUSH0 KECCAK256 SWAP1 PUSH1 0x6 MUL ADD SWAP1 POP PUSH1 0x40 MLOAD DUP1 PUSH1 0xA0 ADD PUSH1 0x40 MSTORE DUP1 DUP3 PUSH0 ADD SLOAD DUP2 MSTORE PUSH1 0x20 ADD DUP3 PUSH1 0x1 ADD PUSH0 SWAP1 SLOAD SWAP1 PUSH2 0x100 EXP SWAP1 DIV PUSH20 0xFFFFFFFFFFFFFFFFFFFFFFFFFFFFFFFFFFFFFFFF AND PUSH20 0xFFFFFFFFFFFFFFFFFFFFFFFFFFFFFFFFFFFFFFFF AND DUP2 MSTORE PUSH1 0x20 ADD DUP3 PUSH1 0x2 ADD DUP1 SLOAD PUSH2 0xB72 SWAP1 PUSH2 0x12BB JUMP JUMPDEST DUP1 PUSH1 0x1F ADD PUSH1 0x20 DUP1 SWAP2 DIV MUL PUSH1 0x20 ADD PUSH1 0x40 MLOAD SWAP1 DUP2 ADD PUSH1 0x40 MSTORE DUP1 SWAP3 SWAP2 SWAP1 DUP2 DUP2 MSTORE PUSH1 0x20 ADD DUP3 DUP1 SLOAD PUSH2 0xB9E SWAP1 PUSH2 0x12BB JUMP JUMPDEST DUP1 ISZERO PUSH2 0xBE9 JUMPI DUP1 PUSH1 0x1F LT PUSH2 0xBC0 JUMPI PUSH2 0x100 DUP1 DUP4 SLOAD DIV MUL DUP4 MSTORE SWAP2 PUSH1 0x20 ADD SWAP2 PUSH2 0xBE9 JUMP JUMPDEST DUP3 ADD SWAP2 SWAP1 PUSH0 MSTORE PUSH1 0x20 PUSH0 KECCAK256 SWAP1 JUMPDEST DUP2 SLOAD DUP2 MSTORE SWAP1 PUSH1 0x1 ADD SWAP1 PUSH1 0x20 ADD DUP1 DUP4 GT PUSH2 0xBCC JUMPI DUP3 SWAP1 SUB PUSH1 0x1F AND DUP3 ADD SWAP2 JUMPDEST POP POP POP POP POP DUP2 MSTORE PUSH1 0x20 ADD DUP3 PUSH1 0x3 ADD SLOAD DUP2 MSTORE PUSH1 0x20 ADD DUP3 PUSH1 0x4 ADD SLOAD DUP2 MSTORE POP DUP4 DUP4 DUP2 MLOAD DUP2 LT PUSH2 0xC18 JUMPI PUSH2 0xC17 PUSH2 0x12EB JUMP JUMPDEST JUMPDEST PUSH1 0x20 MUL PUSH1 0x20 ADD ADD DUP2 SWAP1 MSTORE POP POP DUP1 DUP1 PUSH1 0x1 ADD SWAP2 POP POP PUSH2 0xAAA JUMP JUMPDEST POP DUP1 SWAP3 POP POP POP SWAP2 SWAP1 POP JUMP JUMPDEST PUSH1 0x40 MLOAD DUP1 PUSH1 0xA0 ADD PUSH1 0x40 MSTORE DUP1 PUSH0 DUP2 MSTORE PUSH1 0x20 ADD PUSH0 PUSH20 0xFFFFFFFFFFFFFFFFFFFFFFFFFFFFFFFFFFFFFFFF AND DUP2 MSTORE PUSH1 0x20 ADD PUSH1 0x60 DUP2 MSTORE PUSH1 0x20 ADD PUSH0 DUP2 MSTORE PUSH1 0x20 ADD PUSH0 DUP2 MSTORE POP SWAP1 JUMP JUMPDEST PUSH0 PUSH1 0x40 MLOAD SWAP1 POP SWAP1 JUMP JUMPDEST PUSH0 DUP1 REVERT JUMPDEST PUSH0 DUP1 REVERT JUMPDEST PUSH0 PUSH20 0xFFFFFFFFFFFFFFFFFFFFFFFFFFFFFFFFFFFFFFFF DUP3 AND SWAP1 POP SWAP2 SWAP1 POP JUMP JUMPDEST PUSH0 PUSH2 0xCB7 DUP3 PUSH2 0xC8E JUMP JUMPDEST SWAP1 POP SWAP2 SWAP1 POP JUMP JUMPDEST PUSH2 0xCC7 DUP2 PUSH2 0xCAD JUMP JUMPDEST DUP2 EQ PUSH2 0xCD1 JUMPI PUSH0 DUP1 REVERT JUMPDEST POP JUMP JUMPDEST PUSH0 DUP2 CALLDATALOAD SWAP1 POP PUSH2 0xCE2 DUP2 PUSH2 0xCBE JUMP JUMPDEST SWAP3 SWAP2 POP POP JUMP JUMPDEST PUSH0 DUP2 SWAP1 POP SWAP2 SWAP1 POP JUMP JUMPDEST PUSH2 0xCFA DUP2 PUSH2 0xCE8 JUMP JUMPDEST DUP2 EQ PUSH2 0xD04 JUMPI PUSH0 DUP1 REVERT JUMPDEST POP JUMP JUMPDEST PUSH0 DUP2 CALLDATALOAD SWAP1 POP PUSH2 0xD15 DUP2 PUSH2 0xCF1 JUMP JUMPDEST SWAP3 SWAP2 POP POP JUMP JUMPDEST PUSH0 DUP1 PUSH1 0x40 DUP4 DUP6 SUB SLT ISZERO PUSH2 0xD31 JUMPI PUSH2 0xD30 PUSH2 0xC86 JUMP JUMPDEST JUMPDEST PUSH0 PUSH2 0xD3E DUP6 DUP3 DUP7 ADD PUSH2 0xCD4 JUMP JUMPDEST SWAP3 POP POP PUSH1 0x20 PUSH2 0xD4F DUP6 DUP3 DUP7 ADD PUSH2 0xD07 JUMP JUMPDEST SWAP2 POP POP SWAP3 POP SWAP3 SWAP1 POP JUMP JUMPDEST PUSH2 0xD62 DUP2 PUSH2 0xCE8 JUMP JUMPDEST DUP3 MSTORE POP POP JUMP JUMPDEST PUSH2 0xD71 DUP2 PUSH2 0xCAD JUMP JUMPDEST DUP3 MSTORE POP POP JUMP JUMPDEST PUSH0 DUP2 MLOAD SWAP1 POP SWAP2 SWAP1 POP JUMP JUMPDEST PUSH0 DUP3 DUP3 MSTORE PUSH1 0x20 DUP3 ADD SWAP1 POP SWAP3 SWAP2 POP POP JUMP JUMPDEST DUP3 DUP2 DUP4 MCOPY PUSH0 DUP4 DUP4 ADD MSTORE POP POP POP JUMP JUMPDEST PUSH0 PUSH1 0x1F NOT PUSH1 0x1F DUP4 ADD AND SWAP1 POP SWAP2 SWAP1 POP JUMP JUMPDEST PUSH0 PUSH2 0xDB9 DUP3 PUSH2 0xD77 JUMP JUMPDEST PUSH2 0xDC3 DUP2 DUP6 PUSH2 0xD81 JUMP JUMPDEST SWAP4 POP PUSH2 0xDD3 DUP2 DUP6 PUSH1 0x20 DUP7 ADD PUSH2 0xD91 JUMP JUMPDEST PUSH2 0xDDC DUP2 PUSH2 0xD9F JUMP JUMPDEST DUP5 ADD SWAP2 POP POP SWAP3 SWAP2 POP POP JUMP JUMPDEST PUSH0 PUSH1 0xA0 DUP3 ADD SWAP1 POP PUSH2 0xDFA PUSH0 DUP4 ADD DUP9 PUSH2 0xD59 JUMP JUMPDEST PUSH2 0xE07 PUSH1 0x20 DUP4 ADD DUP8 PUSH2 0xD68 JUMP JUMPDEST DUP2 DUP2 SUB PUSH1 0x40 DUP4 ADD MSTORE PUSH2 0xE19 DUP2 DUP7 PUSH2 0xDAF JUMP JUMPDEST SWAP1 POP PUSH2 0xE28 PUSH1 0x60 DUP4 ADD DUP6 PUSH2 0xD59 JUMP JUMPDEST PUSH2 0xE35 PUSH1 0x80 DUP4 ADD DUP5 PUSH2 0xD59 JUMP JUMPDEST SWAP7 SWAP6 POP POP POP POP POP POP JUMP JUMPDEST PUSH0 PUSH1 0xFF DUP3 AND SWAP1 POP SWAP2 SWAP1 POP JUMP JUMPDEST PUSH2 0xE54 DUP2 PUSH2 0xE3F JUMP JUMPDEST DUP2 EQ PUSH2 0xE5E JUMPI PUSH0 DUP1 REVERT JUMPDEST POP JUMP JUMPDEST PUSH0 DUP2 CALLDATALOAD SWAP1 POP PUSH2 0xE6F DUP2 PUSH2 0xE4B JUMP JUMPDEST SWAP3 SWAP2 POP POP JUMP JUMPDEST PUSH0 PUSH1 0x20 DUP3 DUP5 SUB SLT ISZERO PUSH2 0xE8A JUMPI PUSH2 0xE89 PUSH2 0xC86 JUMP JUMPDEST JUMPDEST PUSH0 PUSH2 0xE97 DUP5 DUP3 DUP6 ADD PUSH2 0xE61 JUMP JUMPDEST SWAP2 POP POP SWAP3 SWAP2 POP POP JUMP JUMPDEST PUSH0 DUP1 PUSH0 PUSH1 0x60 DUP5 DUP7 SUB SLT ISZERO PUSH2 0xEB7 JUMPI PUSH2 0xEB6 PUSH2 0xC86 JUMP JUMPDEST JUMPDEST PUSH0 PUSH2 0xEC4 DUP7 DUP3 DUP8 ADD PUSH2 0xCD4 JUMP JUMPDEST SWAP4 POP POP PUSH1 0x20 PUSH2 0xED5 DUP7 DUP3 DUP8 ADD PUSH2 0xD07 JUMP JUMPDEST SWAP3 POP POP PUSH1 0x40 PUSH2 0xEE6 DUP7 DUP3 DUP8 ADD PUSH2 0xCD4 JUMP JUMPDEST SWAP2 POP POP SWAP3 POP SWAP3 POP SWAP3 JUMP JUMPDEST PUSH0 DUP2 ISZERO ISZERO SWAP1 POP SWAP2 SWAP1 POP JUMP JUMPDEST PUSH2 0xF04 DUP2 PUSH2 0xEF0 JUMP JUMPDEST DUP3 MSTORE POP POP JUMP JUMPDEST PUSH0 PUSH1 0x20 DUP3 ADD SWAP1 POP PUSH2 0xF1D PUSH0 DUP4 ADD DUP5 PUSH2 0xEFB JUMP JUMPDEST SWAP3 SWAP2 POP POP JUMP JUMPDEST PUSH0 DUP1 REVERT JUMPDEST PUSH0 DUP1 REVERT JUMPDEST PUSH32 0x4E487B7100000000000000000000000000000000000000000000000000000000 PUSH0 MSTORE PUSH1 0x41 PUSH1 0x4 MSTORE PUSH1 0x24 PUSH0 REVERT JUMPDEST PUSH2 0xF61 DUP3 PUSH2 0xD9F JUMP JUMPDEST DUP2 ADD DUP2 DUP2 LT PUSH8 0xFFFFFFFFFFFFFFFF DUP3 GT OR ISZERO PUSH2 0xF80 JUMPI PUSH2 0xF7F PUSH2 0xF2B JUMP JUMPDEST JUMPDEST DUP1 PUSH1 0x40 MSTORE POP POP POP JUMP JUMPDEST PUSH0 PUSH2 0xF92 PUSH2 0xC7D JUMP JUMPDEST SWAP1 POP PUSH2 0xF9E DUP3 DUP3 PUSH2 0xF58 JUMP JUMPDEST SWAP2 SWAP1 POP JUMP JUMPDEST PUSH0 PUSH8 0xFFFFFFFFFFFFFFFF DUP3 GT ISZERO PUSH2 0xFBD JUMPI PUSH2 0xFBC PUSH2 0xF2B JUMP JUMPDEST JUMPDEST PUSH2 0xFC6 DUP3 PUSH2 0xD9F JUMP JUMPDEST SWAP1 POP PUSH1 0x20 DUP2 ADD SWAP1 POP SWAP2 SWAP1 POP JUMP JUMPDEST DUP3 DUP2 DUP4 CALLDATACOPY PUSH0 DUP4 DUP4 ADD MSTORE POP POP POP JUMP JUMPDEST PUSH0 PUSH2 0xFF3 PUSH2 0xFEE DUP5 PUSH2 0xFA3 JUMP JUMPDEST PUSH2 0xF89 JUMP JUMPDEST SWAP1 POP DUP3 DUP2 MSTORE PUSH1 0x20 DUP2 ADD DUP5 DUP5 DUP5 ADD GT ISZERO PUSH2 0x100F JUMPI PUSH2 0x100E PUSH2 0xF27 JUMP JUMPDEST JUMPDEST PUSH2 0x101A DUP5 DUP3 DUP6 PUSH2 0xFD3 JUMP JUMPDEST POP SWAP4 SWAP3 POP POP POP JUMP JUMPDEST PUSH0 DUP3 PUSH1 0x1F DUP4 ADD SLT PUSH2 0x1036 JUMPI PUSH2 0x1035 PUSH2 0xF23 JUMP JUMPDEST JUMPDEST DUP2 CALLDATALOAD PUSH2 0x1046 DUP5 DUP3 PUSH1 0x20 DUP7 ADD PUSH2 0xFE1 JUMP JUMPDEST SWAP2 POP POP SWAP3 SWAP2 POP POP JUMP JUMPDEST PUSH0 PUSH1 0x20 DUP3 DUP5 SUB SLT ISZERO PUSH2 0x1064 JUMPI PUSH2 0x1063 PUSH2 0xC86 JUMP JUMPDEST JUMPDEST PUSH0 DUP3 ADD CALLDATALOAD PUSH8 0xFFFFFFFFFFFFFFFF DUP2 GT ISZERO PUSH2 0x1081 JUMPI PUSH2 0x1080 PUSH2 0xC8A JUMP JUMPDEST JUMPDEST PUSH2 0x108D DUP5 DUP3 DUP6 ADD PUSH2 0x1022 JUMP JUMPDEST SWAP2 POP POP SWAP3 SWAP2 POP POP JUMP JUMPDEST PUSH0 PUSH1 0x20 DUP3 ADD SWAP1 POP PUSH2 0x10A9 PUSH0 DUP4 ADD DUP5 PUSH2 0xD68 JUMP JUMPDEST SWAP3 SWAP2 POP POP JUMP JUMPDEST PUSH0 PUSH1 0x20 DUP3 DUP5 SUB SLT ISZERO PUSH2 0x10C4 JUMPI PUSH2 0x10C3 PUSH2 0xC86 JUMP JUMPDEST JUMPDEST PUSH0 PUSH2 0x10D1 DUP5 DUP3 DUP6 ADD PUSH2 0xCD4 JUMP JUMPDEST SWAP2 POP POP SWAP3 SWAP2 POP POP JUMP JUMPDEST PUSH0 DUP2 MLOAD SWAP1 POP SWAP2 SWAP1 POP JUMP JUMPDEST PUSH0 DUP3 DUP3 MSTORE PUSH1 0x20 DUP3 ADD SWAP1 POP SWAP3 SWAP2 POP POP JUMP JUMPDEST PUSH0 DUP2 SWAP1 POP PUSH1 0x20 DUP3 ADD SWAP1 POP SWAP2 SWAP1 POP JUMP JUMPDEST PUSH2 0x110C DUP2 PUSH2 0xCE8 JUMP JUMPDEST DUP3 MSTORE POP POP JUMP JUMPDEST PUSH2 0x111B DUP2 PUSH2 0xCAD JUMP JUMPDEST DUP3 MSTORE POP POP JUMP JUMPDEST PUSH0 DUP3 DUP3 MSTORE PUSH1 0x20 DUP3 ADD SWAP1 POP SWAP3 SWAP2 POP POP JUMP JUMPDEST PUSH0 PUSH2 0x113B DUP3 PUSH2 0xD77 JUMP JUMPDEST PUSH2 0x1145 DUP2 DUP6 PUSH2 0x1121 JUMP JUMPDEST SWAP4 POP PUSH2 0x1155 DUP2 DUP6 PUSH1 0x20 DUP7 ADD PUSH2 0xD91 JUMP JUMPDEST PUSH2 0x115E DUP2 PUSH2 0xD9F JUMP JUMPDEST DUP5 ADD SWAP2 POP POP SWAP3 SWAP2 POP POP JUMP JUMPDEST PUSH0 PUSH1 0xA0 DUP4 ADD PUSH0 DUP4 ADD MLOAD PUSH2 0x117E PUSH0 DUP7 ADD DUP3 PUSH2 0x1103 JUMP JUMPDEST POP PUSH1 0x20 DUP4 ADD MLOAD PUSH2 0x1191 PUSH1 0x20 DUP7 ADD DUP3 PUSH2 0x1112 JUMP JUMPDEST POP PUSH1 0x40 DUP4 ADD MLOAD DUP5 DUP3 SUB PUSH1 0x40 DUP7 ADD MSTORE PUSH2 0x11A9 DUP3 DUP3 PUSH2 0x1131 JUMP JUMPDEST SWAP2 POP POP PUSH1 0x60 DUP4 ADD MLOAD PUSH2 0x11BE PUSH1 0x60 DUP7 ADD DUP3 PUSH2 0x1103 JUMP JUMPDEST POP PUSH1 0x80 DUP4 ADD MLOAD PUSH2 0x11D1 PUSH1 0x80 DUP7 ADD DUP3 PUSH2 0x1103 JUMP JUMPDEST POP DUP1 SWAP2 POP POP SWAP3 SWAP2 POP POP JUMP JUMPDEST PUSH0 PUSH2 0x11E7 DUP4 DUP4 PUSH2 0x1169 JUMP JUMPDEST SWAP1 POP SWAP3 SWAP2 POP POP JUMP JUMPDEST PUSH0 PUSH1 0x20 DUP3 ADD SWAP1 POP SWAP2 SWAP1 POP JUMP JUMPDEST PUSH0 PUSH2 0x1205 DUP3 PUSH2 0x10DA JUMP JUMPDEST PUSH2 0x120F DUP2 DUP6 PUSH2 0x10E4 JUMP JUMPDEST SWAP4 POP DUP4 PUSH1 0x20 DUP3 MUL DUP6 ADD PUSH2 0x1221 DUP6 PUSH2 0x10F4 JUMP JUMPDEST DUP1 PUSH0 JUMPDEST DUP6 DUP2 LT ISZERO PUSH2 0x125C JUMPI DUP5 DUP5 SUB DUP10 MSTORE DUP2 MLOAD PUSH2 0x123D DUP6 DUP3 PUSH2 0x11DC JUMP JUMPDEST SWAP5 POP PUSH2 0x1248 DUP4 PUSH2 0x11EF JUMP JUMPDEST SWAP3 POP PUSH1 0x20 DUP11 ADD SWAP10 POP POP PUSH1 0x1 DUP2 ADD SWAP1 POP PUSH2 0x1224 JUMP JUMPDEST POP DUP3 SWAP8 POP DUP8 SWAP6 POP POP POP POP POP POP SWAP3 SWAP2 POP POP JUMP JUMPDEST PUSH0 PUSH1 0x20 DUP3 ADD SWAP1 POP DUP2 DUP2 SUB PUSH0 DUP4 ADD MSTORE PUSH2 0x1286 DUP2 DUP5 PUSH2 0x11FB JUMP JUMPDEST SWAP1 POP SWAP3 SWAP2 POP POP JUMP JUMPDEST PUSH32 0x4E487B7100000000000000000000000000000000000000000000000000000000 PUSH0 MSTORE PUSH1 0x22 PUSH1 0x4 MSTORE PUSH1 0x24 PUSH0 REVERT JUMPDEST PUSH0 PUSH1 0x2 DUP3 DIV SWAP1 POP PUSH1 0x1 DUP3 AND DUP1 PUSH2 0x12D2 JUMPI PUSH1 0x7F DUP3 AND SWAP2 POP JUMPDEST PUSH1 0x20 DUP3 LT DUP2 SUB PUSH2 0x12E5 JUMPI PUSH2 0x12E4 PUSH2 0x128E JUMP JUMPDEST JUMPDEST POP SWAP2 SWAP1 POP JUMP JUMPDEST PUSH32 0x4E487B7100000000000000000000000000000000000000000000000000000000 PUSH0 MSTORE PUSH1 0x32 PUSH1 0x4 MSTORE PUSH1 0x24 PUSH0 REVERT JUMPDEST PUSH32 0x596F7520617265206E6F7420746865206F776E65720000000000000000000000 PUSH0 DUP3 ADD MSTORE POP JUMP JUMPDEST PUSH0 PUSH2 0x134C PUSH1 0x15 DUP4 PUSH2 0xD81 JUMP JUMPDEST SWAP2 POP PUSH2 0x1357 DUP3 PUSH2 0x1318 JUMP JUMPDEST PUSH1 0x20 DUP3 ADD SWAP1 POP SWAP2 SWAP1 POP JUMP JUMPDEST PUSH0 PUSH1 0x20 DUP3 ADD SWAP1 POP DUP2 DUP2 SUB PUSH0 DUP4 ADD MSTORE PUSH2 0x1379 DUP2 PUSH2 0x1340 JUMP JUMPDEST SWAP1 POP SWAP2 SWAP1 POP JUMP JUMPDEST PUSH32 0x4E487B7100000000000000000000000000000000000000000000000000000000 PUSH0 MSTORE PUSH1 0x11 PUSH1 0x4 MSTORE PUSH1 0x24 PUSH0 REVERT JUMPDEST PUSH0 PUSH2 0x13B7 DUP3 PUSH2 0xCE8 JUMP JUMPDEST SWAP2 POP PUSH2 0x13C2 DUP4 PUSH2 0xCE8 JUMP JUMPDEST SWAP3 POP DUP3 DUP3 SUB SWAP1 POP DUP2 DUP2 GT ISZERO PUSH2 0x13DA JUMPI PUSH2 0x13D9 PUSH2 0x1380 JUMP JUMPDEST JUMPDEST SWAP3 SWAP2 POP POP JUMP JUMPDEST PUSH0 PUSH2 0x13EA DUP3 PUSH2 0xCE8 JUMP JUMPDEST SWAP2 POP PUSH2 0x13F5 DUP4 PUSH2 0xCE8 JUMP JUMPDEST SWAP3 POP DUP3 DUP3 ADD SWAP1 POP DUP1 DUP3 GT ISZERO PUSH2 0x140D JUMPI PUSH2 0x140C PUSH2 0x1380 JUMP JUMPDEST JUMPDEST SWAP3 SWAP2 POP POP JUMP JUMPDEST PUSH0 PUSH1 0x40 DUP3 ADD SWAP1 POP PUSH2 0x1426 PUSH0 DUP4 ADD DUP6 PUSH2 0xD68 JUMP JUMPDEST PUSH2 0x1433 PUSH1 0x20 DUP4 ADD DUP5 PUSH2 0xD59 JUMP JUMPDEST SWAP4 SWAP3 POP POP POP JUMP JUMPDEST PUSH32 0x547765657420697320746F6F206C6F6E67000000000000000000000000000000 PUSH0 DUP3 ADD MSTORE POP JUMP JUMPDEST PUSH0 PUSH2 0x146E PUSH1 0x11 DUP4 PUSH2 0xD81 JUMP JUMPDEST SWAP2 POP PUSH2 0x1479 DUP3 PUSH2 0x143A JUMP JUMPDEST PUSH1 0x20 DUP3 ADD SWAP1 POP SWAP2 SWAP1 POP JUMP JUMPDEST PUSH0 PUSH1 0x20 DUP3 ADD SWAP1 POP DUP2 DUP2 SUB PUSH0 DUP4 ADD MSTORE PUSH2 0x149B DUP2 PUSH2 0x1462 JUMP JUMPDEST SWAP1 POP SWAP2 SWAP1 POP JUMP JUMPDEST PUSH0 DUP2 SWAP1 POP DUP2 PUSH0 MSTORE PUSH1 0x20 PUSH0 KECCAK256 SWAP1 POP SWAP2 SWAP1 POP JUMP JUMPDEST PUSH0 PUSH1 0x20 PUSH1 0x1F DUP4 ADD DIV SWAP1 POP SWAP2 SWAP1 POP JUMP JUMPDEST PUSH0 DUP3 DUP3 SHL SWAP1 POP SWAP3 SWAP2 POP POP JUMP JUMPDEST PUSH0 PUSH1 0x8 DUP4 MUL PUSH2 0x14FE PUSH32 0xFFFFFFFFFFFFFFFFFFFFFFFFFFFFFFFFFFFFFFFFFFFFFFFFFFFFFFFFFFFFFFFF DUP3 PUSH2 0x14C3 JUMP JUMPDEST PUSH2 0x1508 DUP7 DUP4 PUSH2 0x14C3 JUMP JUMPDEST SWAP6 POP DUP1 NOT DUP5 AND SWAP4 POP DUP1 DUP7 AND DUP5 OR SWAP3 POP POP POP SWAP4 SWAP3 POP POP POP JUMP JUMPDEST PUSH0 DUP2 SWAP1 POP SWAP2 SWAP1 POP JUMP JUMPDEST PUSH0 PUSH2 0x1543 PUSH2 0x153E PUSH2 0x1539 DUP5 PUSH2 0xCE8 JUMP JUMPDEST PUSH2 0x1520 JUMP JUMPDEST PUSH2 0xCE8 JUMP JUMPDEST SWAP1 POP SWAP2 SWAP1 POP JUMP JUMPDEST PUSH0 DUP2 SWAP1 POP SWAP2 SWAP1 POP JUMP JUMPDEST PUSH2 0x155C DUP4 PUSH2 0x1529 JUMP JUMPDEST PUSH2 0x1570 PUSH2 0x1568 DUP3 PUSH2 0x154A JUMP JUMPDEST DUP5 DUP5 SLOAD PUSH2 0x14CF JUMP JUMPDEST DUP3 SSTORE POP POP POP POP JUMP JUMPDEST PUSH0 SWAP1 JUMP JUMPDEST PUSH2 0x1584 PUSH2 0x1578 JUMP JUMPDEST PUSH2 0x158F DUP2 DUP5 DUP5 PUSH2 0x1553 JUMP JUMPDEST POP POP POP JUMP JUMPDEST JUMPDEST DUP2 DUP2 LT ISZERO PUSH2 0x15B2 JUMPI PUSH2 0x15A7 PUSH0 DUP3 PUSH2 0x157C JUMP JUMPDEST PUSH1 0x1 DUP2 ADD SWAP1 POP PUSH2 0x1595 JUMP JUMPDEST POP POP JUMP JUMPDEST PUSH1 0x1F DUP3 GT ISZERO PUSH2 0x15F7 JUMPI PUSH2 0x15C8 DUP2 PUSH2 0x14A2 JUMP JUMPDEST PUSH2 0x15D1 DUP5 PUSH2 0x14B4 JUMP JUMPDEST DUP2 ADD PUSH1 0x20 DUP6 LT ISZERO PUSH2 0x15E0 JUMPI DUP2 SWAP1 POP JUMPDEST PUSH2 0x15F4 PUSH2 0x15EC DUP6 PUSH2 0x14B4 JUMP JUMPDEST DUP4 ADD DUP3 PUSH2 0x1594 JUMP JUMPDEST POP POP JUMPDEST POP POP POP JUMP JUMPDEST PUSH0 DUP3 DUP3 SHR SWAP1 POP SWAP3 SWAP2 POP POP JUMP JUMPDEST PUSH0 PUSH2 0x1617 PUSH0 NOT DUP5 PUSH1 0x8 MUL PUSH2 0x15FC JUMP JUMPDEST NOT DUP1 DUP4 AND SWAP2 POP POP SWAP3 SWAP2 POP POP JUMP JUMPDEST PUSH0 PUSH2 0x162F DUP4 DUP4 PUSH2 0x1608 JUMP JUMPDEST SWAP2 POP DUP3 PUSH1 0x2 MUL DUP3 OR SWAP1 POP SWAP3 SWAP2 POP POP JUMP JUMPDEST PUSH2 0x1648 DUP3 PUSH2 0xD77 JUMP JUMPDEST PUSH8 0xFFFFFFFFFFFFFFFF DUP2 GT ISZERO PUSH2 0x1661 JUMPI PUSH2 0x1660 PUSH2 0xF2B JUMP JUMPDEST JUMPDEST PUSH2 0x166B DUP3 SLOAD PUSH2 0x12BB JUMP JUMPDEST PUSH2 0x1676 DUP3 DUP3 DUP6 PUSH2 0x15B6 JUMP JUMPDEST PUSH0 PUSH1 0x20 SWAP1 POP PUSH1 0x1F DUP4 GT PUSH1 0x1 DUP2 EQ PUSH2 0x16A7 JUMPI PUSH0 DUP5 ISZERO PUSH2 0x1695 JUMPI DUP3 DUP8 ADD MLOAD SWAP1 POP JUMPDEST PUSH2 0x169F DUP6 DUP3 PUSH2 0x1624 JUMP JUMPDEST DUP7 SSTORE POP PUSH2 0x1706 JUMP JUMPDEST PUSH1 0x1F NOT DUP5 AND PUSH2 0x16B5 DUP7 PUSH2 0x14A2 JUMP JUMPDEST PUSH0 JUMPDEST DUP3 DUP2 LT ISZERO PUSH2 0x16DC JUMPI DUP5 DUP10 ADD MLOAD DUP3 SSTORE PUSH1 0x1 DUP3 ADD SWAP2 POP PUSH1 0x20 DUP6 ADD SWAP5 POP PUSH1 0x20 DUP2 ADD SWAP1 POP PUSH2 0x16B7 JUMP JUMPDEST DUP7 DUP4 LT ISZERO PUSH2 0x16F9 JUMPI DUP5 DUP10 ADD MLOAD PUSH2 0x16F5 PUSH1 0x1F DUP10 AND DUP3 PUSH2 0x1608 JUMP JUMPDEST DUP4 SSTORE POP JUMPDEST PUSH1 0x1 PUSH1 0x2 DUP9 MUL ADD DUP9 SSTORE POP POP POP JUMPDEST POP POP POP POP POP POP JUMP JUMPDEST PUSH0 DUP2 SLOAD PUSH2 0x171A DUP2 PUSH2 0x12BB JUMP JUMPDEST PUSH2 0x1724 DUP2 DUP7 PUSH2 0xD81 JUMP JUMPDEST SWAP5 POP PUSH1 0x1 DUP3 AND PUSH0 DUP2 EQ PUSH2 0x173E JUMPI PUSH1 0x1 DUP2 EQ PUSH2 0x1754 JUMPI PUSH2 0x1786 JUMP JUMPDEST PUSH1 0xFF NOT DUP4 AND DUP7 MSTORE DUP2 ISZERO ISZERO PUSH1 0x20 MUL DUP7 ADD SWAP4 POP PUSH2 0x1786 JUMP JUMPDEST PUSH2 0x175D DUP6 PUSH2 0x14A2 JUMP JUMPDEST PUSH0 JUMPDEST DUP4 DUP2 LT ISZERO PUSH2 0x177E JUMPI DUP2 SLOAD DUP2 DUP10 ADD MSTORE PUSH1 0x1 DUP3 ADD SWAP2 POP PUSH1 0x20 DUP2 ADD SWAP1 POP PUSH2 0x175F JUMP JUMPDEST DUP1 DUP9 ADD SWAP6 POP POP POP JUMPDEST POP POP POP SWAP3 SWAP2 POP POP JUMP JUMPDEST PUSH0 PUSH1 0x60 DUP3 ADD SWAP1 POP PUSH2 0x17A2 PUSH0 DUP4 ADD DUP7 PUSH2 0xD59 JUMP JUMPDEST DUP2 DUP2 SUB PUSH1 0x20 DUP4 ADD MSTORE PUSH2 0x17B4 DUP2 DUP6 PUSH2 0x170E JUMP JUMPDEST SWAP1 POP PUSH2 0x17C3 PUSH1 0x40 DUP4 ADD DUP5 PUSH2 0xD59 JUMP JUMPDEST SWAP5 SWAP4 POP POP POP POP JUMP INVALID LOG2 PUSH5 0x6970667358 0x22 SLT KECCAK256 0xB2 0x28 PREVRANDAO AND 0xE 0xE0 0xEC 0x1E 0xC8 SWAP1 SWAP11 LOG1 0xD5 SGT STATICCALL 0xBB PUSH27 0x8D55EA9F702EE4DE43A688A706D46864736F6C634300081A003300 "
				},
				"gasEstimates": {
					"creation": {
						"codeDepositCost": "1229000",
						"executionCost": "49860",
						"totalCost": "1278860"
					},
					"external": {
						"changeTweetLength(uint8)": "26937",
						"createTweet(string)": "infinite",
						"getTweet(address,uint256)": "infinite",
						"getTweets(address)": "infinite",
						"hasLiked(address,uint256,address)": "infinite",
						"likeTweet(address,uint256)": "infinite",
						"owner()": "2602",
						"tweets(address,uint256)": "infinite"
					}
				},
				"methodIdentifiers": {
					"changeTweetLength(uint8)": "3a11e192",
					"createTweet(string)": "7c9cd2bc",
					"getTweet(address,uint256)": "112f54e3",
					"getTweets(address)": "9e92b093",
					"hasLiked(address,uint256,address)": "4ddf8940",
					"likeTweet(address,uint256)": "63378216",
					"owner()": "8da5cb5b",
					"tweets(address,uint256)": "05a1b4a9"
				}
			},
			"storageLayout": {
				"storage": [
					{
						"astId": 4,
						"contract": "contracts/twitter/Twitter.sol:Twitter",
						"label": "maxTweetLength",
						"offset": 0,
						"slot": "0",
						"type": "t_uint8"
					},
					{
						"astId": 6,
						"contract": "contracts/twitter/Twitter.sol:Twitter",
						"label": "owner",
						"offset": 1,
						"slot": "0",
						"type": "t_address"
					},
					{
						"astId": 12,
						"contract": "contracts/twitter/Twitter.sol:Twitter",
						"label": "tweets",
						"offset": 0,
						"slot": "1",
						"type": "t_mapping(t_address,t_array(t_struct(Tweet)27_storage)dyn_storage)"
					}
				],
				"types": {
					"t_address": {
						"encoding": "inplace",
						"label": "address",
						"numberOfBytes": "20"
					},
					"t_array(t_struct(Tweet)27_storage)dyn_storage": {
						"base": "t_struct(Tweet)27_storage",
						"encoding": "dynamic_array",
						"label": "struct Twitter.Tweet[]",
						"numberOfBytes": "32"
					},
					"t_bool": {
						"encoding": "inplace",
						"label": "bool",
						"numberOfBytes": "1"
					},
					"t_mapping(t_address,t_array(t_struct(Tweet)27_storage)dyn_storage)": {
						"encoding": "mapping",
						"key": "t_address",
						"label": "mapping(address => struct Twitter.Tweet[])",
						"numberOfBytes": "32",
						"value": "t_array(t_struct(Tweet)27_storage)dyn_storage"
					},
					"t_mapping(t_address,t_bool)": {
						"encoding": "mapping",
						"key": "t_address",
						"label": "mapping(address => bool)",
						"numberOfBytes": "32",
						"value": "t_bool"
					},
					"t_string_storage": {
						"encoding": "bytes",
						"label": "string",
						"numberOfBytes": "32"
					},
					"t_struct(Tweet)27_storage": {
						"encoding": "inplace",
						"label": "struct Twitter.Tweet",
						"members": [
							{
								"astId": 14,
								"contract": "contracts/twitter/Twitter.sol:Twitter",
								"label": "id",
								"offset": 0,
								"slot": "0",
								"type": "t_uint256"
							},
							{
								"astId": 16,
								"contract": "contracts/twitter/Twitter.sol:Twitter",
								"label": "author",
								"offset": 0,
								"slot": "1",
								"type": "t_address"
							},
							{
								"astId": 18,
								"contract": "contracts/twitter/Twitter.sol:Twitter",
								"label": "content",
								"offset": 0,
								"slot": "2",
								"type": "t_string_storage"
							},
							{
								"astId": 20,
								"contract": "contracts/twitter/Twitter.sol:Twitter",
								"label": "timestamp",
								"offset": 0,
								"slot": "3",
								"type": "t_uint256"
							},
							{
								"astId": 22,
								"contract": "contracts/twitter/Twitter.sol:Twitter",
								"label": "likeCount",
								"offset": 0,
								"slot": "4",
								"type": "t_uint256"
							},
							{
								"astId": 26,
								"contract": "contracts/twitter/Twitter.sol:Twitter",
								"label": "likedBy",
								"offset": 0,
								"slot": "5",
								"type": "t_mapping(t_address,t_bool)"
							}
						],
						"numberOfBytes": "192"
					},
					"t_uint256": {
						"encoding": "inplace",
						"label": "uint256",
						"numberOfBytes": "32"
					},
					"t_uint8": {
						"encoding": "inplace",
						"label": "uint8",
						"numberOfBytes": "1"
					}
				}
			},
			"userdoc": {
				"kind": "user",
				"methods": {},
				"version": 1
			}
		}
	}
}